{
  "contractName": "ChlChallengesMarketPlace",
  "abi": [
    {
      "inputs": [
        {
          "internalType": "address",
          "name": "_ChlAddress",
          "type": "address"
        },
        {
          "internalType": "address",
          "name": "_ChallengeChlNFTAddress",
          "type": "address"
        }
      ],
      "stateMutability": "nonpayable",
      "type": "constructor"
    },
    {
      "anonymous": false,
      "inputs": [
        {
          "indexed": false,
          "internalType": "uint256",
          "name": "id",
          "type": "uint256"
        },
        {
          "indexed": false,
          "internalType": "address",
          "name": "seller",
          "type": "address"
        },
        {
          "indexed": false,
          "internalType": "address",
          "name": "owner",
          "type": "address"
        },
        {
          "indexed": false,
          "internalType": "uint256",
          "name": "price",
          "type": "uint256"
        }
      ],
      "name": "ChallengeNFTListed",
      "type": "event"
    },
    {
      "anonymous": false,
      "inputs": [
        {
          "indexed": false,
          "internalType": "uint256",
          "name": "id",
          "type": "uint256"
        },
        {
          "indexed": false,
          "internalType": "address",
          "name": "seller",
          "type": "address"
        },
        {
          "indexed": false,
          "internalType": "address",
          "name": "owner",
          "type": "address"
        },
        {
          "indexed": false,
          "internalType": "uint256",
          "name": "price",
          "type": "uint256"
        }
      ],
      "name": "ChallengeNFTSold",
      "type": "event"
    },
    {
      "anonymous": false,
      "inputs": [
        {
          "indexed": true,
          "internalType": "address",
          "name": "previousOwner",
          "type": "address"
        },
        {
          "indexed": true,
          "internalType": "address",
          "name": "newOwner",
          "type": "address"
        }
      ],
      "name": "OwnershipTransferred",
      "type": "event"
    },
    {
      "inputs": [],
      "name": "ChallengeChlNFT",
      "outputs": [
        {
          "internalType": "contract IERC721",
          "name": "",
          "type": "address"
        }
      ],
      "stateMutability": "view",
      "type": "function"
    },
    {
      "inputs": [],
      "name": "Chl",
      "outputs": [
        {
          "internalType": "contract IERC20",
          "name": "",
          "type": "address"
        }
      ],
      "stateMutability": "view",
      "type": "function"
    },
    {
      "inputs": [],
      "name": "LISTING_CHLCHAIN_FEE",
      "outputs": [
        {
          "internalType": "uint256",
          "name": "",
          "type": "uint256"
        }
      ],
      "stateMutability": "view",
      "type": "function"
    },
    {
      "inputs": [],
      "name": "owner",
      "outputs": [
        {
          "internalType": "address",
          "name": "",
          "type": "address"
        }
      ],
      "stateMutability": "view",
      "type": "function"
    },
    {
      "inputs": [],
      "name": "renounceOwnership",
      "outputs": [],
      "stateMutability": "nonpayable",
      "type": "function"
    },
    {
      "inputs": [
        {
          "internalType": "address",
          "name": "newOwner",
          "type": "address"
        }
      ],
      "name": "transferOwnership",
      "outputs": [],
      "stateMutability": "nonpayable",
      "type": "function"
    },
    {
      "inputs": [],
      "name": "getListingFee",
      "outputs": [
        {
          "internalType": "uint256",
          "name": "",
          "type": "uint256"
        }
      ],
      "stateMutability": "view",
      "type": "function"
    },
    {
      "inputs": [],
      "name": "getListedChallengesNfts",
      "outputs": [
        {
          "components": [
            {
              "internalType": "uint256",
              "name": "id",
              "type": "uint256"
            },
            {
              "internalType": "address payable",
              "name": "seller",
              "type": "address"
            },
            {
              "internalType": "address payable",
              "name": "owner",
              "type": "address"
            },
            {
              "internalType": "uint256",
              "name": "price",
              "type": "uint256"
            },
            {
              "internalType": "bool",
              "name": "listed",
              "type": "bool"
            }
          ],
          "internalType": "struct ChlChallengesMarketPlace.ChallengeNFT[]",
          "name": "",
          "type": "tuple[]"
        }
      ],
      "stateMutability": "view",
      "type": "function"
    },
    {
      "inputs": [],
      "name": "getMyChallengesNfts",
      "outputs": [
        {
          "components": [
            {
              "internalType": "uint256",
              "name": "id",
              "type": "uint256"
            },
            {
              "internalType": "address payable",
              "name": "seller",
              "type": "address"
            },
            {
              "internalType": "address payable",
              "name": "owner",
              "type": "address"
            },
            {
              "internalType": "uint256",
              "name": "price",
              "type": "uint256"
            },
            {
              "internalType": "bool",
              "name": "listed",
              "type": "bool"
            }
          ],
          "internalType": "struct ChlChallengesMarketPlace.ChallengeNFT[]",
          "name": "",
          "type": "tuple[]"
        }
      ],
      "stateMutability": "view",
      "type": "function"
    },
    {
      "inputs": [],
      "name": "getMyListedChallengesNfts",
      "outputs": [
        {
          "components": [
            {
              "internalType": "uint256",
              "name": "id",
              "type": "uint256"
            },
            {
              "internalType": "address payable",
              "name": "seller",
              "type": "address"
            },
            {
              "internalType": "address payable",
              "name": "owner",
              "type": "address"
            },
            {
              "internalType": "uint256",
              "name": "price",
              "type": "uint256"
            },
            {
              "internalType": "bool",
              "name": "listed",
              "type": "bool"
            }
          ],
          "internalType": "struct ChlChallengesMarketPlace.ChallengeNFT[]",
          "name": "",
          "type": "tuple[]"
        }
      ],
      "stateMutability": "view",
      "type": "function"
    },
    {
      "inputs": [
        {
          "internalType": "uint256",
          "name": "_tokenId",
          "type": "uint256"
        },
        {
          "internalType": "uint256",
          "name": "_price",
          "type": "uint256"
        }
      ],
      "name": "listChallengeNft",
      "outputs": [],
      "stateMutability": "payable",
      "type": "function"
    },
    {
      "inputs": [
        {
          "internalType": "uint256",
          "name": "_tokenId",
          "type": "uint256"
        }
      ],
      "name": "buyChallengeResultNft",
      "outputs": [],
      "stateMutability": "payable",
      "type": "function"
    },
    {
      "inputs": [
        {
          "internalType": "uint256",
          "name": "_tokenId",
          "type": "uint256"
        },
        {
          "internalType": "uint256",
          "name": "_price",
          "type": "uint256"
        }
      ],
      "name": "resellChallengeResultNft",
      "outputs": [],
      "stateMutability": "payable",
      "type": "function"
    }
  ],
  "bytecode": "0x6080604052655af3107a40006006553480156200001b57600080fd5b50604051620021fb380380620021fb83398181016040528101906200004191906200022b565b6001600081905550620000696200005d620000f360201b60201c565b620000fb60201b60201c565b81600460006101000a81548173ffffffffffffffffffffffffffffffffffffffff021916908373ffffffffffffffffffffffffffffffffffffffff16021790555080600560006101000a81548173ffffffffffffffffffffffffffffffffffffffff021916908373ffffffffffffffffffffffffffffffffffffffff160217905550505062000272565b600033905090565b6000600160009054906101000a900473ffffffffffffffffffffffffffffffffffffffff16905081600160006101000a81548173ffffffffffffffffffffffffffffffffffffffff021916908373ffffffffffffffffffffffffffffffffffffffff1602179055508173ffffffffffffffffffffffffffffffffffffffff168173ffffffffffffffffffffffffffffffffffffffff167f8be0079c531659141344cd1fd0a4f28419497f9722a3daafe3b4186f6b6457e060405160405180910390a35050565b600080fd5b600073ffffffffffffffffffffffffffffffffffffffff82169050919050565b6000620001f382620001c6565b9050919050565b6200020581620001e6565b81146200021157600080fd5b50565b6000815190506200022581620001fa565b92915050565b60008060408385031215620002455762000244620001c1565b5b6000620002558582860162000214565b9250506020620002688582860162000214565b9150509250929050565b611f7980620002826000396000f3fe6080604052600436106100c25760003560e01c80638da5cb5b1161007f578063a3b0a5b111610059578063a3b0a5b114610209578063b8fe6abe14610234578063f2fde38b1461025f578063fca2901614610288576100c2565b80638da5cb5b146101975780638e629322146101c2578063909eac5b146101ed576100c2565b80631ae1b339146100c757806323c36689146100f25780635324376a1461010e57806356adc93f14610139578063715018a614610164578063823231af1461017b575b600080fd5b3480156100d357600080fd5b506100dc6102b3565b6040516100e991906116fb565b60405180910390f35b61010c6004803603810190610107919061174e565b610590565b005b34801561011a57600080fd5b50610123610827565b604051610130919061178a565b60405180910390f35b34801561014557600080fd5b5061014e61082d565b60405161015b9190611804565b60405180910390f35b34801561017057600080fd5b50610179610853565b005b6101956004803603810190610190919061181f565b610867565b005b3480156101a357600080fd5b506101ac610a9e565b6040516101b99190611880565b60405180910390f35b3480156101ce57600080fd5b506101d7610ac8565b6040516101e491906118bc565b60405180910390f35b6102076004803603810190610202919061181f565b610aee565b005b34801561021557600080fd5b5061021e610cff565b60405161022b91906116fb565b60405180910390f35b34801561024057600080fd5b50610249610f11565b604051610256919061178a565b60405180910390f35b34801561026b57600080fd5b5061028660048036038101906102819190611903565b610f1b565b005b34801561029457600080fd5b5061029d610f9e565b6040516102aa91906116fb565b60405180910390f35b606060006102c160036112ed565b90506000805b82811015610366573373ffffffffffffffffffffffffffffffffffffffff16600760006001846102f7919061195f565b815260200190815260200160002060020160009054906101000a900473ffffffffffffffffffffffffffffffffffffffff1673ffffffffffffffffffffffffffffffffffffffff160361035357818061034f90611993565b9250505b808061035e90611993565b9150506102c7565b5060008167ffffffffffffffff811115610383576103826119db565b5b6040519080825280602002602001820160405280156103bc57816020015b6103a9611512565b8152602001906001900390816103a15790505b5090506000805b84811015610585573373ffffffffffffffffffffffffffffffffffffffff16600760006001846103f3919061195f565b815260200190815260200160002060020160009054906101000a900473ffffffffffffffffffffffffffffffffffffffff1673ffffffffffffffffffffffffffffffffffffffff16036105725760076000600183610451919061195f565b81526020019081526020016000206040518060a0016040529081600082015481526020016001820160009054906101000a900473ffffffffffffffffffffffffffffffffffffffff1673ffffffffffffffffffffffffffffffffffffffff1673ffffffffffffffffffffffffffffffffffffffff1681526020016002820160009054906101000a900473ffffffffffffffffffffffffffffffffffffffff1673ffffffffffffffffffffffffffffffffffffffff1673ffffffffffffffffffffffffffffffffffffffff168152602001600382015481526020016004820160009054906101000a900460ff16151515158152505083838151811061055857610557611a0a565b5b6020026020010181905250818061056e90611993565b9250505b808061057d90611993565b9150506103c3565b508194505050505090565b6105986112fb565b600060076000838152602001908152602001600020905080600301543410156105f6576040517f08c379a00000000000000000000000000000000000000000000000000000000081526004016105ed90611abc565b60405180910390fd5b60003390508160010160009054906101000a900473ffffffffffffffffffffffffffffffffffffffff1673ffffffffffffffffffffffffffffffffffffffff166108fc349081150290604051600060405180830381858888f19350505050158015610665573d6000803e3d6000fd5b50600560009054906101000a900473ffffffffffffffffffffffffffffffffffffffff1673ffffffffffffffffffffffffffffffffffffffff166323b872dd308385600001546040518463ffffffff1660e01b81526004016106c993929190611afd565b600060405180830381600087803b1580156106e357600080fd5b505af11580156106f7573d6000803e3d6000fd5b50505050610703610a9e565b73ffffffffffffffffffffffffffffffffffffffff166108fc6006549081150290604051600060405180830381858888f1935050505015801561074a573d6000803e3d6000fd5b50808260020160006101000a81548173ffffffffffffffffffffffffffffffffffffffff021916908373ffffffffffffffffffffffffffffffffffffffff16021790555060008260040160006101000a81548160ff0219169083151502179055506107b5600261134a565b7f22cff799eb58806cf6129f22f4383878deffe2401b90f766d5bbb7fa352d3d1682600001548360010160009054906101000a900473ffffffffffffffffffffffffffffffffffffffff1683346040516108129493929190611b34565b60405180910390a15050610824611360565b50565b60065481565b600460009054906101000a900473ffffffffffffffffffffffffffffffffffffffff1681565b61085b61136a565b61086560006113e8565b565b61086f6112fb565b600081116108b2576040517f08c379a00000000000000000000000000000000000000000000000000000000081526004016108a990611bc5565b60405180910390fd5b60065434146108f6576040517f08c379a00000000000000000000000000000000000000000000000000000000081526004016108ed90611c31565b60405180910390fd5b600560009054906101000a900473ffffffffffffffffffffffffffffffffffffffff1673ffffffffffffffffffffffffffffffffffffffff166323b872dd3330856040518463ffffffff1660e01b815260040161095593929190611c51565b600060405180830381600087803b15801561096f57600080fd5b505af1158015610983573d6000803e3d6000fd5b505050506000600760008481526020019081526020016000209050338160010160006101000a81548173ffffffffffffffffffffffffffffffffffffffff021916908373ffffffffffffffffffffffffffffffffffffffff160217905550308160020160006101000a81548173ffffffffffffffffffffffffffffffffffffffff021916908373ffffffffffffffffffffffffffffffffffffffff16021790555060018160040160006101000a81548160ff021916908315150217905550818160030181905550610a5460026114ae565b7f88a4ae05841f8dc29a4a0faa67bf87aa0db07626fd0f47fec5b9b732add6729283333085604051610a899493929190611c88565b60405180910390a150610a9a611360565b5050565b6000600160009054906101000a900473ffffffffffffffffffffffffffffffffffffffff16905090565b600560009054906101000a900473ffffffffffffffffffffffffffffffffffffffff1681565b610af66112fb565b60008111610b39576040517f08c379a0000000000000000000000000000000000000000000000000000000008152600401610b3090611d19565b60405180910390fd5b600654341015610b7e576040517f08c379a0000000000000000000000000000000000000000000000000000000008152600401610b7590611c31565b60405180910390fd5b610b88600361134a565b6040518060a001604052808381526020013373ffffffffffffffffffffffffffffffffffffffff1681526020013073ffffffffffffffffffffffffffffffffffffffff16815260200182815260200160011515815250600760008481526020019081526020016000206000820151816000015560208201518160010160006101000a81548173ffffffffffffffffffffffffffffffffffffffff021916908373ffffffffffffffffffffffffffffffffffffffff16021790555060408201518160020160006101000a81548173ffffffffffffffffffffffffffffffffffffffff021916908373ffffffffffffffffffffffffffffffffffffffff1602179055506060820151816003015560808201518160040160006101000a81548160ff0219169083151502179055509050507f88a4ae05841f8dc29a4a0faa67bf87aa0db07626fd0f47fec5b9b732add6729282333084604051610ceb9493929190611c88565b60405180910390a1610cfb611360565b5050565b60606000610d0d60036112ed565b90506000610d1b60026112ed565b82610d269190611d39565b905060008167ffffffffffffffff811115610d4457610d436119db565b5b604051908082528060200260200182016040528015610d7d57816020015b610d6a611512565b815260200190600190039081610d625790505b5090506000805b84811015610f065760076000600183610d9d919061195f565b815260200190815260200160002060040160009054906101000a900460ff1615610ef35760076000600183610dd2919061195f565b81526020019081526020016000206040518060a0016040529081600082015481526020016001820160009054906101000a900473ffffffffffffffffffffffffffffffffffffffff1673ffffffffffffffffffffffffffffffffffffffff1673ffffffffffffffffffffffffffffffffffffffff1681526020016002820160009054906101000a900473ffffffffffffffffffffffffffffffffffffffff1673ffffffffffffffffffffffffffffffffffffffff1673ffffffffffffffffffffffffffffffffffffffff168152602001600382015481526020016004820160009054906101000a900460ff161515151581525050838381518110610ed957610ed8611a0a565b5b60200260200101819052508180610eef90611993565b9250505b8080610efe90611993565b915050610d84565b508194505050505090565b6000600654905090565b610f2361136a565b600073ffffffffffffffffffffffffffffffffffffffff168173ffffffffffffffffffffffffffffffffffffffff1603610f92576040517f08c379a0000000000000000000000000000000000000000000000000000000008152600401610f8990611ddf565b60405180910390fd5b610f9b816113e8565b50565b60606000610fac60036112ed565b90506000805b8281101561108a573373ffffffffffffffffffffffffffffffffffffffff1660076000600184610fe2919061195f565b815260200190815260200160002060010160009054906101000a900473ffffffffffffffffffffffffffffffffffffffff1673ffffffffffffffffffffffffffffffffffffffff16148015611063575060076000600183611043919061195f565b815260200190815260200160002060040160009054906101000a900460ff165b1561107757818061107390611993565b9250505b808061108290611993565b915050610fb2565b5060008167ffffffffffffffff8111156110a7576110a66119db565b5b6040519080825280602002602001820160405280156110e057816020015b6110cd611512565b8152602001906001900390816110c55790505b5090506000805b848110156112e2573373ffffffffffffffffffffffffffffffffffffffff1660076000600184611117919061195f565b815260200190815260200160002060010160009054906101000a900473ffffffffffffffffffffffffffffffffffffffff1673ffffffffffffffffffffffffffffffffffffffff16148015611198575060076000600183611178919061195f565b815260200190815260200160002060040160009054906101000a900460ff165b156112cf57600760006001836111ae919061195f565b81526020019081526020016000206040518060a0016040529081600082015481526020016001820160009054906101000a900473ffffffffffffffffffffffffffffffffffffffff1673ffffffffffffffffffffffffffffffffffffffff1673ffffffffffffffffffffffffffffffffffffffff1681526020016002820160009054906101000a900473ffffffffffffffffffffffffffffffffffffffff1673ffffffffffffffffffffffffffffffffffffffff1673ffffffffffffffffffffffffffffffffffffffff168152602001600382015481526020016004820160009054906101000a900460ff1615151515815250508383815181106112b5576112b4611a0a565b5b602002602001018190525081806112cb90611993565b9250505b80806112da90611993565b9150506110e7565b508194505050505090565b600081600001549050919050565b600260005403611340576040517f08c379a000000000000000000000000000000000000000000000000000000000815260040161133790611e4b565b60405180910390fd5b6002600081905550565b6001816000016000828254019250508190555050565b6001600081905550565b61137261150a565b73ffffffffffffffffffffffffffffffffffffffff16611390610a9e565b73ffffffffffffffffffffffffffffffffffffffff16146113e6576040517f08c379a00000000000000000000000000000000000000000000000000000000081526004016113dd90611eb7565b60405180910390fd5b565b6000600160009054906101000a900473ffffffffffffffffffffffffffffffffffffffff16905081600160006101000a81548173ffffffffffffffffffffffffffffffffffffffff021916908373ffffffffffffffffffffffffffffffffffffffff1602179055508173ffffffffffffffffffffffffffffffffffffffff168173ffffffffffffffffffffffffffffffffffffffff167f8be0079c531659141344cd1fd0a4f28419497f9722a3daafe3b4186f6b6457e060405160405180910390a35050565b600081600001549050600081116114fa576040517f08c379a00000000000000000000000000000000000000000000000000000000081526004016114f190611f23565b60405180910390fd5b6001810382600001819055505050565b600033905090565b6040518060a0016040528060008152602001600073ffffffffffffffffffffffffffffffffffffffff168152602001600073ffffffffffffffffffffffffffffffffffffffff168152602001600081526020016000151581525090565b600081519050919050565b600082825260208201905092915050565b6000819050602082019050919050565b6000819050919050565b6115ae8161159b565b82525050565b600073ffffffffffffffffffffffffffffffffffffffff82169050919050565b60006115df826115b4565b9050919050565b6115ef816115d4565b82525050565b60008115159050919050565b61160a816115f5565b82525050565b60a08201600082015161162660008501826115a5565b50602082015161163960208501826115e6565b50604082015161164c60408501826115e6565b50606082015161165f60608501826115a5565b5060808201516116726080850182611601565b50505050565b60006116848383611610565b60a08301905092915050565b6000602082019050919050565b60006116a88261156f565b6116b2818561157a565b93506116bd8361158b565b8060005b838110156116ee5781516116d58882611678565b97506116e083611690565b9250506001810190506116c1565b5085935050505092915050565b60006020820190508181036000830152611715818461169d565b905092915050565b600080fd5b61172b8161159b565b811461173657600080fd5b50565b60008135905061174881611722565b92915050565b6000602082840312156117645761176361171d565b5b600061177284828501611739565b91505092915050565b6117848161159b565b82525050565b600060208201905061179f600083018461177b565b92915050565b6000819050919050565b60006117ca6117c56117c0846115b4565b6117a5565b6115b4565b9050919050565b60006117dc826117af565b9050919050565b60006117ee826117d1565b9050919050565b6117fe816117e3565b82525050565b600060208201905061181960008301846117f5565b92915050565b600080604083850312156118365761183561171d565b5b600061184485828601611739565b925050602061185585828601611739565b9150509250929050565b600061186a826115b4565b9050919050565b61187a8161185f565b82525050565b60006020820190506118956000830184611871565b92915050565b60006118a6826117d1565b9050919050565b6118b68161189b565b82525050565b60006020820190506118d160008301846118ad565b92915050565b6118e08161185f565b81146118eb57600080fd5b50565b6000813590506118fd816118d7565b92915050565b6000602082840312156119195761191861171d565b5b6000611927848285016118ee565b91505092915050565b7f4e487b7100000000000000000000000000000000000000000000000000000000600052601160045260246000fd5b600061196a8261159b565b91506119758361159b565b925082820190508082111561198d5761198c611930565b5b92915050565b600061199e8261159b565b91507fffffffffffffffffffffffffffffffffffffffffffffffffffffffffffffffff82036119d0576119cf611930565b5b600182019050919050565b7f4e487b7100000000000000000000000000000000000000000000000000000000600052604160045260246000fd5b7f4e487b7100000000000000000000000000000000000000000000000000000000600052603260045260246000fd5b600082825260208201905092915050565b7f4e6f7420656e6f75676820657468657220746f20636f7665722061736b696e6760008201527f2070726963650000000000000000000000000000000000000000000000000000602082015250565b6000611aa6602683611a39565b9150611ab182611a4a565b604082019050919050565b60006020820190508181036000830152611ad581611a99565b9050919050565b6000611ae7826117d1565b9050919050565b611af781611adc565b82525050565b6000606082019050611b126000830186611871565b611b1f6020830185611aee565b611b2c604083018461177b565b949350505050565b6000608082019050611b49600083018761177b565b611b566020830186611aee565b611b636040830185611aee565b611b70606083018461177b565b95945050505050565b7f5072696365206d757374206265206174206c6561737420312077656900000000600082015250565b6000611baf601c83611a39565b9150611bba82611b79565b602082019050919050565b60006020820190508181036000830152611bde81611ba2565b9050919050565b7f4e6f7420656e6f75676820657468657220666f72206c697374696e6720666565600082015250565b6000611c1b602083611a39565b9150611c2682611be5565b602082019050919050565b60006020820190508181036000830152611c4a81611c0e565b9050919050565b6000606082019050611c666000830186611871565b611c736020830185611871565b611c80604083018461177b565b949350505050565b6000608082019050611c9d600083018761177b565b611caa6020830186611871565b611cb76040830185611871565b611cc4606083018461177b565b95945050505050565b7f5072696365206d757374206265206174206c6561737420312043686c00000000600082015250565b6000611d03601c83611a39565b9150611d0e82611ccd565b602082019050919050565b60006020820190508181036000830152611d3281611cf6565b9050919050565b6000611d448261159b565b9150611d4f8361159b565b9250828203905081811115611d6757611d66611930565b5b92915050565b7f4f776e61626c653a206e6577206f776e657220697320746865207a65726f206160008201527f6464726573730000000000000000000000000000000000000000000000000000602082015250565b6000611dc9602683611a39565b9150611dd482611d6d565b604082019050919050565b60006020820190508181036000830152611df881611dbc565b9050919050565b7f5265656e7472616e637947756172643a207265656e7472616e742063616c6c00600082015250565b6000611e35601f83611a39565b9150611e4082611dff565b602082019050919050565b60006020820190508181036000830152611e6481611e28565b9050919050565b7f4f776e61626c653a2063616c6c6572206973206e6f7420746865206f776e6572600082015250565b6000611ea1602083611a39565b9150611eac82611e6b565b602082019050919050565b60006020820190508181036000830152611ed081611e94565b9050919050565b7f436f756e7465723a2064656372656d656e74206f766572666c6f770000000000600082015250565b6000611f0d601b83611a39565b9150611f1882611ed7565b602082019050919050565b60006020820190508181036000830152611f3c81611f00565b905091905056fea26469706673582212205fdeda9408b34ccce8e75b1ca5c6b4fe19cb8a4637f0e3ec094e6ffd1fa6e57e64736f6c63430008130033",
  "immutableReferences": {},
  "source": "// SPDX-License-Identifier: GPL-3.0\npragma solidity 0.8.19;\n\nimport \"../node_modules/@openzeppelin/contracts/utils/Counters.sol\";\nimport \"../node_modules/@openzeppelin/contracts/token/ERC721/ERC721.sol\";\nimport \"../node_modules/@openzeppelin/contracts/token/ERC20/ERC20.sol\";\nimport \"../node_modules/@openzeppelin/contracts/security/ReentrancyGuard.sol\";\nimport \"../node_modules/@openzeppelin/contracts/access/Ownable.sol\";\n\n\n/// @title  ChlChallengesMarketPlace\n/// @author Saad Igueninni\n/// @notice Marketplace for NFT Challenges results\n/// @dev Inherits the OpenZepplin ReentrancyGuard Ownable contracts\n\ncontract ChlChallengesMarketPlace is ReentrancyGuard, Ownable {\n    using Counters for Counters.Counter;\n\n    Counters.Counter private _nftsChallengeSold;\n    Counters.Counter private _nftChallengeCount;\n\n    IERC20 public Chl;\n    IERC721 public ChallengeChlNFT;\n\n    uint256 public LISTING_CHLCHAIN_FEE = 0.0001 ether; // we keep ether as fees to have a stable fee\n\n    mapping(uint256 => ChallengeNFT) private _idToNFT; //Keep trace of listed NFT, actual owner and seller\n\n    struct ChallengeNFT {\n        uint256 id;\n        address payable seller;\n        address payable owner;\n        uint256 price;\n        bool listed;\n    }\n    event ChallengeNFTListed(\n        uint256 id,\n        address seller,\n        address owner, //current owner of contract\n        uint256 price\n    );\n    event ChallengeNFTSold(\n        uint256 id,\n        address seller,\n        address owner,\n        uint256 price\n    );\n\n    constructor(address _ChlAddress, address _ChallengeChlNFTAddress) {\n     \n         Chl = IERC20(_ChlAddress);\n        ChallengeChlNFT = IERC721(_ChallengeChlNFTAddress);\n    }\n\n    // ::::::::::::: MODIFIERS ::::::::::::: //\n\n    // ::::::::::::: GETTERS ::::::::::::: //\n    function getListingFee() public view returns (uint256) {\n        return LISTING_CHLCHAIN_FEE;\n    }\n\n    function getListedChallengesNfts() public view returns (ChallengeNFT[] memory) {\n        uint256 nftCount = _nftChallengeCount.current();\n        uint256 unsoldNftsCount = nftCount - _nftsChallengeSold.current();\n\n        ChallengeNFT[] memory ListedChallengesNfts = new ChallengeNFT[](unsoldNftsCount);\n        uint256 nftsIndex = 0;\n        for (uint256 i = 0; i < nftCount; i++) {\n            if (_idToNFT[i + 1].listed) {\n                ListedChallengesNfts[nftsIndex] = _idToNFT[i + 1];\n                nftsIndex++;\n            }\n        }\n        return ListedChallengesNfts;\n    }\n\n    function getMyChallengesNfts() public view returns (ChallengeNFT[] memory) {\n        uint256 nftCount = _nftChallengeCount.current();\n        uint256 myNftCount = 0;\n        for (uint256 i = 0; i < nftCount; i++) {\n            if (_idToNFT[i + 1].owner == msg.sender) {\n                myNftCount++;\n            }\n        }\n\n        ChallengeNFT[] memory MyNftsChallenge = new ChallengeNFT[](myNftCount);\n        uint256 nftsIndex = 0;\n        for (uint256 i = 0; i < nftCount; i++) {\n            if (_idToNFT[i + 1].owner == msg.sender) {\n                MyNftsChallenge[nftsIndex] = _idToNFT[i + 1];\n                nftsIndex++;\n            }\n        }\n        return MyNftsChallenge;\n    }\n\n    function getMyListedChallengesNfts() public view returns (ChallengeNFT[] memory) {\n        uint256 nftCount = _nftChallengeCount.current();\n        uint256 myListedNftCount = 0;\n        for (uint256 i = 0; i < nftCount; i++) {\n            if (\n                _idToNFT[i + 1].seller == msg.sender && _idToNFT[i + 1].listed\n            ) {\n                myListedNftCount++;\n            }\n        }\n\n        ChallengeNFT[] memory nfts = new ChallengeNFT[](myListedNftCount);\n        uint256 nftsIndex = 0;\n        for (uint256 i = 0; i < nftCount; i++) {\n            if (\n                _idToNFT[i + 1].seller == msg.sender && _idToNFT[i + 1].listed\n            ) {\n                nfts[nftsIndex] = _idToNFT[i + 1];\n                nftsIndex++;\n            }\n        }\n        return nfts;\n    }\n\n    // ::::::::::::: MARKETPLACE MANAGEMENT ::::::::::::: //\n\n    // List the NFT on the marketplace\n    function listChallengeNft(uint256 _tokenId, uint256 _price)\n        public\n        payable\n        nonReentrant\n    {\n        require(_price > 0, \"Price must be at least 1 Chl\");\n        require(\n            msg.value >= LISTING_CHLCHAIN_FEE,\n            \"Not enough ether for listing fee\"\n        );\n        //require tokenid est au statut Terminated!\n       // ChallengeChlNFT.transferFrom(msg.sender, address(this), _tokenId); \n       //We choose to  mint to Marketplace from the beginning because we have 2 NFTs, \n       //one represnting the Challenge and One for results of Challenge if to be listed\n\n        _nftChallengeCount.increment();\n\n        _idToNFT[_tokenId] = ChallengeNFT(\n            _tokenId,\n            payable(msg.sender),\n            payable(address(this)),\n            _price,\n            true\n        );\n\n        emit ChallengeNFTListed(_tokenId, msg.sender, address(this), _price);\n    }\n\n    // Buy a Challenge result\n    function buyChallengeResultNft(uint256 _tokenId) //address _nftContract, \n        public\n        payable\n        nonReentrant\n    {\n        ChallengeNFT storage nft = _idToNFT[_tokenId];\n        require(\n            msg.value >= nft.price,\n            \"Not enough ether to cover asking price\"\n        );\n\n        address payable buyer = payable(msg.sender);\n        payable(nft.seller).transfer(msg.value);\n        ChallengeChlNFT.transferFrom(address(this), buyer, nft.id);\n        payable(owner()).transfer(LISTING_CHLCHAIN_FEE);\n        nft.owner = buyer;\n        nft.listed = false;\n\n        _nftsChallengeSold.increment();\n        emit ChallengeNFTSold(nft.id, nft.seller, buyer, msg.value);\n    }\n\n    // Resell the Challenge results\n    function resellChallengeResultNft(\n       // address _nftContract,\n        uint256 _tokenId,\n        uint256 _price\n    ) public payable nonReentrant {\n        require(_price > 0, \"Price must be at least 1 wei\");\n        require(\n            msg.value == LISTING_CHLCHAIN_FEE,\n            \"Not enough ether for listing fee\"\n        );\n\n        ChallengeChlNFT.transferFrom(msg.sender, address(this), _tokenId);\n\n        ChallengeNFT storage nft = _idToNFT[_tokenId];\n        nft.seller = payable(msg.sender);\n        nft.owner = payable(address(this));\n        nft.listed = true;\n        nft.price = _price;\n\n        _nftsChallengeSold.decrement();\n        emit ChallengeNFTListed(_tokenId, msg.sender, address(this), _price);\n    }\n}\n",
  "sourcePath": "/home/saadi/coursAlyra/GoalTogeTher/truffle/contracts/ChlSurveysMarketPlace.sol",
  "compiler": {
    "name": "solc",
    "version": "0.8.19+commit.7dd6d404.Emscripten.clang"
  },
  "schemaVersion": "3.4.10",
  "updatedAt": "2023-07-23T04:48:45.617Z",
  "networkType": "ethereum",
  "devdoc": {
    "author": "Saad Igueninni",
    "details": "Inherits the OpenZepplin ReentrancyGuard Ownable contracts",
    "kind": "dev",
    "methods": {
      "owner()": {
        "details": "Returns the address of the current owner."
      },
      "renounceOwnership()": {
        "details": "Leaves the contract without owner. It will not be possible to call `onlyOwner` functions anymore. Can only be called by the current owner. NOTE: Renouncing ownership will leave the contract without an owner, thereby removing any functionality that is only available to the owner."
      },
      "transferOwnership(address)": {
        "details": "Transfers ownership of the contract to a new account (`newOwner`). Can only be called by the current owner."
      }
    },
    "title": "ChlChallengesMarketPlace",
    "version": 1
  },
  "userdoc": {
    "kind": "user",
    "methods": {},
    "notice": "Marketplace for NFT Challenges results",
    "version": 1
  }
}