{
  "contractName": "ChlChainChallengeNFT",
  "abi": [
    {
      "inputs": [],
      "stateMutability": "nonpayable",
      "type": "constructor"
    },
    {
      "anonymous": false,
      "inputs": [
        {
          "indexed": true,
          "internalType": "address",
          "name": "owner",
          "type": "address"
        },
        {
          "indexed": true,
          "internalType": "address",
          "name": "approved",
          "type": "address"
        },
        {
          "indexed": true,
          "internalType": "uint256",
          "name": "tokenId",
          "type": "uint256"
        }
      ],
      "name": "Approval",
      "type": "event"
    },
    {
      "anonymous": false,
      "inputs": [
        {
          "indexed": true,
          "internalType": "address",
          "name": "owner",
          "type": "address"
        },
        {
          "indexed": true,
          "internalType": "address",
          "name": "operator",
          "type": "address"
        },
        {
          "indexed": false,
          "internalType": "bool",
          "name": "approved",
          "type": "bool"
        }
      ],
      "name": "ApprovalForAll",
      "type": "event"
    },
    {
      "anonymous": false,
      "inputs": [
        {
          "indexed": false,
          "internalType": "address",
          "name": "_ownerChallenge",
          "type": "address"
        },
        {
          "indexed": false,
          "internalType": "uint256",
          "name": "_idChallenge",
          "type": "uint256"
        }
      ],
      "name": "ChallengeCreated",
      "type": "event"
    },
    {
      "anonymous": false,
      "inputs": [
        {
          "indexed": false,
          "internalType": "uint256",
          "name": "_idChallenge",
          "type": "uint256"
        }
      ],
      "name": "ChallengeDeleted",
      "type": "event"
    },
    {
      "anonymous": false,
      "inputs": [
        {
          "indexed": false,
          "internalType": "uint256",
          "name": "_idChallenge",
          "type": "uint256"
        }
      ],
      "name": "ChallengeNFTMinted",
      "type": "event"
    },
    {
      "anonymous": false,
      "inputs": [
        {
          "indexed": false,
          "internalType": "uint256",
          "name": "_idChallenge",
          "type": "uint256"
        }
      ],
      "name": "ChallengeTerminated",
      "type": "event"
    },
    {
      "anonymous": false,
      "inputs": [
        {
          "indexed": true,
          "internalType": "address",
          "name": "previousOwner",
          "type": "address"
        },
        {
          "indexed": true,
          "internalType": "address",
          "name": "newOwner",
          "type": "address"
        }
      ],
      "name": "OwnershipTransferred",
      "type": "event"
    },
    {
      "anonymous": false,
      "inputs": [
        {
          "indexed": true,
          "internalType": "address",
          "name": "from",
          "type": "address"
        },
        {
          "indexed": true,
          "internalType": "address",
          "name": "to",
          "type": "address"
        },
        {
          "indexed": true,
          "internalType": "uint256",
          "name": "tokenId",
          "type": "uint256"
        }
      ],
      "name": "Transfer",
      "type": "event"
    },
    {
      "anonymous": false,
      "inputs": [
        {
          "indexed": false,
          "internalType": "address",
          "name": "_ownerAnswer",
          "type": "address"
        },
        {
          "indexed": false,
          "internalType": "uint256",
          "name": "_idAnswer",
          "type": "uint256"
        },
        {
          "indexed": false,
          "internalType": "uint256",
          "name": "_idChallenge",
          "type": "uint256"
        },
        {
          "indexed": false,
          "internalType": "uint256",
          "name": "idQuestion",
          "type": "uint256"
        }
      ],
      "name": "answerGiven",
      "type": "event"
    },
    {
      "anonymous": false,
      "inputs": [
        {
          "indexed": false,
          "internalType": "uint256",
          "name": "_idQuestion",
          "type": "uint256"
        },
        {
          "indexed": false,
          "internalType": "uint256",
          "name": "_idChallenge",
          "type": "uint256"
        }
      ],
      "name": "questionAdded",
      "type": "event"
    },
    {
      "inputs": [],
      "name": "ChallengeUnitCost",
      "outputs": [
        {
          "internalType": "uint256",
          "name": "",
          "type": "uint256"
        }
      ],
      "stateMutability": "view",
      "type": "function"
    },
    {
      "inputs": [
        {
          "internalType": "address",
          "name": "to",
          "type": "address"
        },
        {
          "internalType": "uint256",
          "name": "tokenId",
          "type": "uint256"
        }
      ],
      "name": "approve",
      "outputs": [],
      "stateMutability": "nonpayable",
      "type": "function"
    },
    {
      "inputs": [
        {
          "internalType": "address",
          "name": "owner",
          "type": "address"
        }
      ],
      "name": "balanceOf",
      "outputs": [
        {
          "internalType": "uint256",
          "name": "",
          "type": "uint256"
        }
      ],
      "stateMutability": "view",
      "type": "function"
    },
    {
      "inputs": [
        {
          "internalType": "uint256",
          "name": "tokenId",
          "type": "uint256"
        }
      ],
      "name": "getApproved",
      "outputs": [
        {
          "internalType": "address",
          "name": "",
          "type": "address"
        }
      ],
      "stateMutability": "view",
      "type": "function"
    },
    {
      "inputs": [
        {
          "internalType": "address",
          "name": "owner",
          "type": "address"
        },
        {
          "internalType": "address",
          "name": "operator",
          "type": "address"
        }
      ],
      "name": "isApprovedForAll",
      "outputs": [
        {
          "internalType": "bool",
          "name": "",
          "type": "bool"
        }
      ],
      "stateMutability": "view",
      "type": "function"
    },
    {
      "inputs": [],
      "name": "name",
      "outputs": [
        {
          "internalType": "string",
          "name": "",
          "type": "string"
        }
      ],
      "stateMutability": "view",
      "type": "function"
    },
    {
      "inputs": [],
      "name": "owner",
      "outputs": [
        {
          "internalType": "address",
          "name": "",
          "type": "address"
        }
      ],
      "stateMutability": "view",
      "type": "function"
    },
    {
      "inputs": [
        {
          "internalType": "uint256",
          "name": "tokenId",
          "type": "uint256"
        }
      ],
      "name": "ownerOf",
      "outputs": [
        {
          "internalType": "address",
          "name": "",
          "type": "address"
        }
      ],
      "stateMutability": "view",
      "type": "function"
    },
    {
      "inputs": [],
      "name": "renounceOwnership",
      "outputs": [],
      "stateMutability": "nonpayable",
      "type": "function"
    },
    {
      "inputs": [
        {
          "internalType": "address",
          "name": "from",
          "type": "address"
        },
        {
          "internalType": "address",
          "name": "to",
          "type": "address"
        },
        {
          "internalType": "uint256",
          "name": "tokenId",
          "type": "uint256"
        }
      ],
      "name": "safeTransferFrom",
      "outputs": [],
      "stateMutability": "nonpayable",
      "type": "function"
    },
    {
      "inputs": [
        {
          "internalType": "address",
          "name": "from",
          "type": "address"
        },
        {
          "internalType": "address",
          "name": "to",
          "type": "address"
        },
        {
          "internalType": "uint256",
          "name": "tokenId",
          "type": "uint256"
        },
        {
          "internalType": "bytes",
          "name": "data",
          "type": "bytes"
        }
      ],
      "name": "safeTransferFrom",
      "outputs": [],
      "stateMutability": "nonpayable",
      "type": "function"
    },
    {
      "inputs": [
        {
          "internalType": "address",
          "name": "operator",
          "type": "address"
        },
        {
          "internalType": "bool",
          "name": "approved",
          "type": "bool"
        }
      ],
      "name": "setApprovalForAll",
      "outputs": [],
      "stateMutability": "nonpayable",
      "type": "function"
    },
    {
      "inputs": [
        {
          "internalType": "bytes4",
          "name": "interfaceId",
          "type": "bytes4"
        }
      ],
      "name": "supportsInterface",
      "outputs": [
        {
          "internalType": "bool",
          "name": "",
          "type": "bool"
        }
      ],
      "stateMutability": "view",
      "type": "function"
    },
    {
      "inputs": [],
      "name": "symbol",
      "outputs": [
        {
          "internalType": "string",
          "name": "",
          "type": "string"
        }
      ],
      "stateMutability": "view",
      "type": "function"
    },
    {
      "inputs": [
        {
          "internalType": "uint256",
          "name": "tokenId",
          "type": "uint256"
        }
      ],
      "name": "tokenURI",
      "outputs": [
        {
          "internalType": "string",
          "name": "",
          "type": "string"
        }
      ],
      "stateMutability": "view",
      "type": "function"
    },
    {
      "inputs": [
        {
          "internalType": "address",
          "name": "from",
          "type": "address"
        },
        {
          "internalType": "address",
          "name": "to",
          "type": "address"
        },
        {
          "internalType": "uint256",
          "name": "tokenId",
          "type": "uint256"
        }
      ],
      "name": "transferFrom",
      "outputs": [],
      "stateMutability": "nonpayable",
      "type": "function"
    },
    {
      "inputs": [
        {
          "internalType": "address",
          "name": "newOwner",
          "type": "address"
        }
      ],
      "name": "transferOwnership",
      "outputs": [],
      "stateMutability": "nonpayable",
      "type": "function"
    },
    {
      "inputs": [
        {
          "internalType": "uint256",
          "name": "_idChallenge",
          "type": "uint256"
        }
      ],
      "name": "getChallengeStatusById",
      "outputs": [
        {
          "internalType": "uint256",
          "name": "",
          "type": "uint256"
        }
      ],
      "stateMutability": "view",
      "type": "function"
    },
    {
      "inputs": [
        {
          "internalType": "uint256",
          "name": "_idChallenge",
          "type": "uint256"
        }
      ],
      "name": "getChallengeById",
      "outputs": [
        {
          "components": [
            {
              "internalType": "uint256",
              "name": "idChallenge",
              "type": "uint256"
            },
            {
              "internalType": "address",
              "name": "owner",
              "type": "address"
            },
            {
              "internalType": "string",
              "name": "description",
              "type": "string"
            },
            {
              "internalType": "enum ChlChainChallengeNFT.ChallengeStatus",
              "name": "ChallengeStatus",
              "type": "uint8"
            },
            {
              "internalType": "bool",
              "name": "exists",
              "type": "bool"
            },
            {
              "internalType": "bool",
              "name": "minted",
              "type": "bool"
            },
            {
              "internalType": "bool",
              "name": "listed",
              "type": "bool"
            }
          ],
          "internalType": "struct ChlChainChallengeNFT.Challenge",
          "name": "",
          "type": "tuple"
        }
      ],
      "stateMutability": "view",
      "type": "function"
    },
    {
      "inputs": [
        {
          "internalType": "address",
          "name": "_ownerChallenge",
          "type": "address"
        },
        {
          "internalType": "uint256",
          "name": "_idChallenge",
          "type": "uint256"
        }
      ],
      "name": "getChallengeByAddress",
      "outputs": [
        {
          "components": [
            {
              "internalType": "uint256",
              "name": "idChallenge",
              "type": "uint256"
            },
            {
              "internalType": "address",
              "name": "owner",
              "type": "address"
            },
            {
              "internalType": "string",
              "name": "description",
              "type": "string"
            },
            {
              "internalType": "enum ChlChainChallengeNFT.ChallengeStatus",
              "name": "ChallengeStatus",
              "type": "uint8"
            },
            {
              "internalType": "bool",
              "name": "exists",
              "type": "bool"
            },
            {
              "internalType": "bool",
              "name": "minted",
              "type": "bool"
            },
            {
              "internalType": "bool",
              "name": "listed",
              "type": "bool"
            }
          ],
          "internalType": "struct ChlChainChallengeNFT.Challenge",
          "name": "",
          "type": "tuple"
        }
      ],
      "stateMutability": "view",
      "type": "function"
    },
    {
      "inputs": [],
      "name": "getMyChallenges",
      "outputs": [
        {
          "components": [
            {
              "internalType": "uint256",
              "name": "idChallenge",
              "type": "uint256"
            },
            {
              "internalType": "address",
              "name": "owner",
              "type": "address"
            },
            {
              "internalType": "string",
              "name": "description",
              "type": "string"
            },
            {
              "internalType": "enum ChlChainChallengeNFT.ChallengeStatus",
              "name": "ChallengeStatus",
              "type": "uint8"
            },
            {
              "internalType": "bool",
              "name": "exists",
              "type": "bool"
            },
            {
              "internalType": "bool",
              "name": "minted",
              "type": "bool"
            },
            {
              "internalType": "bool",
              "name": "listed",
              "type": "bool"
            }
          ],
          "internalType": "struct ChlChainChallengeNFT.Challenge[]",
          "name": "",
          "type": "tuple[]"
        }
      ],
      "stateMutability": "view",
      "type": "function"
    },
    {
      "inputs": [
        {
          "internalType": "uint256",
          "name": "_idChallenge",
          "type": "uint256"
        }
      ],
      "name": "setChallengeListed",
      "outputs": [],
      "stateMutability": "nonpayable",
      "type": "function"
    },
    {
      "inputs": [
        {
          "internalType": "uint256",
          "name": "_idChallenge",
          "type": "uint256"
        },
        {
          "internalType": "address",
          "name": "_owner",
          "type": "address"
        }
      ],
      "name": "setChallengeOwner",
      "outputs": [],
      "stateMutability": "nonpayable",
      "type": "function"
    },
    {
      "inputs": [
        {
          "internalType": "address",
          "name": "_ownerChallenge",
          "type": "address"
        },
        {
          "internalType": "string",
          "name": "_description",
          "type": "string"
        }
      ],
      "name": "createChallenge",
      "outputs": [],
      "stateMutability": "nonpayable",
      "type": "function"
    },
    {
      "inputs": [
        {
          "internalType": "address",
          "name": "marketplaceContract",
          "type": "address"
        },
        {
          "internalType": "uint256",
          "name": "_idChallenge",
          "type": "uint256"
        }
      ],
      "name": "mintChallenge",
      "outputs": [],
      "stateMutability": "nonpayable",
      "type": "function"
    },
    {
      "inputs": [
        {
          "internalType": "uint256",
          "name": "_idChallenge",
          "type": "uint256"
        }
      ],
      "name": "terminateChallenge",
      "outputs": [],
      "stateMutability": "nonpayable",
      "type": "function"
    },
    {
      "inputs": [
        {
          "internalType": "uint256",
          "name": "_idChallenge",
          "type": "uint256"
        }
      ],
      "name": "deleteChallenge",
      "outputs": [],
      "stateMutability": "nonpayable",
      "type": "function"
    },
    {
      "inputs": [
        {
          "internalType": "uint256",
          "name": "_idChallenge",
          "type": "uint256"
        },
        {
          "internalType": "string",
          "name": "_question",
          "type": "string"
        }
      ],
      "name": "addQuestion",
      "outputs": [],
      "stateMutability": "nonpayable",
      "type": "function"
    },
    {
      "inputs": [
        {
          "internalType": "uint256",
          "name": "_idChallenge",
          "type": "uint256"
        },
        {
          "internalType": "uint256",
          "name": "_idQuestionAnswer",
          "type": "uint256"
        },
        {
          "internalType": "string",
          "name": "_answer",
          "type": "string"
        }
      ],
      "name": "giveAnswer",
      "outputs": [],
      "stateMutability": "nonpayable",
      "type": "function"
    }
  ],
  "bytecode": "0x60806040523480156200001157600080fd5b506040518060400160405280601181526020017f43686c436861696e4368616c6c656e67650000000000000000000000000000008152506040518060400160405280600381526020017f4f5053000000000000000000000000000000000000000000000000000000000081525081600090816200008f919062000412565b508060019081620000a1919062000412565b505050620000c4620000b8620000ca60201b60201c565b620000d260201b60201c565b620004f9565b600033905090565b6000600760009054906101000a900473ffffffffffffffffffffffffffffffffffffffff16905081600760006101000a81548173ffffffffffffffffffffffffffffffffffffffff021916908373ffffffffffffffffffffffffffffffffffffffff1602179055508173ffffffffffffffffffffffffffffffffffffffff168173ffffffffffffffffffffffffffffffffffffffff167f8be0079c531659141344cd1fd0a4f28419497f9722a3daafe3b4186f6b6457e060405160405180910390a35050565b600081519050919050565b7f4e487b7100000000000000000000000000000000000000000000000000000000600052604160045260246000fd5b7f4e487b7100000000000000000000000000000000000000000000000000000000600052602260045260246000fd5b600060028204905060018216806200021a57607f821691505b60208210810362000230576200022f620001d2565b5b50919050565b60008190508160005260206000209050919050565b60006020601f8301049050919050565b600082821b905092915050565b6000600883026200029a7fffffffffffffffffffffffffffffffffffffffffffffffffffffffffffffffff826200025b565b620002a686836200025b565b95508019841693508086168417925050509392505050565b6000819050919050565b6000819050919050565b6000620002f3620002ed620002e784620002be565b620002c8565b620002be565b9050919050565b6000819050919050565b6200030f83620002d2565b620003276200031e82620002fa565b84845462000268565b825550505050565b600090565b6200033e6200032f565b6200034b81848462000304565b505050565b5b8181101562000373576200036760008262000334565b60018101905062000351565b5050565b601f821115620003c2576200038c8162000236565b62000397846200024b565b81016020851015620003a7578190505b620003bf620003b6856200024b565b83018262000350565b50505b505050565b600082821c905092915050565b6000620003e760001984600802620003c7565b1980831691505092915050565b6000620004028383620003d4565b9150826002028217905092915050565b6200041d8262000198565b67ffffffffffffffff811115620004395762000438620001a3565b5b62000445825462000201565b6200045282828562000377565b600060209050601f8311600181146200048a576000841562000475578287015190505b620004818582620003f4565b865550620004f1565b601f1984166200049a8662000236565b60005b82811015620004c4578489015182556001820191506020850194506020810190506200049d565b86831015620004e45784890151620004e0601f891682620003d4565b8355505b6001600288020188555050505b505050505050565b6148b480620005096000396000f3fe608060405234801561001057600080fd5b50600436106101cf5760003560e01c8063715018a611610104578063a22cb465116100a2578063bbb00a5711610071578063bbb00a5714610514578063c87b56dd14610530578063e985e9c514610560578063f2fde38b14610590576101cf565b8063a22cb465146104a2578063a5f146da146104be578063b62edb21146104da578063b88d4fde146104f8576101cf565b80638b39549c116100de5780638b39549c146104065780638da5cb5b1461043657806392376e131461045457806395d89b4114610484576101cf565b8063715018a6146103c45780637f90dab8146103ce57806381907828146103ea576101cf565b806323b872dd11610171578063507939a51161014b578063507939a5146103185780635e704343146103345780636352211e1461036457806370a0823114610394576101cf565b806323b872dd146102c25780632c3bbd5f146102de57806342842e0e146102fc576101cf565b8063095ea7b3116101ad578063095ea7b3146102525780630a9a787a1461026e5780630e5866e21461028a57806311a5800d146102a6576101cf565b806301ffc9a7146101d457806306fdde0314610204578063081812fc14610222575b600080fd5b6101ee60048036038101906101e99190612f30565b6105ac565b6040516101fb9190612f78565b60405180910390f35b61020c61068e565b6040516102199190613023565b60405180910390f35b61023c6004803603810190610237919061307b565b610720565b60405161024991906130e9565b60405180910390f35b61026c60048036038101906102679190613130565b610766565b005b6102886004803603810190610283919061307b565b61087d565b005b6102a4600480360381019061029f9190613170565b61091d565b005b6102c060048036038101906102bb919061307b565b610976565b005b6102dc60048036038101906102d791906131b0565b610a55565b005b6102e6610ab5565b6040516102f39190613212565b60405180910390f35b610316600480360381019061031191906131b0565b610abb565b005b610332600480360381019061032d919061307b565b610adb565b005b61034e60048036038101906103499190613130565b610b0d565b60405161035b91906133b7565b60405180910390f35b61037e6004803603810190610379919061307b565b610d05565b60405161038b91906130e9565b60405180910390f35b6103ae60048036038101906103a991906133d9565b610d8b565b6040516103bb9190613212565b60405180910390f35b6103cc610e42565b005b6103e860048036038101906103e39190613130565b610e56565b005b61040460048036038101906103ff919061353b565b610fca565b005b610420600480360381019061041b919061307b565b611300565b60405161042d9190613212565b60405180910390f35b61043e61133f565b60405161044b91906130e9565b60405180910390f35b61046e6004803603810190610469919061307b565b611369565b60405161047b91906133b7565b60405180910390f35b61048c611514565b6040516104999190613023565b60405180910390f35b6104bc60048036038101906104b791906135c3565b6115a6565b005b6104d860048036038101906104d39190613603565b6115bc565b005b6104e26116fe565b6040516104ef91906137d0565b60405180910390f35b610512600480360381019061050d9190613893565b611918565b005b61052e60048036038101906105299190613916565b61197a565b005b61054a6004803603810190610545919061307b565b611a43565b6040516105579190613023565b60405180910390f35b61057a60048036038101906105759190613972565b611b55565b6040516105879190612f78565b60405180910390f35b6105aa60048036038101906105a591906133d9565b611be9565b005b60007f80ac58cd000000000000000000000000000000000000000000000000000000007bffffffffffffffffffffffffffffffffffffffffffffffffffffffff1916827bffffffffffffffffffffffffffffffffffffffffffffffffffffffff1916148061067757507f5b5e139f000000000000000000000000000000000000000000000000000000007bffffffffffffffffffffffffffffffffffffffffffffffffffffffff1916827bffffffffffffffffffffffffffffffffffffffffffffffffffffffff1916145b80610687575061068682611c6c565b5b9050919050565b60606000805461069d906139e1565b80601f01602080910402602001604051908101604052809291908181526020018280546106c9906139e1565b80156107165780601f106106eb57610100808354040283529160200191610716565b820191906000526020600020905b8154815290600101906020018083116106f957829003601f168201915b5050505050905090565b600061072b82611cd6565b6004600083815260200190815260200160002060009054906101000a900473ffffffffffffffffffffffffffffffffffffffff169050919050565b600061077182610d05565b90508073ffffffffffffffffffffffffffffffffffffffff168373ffffffffffffffffffffffffffffffffffffffff16036107e1576040517f08c379a00000000000000000000000000000000000000000000000000000000081526004016107d890613a84565b60405180910390fd5b8073ffffffffffffffffffffffffffffffffffffffff16610800611d21565b73ffffffffffffffffffffffffffffffffffffffff16148061082f575061082e81610829611d21565b611b55565b5b61086e576040517f08c379a000000000000000000000000000000000000000000000000000000000815260040161086590613b16565b60405180910390fd5b6108788383611d29565b505050565b6000600181111561089157610890613295565b5b61089a82611300565b146108da576040517f08c379a00000000000000000000000000000000000000000000000000000000081526004016108d190613b82565b60405180910390fd5b6108e381611de2565b7f3caa01cf7c5c583cc7fa55bcf947992a8eb3793147f04c8359443a4201036c9b816040516109129190613212565b60405180910390a150565b80600b600084815260200190815260200160002060010160006101000a81548173ffffffffffffffffffffffffffffffffffffffff021916908373ffffffffffffffffffffffffffffffffffffffff1602179055505050565b600b60008281526020019081526020016000206000808201600090556001820160006101000a81549073ffffffffffffffffffffffffffffffffffffffff02191690556002820160006109c99190612dfc565b6003820160006101000a81549060ff02191690556003820160016101000a81549060ff02191690556003820160026101000a81549060ff02191690556003820160036101000a81549060ff021916905550507f3634596e4e000073bb0d932cc30db6d8e93bc7ee56f244a032fce06c0bcb242181604051610a4a9190613212565b60405180910390a150565b610a66610a60611d21565b82611ec0565b610aa5576040517f08c379a0000000000000000000000000000000000000000000000000000000008152600401610a9c90613c14565b60405180910390fd5b610ab0838383611f55565b505050565b6101f481565b610ad683838360405180602001604052806000815250611918565b505050565b6001600b600083815260200190815260200160002060030160036101000a81548160ff02191690831515021790555050565b610b15612e3c565b600c60008473ffffffffffffffffffffffffffffffffffffffff1673ffffffffffffffffffffffffffffffffffffffff1681526020019081526020016000208281548110610b6657610b65613c34565b5b90600052602060002090600402016040518060e0016040529081600082015481526020016001820160009054906101000a900473ffffffffffffffffffffffffffffffffffffffff1673ffffffffffffffffffffffffffffffffffffffff1673ffffffffffffffffffffffffffffffffffffffff168152602001600282018054610bef906139e1565b80601f0160208091040260200160405190810160405280929190818152602001828054610c1b906139e1565b8015610c685780601f10610c3d57610100808354040283529160200191610c68565b820191906000526020600020905b815481529060010190602001808311610c4b57829003601f168201915b505050505081526020016003820160009054906101000a900460ff166001811115610c9657610c95613295565b5b6001811115610ca857610ca7613295565b5b81526020016003820160019054906101000a900460ff161515151581526020016003820160029054906101000a900460ff161515151581526020016003820160039054906101000a900460ff161515151581525050905092915050565b600080610d118361224e565b9050600073ffffffffffffffffffffffffffffffffffffffff168173ffffffffffffffffffffffffffffffffffffffff1603610d82576040517f08c379a0000000000000000000000000000000000000000000000000000000008152600401610d7990613caf565b60405180910390fd5b80915050919050565b60008073ffffffffffffffffffffffffffffffffffffffff168273ffffffffffffffffffffffffffffffffffffffff1603610dfb576040517f08c379a0000000000000000000000000000000000000000000000000000000008152600401610df290613d41565b60405180910390fd5b600360008373ffffffffffffffffffffffffffffffffffffffff1673ffffffffffffffffffffffffffffffffffffffff168152602001908152602001600020549050919050565b610e4a61228b565b610e546000612309565b565b600180811115610e6957610e68613295565b5b610e7282611300565b14610eb2576040517f08c379a0000000000000000000000000000000000000000000000000000000008152600401610ea990613dad565b60405180910390fd5b6000600b600083815260200190815260200160002060010160009054906101000a900473ffffffffffffffffffffffffffffffffffffffff169050610ef783836123cf565b610f028360016115a6565b6001600b600084815260200190815260200160002060030160026101000a81548160ff0219169083151502179055506000610f3c836125ec565b9050600060405180608001604052806044815260200161483b60449139905060008183604051602001610f70929190613e2f565b6040516020818303038152906040529050610f8b85826126ba565b7f95dc57fe8a9e455b9a7022fb53362f8d8ae49e5f121d2632867d313e1d82312085604051610fba9190613212565b60405180910390a1505050505050565b6000610fd6600a612727565b9050610fe0612e3c565b6040518060e001604052808381526020018573ffffffffffffffffffffffffffffffffffffffff1681526020018481526020016000600181111561102757611026613295565b5b815260200160011515815260200160001515815260200160001515815250905080600b60008481526020019081526020016000206000820151816000015560208201518160010160006101000a81548173ffffffffffffffffffffffffffffffffffffffff021916908373ffffffffffffffffffffffffffffffffffffffff16021790555060408201518160020190816110c1919061400e565b5060608201518160030160006101000a81548160ff021916908360018111156110ed576110ec613295565b5b021790555060808201518160030160016101000a81548160ff02191690831515021790555060a08201518160030160026101000a81548160ff02191690831515021790555060c08201518160030160036101000a81548160ff021916908315150217905550905050600c60008573ffffffffffffffffffffffffffffffffffffffff1673ffffffffffffffffffffffffffffffffffffffff1681526020019081526020016000208190806001815401808255809150506001900390600052602060002090600402016000909190919091506000820151816000015560208201518160010160006101000a81548173ffffffffffffffffffffffffffffffffffffffff021916908373ffffffffffffffffffffffffffffffffffffffff1602179055506040820151816002019081611224919061400e565b5060608201518160030160006101000a81548160ff021916908360018111156112505761124f613295565b5b021790555060808201518160030160016101000a81548160ff02191690831515021790555060a08201518160030160026101000a81548160ff02191690831515021790555060c08201518160030160036101000a81548160ff02191690831515021790555050506112c1600a612735565b7f9f85484cc8fb25030d222fdcd51eb22a0f9b61069192af1dbfb3ff32b78b6d6784836040516112f29291906140e0565b60405180910390a150505050565b6000600b600083815260200190815260200160002060030160009054906101000a900460ff16600181111561133857611337613295565b5b9050919050565b6000600760009054906101000a900473ffffffffffffffffffffffffffffffffffffffff16905090565b611371612e3c565b600b60008381526020019081526020016000206040518060e0016040529081600082015481526020016001820160009054906101000a900473ffffffffffffffffffffffffffffffffffffffff1673ffffffffffffffffffffffffffffffffffffffff1673ffffffffffffffffffffffffffffffffffffffff1681526020016002820180546113ff906139e1565b80601f016020809104026020016040519081016040528092919081815260200182805461142b906139e1565b80156114785780601f1061144d57610100808354040283529160200191611478565b820191906000526020600020905b81548152906001019060200180831161145b57829003601f168201915b505050505081526020016003820160009054906101000a900460ff1660018111156114a6576114a5613295565b5b60018111156114b8576114b7613295565b5b81526020016003820160019054906101000a900460ff161515151581526020016003820160029054906101000a900460ff161515151581526020016003820160039054906101000a900460ff1615151515815250509050919050565b606060018054611523906139e1565b80601f016020809104026020016040519081016040528092919081815260200182805461154f906139e1565b801561159c5780601f106115715761010080835404028352916020019161159c565b820191906000526020600020905b81548152906001019060200180831161157f57829003601f168201915b5050505050905090565b6115b86115b1611d21565b838361274b565b5050565b60006115c86009612727565b9050600e6000858152602001908152602001600020600084815260200190815260200160002060405180606001604052803373ffffffffffffffffffffffffffffffffffffffff16815260200183815260200184815250908060018154018082558091505060019003906000526020600020906003020160009091909190915060008201518160000160006101000a81548173ffffffffffffffffffffffffffffffffffffffff021916908373ffffffffffffffffffffffffffffffffffffffff1602179055506020820151816001015560408201518160020190816116ae919061400e565b5050506116bb6009612735565b7fa3685256723dd35073588a74066bf06e4165e5ab7b0d4cab9561d4d382dbda6c338286866040516116f09493929190614109565b60405180910390a150505050565b6060600c60003373ffffffffffffffffffffffffffffffffffffffff1673ffffffffffffffffffffffffffffffffffffffff168152602001908152602001600020805480602002602001604051908101604052809291908181526020016000905b8282101561190f57838290600052602060002090600402016040518060e0016040529081600082015481526020016001820160009054906101000a900473ffffffffffffffffffffffffffffffffffffffff1673ffffffffffffffffffffffffffffffffffffffff1673ffffffffffffffffffffffffffffffffffffffff1681526020016002820180546117f2906139e1565b80601f016020809104026020016040519081016040528092919081815260200182805461181e906139e1565b801561186b5780601f106118405761010080835404028352916020019161186b565b820191906000526020600020905b81548152906001019060200180831161184e57829003601f168201915b505050505081526020016003820160009054906101000a900460ff16600181111561189957611898613295565b5b60018111156118ab576118aa613295565b5b81526020016003820160019054906101000a900460ff161515151581526020016003820160029054906101000a900460ff161515151581526020016003820160039054906101000a900460ff1615151515815250508152602001906001019061175f565b50505050905090565b611929611923611d21565b83611ec0565b611968576040517f08c379a000000000000000000000000000000000000000000000000000000000815260040161195f90613c14565b60405180910390fd5b611974848484846128b7565b50505050565b60006119866008612727565b9050600d600084815260200190815260200160002060405180604001604052808381526020018481525090806001815401808255809150506001900390600052602060002090600202016000909190919091506000820151816000015560208201518160010190816119f8919061400e565b505050611a056008612735565b7f4fe413162e240ea219c33f9324aad83929d30c1e92ec16e96c0c9f62649d9b598184604051611a3692919061414e565b60405180910390a1505050565b6060611a4e82611cd6565b6000600660008481526020019081526020016000208054611a6e906139e1565b80601f0160208091040260200160405190810160405280929190818152602001828054611a9a906139e1565b8015611ae75780601f10611abc57610100808354040283529160200191611ae7565b820191906000526020600020905b815481529060010190602001808311611aca57829003601f168201915b505050505090506000611af8612913565b90506000815103611b0d578192505050611b50565b600082511115611b42578082604051602001611b2a929190614177565b60405160208183030381529060405292505050611b50565b611b4b8461292a565b925050505b919050565b6000600560008473ffffffffffffffffffffffffffffffffffffffff1673ffffffffffffffffffffffffffffffffffffffff16815260200190815260200160002060008373ffffffffffffffffffffffffffffffffffffffff1673ffffffffffffffffffffffffffffffffffffffff16815260200190815260200160002060009054906101000a900460ff16905092915050565b611bf161228b565b600073ffffffffffffffffffffffffffffffffffffffff168173ffffffffffffffffffffffffffffffffffffffff1603611c60576040517f08c379a0000000000000000000000000000000000000000000000000000000008152600401611c579061420d565b60405180910390fd5b611c6981612309565b50565b60007f01ffc9a7000000000000000000000000000000000000000000000000000000007bffffffffffffffffffffffffffffffffffffffffffffffffffffffff1916827bffffffffffffffffffffffffffffffffffffffffffffffffffffffff1916149050919050565b611cdf81612992565b611d1e576040517f08c379a0000000000000000000000000000000000000000000000000000000008152600401611d1590613caf565b60405180910390fd5b50565b600033905090565b816004600083815260200190815260200160002060006101000a81548173ffffffffffffffffffffffffffffffffffffffff021916908373ffffffffffffffffffffffffffffffffffffffff160217905550808273ffffffffffffffffffffffffffffffffffffffff16611d9c83610d05565b73ffffffffffffffffffffffffffffffffffffffff167f8c5be1e5ebec7d5bd14f71427d1e84f3dd0314c0f7b2291e5b200ac8c7c3b92560405160405180910390a45050565b80600b600082815260200190815260200160002060030160019054906101000a900460ff16611e46576040517f08c379a0000000000000000000000000000000000000000000000000000000008152600401611e3d90614279565b60405180910390fd5b6001600b600084815260200190815260200160002060030160006101000a81548160ff02191690836001811115611e8057611e7f613295565b5b02179055507f3caa01cf7c5c583cc7fa55bcf947992a8eb3793147f04c8359443a4201036c9b82604051611eb49190613212565b60405180910390a15050565b600080611ecc83610d05565b90508073ffffffffffffffffffffffffffffffffffffffff168473ffffffffffffffffffffffffffffffffffffffff161480611f0e5750611f0d8185611b55565b5b80611f4c57508373ffffffffffffffffffffffffffffffffffffffff16611f3484610720565b73ffffffffffffffffffffffffffffffffffffffff16145b91505092915050565b8273ffffffffffffffffffffffffffffffffffffffff16611f7582610d05565b73ffffffffffffffffffffffffffffffffffffffff1614611fcb576040517f08c379a0000000000000000000000000000000000000000000000000000000008152600401611fc29061430b565b60405180910390fd5b600073ffffffffffffffffffffffffffffffffffffffff168273ffffffffffffffffffffffffffffffffffffffff160361203a576040517f08c379a00000000000000000000000000000000000000000000000000000000081526004016120319061439d565b60405180910390fd5b61204783838360016129d3565b8273ffffffffffffffffffffffffffffffffffffffff1661206782610d05565b73ffffffffffffffffffffffffffffffffffffffff16146120bd576040517f08c379a00000000000000000000000000000000000000000000000000000000081526004016120b49061430b565b60405180910390fd5b6004600082815260200190815260200160002060006101000a81549073ffffffffffffffffffffffffffffffffffffffff02191690556001600360008573ffffffffffffffffffffffffffffffffffffffff1673ffffffffffffffffffffffffffffffffffffffff168152602001908152602001600020600082825403925050819055506001600360008473ffffffffffffffffffffffffffffffffffffffff1673ffffffffffffffffffffffffffffffffffffffff16815260200190815260200160002060008282540192505081905550816002600083815260200190815260200160002060006101000a81548173ffffffffffffffffffffffffffffffffffffffff021916908373ffffffffffffffffffffffffffffffffffffffff160217905550808273ffffffffffffffffffffffffffffffffffffffff168473ffffffffffffffffffffffffffffffffffffffff167fddf252ad1be2c89b69c2b068fc378daa952ba7f163c4a11628f55a4df523b3ef60405160405180910390a46122498383836001612af9565b505050565b60006002600083815260200190815260200160002060009054906101000a900473ffffffffffffffffffffffffffffffffffffffff169050919050565b612293611d21565b73ffffffffffffffffffffffffffffffffffffffff166122b161133f565b73ffffffffffffffffffffffffffffffffffffffff1614612307576040517f08c379a00000000000000000000000000000000000000000000000000000000081526004016122fe90614409565b60405180910390fd5b565b6000600760009054906101000a900473ffffffffffffffffffffffffffffffffffffffff16905081600760006101000a81548173ffffffffffffffffffffffffffffffffffffffff021916908373ffffffffffffffffffffffffffffffffffffffff1602179055508173ffffffffffffffffffffffffffffffffffffffff168173ffffffffffffffffffffffffffffffffffffffff167f8be0079c531659141344cd1fd0a4f28419497f9722a3daafe3b4186f6b6457e060405160405180910390a35050565b600073ffffffffffffffffffffffffffffffffffffffff168273ffffffffffffffffffffffffffffffffffffffff160361243e576040517f08c379a000000000000000000000000000000000000000000000000000000000815260040161243590614475565b60405180910390fd5b61244781612992565b15612487576040517f08c379a000000000000000000000000000000000000000000000000000000000815260040161247e906144e1565b60405180910390fd5b6124956000838360016129d3565b61249e81612992565b156124de576040517f08c379a00000000000000000000000000000000000000000000000000000000081526004016124d5906144e1565b60405180910390fd5b6001600360008473ffffffffffffffffffffffffffffffffffffffff1673ffffffffffffffffffffffffffffffffffffffff16815260200190815260200160002060008282540192505081905550816002600083815260200190815260200160002060006101000a81548173ffffffffffffffffffffffffffffffffffffffff021916908373ffffffffffffffffffffffffffffffffffffffff160217905550808273ffffffffffffffffffffffffffffffffffffffff16600073ffffffffffffffffffffffffffffffffffffffff167fddf252ad1be2c89b69c2b068fc378daa952ba7f163c4a11628f55a4df523b3ef60405160405180910390a46125e8600083836001612af9565b5050565b6060600060016125fb84612aff565b01905060008167ffffffffffffffff81111561261a57612619613410565b5b6040519080825280601f01601f19166020018201604052801561264c5781602001600182028036833780820191505090505b509050600082602001820190505b6001156126af578080600190039150507f3031323334353637383961626364656600000000000000000000000000000000600a86061a8153600a85816126a3576126a2614501565b5b0494506000850361265a575b819350505050919050565b6126c382612992565b612702576040517f08c379a00000000000000000000000000000000000000000000000000000000081526004016126f9906145a2565b60405180910390fd5b80600660008481526020019081526020016000209081612722919061400e565b505050565b600081600001549050919050565b6001816000016000828254019250508190555050565b8173ffffffffffffffffffffffffffffffffffffffff168373ffffffffffffffffffffffffffffffffffffffff16036127b9576040517f08c379a00000000000000000000000000000000000000000000000000000000081526004016127b09061460e565b60405180910390fd5b80600560008573ffffffffffffffffffffffffffffffffffffffff1673ffffffffffffffffffffffffffffffffffffffff16815260200190815260200160002060008473ffffffffffffffffffffffffffffffffffffffff1673ffffffffffffffffffffffffffffffffffffffff16815260200190815260200160002060006101000a81548160ff0219169083151502179055508173ffffffffffffffffffffffffffffffffffffffff168373ffffffffffffffffffffffffffffffffffffffff167f17307eab39ab6107e8899845ad3d59bd9653f200f220920489ca2b5937696c31836040516128aa9190612f78565b60405180910390a3505050565b6128c2848484611f55565b6128ce84848484612c52565b61290d576040517f08c379a0000000000000000000000000000000000000000000000000000000008152600401612904906146a0565b60405180910390fd5b50505050565b606060405180602001604052806000815250905090565b606061293582611cd6565b600061293f612913565b9050600081511161295f576040518060200160405280600081525061298a565b80612969846125ec565b60405160200161297a929190614177565b6040516020818303038152906040525b915050919050565b60008073ffffffffffffffffffffffffffffffffffffffff166129b48361224e565b73ffffffffffffffffffffffffffffffffffffffff1614159050919050565b6001811115612af357600073ffffffffffffffffffffffffffffffffffffffff168473ffffffffffffffffffffffffffffffffffffffff1614612a675780600360008673ffffffffffffffffffffffffffffffffffffffff1673ffffffffffffffffffffffffffffffffffffffff1681526020019081526020016000206000828254612a5f91906146ef565b925050819055505b600073ffffffffffffffffffffffffffffffffffffffff168373ffffffffffffffffffffffffffffffffffffffff1614612af25780600360008573ffffffffffffffffffffffffffffffffffffffff1673ffffffffffffffffffffffffffffffffffffffff1681526020019081526020016000206000828254612aea9190614723565b925050819055505b5b50505050565b50505050565b600080600090507a184f03e93ff9f4daa797ed6e38ed64bf6a1f0100000000000000008310612b5d577a184f03e93ff9f4daa797ed6e38ed64bf6a1f0100000000000000008381612b5357612b52614501565b5b0492506040810190505b6d04ee2d6d415b85acef81000000008310612b9a576d04ee2d6d415b85acef81000000008381612b9057612b8f614501565b5b0492506020810190505b662386f26fc100008310612bc957662386f26fc100008381612bbf57612bbe614501565b5b0492506010810190505b6305f5e1008310612bf2576305f5e1008381612be857612be7614501565b5b0492506008810190505b6127108310612c17576127108381612c0d57612c0c614501565b5b0492506004810190505b60648310612c3a5760648381612c3057612c2f614501565b5b0492506002810190505b600a8310612c49576001810190505b80915050919050565b6000612c738473ffffffffffffffffffffffffffffffffffffffff16612dd9565b15612dcc578373ffffffffffffffffffffffffffffffffffffffff1663150b7a02612c9c611d21565b8786866040518563ffffffff1660e01b8152600401612cbe94939291906147ac565b6020604051808303816000875af1925050508015612cfa57506040513d601f19601f82011682018060405250810190612cf7919061480d565b60015b612d7c573d8060008114612d2a576040519150601f19603f3d011682016040523d82523d6000602084013e612d2f565b606091505b506000815103612d74576040517f08c379a0000000000000000000000000000000000000000000000000000000008152600401612d6b906146a0565b60405180910390fd5b805181602001fd5b63150b7a0260e01b7bffffffffffffffffffffffffffffffffffffffffffffffffffffffff1916817bffffffffffffffffffffffffffffffffffffffffffffffffffffffff191614915050612dd1565b600190505b949350505050565b6000808273ffffffffffffffffffffffffffffffffffffffff163b119050919050565b508054612e08906139e1565b6000825580601f10612e1a5750612e39565b601f016020900490600052602060002090810190612e389190612ea7565b5b50565b6040518060e0016040528060008152602001600073ffffffffffffffffffffffffffffffffffffffff1681526020016060815260200160006001811115612e8657612e85613295565b5b81526020016000151581526020016000151581526020016000151581525090565b5b80821115612ec0576000816000905550600101612ea8565b5090565b6000604051905090565b600080fd5b600080fd5b60007fffffffff0000000000000000000000000000000000000000000000000000000082169050919050565b612f0d81612ed8565b8114612f1857600080fd5b50565b600081359050612f2a81612f04565b92915050565b600060208284031215612f4657612f45612ece565b5b6000612f5484828501612f1b565b91505092915050565b60008115159050919050565b612f7281612f5d565b82525050565b6000602082019050612f8d6000830184612f69565b92915050565b600081519050919050565b600082825260208201905092915050565b60005b83811015612fcd578082015181840152602081019050612fb2565b60008484015250505050565b6000601f19601f8301169050919050565b6000612ff582612f93565b612fff8185612f9e565b935061300f818560208601612faf565b61301881612fd9565b840191505092915050565b6000602082019050818103600083015261303d8184612fea565b905092915050565b6000819050919050565b61305881613045565b811461306357600080fd5b50565b6000813590506130758161304f565b92915050565b60006020828403121561309157613090612ece565b5b600061309f84828501613066565b91505092915050565b600073ffffffffffffffffffffffffffffffffffffffff82169050919050565b60006130d3826130a8565b9050919050565b6130e3816130c8565b82525050565b60006020820190506130fe60008301846130da565b92915050565b61310d816130c8565b811461311857600080fd5b50565b60008135905061312a81613104565b92915050565b6000806040838503121561314757613146612ece565b5b60006131558582860161311b565b925050602061316685828601613066565b9150509250929050565b6000806040838503121561318757613186612ece565b5b600061319585828601613066565b92505060206131a68582860161311b565b9150509250929050565b6000806000606084860312156131c9576131c8612ece565b5b60006131d78682870161311b565b93505060206131e88682870161311b565b92505060406131f986828701613066565b9150509250925092565b61320c81613045565b82525050565b60006020820190506132276000830184613203565b92915050565b61323681613045565b82525050565b613245816130c8565b82525050565b600082825260208201905092915050565b600061326782612f93565b613271818561324b565b9350613281818560208601612faf565b61328a81612fd9565b840191505092915050565b7f4e487b7100000000000000000000000000000000000000000000000000000000600052602160045260246000fd5b600281106132d5576132d4613295565b5b50565b60008190506132e6826132c4565b919050565b60006132f6826132d8565b9050919050565b613306816132eb565b82525050565b61331581612f5d565b82525050565b600060e083016000830151613333600086018261322d565b506020830151613346602086018261323c565b506040830151848203604086015261335e828261325c565b915050606083015161337360608601826132fd565b506080830151613386608086018261330c565b5060a083015161339960a086018261330c565b5060c08301516133ac60c086018261330c565b508091505092915050565b600060208201905081810360008301526133d1818461331b565b905092915050565b6000602082840312156133ef576133ee612ece565b5b60006133fd8482850161311b565b91505092915050565b600080fd5b600080fd5b7f4e487b7100000000000000000000000000000000000000000000000000000000600052604160045260246000fd5b61344882612fd9565b810181811067ffffffffffffffff8211171561346757613466613410565b5b80604052505050565b600061347a612ec4565b9050613486828261343f565b919050565b600067ffffffffffffffff8211156134a6576134a5613410565b5b6134af82612fd9565b9050602081019050919050565b82818337600083830152505050565b60006134de6134d98461348b565b613470565b9050828152602081018484840111156134fa576134f961340b565b5b6135058482856134bc565b509392505050565b600082601f83011261352257613521613406565b5b81356135328482602086016134cb565b91505092915050565b6000806040838503121561355257613551612ece565b5b60006135608582860161311b565b925050602083013567ffffffffffffffff81111561358157613580612ed3565b5b61358d8582860161350d565b9150509250929050565b6135a081612f5d565b81146135ab57600080fd5b50565b6000813590506135bd81613597565b92915050565b600080604083850312156135da576135d9612ece565b5b60006135e88582860161311b565b92505060206135f9858286016135ae565b9150509250929050565b60008060006060848603121561361c5761361b612ece565b5b600061362a86828701613066565b935050602061363b86828701613066565b925050604084013567ffffffffffffffff81111561365c5761365b612ed3565b5b6136688682870161350d565b9150509250925092565b600081519050919050565b600082825260208201905092915050565b6000819050602082019050919050565b600060e0830160008301516136b6600086018261322d565b5060208301516136c9602086018261323c565b50604083015184820360408601526136e1828261325c565b91505060608301516136f660608601826132fd565b506080830151613709608086018261330c565b5060a083015161371c60a086018261330c565b5060c083015161372f60c086018261330c565b508091505092915050565b6000613746838361369e565b905092915050565b6000602082019050919050565b600061376682613672565b613770818561367d565b9350836020820285016137828561368e565b8060005b858110156137be578484038952815161379f858261373a565b94506137aa8361374e565b925060208a01995050600181019050613786565b50829750879550505050505092915050565b600060208201905081810360008301526137ea818461375b565b905092915050565b600067ffffffffffffffff82111561380d5761380c613410565b5b61381682612fd9565b9050602081019050919050565b6000613836613831846137f2565b613470565b9050828152602081018484840111156138525761385161340b565b5b61385d8482856134bc565b509392505050565b600082601f83011261387a57613879613406565b5b813561388a848260208601613823565b91505092915050565b600080600080608085870312156138ad576138ac612ece565b5b60006138bb8782880161311b565b94505060206138cc8782880161311b565b93505060406138dd87828801613066565b925050606085013567ffffffffffffffff8111156138fe576138fd612ed3565b5b61390a87828801613865565b91505092959194509250565b6000806040838503121561392d5761392c612ece565b5b600061393b85828601613066565b925050602083013567ffffffffffffffff81111561395c5761395b612ed3565b5b6139688582860161350d565b9150509250929050565b6000806040838503121561398957613988612ece565b5b60006139978582860161311b565b92505060206139a88582860161311b565b9150509250929050565b7f4e487b7100000000000000000000000000000000000000000000000000000000600052602260045260246000fd5b600060028204905060018216806139f957607f821691505b602082108103613a0c57613a0b6139b2565b5b50919050565b7f4552433732313a20617070726f76616c20746f2063757272656e74206f776e6560008201527f7200000000000000000000000000000000000000000000000000000000000000602082015250565b6000613a6e602183612f9e565b9150613a7982613a12565b604082019050919050565b60006020820190508181036000830152613a9d81613a61565b9050919050565b7f4552433732313a20617070726f76652063616c6c6572206973206e6f7420746f60008201527f6b656e206f776e6572206f7220617070726f76656420666f7220616c6c000000602082015250565b6000613b00603d83612f9e565b9150613b0b82613aa4565b604082019050919050565b60006020820190508181036000830152613b2f81613af3565b9050919050565b7f4368616c6c656e6765206e6f74206f6e476f696e672100000000000000000000600082015250565b6000613b6c601683612f9e565b9150613b7782613b36565b602082019050919050565b60006020820190508181036000830152613b9b81613b5f565b9050919050565b7f4552433732313a2063616c6c6572206973206e6f7420746f6b656e206f776e6560008201527f72206f7220617070726f76656400000000000000000000000000000000000000602082015250565b6000613bfe602d83612f9e565b9150613c0982613ba2565b604082019050919050565b60006020820190508181036000830152613c2d81613bf1565b9050919050565b7f4e487b7100000000000000000000000000000000000000000000000000000000600052603260045260246000fd5b7f4552433732313a20696e76616c696420746f6b656e2049440000000000000000600082015250565b6000613c99601883612f9e565b9150613ca482613c63565b602082019050919050565b60006020820190508181036000830152613cc881613c8c565b9050919050565b7f4552433732313a2061646472657373207a65726f206973206e6f74206120766160008201527f6c6964206f776e65720000000000000000000000000000000000000000000000602082015250565b6000613d2b602983612f9e565b9150613d3682613ccf565b604082019050919050565b60006020820190508181036000830152613d5a81613d1e565b9050919050565b7f4368616c6c656e6765206e6f74207465726d696e617465640000000000000000600082015250565b6000613d97601883612f9e565b9150613da282613d61565b602082019050919050565b60006020820190508181036000830152613dc681613d8a565b9050919050565b600081905092915050565b6000613de382612f93565b613ded8185613dcd565b9350613dfd818560208601612faf565b80840191505092915050565b7f2e6a736f6e000000000000000000000000000000000000000000000000000000815250565b6000613e3b8285613dd8565b9150613e478284613dd8565b9150613e5282613e09565b6005820191508190509392505050565b60008190508160005260206000209050919050565b60006020601f8301049050919050565b600082821b905092915050565b600060088302613ec47fffffffffffffffffffffffffffffffffffffffffffffffffffffffffffffffff82613e87565b613ece8683613e87565b95508019841693508086168417925050509392505050565b6000819050919050565b6000613f0b613f06613f0184613045565b613ee6565b613045565b9050919050565b6000819050919050565b613f2583613ef0565b613f39613f3182613f12565b848454613e94565b825550505050565b600090565b613f4e613f41565b613f59818484613f1c565b505050565b5b81811015613f7d57613f72600082613f46565b600181019050613f5f565b5050565b601f821115613fc257613f9381613e62565b613f9c84613e77565b81016020851015613fab578190505b613fbf613fb785613e77565b830182613f5e565b50505b505050565b600082821c905092915050565b6000613fe560001984600802613fc7565b1980831691505092915050565b6000613ffe8383613fd4565b9150826002028217905092915050565b61401782612f93565b67ffffffffffffffff8111156140305761402f613410565b5b61403a82546139e1565b614045828285613f81565b600060209050601f8311600181146140785760008415614066578287015190505b6140708582613ff2565b8655506140d8565b601f19841661408686613e62565b60005b828110156140ae57848901518255600182019150602085019450602081019050614089565b868310156140cb57848901516140c7601f891682613fd4565b8355505b6001600288020188555050505b505050505050565b60006040820190506140f560008301856130da565b6141026020830184613203565b9392505050565b600060808201905061411e60008301876130da565b61412b6020830186613203565b6141386040830185613203565b6141456060830184613203565b95945050505050565b60006040820190506141636000830185613203565b6141706020830184613203565b9392505050565b60006141838285613dd8565b915061418f8284613dd8565b91508190509392505050565b7f4f776e61626c653a206e6577206f776e657220697320746865207a65726f206160008201527f6464726573730000000000000000000000000000000000000000000000000000602082015250565b60006141f7602683612f9e565b91506142028261419b565b604082019050919050565b60006020820190508181036000830152614226816141ea565b9050919050565b7f4368616c6c656e676520646f206e6f7420657869737473000000000000000000600082015250565b6000614263601783612f9e565b915061426e8261422d565b602082019050919050565b6000602082019050818103600083015261429281614256565b9050919050565b7f4552433732313a207472616e736665722066726f6d20696e636f72726563742060008201527f6f776e6572000000000000000000000000000000000000000000000000000000602082015250565b60006142f5602583612f9e565b915061430082614299565b604082019050919050565b60006020820190508181036000830152614324816142e8565b9050919050565b7f4552433732313a207472616e7366657220746f20746865207a65726f2061646460008201527f7265737300000000000000000000000000000000000000000000000000000000602082015250565b6000614387602483612f9e565b91506143928261432b565b604082019050919050565b600060208201905081810360008301526143b68161437a565b9050919050565b7f4f776e61626c653a2063616c6c6572206973206e6f7420746865206f776e6572600082015250565b60006143f3602083612f9e565b91506143fe826143bd565b602082019050919050565b60006020820190508181036000830152614422816143e6565b9050919050565b7f4552433732313a206d696e7420746f20746865207a65726f2061646472657373600082015250565b600061445f602083612f9e565b915061446a82614429565b602082019050919050565b6000602082019050818103600083015261448e81614452565b9050919050565b7f4552433732313a20746f6b656e20616c7265616479206d696e74656400000000600082015250565b60006144cb601c83612f9e565b91506144d682614495565b602082019050919050565b600060208201905081810360008301526144fa816144be565b9050919050565b7f4e487b7100000000000000000000000000000000000000000000000000000000600052601260045260246000fd5b7f45524337323155524953746f726167653a2055524920736574206f66206e6f6e60008201527f6578697374656e7420746f6b656e000000000000000000000000000000000000602082015250565b600061458c602e83612f9e565b915061459782614530565b604082019050919050565b600060208201905081810360008301526145bb8161457f565b9050919050565b7f4552433732313a20617070726f766520746f2063616c6c657200000000000000600082015250565b60006145f8601983612f9e565b9150614603826145c2565b602082019050919050565b60006020820190508181036000830152614627816145eb565b9050919050565b7f4552433732313a207472616e7366657220746f206e6f6e20455243373231526560008201527f63656976657220696d706c656d656e7465720000000000000000000000000000602082015250565b600061468a603283612f9e565b91506146958261462e565b604082019050919050565b600060208201905081810360008301526146b98161467d565b9050919050565b7f4e487b7100000000000000000000000000000000000000000000000000000000600052601160045260246000fd5b60006146fa82613045565b915061470583613045565b925082820390508181111561471d5761471c6146c0565b5b92915050565b600061472e82613045565b915061473983613045565b9250828201905080821115614751576147506146c0565b5b92915050565b600081519050919050565b600082825260208201905092915050565b600061477e82614757565b6147888185614762565b9350614798818560208601612faf565b6147a181612fd9565b840191505092915050565b60006080820190506147c160008301876130da565b6147ce60208301866130da565b6147db6040830185613203565b81810360608301526147ed8184614773565b905095945050505050565b60008151905061480781612f04565b92915050565b60006020828403121561482357614822612ece565b5b6000614831848285016147f8565b9150509291505056fe68747470733a2f2f697066732e696f2f697066732f516d5571444575785134676d7039395a7145665152646e72683459736e45416a686944726555787759434775786f2fa2646970667358221220f7eb3a8cf20914f5957f8fa985ae8c5786652eb3e33e4d79c3fc728961e5185264736f6c63430008130033",
  "immutableReferences": {},
  "source": "// SPDX-License-Identifier: GPL-3.0\npragma solidity 0.8.19;\n\nimport \"../node_modules/@openzeppelin/contracts/token/ERC721/extensions/ERC721URIStorage.sol\";\nimport \"../node_modules/@openzeppelin/contracts/token/ERC20/IERC20.sol\";\nimport \"../node_modules/@openzeppelin/contracts/token/ERC20/IERC20.sol\";\nimport \"../node_modules/@openzeppelin/contracts/utils/Counters.sol\";\nimport \"../node_modules/@openzeppelin/contracts/access/Ownable.sol\";\nimport \"../node_modules/@openzeppelin/contracts/utils/Strings.sol\";\n\n//Interface ChlChainSBT\n/*interface ChlChainSBT {\n    function isSounder(address _profileAddress) external view returns (bool);\n    function isChallengeed(address _profileAddress) external view returns (bool);\n}*/\n\n/// @title  ChlChain Challenge NFT\n/// @author Saad Igueninni\n/// @notice ERC721 NFT associated to on Challenge\n/// @dev Inherits the OpenZepplin Ownable ,ERC721URIStorage,Counters & Strings contracts\ncontract ChlChainChallengeNFT is ERC721URIStorage, Ownable {\n    using Counters for Counters.Counter;\n\n    Counters.Counter private _idQuestion;\n    Counters.Counter private _idAnswer;\n    Counters.Counter private _idChallengeNFT;\n\n    enum ChallengeStatus {\n        OnGoing,\n        Terminated\n    }\n\n    struct Question {\n        uint256 idQuestion;\n        string textQuestion;\n    }\n\n    struct Answer {\n        address ownerAnswer;\n        uint256 idAnswer;\n        string textAnswer;\n    }\n\n    struct Challenge {\n        uint256 idChallenge;\n        address owner;\n        string description;\n        ChallengeStatus ChallengeStatus;\n        bool exists;\n        bool minted;\n        bool listed;\n    }\n\n    mapping(uint256 => Challenge) idToChallenges;\n    //mapping(uint256 => address) idToOwner;\n    mapping(address => Challenge[]) addressToChallenges;\n    // mapping( uint => Answer[])  questionToAnswers;\n    mapping(uint256 => Question[]) ChallengeToQuestion;\n    mapping(uint256 => mapping(uint256 => Answer[])) ChallengeToQuestionToAnswer;\n\n    uint256 public constant ChallengeUnitCost = 500;\n    //address marketplaceContract;\n    // ChlChainSBT sbtContract;\n    IERC20 Chl;\n\n    event ChallengeCreated(address _ownerChallenge, uint256 _idChallenge);\n    event ChallengeTerminated(uint256 _idChallenge);\n    event ChallengeDeleted(uint256 _idChallenge);\n    event ChallengeNFTMinted(uint256 _idChallenge);\n    event questionAdded(uint256 _idQuestion, uint256 _idChallenge);\n    event answerGiven(\n        address _ownerAnswer,\n        uint256 _idAnswer,\n        uint256 _idChallenge,\n        uint256 idQuestion\n    );\n\n    //constructor(address _marketplaceContract, address _ChlChainSBTAddress,address _ChlAddress)\n    constructor() ERC721(\"ChlChainChallenge\", \"OPS\") {\n        //marketplaceContract = _marketplaceContract;\n        // sbtContract = ChlChainSBT(_ChlChainSBTAddress);\n        // Chl = IERC20(_ChlAddress);\n    }\n\n    // ::::::::::::: MODIFIERS ::::::::::::: //\n    modifier ChallengeExist(uint256 _idChallenge) {\n        require(idToChallenges[_idChallenge].exists, \"Challenge do not exists\");\n        _;\n    }\n\n    /* modifier onlySounders() {\n        require(sbtContract.isSounder(msg.sender), \"You are not a sounder\");\n        _;\n    }\n\n    modifier onlyChallengeeds() {\n        require(sbtContract.isChallengeed(msg.sender), \"You are not a Challengeed\");\n        _;\n    }*/\n\n    // ::::::::::::: GETTERS ::::::::::::: //\n    function getChallengeStatusById(uint256 _idChallenge)\n        public\n        view\n        returns (uint256)\n    {\n        return (uint256(idToChallenges[_idChallenge].ChallengeStatus));\n    }\n\n    function getChallengeById(uint256 _idChallenge)\n        public\n        view\n        returns (Challenge memory)\n    {\n        return idToChallenges[_idChallenge];\n    }\n\n    function getChallengeByAddress(address _ownerChallenge, uint256 _idChallenge)\n        public\n        view\n        returns (Challenge memory)\n    {\n        return addressToChallenges[_ownerChallenge][_idChallenge];\n    }\n\n    function getMyChallenges()\n        public\n        view\n        returns ( Challenge[] memory)\n    {\n        return addressToChallenges[msg.sender];\n    }\n\n    // ::::::::::::: SETTERS ::::::::::::: //\n    /// @notice Terminate Challenge\n    /// @dev We check non existence of Challenge\n    /// @param _idChallenge Id of ChallengeNFT result\n    function setChallengeTerminated(uint256 _idChallenge)\n        internal\n        ChallengeExist(_idChallenge)\n    {\n        idToChallenges[_idChallenge].ChallengeStatus = ChallengeStatus.Terminated;\n       // addressToChallenges[msg.sender][_idChallenge].ChallengeStatus = ChallengeStatus.Terminated;\n        //Check if we need the mapping\n        emit ChallengeTerminated(_idChallenge);\n    }\n\n    /// @notice change Flag listed\n    /// @param _idChallenge Id of ChallengeNFT result\n    function setChallengeListed(uint256 _idChallenge) external {\n        idToChallenges[_idChallenge].listed = true;\n    //    addressToChallenges[msg.sender][_idChallenge].listed = true;\n    }\n\n    function setChallengeOwner(uint256 _idChallenge, address _owner) external {\n        idToChallenges[_idChallenge].owner = _owner;\n     //   addressToChallenges[msg.sender][_idChallenge].owner = _owner;\n    }\n\n    // ::::::::::::: ChallengeS HANDLING ::::::::::::: //\n\n    /// @notice Create a Challenge\n    /// @dev We check non existence of Challenge and check Balance of Chls to be able to create Challenges\n    /// @param _ownerChallenge owner of ChallengeNFT result\n    /// @param _description description\n    function createChallenge(address _ownerChallenge, string memory _description)\n        external\n    {\n        //require assez de balance\n        uint256 newIdChallenge = _idChallengeNFT.current();\n        Challenge memory NewChallenge;\n        NewChallenge = Challenge(\n            newIdChallenge,\n            _ownerChallenge,\n            _description,\n            ChallengeStatus.OnGoing,\n            true,\n            false,\n            false\n        );\n\n        //Update mapping\n        idToChallenges[newIdChallenge] = NewChallenge;\n        addressToChallenges[_ownerChallenge].push(NewChallenge);\n        _idChallengeNFT.increment();\n        emit ChallengeCreated(_ownerChallenge, newIdChallenge);\n    }\n\n    /// @notice Mint a Challenge\n    /// @dev Mint only when in status Terminated\n    /// @param _idChallenge id of ChallengeNFT result\n    function mintChallenge(address marketplaceContract, uint256 _idChallenge)\n        external\n    {\n        require(\n            getChallengeStatusById(_idChallenge) == uint256(ChallengeStatus.Terminated),\n            \"Challenge not terminated\"\n        );\n\n        address _ownerChallenge;\n\n        //setApprovalForAll(marketplaceContract, true); //Give approval to marketplace\n        _ownerChallenge = idToChallenges[_idChallenge].owner;\n        _mint(marketplaceContract, _idChallenge);\n        setApprovalForAll(marketplaceContract, true);\n        idToChallenges[_idChallenge].minted = true;\n        \n        //addressToChallenges[_ownerChallenge][_idChallenge].minted = true;\n\n        string memory urinumber = Strings.toString(_idChallenge);\n        string\n            memory tokenURI = \"https://ipfs.io/ipfs/QmUqDEuxQ4gmp99ZqEfQRdnrh4YsnEAjhiDreUxwYCGuxo/\"; //To change by CID of !!\n        string memory _Uri = string.concat(tokenURI, urinumber, \".json\");\n\n        _setTokenURI(_idChallenge, _Uri);\n\n        emit ChallengeNFTMinted(_idChallenge);\n    }\n\n    /// @notice Terminate a Challenge\n    /// @dev only Terminated Challenges can be minted\n    /// @param _idChallenge id of ChallengeNFT result\n    function terminateChallenge(\n        uint256 _idChallenge //onlyChallengeeds\n    ) external {\n        require(\n            getChallengeStatusById(_idChallenge) == uint256(ChallengeStatus.OnGoing),\n            \"Challenge not onGoing!\"\n        );\n        setChallengeTerminated(_idChallenge);\n        emit ChallengeTerminated(_idChallenge);\n    }\n\n    function deleteChallenge(uint256 _idChallenge) external {\n        delete idToChallenges[_idChallenge];\n        emit ChallengeDeleted(_idChallenge);\n    }\n\n    // ::::::::::::: QUESTIONS MANAGEMENT ::::::::::::: //\n\n    /// @notice Add a question\n    /// @dev Only Challengeeds can add a question\n    /// @param _idChallenge id of ChallengeNFT result\n    /// @param _question txt of question\n    function addQuestion(uint256 _idChallenge, string memory _question)\n        external\n    //onlyChallengeeds\n    {\n        uint256 newIdQuestion = _idQuestion.current();\n        ChallengeToQuestion[_idChallenge].push(Question(newIdQuestion, _question));\n        _idQuestion.increment();\n        emit questionAdded(newIdQuestion, _idChallenge);\n    }\n\n    // ::::::::::::: ANSWERS MANAGEMENT ::::::::::::: //\n\n    /// @notice Give answer\n    /// @dev Only Sounders can answer\n    /// @param _idChallenge id of ChallengeNFT result\n    /// @param _answer txt of answer\n    function giveAnswer(\n        uint256 _idChallenge,\n        uint256 _idQuestionAnswer,\n        string memory _answer //onlySounders\n    ) external {\n        uint256 newIdAnswer = _idAnswer.current();\n        ChallengeToQuestionToAnswer[_idChallenge][_idQuestionAnswer].push(\n            Answer(msg.sender, newIdAnswer, _answer)\n        );\n        _idAnswer.increment();\n        emit answerGiven(msg.sender, newIdAnswer, _idChallenge, _idQuestionAnswer);\n    }\n\n    //reveal_results -> une fois TERMINATED , & vendu on peut reveal.\n\n    // ::::::::::::: OVVERIDES ::::::::::::: //\n}\n",
  "sourcePath": "/home/saadi/coursAlyra/GoalTogeTher/truffle/contracts/ChlChallengeNFT.sol",
  "compiler": {
    "name": "solc",
    "version": "0.8.19+commit.7dd6d404.Emscripten.clang"
  },
  "schemaVersion": "3.4.10",
  "updatedAt": "2023-07-22T15:29:45.494Z",
  "devdoc": {
    "author": "Saad Igueninni",
    "details": "Inherits the OpenZepplin Ownable ,ERC721URIStorage,Counters & Strings contracts",
    "events": {
      "Approval(address,address,uint256)": {
        "details": "Emitted when `owner` enables `approved` to manage the `tokenId` token."
      },
      "ApprovalForAll(address,address,bool)": {
        "details": "Emitted when `owner` enables or disables (`approved`) `operator` to manage all of its assets."
      },
      "Transfer(address,address,uint256)": {
        "details": "Emitted when `tokenId` token is transferred from `from` to `to`."
      }
    },
    "kind": "dev",
    "methods": {
      "addQuestion(uint256,string)": {
        "details": "Only Challengeeds can add a question",
        "params": {
          "_idChallenge": "id of ChallengeNFT result",
          "_question": "txt of question"
        }
      },
      "approve(address,uint256)": {
        "details": "See {IERC721-approve}."
      },
      "balanceOf(address)": {
        "details": "See {IERC721-balanceOf}."
      },
      "createChallenge(address,string)": {
        "details": "We check non existence of Challenge and check Balance of Chls to be able to create Challenges",
        "params": {
          "_description": "description",
          "_ownerChallenge": "owner of ChallengeNFT result"
        }
      },
      "getApproved(uint256)": {
        "details": "See {IERC721-getApproved}."
      },
      "giveAnswer(uint256,uint256,string)": {
        "details": "Only Sounders can answer",
        "params": {
          "_answer": "txt of answer",
          "_idChallenge": "id of ChallengeNFT result"
        }
      },
      "isApprovedForAll(address,address)": {
        "details": "See {IERC721-isApprovedForAll}."
      },
      "mintChallenge(address,uint256)": {
        "details": "Mint only when in status Terminated",
        "params": {
          "_idChallenge": "id of ChallengeNFT result"
        }
      },
      "name()": {
        "details": "See {IERC721Metadata-name}."
      },
      "owner()": {
        "details": "Returns the address of the current owner."
      },
      "ownerOf(uint256)": {
        "details": "See {IERC721-ownerOf}."
      },
      "renounceOwnership()": {
        "details": "Leaves the contract without owner. It will not be possible to call `onlyOwner` functions anymore. Can only be called by the current owner. NOTE: Renouncing ownership will leave the contract without an owner, thereby removing any functionality that is only available to the owner."
      },
      "safeTransferFrom(address,address,uint256)": {
        "details": "See {IERC721-safeTransferFrom}."
      },
      "safeTransferFrom(address,address,uint256,bytes)": {
        "details": "See {IERC721-safeTransferFrom}."
      },
      "setApprovalForAll(address,bool)": {
        "details": "See {IERC721-setApprovalForAll}."
      },
      "setChallengeListed(uint256)": {
        "params": {
          "_idChallenge": "Id of ChallengeNFT result"
        }
      },
      "supportsInterface(bytes4)": {
        "details": "See {IERC165-supportsInterface}."
      },
      "symbol()": {
        "details": "See {IERC721Metadata-symbol}."
      },
      "terminateChallenge(uint256)": {
        "details": "only Terminated Challenges can be minted",
        "params": {
          "_idChallenge": "id of ChallengeNFT result"
        }
      },
      "tokenURI(uint256)": {
        "details": "See {IERC721Metadata-tokenURI}."
      },
      "transferFrom(address,address,uint256)": {
        "details": "See {IERC721-transferFrom}."
      },
      "transferOwnership(address)": {
        "details": "Transfers ownership of the contract to a new account (`newOwner`). Can only be called by the current owner."
      }
    },
    "title": "ChlChain Challenge NFT",
    "version": 1
  },
  "userdoc": {
    "kind": "user",
    "methods": {
      "addQuestion(uint256,string)": {
        "notice": "Add a question"
      },
      "createChallenge(address,string)": {
        "notice": "Create a Challenge"
      },
      "giveAnswer(uint256,uint256,string)": {
        "notice": "Give answer"
      },
      "mintChallenge(address,uint256)": {
        "notice": "Mint a Challenge"
      },
      "setChallengeListed(uint256)": {
        "notice": "change Flag listed"
      },
      "terminateChallenge(uint256)": {
        "notice": "Terminate a Challenge"
      }
    },
    "notice": "ERC721 NFT associated to on Challenge",
    "version": 1
  }
}