{
  "contractName": "ChlChainSBT",
  "abi": [
    {
      "inputs": [],
      "stateMutability": "nonpayable",
      "type": "constructor"
    },
    {
      "anonymous": false,
      "inputs": [
        {
          "indexed": true,
          "internalType": "address",
          "name": "owner",
          "type": "address"
        },
        {
          "indexed": true,
          "internalType": "address",
          "name": "approved",
          "type": "address"
        },
        {
          "indexed": true,
          "internalType": "uint256",
          "name": "tokenId",
          "type": "uint256"
        }
      ],
      "name": "Approval",
      "type": "event"
    },
    {
      "anonymous": false,
      "inputs": [
        {
          "indexed": true,
          "internalType": "address",
          "name": "owner",
          "type": "address"
        },
        {
          "indexed": true,
          "internalType": "address",
          "name": "operator",
          "type": "address"
        },
        {
          "indexed": false,
          "internalType": "bool",
          "name": "approved",
          "type": "bool"
        }
      ],
      "name": "ApprovalForAll",
      "type": "event"
    },
    {
      "anonymous": false,
      "inputs": [
        {
          "indexed": true,
          "internalType": "address",
          "name": "previousOwner",
          "type": "address"
        },
        {
          "indexed": true,
          "internalType": "address",
          "name": "newOwner",
          "type": "address"
        }
      ],
      "name": "OwnershipTransferred",
      "type": "event"
    },
    {
      "anonymous": false,
      "inputs": [
        {
          "indexed": true,
          "internalType": "address",
          "name": "from",
          "type": "address"
        },
        {
          "indexed": true,
          "internalType": "address",
          "name": "to",
          "type": "address"
        },
        {
          "indexed": true,
          "internalType": "uint256",
          "name": "tokenId",
          "type": "uint256"
        }
      ],
      "name": "Transfer",
      "type": "event"
    },
    {
      "anonymous": false,
      "inputs": [
        {
          "components": [
            {
              "internalType": "uint256",
              "name": "ChlIdCounter",
              "type": "uint256"
            },
            {
              "internalType": "string",
              "name": "name",
              "type": "string"
            },
            {
              "internalType": "enum ChlChainSBT.Gender",
              "name": "gender",
              "type": "uint8"
            },
            {
              "internalType": "uint256",
              "name": "age",
              "type": "uint256"
            },
            {
              "internalType": "enum ChlChainSBT.Role",
              "name": "role",
              "type": "uint8"
            },
            {
              "internalType": "bool",
              "name": "isChlIdGranted",
              "type": "bool"
            }
          ],
          "indexed": false,
          "internalType": "struct ChlChainSBT.ChlProfile",
          "name": "_newChlProfile",
          "type": "tuple"
        }
      ],
      "name": "grantedChlID",
      "type": "event"
    },
    {
      "anonymous": false,
      "inputs": [
        {
          "indexed": false,
          "internalType": "address",
          "name": "_profileAddress",
          "type": "address"
        }
      ],
      "name": "revokedChlID",
      "type": "event"
    },
    {
      "anonymous": false,
      "inputs": [
        {
          "indexed": false,
          "internalType": "address",
          "name": "_profileAddress",
          "type": "address"
        }
      ],
      "name": "updatedChlID",
      "type": "event"
    },
    {
      "inputs": [
        {
          "internalType": "address",
          "name": "to",
          "type": "address"
        },
        {
          "internalType": "uint256",
          "name": "tokenId",
          "type": "uint256"
        }
      ],
      "name": "approve",
      "outputs": [],
      "stateMutability": "nonpayable",
      "type": "function"
    },
    {
      "inputs": [
        {
          "internalType": "address",
          "name": "owner",
          "type": "address"
        }
      ],
      "name": "balanceOf",
      "outputs": [
        {
          "internalType": "uint256",
          "name": "",
          "type": "uint256"
        }
      ],
      "stateMutability": "view",
      "type": "function"
    },
    {
      "inputs": [
        {
          "internalType": "uint256",
          "name": "tokenId",
          "type": "uint256"
        }
      ],
      "name": "getApproved",
      "outputs": [
        {
          "internalType": "address",
          "name": "",
          "type": "address"
        }
      ],
      "stateMutability": "view",
      "type": "function"
    },
    {
      "inputs": [
        {
          "internalType": "address",
          "name": "owner",
          "type": "address"
        },
        {
          "internalType": "address",
          "name": "operator",
          "type": "address"
        }
      ],
      "name": "isApprovedForAll",
      "outputs": [
        {
          "internalType": "bool",
          "name": "",
          "type": "bool"
        }
      ],
      "stateMutability": "view",
      "type": "function"
    },
    {
      "inputs": [],
      "name": "name",
      "outputs": [
        {
          "internalType": "string",
          "name": "",
          "type": "string"
        }
      ],
      "stateMutability": "view",
      "type": "function"
    },
    {
      "inputs": [],
      "name": "owner",
      "outputs": [
        {
          "internalType": "address",
          "name": "",
          "type": "address"
        }
      ],
      "stateMutability": "view",
      "type": "function"
    },
    {
      "inputs": [
        {
          "internalType": "uint256",
          "name": "tokenId",
          "type": "uint256"
        }
      ],
      "name": "ownerOf",
      "outputs": [
        {
          "internalType": "address",
          "name": "",
          "type": "address"
        }
      ],
      "stateMutability": "view",
      "type": "function"
    },
    {
      "inputs": [],
      "name": "renounceOwnership",
      "outputs": [],
      "stateMutability": "nonpayable",
      "type": "function"
    },
    {
      "inputs": [
        {
          "internalType": "address",
          "name": "from",
          "type": "address"
        },
        {
          "internalType": "address",
          "name": "to",
          "type": "address"
        },
        {
          "internalType": "uint256",
          "name": "tokenId",
          "type": "uint256"
        }
      ],
      "name": "safeTransferFrom",
      "outputs": [],
      "stateMutability": "nonpayable",
      "type": "function"
    },
    {
      "inputs": [
        {
          "internalType": "address",
          "name": "from",
          "type": "address"
        },
        {
          "internalType": "address",
          "name": "to",
          "type": "address"
        },
        {
          "internalType": "uint256",
          "name": "tokenId",
          "type": "uint256"
        },
        {
          "internalType": "bytes",
          "name": "data",
          "type": "bytes"
        }
      ],
      "name": "safeTransferFrom",
      "outputs": [],
      "stateMutability": "nonpayable",
      "type": "function"
    },
    {
      "inputs": [
        {
          "internalType": "address",
          "name": "operator",
          "type": "address"
        },
        {
          "internalType": "bool",
          "name": "approved",
          "type": "bool"
        }
      ],
      "name": "setApprovalForAll",
      "outputs": [],
      "stateMutability": "nonpayable",
      "type": "function"
    },
    {
      "inputs": [
        {
          "internalType": "bytes4",
          "name": "interfaceId",
          "type": "bytes4"
        }
      ],
      "name": "supportsInterface",
      "outputs": [
        {
          "internalType": "bool",
          "name": "",
          "type": "bool"
        }
      ],
      "stateMutability": "view",
      "type": "function"
    },
    {
      "inputs": [],
      "name": "symbol",
      "outputs": [
        {
          "internalType": "string",
          "name": "",
          "type": "string"
        }
      ],
      "stateMutability": "view",
      "type": "function"
    },
    {
      "inputs": [
        {
          "internalType": "uint256",
          "name": "tokenId",
          "type": "uint256"
        }
      ],
      "name": "tokenURI",
      "outputs": [
        {
          "internalType": "string",
          "name": "",
          "type": "string"
        }
      ],
      "stateMutability": "view",
      "type": "function"
    },
    {
      "inputs": [
        {
          "internalType": "address",
          "name": "from",
          "type": "address"
        },
        {
          "internalType": "address",
          "name": "to",
          "type": "address"
        },
        {
          "internalType": "uint256",
          "name": "tokenId",
          "type": "uint256"
        }
      ],
      "name": "transferFrom",
      "outputs": [],
      "stateMutability": "nonpayable",
      "type": "function"
    },
    {
      "inputs": [
        {
          "internalType": "address",
          "name": "newOwner",
          "type": "address"
        }
      ],
      "name": "transferOwnership",
      "outputs": [],
      "stateMutability": "nonpayable",
      "type": "function"
    },
    {
      "inputs": [
        {
          "internalType": "address",
          "name": "_profileAddress",
          "type": "address"
        }
      ],
      "name": "getChlID",
      "outputs": [
        {
          "components": [
            {
              "internalType": "uint256",
              "name": "ChlIdCounter",
              "type": "uint256"
            },
            {
              "internalType": "string",
              "name": "name",
              "type": "string"
            },
            {
              "internalType": "enum ChlChainSBT.Gender",
              "name": "gender",
              "type": "uint8"
            },
            {
              "internalType": "uint256",
              "name": "age",
              "type": "uint256"
            },
            {
              "internalType": "enum ChlChainSBT.Role",
              "name": "role",
              "type": "uint8"
            },
            {
              "internalType": "bool",
              "name": "isChlIdGranted",
              "type": "bool"
            }
          ],
          "internalType": "struct ChlChainSBT.ChlProfile",
          "name": "",
          "type": "tuple"
        }
      ],
      "stateMutability": "view",
      "type": "function"
    },
    {
      "inputs": [
        {
          "internalType": "address",
          "name": "_profileAddress",
          "type": "address"
        }
      ],
      "name": "isGrantedChlID",
      "outputs": [
        {
          "internalType": "bool",
          "name": "",
          "type": "bool"
        }
      ],
      "stateMutability": "view",
      "type": "function"
    },
    {
      "inputs": [
        {
          "internalType": "address",
          "name": "_profileAddress",
          "type": "address"
        }
      ],
      "name": "isSounder",
      "outputs": [
        {
          "internalType": "bool",
          "name": "",
          "type": "bool"
        }
      ],
      "stateMutability": "view",
      "type": "function"
    },
    {
      "inputs": [
        {
          "internalType": "address",
          "name": "_profileAddress",
          "type": "address"
        }
      ],
      "name": "isChallengeed",
      "outputs": [
        {
          "internalType": "bool",
          "name": "",
          "type": "bool"
        }
      ],
      "stateMutability": "view",
      "type": "function"
    },
    {
      "inputs": [
        {
          "internalType": "address",
          "name": "_profileAddress",
          "type": "address"
        },
        {
          "internalType": "string",
          "name": "_name",
          "type": "string"
        },
        {
          "internalType": "uint256",
          "name": "_age",
          "type": "uint256"
        },
        {
          "internalType": "uint8",
          "name": "_gender",
          "type": "uint8"
        },
        {
          "internalType": "uint8",
          "name": "_role",
          "type": "uint8"
        }
      ],
      "name": "grantChlID",
      "outputs": [
        {
          "internalType": "uint256",
          "name": "",
          "type": "uint256"
        }
      ],
      "stateMutability": "nonpayable",
      "type": "function"
    },
    {
      "inputs": [
        {
          "internalType": "address",
          "name": "_profileAddress",
          "type": "address"
        }
      ],
      "name": "revokeChlID",
      "outputs": [],
      "stateMutability": "nonpayable",
      "type": "function"
    },
    {
      "inputs": [
        {
          "internalType": "address",
          "name": "_profileAddress",
          "type": "address"
        },
        {
          "internalType": "string",
          "name": "_name",
          "type": "string"
        },
        {
          "internalType": "uint256",
          "name": "_age",
          "type": "uint256"
        },
        {
          "internalType": "uint8",
          "name": "_gender",
          "type": "uint8"
        },
        {
          "internalType": "uint8",
          "name": "_role",
          "type": "uint8"
        }
      ],
      "name": "updateChlID",
      "outputs": [],
      "stateMutability": "nonpayable",
      "type": "function"
    }
  ],
  "bytecode": "0x60806040523480156200001157600080fd5b506040518060400160405280600a81526020017f43686c436861696e4944000000000000000000000000000000000000000000008152506040518060400160405280600581526020017f43686c496400000000000000000000000000000000000000000000000000000081525081600090816200008f919062000412565b508060019081620000a1919062000412565b505050620000c4620000b8620000ca60201b60201c565b620000d260201b60201c565b620004f9565b600033905090565b6000600760009054906101000a900473ffffffffffffffffffffffffffffffffffffffff16905081600760006101000a81548173ffffffffffffffffffffffffffffffffffffffff021916908373ffffffffffffffffffffffffffffffffffffffff1602179055508173ffffffffffffffffffffffffffffffffffffffff168173ffffffffffffffffffffffffffffffffffffffff167f8be0079c531659141344cd1fd0a4f28419497f9722a3daafe3b4186f6b6457e060405160405180910390a35050565b600081519050919050565b7f4e487b7100000000000000000000000000000000000000000000000000000000600052604160045260246000fd5b7f4e487b7100000000000000000000000000000000000000000000000000000000600052602260045260246000fd5b600060028204905060018216806200021a57607f821691505b60208210810362000230576200022f620001d2565b5b50919050565b60008190508160005260206000209050919050565b60006020601f8301049050919050565b600082821b905092915050565b6000600883026200029a7fffffffffffffffffffffffffffffffffffffffffffffffffffffffffffffffff826200025b565b620002a686836200025b565b95508019841693508086168417925050509392505050565b6000819050919050565b6000819050919050565b6000620002f3620002ed620002e784620002be565b620002c8565b620002be565b9050919050565b6000819050919050565b6200030f83620002d2565b620003276200031e82620002fa565b84845462000268565b825550505050565b600090565b6200033e6200032f565b6200034b81848462000304565b505050565b5b8181101562000373576200036760008262000334565b60018101905062000351565b5050565b601f821115620003c2576200038c8162000236565b62000397846200024b565b81016020851015620003a7578190505b620003bf620003b6856200024b565b83018262000350565b50505b505050565b600082821c905092915050565b6000620003e760001984600802620003c7565b1980831691505092915050565b6000620004028383620003d4565b9150826002028217905092915050565b6200041d8262000198565b67ffffffffffffffff811115620004395762000438620001a3565b5b62000445825462000201565b6200045282828562000377565b600060209050601f8311600181146200048a576000841562000475578287015190505b620004818582620003f4565b865550620004f1565b601f1984166200049a8662000236565b60005b82811015620004c4578489015182556001820191506020850194506020810190506200049d565b86831015620004e45784890151620004e0601f891682620003d4565b8355505b6001600288020188555050505b505050505050565b6143dd80620005096000396000f3fe608060405234801561001057600080fd5b506004361061014d5760003560e01c806370a08231116100c3578063a2e307771161007c578063a2e30777146103c2578063b88d4fde146103f2578063c80c342b1461040e578063c87b56dd1461042a578063e985e9c51461045a578063f2fde38b1461048a5761014d565b806370a0823114610314578063715018a6146103445780638da5cb5b1461034e5780638f6ca7261461036c57806395d89b4114610388578063a22cb465146103a65761014d565b80630eb33115116101155780630eb331151461021c57806323b872dd1461024c57806340cfeb4e1461026857806342842e0e146102985780636352211e146102b457806363b6fa04146102e45761014d565b8063018b2a8c1461015257806301ffc9a71461018257806306fdde03146101b2578063081812fc146101d0578063095ea7b314610200575b600080fd5b61016c60048036038101906101679190612bf6565b6104a6565b6040516101799190612e2f565b60405180910390f35b61019c60048036038101906101979190612ea9565b6106cf565b6040516101a99190612ee5565b60405180910390f35b6101ba6107b1565b6040516101c79190612f4a565b60405180910390f35b6101ea60048036038101906101e59190612f98565b610843565b6040516101f79190612fd4565b60405180910390f35b61021a60048036038101906102159190612fef565b610889565b005b61023660048036038101906102319190612bf6565b6109a0565b6040516102439190612ee5565b60405180910390f35b6102666004803603810190610261919061302f565b610a7f565b005b610282600480360381019061027d9190612bf6565b610adf565b60405161028f9190612ee5565b60405180910390f35b6102b260048036038101906102ad919061302f565b610bbf565b005b6102ce60048036038101906102c99190612f98565b610bdf565b6040516102db9190612fd4565b60405180910390f35b6102fe60048036038101906102f991906131f0565b610c65565b60405161030b9190613296565b60405180910390f35b61032e60048036038101906103299190612bf6565b610f70565b60405161033b9190613296565b60405180910390f35b61034c611027565b005b61035661103b565b6040516103639190612fd4565b60405180910390f35b61038660048036038101906103819190613311565b611065565b005b610390611495565b60405161039d9190612f4a565b60405180910390f35b6103c060048036038101906103bb91906133d7565b611527565b005b6103dc60048036038101906103d79190612bf6565b61153d565b6040516103e99190612ee5565b60405180910390f35b61040c600480360381019061040791906134b8565b61159e565b005b61042860048036038101906104239190612bf6565b611600565b005b610444600480360381019061043f9190612f98565b61176f565b6040516104519190612f4a565b60405180910390f35b610474600480360381019061046f919061353b565b611881565b6040516104819190612ee5565b60405180910390f35b6104a4600480360381019061049f9190612bf6565b611915565b005b6104ae612acb565b6104b6611998565b81600860008273ffffffffffffffffffffffffffffffffffffffff1673ffffffffffffffffffffffffffffffffffffffff16815260200190815260200160002060040160019054906101000a900460ff16610546576040517f08c379a000000000000000000000000000000000000000000000000000000000815260040161053d906135c7565b60405180910390fd5b600860008473ffffffffffffffffffffffffffffffffffffffff1673ffffffffffffffffffffffffffffffffffffffff1681526020019081526020016000206040518060c0016040529081600082015481526020016001820180546105aa90613616565b80601f01602080910402602001604051908101604052809291908181526020018280546105d690613616565b80156106235780601f106105f857610100808354040283529160200191610623565b820191906000526020600020905b81548152906001019060200180831161060657829003601f168201915b505050505081526020016002820160009054906101000a900460ff16600181111561065157610650612ccc565b5b600181111561066357610662612ccc565b5b8152602001600382015481526020016004820160009054906101000a900460ff16600181111561069657610695612ccc565b5b60018111156106a8576106a7612ccc565b5b81526020016004820160019054906101000a900460ff161515151581525050915050919050565b60007f80ac58cd000000000000000000000000000000000000000000000000000000007bffffffffffffffffffffffffffffffffffffffffffffffffffffffff1916827bffffffffffffffffffffffffffffffffffffffffffffffffffffffff1916148061079a57507f5b5e139f000000000000000000000000000000000000000000000000000000007bffffffffffffffffffffffffffffffffffffffffffffffffffffffff1916827bffffffffffffffffffffffffffffffffffffffffffffffffffffffff1916145b806107aa57506107a982611a16565b5b9050919050565b6060600080546107c090613616565b80601f01602080910402602001604051908101604052809291908181526020018280546107ec90613616565b80156108395780601f1061080e57610100808354040283529160200191610839565b820191906000526020600020905b81548152906001019060200180831161081c57829003601f168201915b5050505050905090565b600061084e82611a80565b6004600083815260200190815260200160002060009054906101000a900473ffffffffffffffffffffffffffffffffffffffff169050919050565b600061089482610bdf565b90508073ffffffffffffffffffffffffffffffffffffffff168373ffffffffffffffffffffffffffffffffffffffff1603610904576040517f08c379a00000000000000000000000000000000000000000000000000000000081526004016108fb906136b9565b60405180910390fd5b8073ffffffffffffffffffffffffffffffffffffffff16610923611acb565b73ffffffffffffffffffffffffffffffffffffffff16148061095257506109518161094c611acb565b611881565b5b610991576040517f08c379a00000000000000000000000000000000000000000000000000000000081526004016109889061374b565b60405180910390fd5b61099b8383611ad3565b505050565b60006109aa611998565b600860008373ffffffffffffffffffffffffffffffffffffffff1673ffffffffffffffffffffffffffffffffffffffff16815260200190815260200160002060040160019054906101000a900460ff168015610a785750600180811115610a1457610a13612ccc565b5b600860008473ffffffffffffffffffffffffffffffffffffffff1673ffffffffffffffffffffffffffffffffffffffff16815260200190815260200160002060040160009054906101000a900460ff166001811115610a7657610a75612ccc565b5b145b9050919050565b610a90610a8a611acb565b82611b8c565b610acf576040517f08c379a0000000000000000000000000000000000000000000000000000000008152600401610ac6906137dd565b60405180910390fd5b610ada838383611c21565b505050565b6000610ae9611998565b600860008373ffffffffffffffffffffffffffffffffffffffff1673ffffffffffffffffffffffffffffffffffffffff16815260200190815260200160002060040160019054906101000a900460ff168015610bb8575060006001811115610b5457610b53612ccc565b5b600860008473ffffffffffffffffffffffffffffffffffffffff1673ffffffffffffffffffffffffffffffffffffffff16815260200190815260200160002060040160009054906101000a900460ff166001811115610bb657610bb5612ccc565b5b145b9050919050565b610bda8383836040518060200160405280600081525061159e565b505050565b600080610beb83611f1a565b9050600073ffffffffffffffffffffffffffffffffffffffff168173ffffffffffffffffffffffffffffffffffffffff1603610c5c576040517f08c379a0000000000000000000000000000000000000000000000000000000008152600401610c5390613849565b60405180910390fd5b80915050919050565b6000610c6f611998565b600860008773ffffffffffffffffffffffffffffffffffffffff1673ffffffffffffffffffffffffffffffffffffffff16815260200190815260200160002060040160019054906101000a900460ff1615610cff576040517f08c379a0000000000000000000000000000000000000000000000000000000008152600401610cf6906138b5565b60405180910390fd5b610d096009611f57565b6000610d156009611f6d565b9050610d1f612acb565b81816000018181525050868160200181905250858160600181815250508460ff166001811115610d5257610d51612ccc565b5b81604001906001811115610d6957610d68612ccc565b5b90816001811115610d7d57610d7c612ccc565b5b815250508360ff166001811115610d9757610d96612ccc565b5b81608001906001811115610dae57610dad612ccc565b5b90816001811115610dc257610dc1612ccc565b5b8152505060018160a001901515908115158152505080600860008a73ffffffffffffffffffffffffffffffffffffffff1673ffffffffffffffffffffffffffffffffffffffff168152602001908152602001600020600082015181600001556020820151816001019081610e369190613a81565b5060408201518160020160006101000a81548160ff02191690836001811115610e6257610e61612ccc565b5b02179055506060820151816003015560808201518160040160006101000a81548160ff02191690836001811115610e9c57610e9b612ccc565b5b021790555060a08201518160040160016101000a81548160ff021916908315150217905550905050610ece8883611f7b565b6000610ed983612198565b9050600060405180608001604052806044815260200161436460449139905060008183604051602001610f0d929190613bb5565b6040516020818303038152906040529050610f288582612266565b7f65b3844f56928b0d67276da9a960d6b8a548bec33ede35c9782b0d0869b2154e84604051610f579190612e2f565b60405180910390a1849550505050505095945050505050565b60008073ffffffffffffffffffffffffffffffffffffffff168273ffffffffffffffffffffffffffffffffffffffff1603610fe0576040517f08c379a0000000000000000000000000000000000000000000000000000000008152600401610fd790613c5a565b60405180910390fd5b600360008373ffffffffffffffffffffffffffffffffffffffff1673ffffffffffffffffffffffffffffffffffffffff168152602001908152602001600020549050919050565b61102f611998565b61103960006122d3565b565b6000600760009054906101000a900473ffffffffffffffffffffffffffffffffffffffff16905090565b61106d611998565b600860008773ffffffffffffffffffffffffffffffffffffffff1673ffffffffffffffffffffffffffffffffffffffff16815260200190815260200160002060040160019054906101000a900460ff166110fc576040517f08c379a00000000000000000000000000000000000000000000000000000000081526004016110f3906135c7565b60405180910390fd5b611104612acb565b600860008873ffffffffffffffffffffffffffffffffffffffff1673ffffffffffffffffffffffffffffffffffffffff1681526020019081526020016000206040518060c00160405290816000820154815260200160018201805461116890613616565b80601f016020809104026020016040519081016040528092919081815260200182805461119490613616565b80156111e15780601f106111b6576101008083540402835291602001916111e1565b820191906000526020600020905b8154815290600101906020018083116111c457829003601f168201915b505050505081526020016002820160009054906101000a900460ff16600181111561120f5761120e612ccc565b5b600181111561122157611220612ccc565b5b8152602001600382015481526020016004820160009054906101000a900460ff16600181111561125457611253612ccc565b5b600181111561126657611265612ccc565b5b81526020016004820160019054906101000a900460ff161515151581525050905085858080601f016020809104026020016040519081016040528093929190818152602001838380828437600081840152601f19601f820116905080830192505050505050508160200181905250838160600181815250508260ff1660018111156112f4576112f3612ccc565b5b8160400190600181111561130b5761130a612ccc565b5b9081600181111561131f5761131e612ccc565b5b815250508160ff16600181111561133957611338612ccc565b5b816080019060018111156113505761134f612ccc565b5b9081600181111561136457611363612ccc565b5b8152505080600860008973ffffffffffffffffffffffffffffffffffffffff1673ffffffffffffffffffffffffffffffffffffffff1681526020019081526020016000206000820151816000015560208201518160010190816113c79190613a81565b5060408201518160020160006101000a81548160ff021916908360018111156113f3576113f2612ccc565b5b02179055506060820151816003015560808201518160040160006101000a81548160ff0219169083600181111561142d5761142c612ccc565b5b021790555060a08201518160040160016101000a81548160ff0219169083151502179055509050507f6ccb80166259b35487448e63eb731cff04f7dcebe8993177624ab2ec2cb9cec5876040516114849190612fd4565b60405180910390a150505050505050565b6060600180546114a490613616565b80601f01602080910402602001604051908101604052809291908181526020018280546114d090613616565b801561151d5780601f106114f25761010080835404028352916020019161151d565b820191906000526020600020905b81548152906001019060200180831161150057829003601f168201915b5050505050905090565b611539611532611acb565b8383612399565b5050565b6000611547611998565b600860008373ffffffffffffffffffffffffffffffffffffffff1673ffffffffffffffffffffffffffffffffffffffff16815260200190815260200160002060040160019054906101000a900460ff169050919050565b6115af6115a9611acb565b83611b8c565b6115ee576040517f08c379a00000000000000000000000000000000000000000000000000000000081526004016115e5906137dd565b60405180910390fd5b6115fa84848484612505565b50505050565b611608611998565b600860008273ffffffffffffffffffffffffffffffffffffffff1673ffffffffffffffffffffffffffffffffffffffff16815260200190815260200160002060040160019054906101000a900460ff16611697576040517f08c379a000000000000000000000000000000000000000000000000000000000815260040161168e906135c7565b60405180910390fd5b7fee1f82c0a4ee6a335798ca853be86778d1d437f27fdf3ab16d6e9c884bf7db75816040516116c69190612fd4565b60405180910390a1600860008273ffffffffffffffffffffffffffffffffffffffff1673ffffffffffffffffffffffffffffffffffffffff1681526020019081526020016000206000808201600090556001820160006117269190612b27565b6002820160006101000a81549060ff021916905560038201600090556004820160006101000a81549060ff02191690556004820160016101000a81549060ff0219169055505050565b606061177a82611a80565b600060066000848152602001908152602001600020805461179a90613616565b80601f01602080910402602001604051908101604052809291908181526020018280546117c690613616565b80156118135780601f106117e857610100808354040283529160200191611813565b820191906000526020600020905b8154815290600101906020018083116117f657829003601f168201915b505050505090506000611824612561565b9050600081510361183957819250505061187c565b60008251111561186e578082604051602001611856929190613c7a565b6040516020818303038152906040529250505061187c565b61187784612578565b925050505b919050565b6000600560008473ffffffffffffffffffffffffffffffffffffffff1673ffffffffffffffffffffffffffffffffffffffff16815260200190815260200160002060008373ffffffffffffffffffffffffffffffffffffffff1673ffffffffffffffffffffffffffffffffffffffff16815260200190815260200160002060009054906101000a900460ff16905092915050565b61191d611998565b600073ffffffffffffffffffffffffffffffffffffffff168173ffffffffffffffffffffffffffffffffffffffff160361198c576040517f08c379a000000000000000000000000000000000000000000000000000000000815260040161198390613d10565b60405180910390fd5b611995816122d3565b50565b6119a0611acb565b73ffffffffffffffffffffffffffffffffffffffff166119be61103b565b73ffffffffffffffffffffffffffffffffffffffff1614611a14576040517f08c379a0000000000000000000000000000000000000000000000000000000008152600401611a0b90613d7c565b60405180910390fd5b565b60007f01ffc9a7000000000000000000000000000000000000000000000000000000007bffffffffffffffffffffffffffffffffffffffffffffffffffffffff1916827bffffffffffffffffffffffffffffffffffffffffffffffffffffffff1916149050919050565b611a89816125e0565b611ac8576040517f08c379a0000000000000000000000000000000000000000000000000000000008152600401611abf90613849565b60405180910390fd5b50565b600033905090565b816004600083815260200190815260200160002060006101000a81548173ffffffffffffffffffffffffffffffffffffffff021916908373ffffffffffffffffffffffffffffffffffffffff160217905550808273ffffffffffffffffffffffffffffffffffffffff16611b4683610bdf565b73ffffffffffffffffffffffffffffffffffffffff167f8c5be1e5ebec7d5bd14f71427d1e84f3dd0314c0f7b2291e5b200ac8c7c3b92560405160405180910390a45050565b600080611b9883610bdf565b90508073ffffffffffffffffffffffffffffffffffffffff168473ffffffffffffffffffffffffffffffffffffffff161480611bda5750611bd98185611881565b5b80611c1857508373ffffffffffffffffffffffffffffffffffffffff16611c0084610843565b73ffffffffffffffffffffffffffffffffffffffff16145b91505092915050565b8273ffffffffffffffffffffffffffffffffffffffff16611c4182610bdf565b73ffffffffffffffffffffffffffffffffffffffff1614611c97576040517f08c379a0000000000000000000000000000000000000000000000000000000008152600401611c8e90613e0e565b60405180910390fd5b600073ffffffffffffffffffffffffffffffffffffffff168273ffffffffffffffffffffffffffffffffffffffff1603611d06576040517f08c379a0000000000000000000000000000000000000000000000000000000008152600401611cfd90613ea0565b60405180910390fd5b611d138383836001612621565b8273ffffffffffffffffffffffffffffffffffffffff16611d3382610bdf565b73ffffffffffffffffffffffffffffffffffffffff1614611d89576040517f08c379a0000000000000000000000000000000000000000000000000000000008152600401611d8090613e0e565b60405180910390fd5b6004600082815260200190815260200160002060006101000a81549073ffffffffffffffffffffffffffffffffffffffff02191690556001600360008573ffffffffffffffffffffffffffffffffffffffff1673ffffffffffffffffffffffffffffffffffffffff168152602001908152602001600020600082825403925050819055506001600360008473ffffffffffffffffffffffffffffffffffffffff1673ffffffffffffffffffffffffffffffffffffffff16815260200190815260200160002060008282540192505081905550816002600083815260200190815260200160002060006101000a81548173ffffffffffffffffffffffffffffffffffffffff021916908373ffffffffffffffffffffffffffffffffffffffff160217905550808273ffffffffffffffffffffffffffffffffffffffff168473ffffffffffffffffffffffffffffffffffffffff167fddf252ad1be2c89b69c2b068fc378daa952ba7f163c4a11628f55a4df523b3ef60405160405180910390a4611f1583838360016126a2565b505050565b60006002600083815260200190815260200160002060009054906101000a900473ffffffffffffffffffffffffffffffffffffffff169050919050565b6001816000016000828254019250508190555050565b600081600001549050919050565b600073ffffffffffffffffffffffffffffffffffffffff168273ffffffffffffffffffffffffffffffffffffffff1603611fea576040517f08c379a0000000000000000000000000000000000000000000000000000000008152600401611fe190613f0c565b60405180910390fd5b611ff3816125e0565b15612033576040517f08c379a000000000000000000000000000000000000000000000000000000000815260040161202a90613f78565b60405180910390fd5b612041600083836001612621565b61204a816125e0565b1561208a576040517f08c379a000000000000000000000000000000000000000000000000000000000815260040161208190613f78565b60405180910390fd5b6001600360008473ffffffffffffffffffffffffffffffffffffffff1673ffffffffffffffffffffffffffffffffffffffff16815260200190815260200160002060008282540192505081905550816002600083815260200190815260200160002060006101000a81548173ffffffffffffffffffffffffffffffffffffffff021916908373ffffffffffffffffffffffffffffffffffffffff160217905550808273ffffffffffffffffffffffffffffffffffffffff16600073ffffffffffffffffffffffffffffffffffffffff167fddf252ad1be2c89b69c2b068fc378daa952ba7f163c4a11628f55a4df523b3ef60405160405180910390a46121946000838360016126a2565b5050565b6060600060016121a7846126a8565b01905060008167ffffffffffffffff8111156121c6576121c561308c565b5b6040519080825280601f01601f1916602001820160405280156121f85781602001600182028036833780820191505090505b509050600082602001820190505b60011561225b578080600190039150507f3031323334353637383961626364656600000000000000000000000000000000600a86061a8153600a858161224f5761224e613f98565b5b04945060008503612206575b819350505050919050565b61226f826125e0565b6122ae576040517f08c379a00000000000000000000000000000000000000000000000000000000081526004016122a590614039565b60405180910390fd5b806006600084815260200190815260200160002090816122ce9190613a81565b505050565b6000600760009054906101000a900473ffffffffffffffffffffffffffffffffffffffff16905081600760006101000a81548173ffffffffffffffffffffffffffffffffffffffff021916908373ffffffffffffffffffffffffffffffffffffffff1602179055508173ffffffffffffffffffffffffffffffffffffffff168173ffffffffffffffffffffffffffffffffffffffff167f8be0079c531659141344cd1fd0a4f28419497f9722a3daafe3b4186f6b6457e060405160405180910390a35050565b8173ffffffffffffffffffffffffffffffffffffffff168373ffffffffffffffffffffffffffffffffffffffff1603612407576040517f08c379a00000000000000000000000000000000000000000000000000000000081526004016123fe906140a5565b60405180910390fd5b80600560008573ffffffffffffffffffffffffffffffffffffffff1673ffffffffffffffffffffffffffffffffffffffff16815260200190815260200160002060008473ffffffffffffffffffffffffffffffffffffffff1673ffffffffffffffffffffffffffffffffffffffff16815260200190815260200160002060006101000a81548160ff0219169083151502179055508173ffffffffffffffffffffffffffffffffffffffff168373ffffffffffffffffffffffffffffffffffffffff167f17307eab39ab6107e8899845ad3d59bd9653f200f220920489ca2b5937696c31836040516124f89190612ee5565b60405180910390a3505050565b612510848484611c21565b61251c848484846127fb565b61255b576040517f08c379a000000000000000000000000000000000000000000000000000000000815260040161255290614137565b60405180910390fd5b50505050565b606060405180602001604052806000815250905090565b606061258382611a80565b600061258d612561565b905060008151116125ad57604051806020016040528060008152506125d8565b806125b784612198565b6040516020016125c8929190613c7a565b6040516020818303038152906040525b915050919050565b60008073ffffffffffffffffffffffffffffffffffffffff1661260283611f1a565b73ffffffffffffffffffffffffffffffffffffffff1614159050919050565b600073ffffffffffffffffffffffffffffffffffffffff168473ffffffffffffffffffffffffffffffffffffffff1614612690576040517f08c379a0000000000000000000000000000000000000000000000000000000008152600401612687906141c9565b60405180910390fd5b61269c84848484612982565b50505050565b50505050565b600080600090507a184f03e93ff9f4daa797ed6e38ed64bf6a1f0100000000000000008310612706577a184f03e93ff9f4daa797ed6e38ed64bf6a1f01000000000000000083816126fc576126fb613f98565b5b0492506040810190505b6d04ee2d6d415b85acef81000000008310612743576d04ee2d6d415b85acef8100000000838161273957612738613f98565b5b0492506020810190505b662386f26fc10000831061277257662386f26fc10000838161276857612767613f98565b5b0492506010810190505b6305f5e100831061279b576305f5e100838161279157612790613f98565b5b0492506008810190505b61271083106127c05761271083816127b6576127b5613f98565b5b0492506004810190505b606483106127e357606483816127d9576127d8613f98565b5b0492506002810190505b600a83106127f2576001810190505b80915050919050565b600061281c8473ffffffffffffffffffffffffffffffffffffffff16612aa8565b15612975578373ffffffffffffffffffffffffffffffffffffffff1663150b7a02612845611acb565b8786866040518563ffffffff1660e01b8152600401612867949392919061423e565b6020604051808303816000875af19250505080156128a357506040513d601f19601f820116820180604052508101906128a0919061429f565b60015b612925573d80600081146128d3576040519150601f19603f3d011682016040523d82523d6000602084013e6128d8565b606091505b50600081510361291d576040517f08c379a000000000000000000000000000000000000000000000000000000000815260040161291490614137565b60405180910390fd5b805181602001fd5b63150b7a0260e01b7bffffffffffffffffffffffffffffffffffffffffffffffffffffffff1916817bffffffffffffffffffffffffffffffffffffffffffffffffffffffff19161491505061297a565b600190505b949350505050565b6001811115612aa257600073ffffffffffffffffffffffffffffffffffffffff168473ffffffffffffffffffffffffffffffffffffffff1614612a165780600360008673ffffffffffffffffffffffffffffffffffffffff1673ffffffffffffffffffffffffffffffffffffffff1681526020019081526020016000206000828254612a0e91906142fb565b925050819055505b600073ffffffffffffffffffffffffffffffffffffffff168373ffffffffffffffffffffffffffffffffffffffff1614612aa15780600360008573ffffffffffffffffffffffffffffffffffffffff1673ffffffffffffffffffffffffffffffffffffffff1681526020019081526020016000206000828254612a99919061432f565b925050819055505b5b50505050565b6000808273ffffffffffffffffffffffffffffffffffffffff163b119050919050565b6040518060c00160405280600081526020016060815260200160006001811115612af857612af7612ccc565b5b81526020016000815260200160006001811115612b1857612b17612ccc565b5b81526020016000151581525090565b508054612b3390613616565b6000825580601f10612b455750612b64565b601f016020900490600052602060002090810190612b639190612b67565b5b50565b5b80821115612b80576000816000905550600101612b68565b5090565b6000604051905090565b600080fd5b600080fd5b600073ffffffffffffffffffffffffffffffffffffffff82169050919050565b6000612bc382612b98565b9050919050565b612bd381612bb8565b8114612bde57600080fd5b50565b600081359050612bf081612bca565b92915050565b600060208284031215612c0c57612c0b612b8e565b5b6000612c1a84828501612be1565b91505092915050565b6000819050919050565b612c3681612c23565b82525050565b600081519050919050565b600082825260208201905092915050565b60005b83811015612c76578082015181840152602081019050612c5b565b60008484015250505050565b6000601f19601f8301169050919050565b6000612c9e82612c3c565b612ca88185612c47565b9350612cb8818560208601612c58565b612cc181612c82565b840191505092915050565b7f4e487b7100000000000000000000000000000000000000000000000000000000600052602160045260246000fd5b60028110612d0c57612d0b612ccc565b5b50565b6000819050612d1d82612cfb565b919050565b6000612d2d82612d0f565b9050919050565b612d3d81612d22565b82525050565b60028110612d5457612d53612ccc565b5b50565b6000819050612d6582612d43565b919050565b6000612d7582612d57565b9050919050565b612d8581612d6a565b82525050565b60008115159050919050565b612da081612d8b565b82525050565b600060c083016000830151612dbe6000860182612c2d565b5060208301518482036020860152612dd68282612c93565b9150506040830151612deb6040860182612d34565b506060830151612dfe6060860182612c2d565b506080830151612e116080860182612d7c565b5060a0830151612e2460a0860182612d97565b508091505092915050565b60006020820190508181036000830152612e498184612da6565b905092915050565b60007fffffffff0000000000000000000000000000000000000000000000000000000082169050919050565b612e8681612e51565b8114612e9157600080fd5b50565b600081359050612ea381612e7d565b92915050565b600060208284031215612ebf57612ebe612b8e565b5b6000612ecd84828501612e94565b91505092915050565b612edf81612d8b565b82525050565b6000602082019050612efa6000830184612ed6565b92915050565b600082825260208201905092915050565b6000612f1c82612c3c565b612f268185612f00565b9350612f36818560208601612c58565b612f3f81612c82565b840191505092915050565b60006020820190508181036000830152612f648184612f11565b905092915050565b612f7581612c23565b8114612f8057600080fd5b50565b600081359050612f9281612f6c565b92915050565b600060208284031215612fae57612fad612b8e565b5b6000612fbc84828501612f83565b91505092915050565b612fce81612bb8565b82525050565b6000602082019050612fe96000830184612fc5565b92915050565b6000806040838503121561300657613005612b8e565b5b600061301485828601612be1565b925050602061302585828601612f83565b9150509250929050565b60008060006060848603121561304857613047612b8e565b5b600061305686828701612be1565b935050602061306786828701612be1565b925050604061307886828701612f83565b9150509250925092565b600080fd5b600080fd5b7f4e487b7100000000000000000000000000000000000000000000000000000000600052604160045260246000fd5b6130c482612c82565b810181811067ffffffffffffffff821117156130e3576130e261308c565b5b80604052505050565b60006130f6612b84565b905061310282826130bb565b919050565b600067ffffffffffffffff8211156131225761312161308c565b5b61312b82612c82565b9050602081019050919050565b82818337600083830152505050565b600061315a61315584613107565b6130ec565b90508281526020810184848401111561317657613175613087565b5b613181848285613138565b509392505050565b600082601f83011261319e5761319d613082565b5b81356131ae848260208601613147565b91505092915050565b600060ff82169050919050565b6131cd816131b7565b81146131d857600080fd5b50565b6000813590506131ea816131c4565b92915050565b600080600080600060a0868803121561320c5761320b612b8e565b5b600061321a88828901612be1565b955050602086013567ffffffffffffffff81111561323b5761323a612b93565b5b61324788828901613189565b945050604061325888828901612f83565b9350506060613269888289016131db565b925050608061327a888289016131db565b9150509295509295909350565b61329081612c23565b82525050565b60006020820190506132ab6000830184613287565b92915050565b600080fd5b600080fd5b60008083601f8401126132d1576132d0613082565b5b8235905067ffffffffffffffff8111156132ee576132ed6132b1565b5b60208301915083600182028301111561330a576133096132b6565b5b9250929050565b60008060008060008060a0878903121561332e5761332d612b8e565b5b600061333c89828a01612be1565b965050602087013567ffffffffffffffff81111561335d5761335c612b93565b5b61336989828a016132bb565b9550955050604061337c89828a01612f83565b935050606061338d89828a016131db565b925050608061339e89828a016131db565b9150509295509295509295565b6133b481612d8b565b81146133bf57600080fd5b50565b6000813590506133d1816133ab565b92915050565b600080604083850312156133ee576133ed612b8e565b5b60006133fc85828601612be1565b925050602061340d858286016133c2565b9150509250929050565b600067ffffffffffffffff8211156134325761343161308c565b5b61343b82612c82565b9050602081019050919050565b600061345b61345684613417565b6130ec565b90508281526020810184848401111561347757613476613087565b5b613482848285613138565b509392505050565b600082601f83011261349f5761349e613082565b5b81356134af848260208601613448565b91505092915050565b600080600080608085870312156134d2576134d1612b8e565b5b60006134e087828801612be1565b94505060206134f187828801612be1565b935050604061350287828801612f83565b925050606085013567ffffffffffffffff81111561352357613522612b93565b5b61352f8782880161348a565b91505092959194509250565b6000806040838503121561355257613551612b8e565b5b600061356085828601612be1565b925050602061357185828601612be1565b9150509250929050565b7f43686c494420646f206e6f742065786973747300000000000000000000000000600082015250565b60006135b1601383612f00565b91506135bc8261357b565b602082019050919050565b600060208201905081810360008301526135e0816135a4565b9050919050565b7f4e487b7100000000000000000000000000000000000000000000000000000000600052602260045260246000fd5b6000600282049050600182168061362e57607f821691505b602082108103613641576136406135e7565b5b50919050565b7f4552433732313a20617070726f76616c20746f2063757272656e74206f776e6560008201527f7200000000000000000000000000000000000000000000000000000000000000602082015250565b60006136a3602183612f00565b91506136ae82613647565b604082019050919050565b600060208201905081810360008301526136d281613696565b9050919050565b7f4552433732313a20617070726f76652063616c6c6572206973206e6f7420746f60008201527f6b656e206f776e6572206f7220617070726f76656420666f7220616c6c000000602082015250565b6000613735603d83612f00565b9150613740826136d9565b604082019050919050565b6000602082019050818103600083015261376481613728565b9050919050565b7f4552433732313a2063616c6c6572206973206e6f7420746f6b656e206f776e6560008201527f72206f7220617070726f76656400000000000000000000000000000000000000602082015250565b60006137c7602d83612f00565b91506137d28261376b565b604082019050919050565b600060208201905081810360008301526137f6816137ba565b9050919050565b7f4552433732313a20696e76616c696420746f6b656e2049440000000000000000600082015250565b6000613833601883612f00565b915061383e826137fd565b602082019050919050565b6000602082019050818103600083015261386281613826565b9050919050565b7f43686c494420616c726561647920657869737473000000000000000000000000600082015250565b600061389f601483612f00565b91506138aa82613869565b602082019050919050565b600060208201905081810360008301526138ce81613892565b9050919050565b60008190508160005260206000209050919050565b60006020601f8301049050919050565b600082821b905092915050565b6000600883026139377fffffffffffffffffffffffffffffffffffffffffffffffffffffffffffffffff826138fa565b61394186836138fa565b95508019841693508086168417925050509392505050565b6000819050919050565b600061397e61397961397484612c23565b613959565b612c23565b9050919050565b6000819050919050565b61399883613963565b6139ac6139a482613985565b848454613907565b825550505050565b600090565b6139c16139b4565b6139cc81848461398f565b505050565b5b818110156139f0576139e56000826139b9565b6001810190506139d2565b5050565b601f821115613a3557613a06816138d5565b613a0f846138ea565b81016020851015613a1e578190505b613a32613a2a856138ea565b8301826139d1565b50505b505050565b600082821c905092915050565b6000613a5860001984600802613a3a565b1980831691505092915050565b6000613a718383613a47565b9150826002028217905092915050565b613a8a82612c3c565b67ffffffffffffffff811115613aa357613aa261308c565b5b613aad8254613616565b613ab88282856139f4565b600060209050601f831160018114613aeb5760008415613ad9578287015190505b613ae38582613a65565b865550613b4b565b601f198416613af9866138d5565b60005b82811015613b2157848901518255600182019150602085019450602081019050613afc565b86831015613b3e5784890151613b3a601f891682613a47565b8355505b6001600288020188555050505b505050505050565b600081905092915050565b6000613b6982612c3c565b613b738185613b53565b9350613b83818560208601612c58565b80840191505092915050565b7f2e6a736f6e000000000000000000000000000000000000000000000000000000815250565b6000613bc18285613b5e565b9150613bcd8284613b5e565b9150613bd882613b8f565b6005820191508190509392505050565b7f4552433732313a2061646472657373207a65726f206973206e6f74206120766160008201527f6c6964206f776e65720000000000000000000000000000000000000000000000602082015250565b6000613c44602983612f00565b9150613c4f82613be8565b604082019050919050565b60006020820190508181036000830152613c7381613c37565b9050919050565b6000613c868285613b5e565b9150613c928284613b5e565b91508190509392505050565b7f4f776e61626c653a206e6577206f776e657220697320746865207a65726f206160008201527f6464726573730000000000000000000000000000000000000000000000000000602082015250565b6000613cfa602683612f00565b9150613d0582613c9e565b604082019050919050565b60006020820190508181036000830152613d2981613ced565b9050919050565b7f4f776e61626c653a2063616c6c6572206973206e6f7420746865206f776e6572600082015250565b6000613d66602083612f00565b9150613d7182613d30565b602082019050919050565b60006020820190508181036000830152613d9581613d59565b9050919050565b7f4552433732313a207472616e736665722066726f6d20696e636f72726563742060008201527f6f776e6572000000000000000000000000000000000000000000000000000000602082015250565b6000613df8602583612f00565b9150613e0382613d9c565b604082019050919050565b60006020820190508181036000830152613e2781613deb565b9050919050565b7f4552433732313a207472616e7366657220746f20746865207a65726f2061646460008201527f7265737300000000000000000000000000000000000000000000000000000000602082015250565b6000613e8a602483612f00565b9150613e9582613e2e565b604082019050919050565b60006020820190508181036000830152613eb981613e7d565b9050919050565b7f4552433732313a206d696e7420746f20746865207a65726f2061646472657373600082015250565b6000613ef6602083612f00565b9150613f0182613ec0565b602082019050919050565b60006020820190508181036000830152613f2581613ee9565b9050919050565b7f4552433732313a20746f6b656e20616c7265616479206d696e74656400000000600082015250565b6000613f62601c83612f00565b9150613f6d82613f2c565b602082019050919050565b60006020820190508181036000830152613f9181613f55565b9050919050565b7f4e487b7100000000000000000000000000000000000000000000000000000000600052601260045260246000fd5b7f45524337323155524953746f726167653a2055524920736574206f66206e6f6e60008201527f6578697374656e7420746f6b656e000000000000000000000000000000000000602082015250565b6000614023602e83612f00565b915061402e82613fc7565b604082019050919050565b6000602082019050818103600083015261405281614016565b9050919050565b7f4552433732313a20617070726f766520746f2063616c6c657200000000000000600082015250565b600061408f601983612f00565b915061409a82614059565b602082019050919050565b600060208201905081810360008301526140be81614082565b9050919050565b7f4552433732313a207472616e7366657220746f206e6f6e20455243373231526560008201527f63656976657220696d706c656d656e7465720000000000000000000000000000602082015250565b6000614121603283612f00565b915061412c826140c5565b604082019050919050565b6000602082019050818103600083015261415081614114565b9050919050565b7f534254203a206e6f7420706f737369626c6520746f205472616e73666572207960008201527f6f75722043686c49640000000000000000000000000000000000000000000000602082015250565b60006141b3602983612f00565b91506141be82614157565b604082019050919050565b600060208201905081810360008301526141e2816141a6565b9050919050565b600081519050919050565b600082825260208201905092915050565b6000614210826141e9565b61421a81856141f4565b935061422a818560208601612c58565b61423381612c82565b840191505092915050565b60006080820190506142536000830187612fc5565b6142606020830186612fc5565b61426d6040830185613287565b818103606083015261427f8184614205565b905095945050505050565b60008151905061429981612e7d565b92915050565b6000602082840312156142b5576142b4612b8e565b5b60006142c38482850161428a565b91505092915050565b7f4e487b7100000000000000000000000000000000000000000000000000000000600052601160045260246000fd5b600061430682612c23565b915061431183612c23565b9250828203905081811115614329576143286142cc565b5b92915050565b600061433a82612c23565b915061434583612c23565b925082820190508082111561435d5761435c6142cc565b5b9291505056fe68747470733a2f2f697066732e696f2f697066732f516d51696365694746785637327a754b68793367675a686f467531476375767533356b6865646a7478414d4c36472fa2646970667358221220a25431f31db152d855c6756fc74f235275df4f04bd10e549f168b76177453e4164736f6c63430008130033",
  "immutableReferences": {},
  "source": "// SPDX-License-Identifier: GPL-3.0\npragma solidity 0.8.19;\n\nimport \"../node_modules/@openzeppelin/contracts/token/ERC721/extensions/ERC721URIStorage.sol\";\nimport \"../node_modules/@openzeppelin/contracts/utils/Counters.sol\";\nimport \"../node_modules/@openzeppelin/contracts/access/Ownable.sol\";\nimport \"../node_modules/@openzeppelin/contracts/utils/Strings.sol\";\n           \n/// @title  ChlChain SBT contract\n/// @author Saad Igueninni\n/// @notice ERC721 not transferable, bound to Soul\n/// @dev Inherits the OpenZepplin Ownable ,ERC721URIStorage,Counters & Strings contracts\ncontract ChlChainSBT is ERC721URIStorage, Ownable {\n    using Counters for Counters.Counter;\n\n    enum Gender {\n        Male,\n        Female\n    }\n\n    enum Role {\n        Sounder,\n        Challengeed\n    }\n\n    struct ChlProfile {\n        uint256 ChlIdCounter;\n        string name;\n        Gender gender;\n        uint256 age;\n        Role role;\n        bool isChlIdGranted;\n    }\n\n    /// @notice mapping to match Adress to Profile\n    mapping(address => ChlProfile) ChlProfiles;\n    Counters.Counter private _ChlIdCounter;\n\n    event grantedChlID(ChlProfile _newChlProfile);\n    event revokedChlID(address _profileAddress);\n    event updatedChlID(address _profileAddress);\n\n    constructor() ERC721(\"ChlChainID\", \"ChlId\") {}\n\n    // ::::::::::::: MODIFIERS ::::::::::::: //\n    modifier onlySounders(address _profileAddress) {\n        require(\n            (ChlProfiles[_profileAddress].isChlIdGranted &&\n                ChlProfiles[_profileAddress].role == Role.Sounder),\n            \"You are not a sounder\"\n        );\n        _;\n    }\n\n    modifier onlyChallengeeds(address _profileAddress) {\n        require(\n            (ChlProfiles[_profileAddress].isChlIdGranted &&\n                ChlProfiles[msg.sender].role == Role.Challengeed),\n            \"You are not a Challengeed\"\n        );\n        _;\n    }\n\n    modifier ChlIdExists(address _profileAddress) {\n        require(\n            ChlProfiles[_profileAddress].isChlIdGranted,\n            \"ChlID do not exists\"\n        );\n        _;\n    }\n\n    // ::::::::::::: GETTERS ::::::::::::: //\n    function getChlID(address _profileAddress)\n        external\n        view\n        onlyOwner\n        ChlIdExists(_profileAddress)\n        returns (ChlProfile memory)\n    {\n        return ChlProfiles[_profileAddress];\n    }\n\n    function isGrantedChlID(address _profileAddress)\n        external\n        view\n        onlyOwner\n        returns (bool)\n    {\n        return ChlProfiles[_profileAddress].isChlIdGranted;\n    }\n\n    /// @notice we check existence and role \n    function isSounder(address _profileAddress)\n        external\n        view\n        onlyOwner\n        returns (bool)\n    {\n        return (ChlProfiles[_profileAddress].isChlIdGranted &&\n            ChlProfiles[_profileAddress].role == Role.Sounder);\n    }\n\n    /// @notice we check existence and role\n    function isChallengeed(address _profileAddress)\n        external\n        view\n        onlyOwner\n        returns (bool)\n    {\n        return (ChlProfiles[_profileAddress].isChlIdGranted &&\n            ChlProfiles[_profileAddress].role == Role.Challengeed);\n    }\n\n    // ::::::::::::: MEMBERS MANAGEMENT ::::::::::::: //\n\n    /// @notice Owner grant SBT\n    /// @dev We check non existence of profile\n    /// @param _profileAddress Address of new profile\n    /// @param _name Name \n    /// @param _age age\n    /// @param _gender gender( )\n    /// @return newChlID Id OF SBT\n    function grantChlID(\n        address _profileAddress,\n        // string memory _SBTUri,\n        string memory _name,\n        uint256 _age,\n        uint8 _gender,\n        uint8 _role\n    ) public onlyOwner returns (uint256) {\n        require(\n            !ChlProfiles[_profileAddress].isChlIdGranted,\n            \"ChlID already exists\"\n        );\n\n        _ChlIdCounter.increment(); //To start at 1\n        uint256 newChlID = _ChlIdCounter.current();\n        ChlProfile memory newChlProfile;\n\n        //Add new Profile\n        newChlProfile.ChlIdCounter = newChlID;\n        newChlProfile.name = _name;\n        newChlProfile.age = _age;\n        newChlProfile.gender = Gender(_gender);\n        newChlProfile.role = Role(_role);\n        newChlProfile.isChlIdGranted = true;\n        ChlProfiles[_profileAddress] = newChlProfile;\n\n        _mint(_profileAddress, newChlID);\n\n        string memory urinumber = Strings.toString(newChlID);\n        string\n            memory tokenURI = \"https://ipfs.io/ipfs/QmQiceiGFxV72zuKhy3ggZhoFu1Gcuvu35khedjtxAML6G/\";\n        string memory _SBTUri = string.concat(tokenURI, urinumber, \".json\");\n\n        _setTokenURI(newChlID, _SBTUri);\n\n        emit grantedChlID(newChlProfile);\n        return newChlID;\n    }\n\n\n    /// @notice Owner revoke SBT\n    /// @dev Wecheck exitence before revoking\n    /// @param _profileAddress Address of the revoked profile\n    function revokeChlID(address _profileAddress) external onlyOwner {\n        require(\n           ChlProfiles[_profileAddress].isChlIdGranted,\n            \"ChlID do not exists\"\n        );\n        emit revokedChlID(_profileAddress);\n        delete ChlProfiles[_profileAddress];\n    }\n\n\n    /// @notice Owner update SBT\n    /// @dev We check  existence of profile\n    /// @param _profileAddress Address of  profile to be updated\n    /// @param _name Name \n    /// @param _age age\n    /// @param _gender gender( )\n    function updateChlID(\n        address _profileAddress,\n        string calldata _name,\n        uint256 _age,\n        uint8 _gender,\n        uint8 _role\n    ) external onlyOwner {\n        require(\n           ChlProfiles[_profileAddress].isChlIdGranted,\n            \"ChlID do not exists\"\n        );\n\n        ChlProfile memory UpdChlProfile;\n\n        UpdChlProfile = ChlProfiles[_profileAddress];\n        UpdChlProfile.name = _name;\n        UpdChlProfile.age = _age;\n        UpdChlProfile.gender = Gender(_gender);\n        UpdChlProfile.role = Role(_role);\n        ChlProfiles[_profileAddress] = UpdChlProfile;\n\n        emit updatedChlID(_profileAddress);\n    }\n\n    // ::::::::::::: OVVERIDES ::::::::::::: //\n    /// @notice Usage of hook to block Transfer of SBT\n    function _beforeTokenTransfer(\n        address from,\n        address to,\n        uint256 tokenId,\n        uint256 batchSize\n    ) internal virtual override {\n        require(\n            from == address(0),\n            \"SBT : not possible to Transfer your ChlId\"\n        );\n        super._beforeTokenTransfer(from, to, tokenId, batchSize);\n    }\n}\n",
  "sourcePath": "/home/saadi/coursAlyra/GoalTogeTher/truffle/contracts/ChlChainSBT.sol",
  "compiler": {
    "name": "solc",
    "version": "0.8.19+commit.7dd6d404.Emscripten.clang"
  },
  "schemaVersion": "3.4.10",
  "updatedAt": "2023-07-22T15:29:45.419Z",
  "devdoc": {
    "author": "Saad Igueninni",
    "details": "Inherits the OpenZepplin Ownable ,ERC721URIStorage,Counters & Strings contracts",
    "events": {
      "Approval(address,address,uint256)": {
        "details": "Emitted when `owner` enables `approved` to manage the `tokenId` token."
      },
      "ApprovalForAll(address,address,bool)": {
        "details": "Emitted when `owner` enables or disables (`approved`) `operator` to manage all of its assets."
      },
      "Transfer(address,address,uint256)": {
        "details": "Emitted when `tokenId` token is transferred from `from` to `to`."
      }
    },
    "kind": "dev",
    "methods": {
      "approve(address,uint256)": {
        "details": "See {IERC721-approve}."
      },
      "balanceOf(address)": {
        "details": "See {IERC721-balanceOf}."
      },
      "getApproved(uint256)": {
        "details": "See {IERC721-getApproved}."
      },
      "grantChlID(address,string,uint256,uint8,uint8)": {
        "details": "We check non existence of profile",
        "params": {
          "_age": "age",
          "_gender": "gender( )",
          "_name": "Name ",
          "_profileAddress": "Address of new profile"
        },
        "returns": {
          "_0": "newChlID Id OF SBT"
        }
      },
      "isApprovedForAll(address,address)": {
        "details": "See {IERC721-isApprovedForAll}."
      },
      "name()": {
        "details": "See {IERC721Metadata-name}."
      },
      "owner()": {
        "details": "Returns the address of the current owner."
      },
      "ownerOf(uint256)": {
        "details": "See {IERC721-ownerOf}."
      },
      "renounceOwnership()": {
        "details": "Leaves the contract without owner. It will not be possible to call `onlyOwner` functions anymore. Can only be called by the current owner. NOTE: Renouncing ownership will leave the contract without an owner, thereby removing any functionality that is only available to the owner."
      },
      "revokeChlID(address)": {
        "details": "Wecheck exitence before revoking",
        "params": {
          "_profileAddress": "Address of the revoked profile"
        }
      },
      "safeTransferFrom(address,address,uint256)": {
        "details": "See {IERC721-safeTransferFrom}."
      },
      "safeTransferFrom(address,address,uint256,bytes)": {
        "details": "See {IERC721-safeTransferFrom}."
      },
      "setApprovalForAll(address,bool)": {
        "details": "See {IERC721-setApprovalForAll}."
      },
      "supportsInterface(bytes4)": {
        "details": "See {IERC165-supportsInterface}."
      },
      "symbol()": {
        "details": "See {IERC721Metadata-symbol}."
      },
      "tokenURI(uint256)": {
        "details": "See {IERC721Metadata-tokenURI}."
      },
      "transferFrom(address,address,uint256)": {
        "details": "See {IERC721-transferFrom}."
      },
      "transferOwnership(address)": {
        "details": "Transfers ownership of the contract to a new account (`newOwner`). Can only be called by the current owner."
      },
      "updateChlID(address,string,uint256,uint8,uint8)": {
        "details": "We check  existence of profile",
        "params": {
          "_age": "age",
          "_gender": "gender( )",
          "_name": "Name ",
          "_profileAddress": "Address of  profile to be updated"
        }
      }
    },
    "title": "ChlChain SBT contract",
    "version": 1
  },
  "userdoc": {
    "kind": "user",
    "methods": {
      "grantChlID(address,string,uint256,uint8,uint8)": {
        "notice": "Owner grant SBT"
      },
      "isChallengeed(address)": {
        "notice": "we check existence and role"
      },
      "isSounder(address)": {
        "notice": "we check existence and role "
      },
      "revokeChlID(address)": {
        "notice": "Owner revoke SBT"
      },
      "updateChlID(address,string,uint256,uint8,uint8)": {
        "notice": "Owner update SBT"
      }
    },
    "notice": "ERC721 not transferable, bound to Soul",
    "version": 1
  }
}