{
  "contractName": "ChlDex",
  "abi": [
    {
      "inputs": [
        {
          "internalType": "address",
          "name": "_ChlAddress",
          "type": "address"
        }
      ],
      "stateMutability": "nonpayable",
      "type": "constructor"
    },
    {
      "anonymous": false,
      "inputs": [
        {
          "indexed": false,
          "internalType": "address",
          "name": "_sounderAddress",
          "type": "address"
        },
        {
          "indexed": false,
          "internalType": "uint256",
          "name": "_amountOfETH",
          "type": "uint256"
        },
        {
          "indexed": false,
          "internalType": "uint256",
          "name": "_amountOfCHLs",
          "type": "uint256"
        }
      ],
      "name": "ChlBuyed",
      "type": "event"
    },
    {
      "anonymous": false,
      "inputs": [
        {
          "indexed": true,
          "internalType": "address",
          "name": "previousOwner",
          "type": "address"
        },
        {
          "indexed": true,
          "internalType": "address",
          "name": "newOwner",
          "type": "address"
        }
      ],
      "name": "OwnershipTransferred",
      "type": "event"
    },
    {
      "inputs": [],
      "name": "ChlContractAddress",
      "outputs": [
        {
          "internalType": "address",
          "name": "",
          "type": "address"
        }
      ],
      "stateMutability": "view",
      "type": "function"
    },
    {
      "inputs": [],
      "name": "owner",
      "outputs": [
        {
          "internalType": "address",
          "name": "",
          "type": "address"
        }
      ],
      "stateMutability": "view",
      "type": "function"
    },
    {
      "inputs": [],
      "name": "renounceOwnership",
      "outputs": [],
      "stateMutability": "nonpayable",
      "type": "function"
    },
    {
      "inputs": [],
      "name": "tokensPerEth",
      "outputs": [
        {
          "internalType": "uint256",
          "name": "",
          "type": "uint256"
        }
      ],
      "stateMutability": "view",
      "type": "function"
    },
    {
      "inputs": [
        {
          "internalType": "address",
          "name": "newOwner",
          "type": "address"
        }
      ],
      "name": "transferOwnership",
      "outputs": [],
      "stateMutability": "nonpayable",
      "type": "function"
    },
    {
      "inputs": [],
      "name": "buyTokens",
      "outputs": [
        {
          "internalType": "uint256",
          "name": "tokenAmount",
          "type": "uint256"
        }
      ],
      "stateMutability": "payable",
      "type": "function"
    },
    {
      "inputs": [],
      "name": "withdraw",
      "outputs": [],
      "stateMutability": "nonpayable",
      "type": "function"
    }
  ],
  "bytecode": "0x608060405260326003553480156200001657600080fd5b50604051620010013803806200100183398181016040528101906200003c9190620001da565b6200005c62000050620000a460201b60201c565b620000ac60201b60201c565b80600160006101000a81548173ffffffffffffffffffffffffffffffffffffffff021916908373ffffffffffffffffffffffffffffffffffffffff160217905550506200020c565b600033905090565b60008060009054906101000a900473ffffffffffffffffffffffffffffffffffffffff169050816000806101000a81548173ffffffffffffffffffffffffffffffffffffffff021916908373ffffffffffffffffffffffffffffffffffffffff1602179055508173ffffffffffffffffffffffffffffffffffffffff168173ffffffffffffffffffffffffffffffffffffffff167f8be0079c531659141344cd1fd0a4f28419497f9722a3daafe3b4186f6b6457e060405160405180910390a35050565b600080fd5b600073ffffffffffffffffffffffffffffffffffffffff82169050919050565b6000620001a28262000175565b9050919050565b620001b48162000195565b8114620001c057600080fd5b50565b600081519050620001d481620001a9565b92915050565b600060208284031215620001f357620001f262000170565b5b60006200020384828501620001c3565b91505092915050565b610de5806200021c6000396000f3fe6080604052600436106100705760003560e01c80639199a0951161004e5780639199a095146100ce578063cbdd69b5146100f9578063d0febe4c14610124578063f2fde38b1461014257610070565b80633ccfd60b14610075578063715018a61461008c5780638da5cb5b146100a3575b600080fd5b34801561008157600080fd5b5061008a61016b565b005b34801561009857600080fd5b506100a161026b565b005b3480156100af57600080fd5b506100b861027f565b6040516100c59190610756565b60405180910390f35b3480156100da57600080fd5b506100e36102a8565b6040516100f09190610756565b60405180910390f35b34801561010557600080fd5b5061010e6102ce565b60405161011b919061078a565b60405180910390f35b61012c6102d4565b604051610139919061078a565b60405180910390f35b34801561014e57600080fd5b50610169600480360381019061016491906107d6565b610548565b005b6101736105cb565b6000479050600081116101bb576040517f08c379a00000000000000000000000000000000000000000000000000000000081526004016101b290610886565b60405180910390fd5b60003373ffffffffffffffffffffffffffffffffffffffff16476040516101e1906108d7565b60006040518083038185875af1925050503d806000811461021e576040519150601f19603f3d011682016040523d82523d6000602084013e610223565b606091505b5050905080610267576040517f08c379a000000000000000000000000000000000000000000000000000000000815260040161025e90610938565b60405180910390fd5b5050565b6102736105cb565b61027d6000610649565b565b60008060009054906101000a900473ffffffffffffffffffffffffffffffffffffffff16905090565b600260009054906101000a900473ffffffffffffffffffffffffffffffffffffffff1681565b60035481565b6000803411610318576040517f08c379a000000000000000000000000000000000000000000000000000000000815260040161030f906109a4565b60405180910390fd5b6000600354670de0b6b3a7640000346103319190610a22565b61033b9190610a53565b90506000600160009054906101000a900473ffffffffffffffffffffffffffffffffffffffff1673ffffffffffffffffffffffffffffffffffffffff166370a08231306040518263ffffffff1660e01b815260040161039a9190610756565b602060405180830381865afa1580156103b7573d6000803e3d6000fd5b505050506040513d601f19601f820116820180604052508101906103db9190610ac1565b905081811015610420576040517f08c379a000000000000000000000000000000000000000000000000000000000815260040161041790610b60565b60405180910390fd5b6000600160009054906101000a900473ffffffffffffffffffffffffffffffffffffffff1673ffffffffffffffffffffffffffffffffffffffff1663a9059cbb33856040518363ffffffff1660e01b815260040161047f929190610b80565b6020604051808303816000875af115801561049e573d6000803e3d6000fd5b505050506040513d601f19601f820116820180604052508101906104c29190610be1565b905080610504576040517f08c379a00000000000000000000000000000000000000000000000000000000081526004016104fb90610c5a565b60405180910390fd5b7f27dbf878316ca2631009fa724e2b472f752c514df4284bf7c3a9a796712e86fb33348560405161053793929190610c7a565b60405180910390a182935050505090565b6105506105cb565b600073ffffffffffffffffffffffffffffffffffffffff168173ffffffffffffffffffffffffffffffffffffffff16036105bf576040517f08c379a00000000000000000000000000000000000000000000000000000000081526004016105b690610d23565b60405180910390fd5b6105c881610649565b50565b6105d361070d565b73ffffffffffffffffffffffffffffffffffffffff166105f161027f565b73ffffffffffffffffffffffffffffffffffffffff1614610647576040517f08c379a000000000000000000000000000000000000000000000000000000000815260040161063e90610d8f565b60405180910390fd5b565b60008060009054906101000a900473ffffffffffffffffffffffffffffffffffffffff169050816000806101000a81548173ffffffffffffffffffffffffffffffffffffffff021916908373ffffffffffffffffffffffffffffffffffffffff1602179055508173ffffffffffffffffffffffffffffffffffffffff168173ffffffffffffffffffffffffffffffffffffffff167f8be0079c531659141344cd1fd0a4f28419497f9722a3daafe3b4186f6b6457e060405160405180910390a35050565b600033905090565b600073ffffffffffffffffffffffffffffffffffffffff82169050919050565b600061074082610715565b9050919050565b61075081610735565b82525050565b600060208201905061076b6000830184610747565b92915050565b6000819050919050565b61078481610771565b82525050565b600060208201905061079f600083018461077b565b92915050565b600080fd5b6107b381610735565b81146107be57600080fd5b50565b6000813590506107d0816107aa565b92915050565b6000602082840312156107ec576107eb6107a5565b5b60006107fa848285016107c1565b91505092915050565b600082825260208201905092915050565b7f43686c44657842616c616e636520686173206e6f7468696e6720746f2077697460008201527f6864726177000000000000000000000000000000000000000000000000000000602082015250565b6000610870602583610803565b915061087b82610814565b604082019050919050565b6000602082019050818103600083015261089f81610863565b9050919050565b600081905092915050565b50565b60006108c16000836108a6565b91506108cc826108b1565b600082019050919050565b60006108e2826108b4565b9150819050919050565b7f4661696c656420746f2077697468647261772100000000000000000000000000600082015250565b6000610922601383610803565b915061092d826108ec565b602082019050919050565b6000602082019050818103600083015261095181610915565b9050919050565b7f455448206e656564656420746f206275792043484c7300000000000000000000600082015250565b600061098e601683610803565b915061099982610958565b602082019050919050565b600060208201905081810360008301526109bd81610981565b9050919050565b7f4e487b7100000000000000000000000000000000000000000000000000000000600052601260045260246000fd5b7f4e487b7100000000000000000000000000000000000000000000000000000000600052601160045260246000fd5b6000610a2d82610771565b9150610a3883610771565b925082610a4857610a476109c4565b5b828204905092915050565b6000610a5e82610771565b9150610a6983610771565b9250828202610a7781610771565b91508282048414831517610a8e57610a8d6109f3565b5b5092915050565b610a9e81610771565b8114610aa957600080fd5b50565b600081519050610abb81610a95565b92915050565b600060208284031215610ad757610ad66107a5565b5b6000610ae584828501610aac565b91505092915050565b7f4e6f7420656e6f7567682043484c7320696e2062616c616e6365206f6620436860008201527f6c44657800000000000000000000000000000000000000000000000000000000602082015250565b6000610b4a602483610803565b9150610b5582610aee565b604082019050919050565b60006020820190508181036000830152610b7981610b3d565b9050919050565b6000604082019050610b956000830185610747565b610ba2602083018461077b565b9392505050565b60008115159050919050565b610bbe81610ba9565b8114610bc957600080fd5b50565b600081519050610bdb81610bb5565b92915050565b600060208284031215610bf757610bf66107a5565b5b6000610c0584828501610bcc565b91505092915050565b7f4661696c656420746f207472616e736665722043484c7320746f207573657200600082015250565b6000610c44601f83610803565b9150610c4f82610c0e565b602082019050919050565b60006020820190508181036000830152610c7381610c37565b9050919050565b6000606082019050610c8f6000830186610747565b610c9c602083018561077b565b610ca9604083018461077b565b949350505050565b7f4f776e61626c653a206e6577206f776e657220697320746865207a65726f206160008201527f6464726573730000000000000000000000000000000000000000000000000000602082015250565b6000610d0d602683610803565b9150610d1882610cb1565b604082019050919050565b60006020820190508181036000830152610d3c81610d00565b9050919050565b7f4f776e61626c653a2063616c6c6572206973206e6f7420746865206f776e6572600082015250565b6000610d79602083610803565b9150610d8482610d43565b602082019050919050565b60006020820190508181036000830152610da881610d6c565b905091905056fea26469706673582212200cc83d873c36958324a0a28df6d166fc58e60e8e4e2c930b370b3b83822acef064736f6c63430008130033",
  "immutableReferences": {},
  "source": "// SPDX-License-Identifier: GPL-3.0\npragma solidity 0.8.19;\n\nimport \"../node_modules/@openzeppelin/contracts/access/Ownable.sol\";\nimport \"../node_modules/@openzeppelin/contracts/token/ERC20/IERC20.sol\";\n\n/// @title  ChlDex\n/// @author Saad Igueninni\n/// @notice Responsible of selling CHLs, withdraw...\n/// @dev Inherits the OpenZepplin Ownable contract\ncontract ChlDex is Ownable {\n    IERC20 Chl;\n    address public ChlContractAddress;\n\n    //CHL price in ETH\n    uint256 public tokensPerEth = 50;\n\n    event ChlBuyed(\n        address _sounderAddress,\n        uint256 _amountOfETH,\n        uint256 _amountOfCHLs\n    );\n\n    constructor(address _ChlAddress) {\n        Chl = IERC20(_ChlAddress);\n       \n    }\n\n    /**\n     * @notice Sounders users to buy token for ETH\n     */\n    function buyTokens() public payable returns (uint256 tokenAmount) {\n        require(msg.value > 0, \"ETH needed to buy CHLs\");\n\n        uint256 amountToBuy = ( msg.value/(1 ether) ) * tokensPerEth;\n\n        // check if the Vendor Contract has enough amount of tokens for the transaction\n        uint256 ChlDexBalance = Chl.balanceOf(address(this));\n        require(ChlDexBalance >= amountToBuy, \"Not enough CHLs in balance of ChlDex\");\n\n        // Transfer token to the msg.sender\n       bool sent = Chl.transfer(msg.sender, amountToBuy );\n        require(sent, \"Failed to transfer CHLs to user\");\n\n        // emit the event\n        emit ChlBuyed(msg.sender, msg.value, amountToBuy);\n\n        return amountToBuy;\n    }\n\n    /**\n     * @notice Allow the owner of the contract to withdraw ETH\n     */\n    function withdraw() public onlyOwner {\n        uint256 ChlDexBalance = address(this).balance;\n        require(ChlDexBalance > 0, \"ChlDexBalance has nothing to withdraw\");\n\n        (bool sent, ) = msg.sender.call{value: address(this).balance}(\"\");\n        require(sent, \"Failed to withdraw!\");\n    }\n}\n",
  "sourcePath": "/home/saadi/coursAlyra/GoalTogeTher/truffle/contracts/ChlDex.sol",
  "compiler": {
    "name": "solc",
    "version": "0.8.19+commit.7dd6d404.Emscripten.clang"
  },
  "schemaVersion": "3.4.10",
  "updatedAt": "2023-07-22T15:29:45.572Z",
  "devdoc": {
    "author": "Saad Igueninni",
    "details": "Inherits the OpenZepplin Ownable contract",
    "kind": "dev",
    "methods": {
      "owner()": {
        "details": "Returns the address of the current owner."
      },
      "renounceOwnership()": {
        "details": "Leaves the contract without owner. It will not be possible to call `onlyOwner` functions anymore. Can only be called by the current owner. NOTE: Renouncing ownership will leave the contract without an owner, thereby removing any functionality that is only available to the owner."
      },
      "transferOwnership(address)": {
        "details": "Transfers ownership of the contract to a new account (`newOwner`). Can only be called by the current owner."
      }
    },
    "title": "ChlDex",
    "version": 1
  },
  "userdoc": {
    "kind": "user",
    "methods": {
      "buyTokens()": {
        "notice": "Sounders users to buy token for ETH"
      },
      "withdraw()": {
        "notice": "Allow the owner of the contract to withdraw ETH"
      }
    },
    "notice": "Responsible of selling CHLs, withdraw...",
    "version": 1
  }
}