{
  "contractName": "GoalTogeTherHandling",
  "abi": [
    {
      "inputs": [],
      "stateMutability": "nonpayable",
      "type": "constructor"
    },
    {
      "anonymous": false,
      "inputs": [
        {
          "indexed": true,
          "internalType": "address",
          "name": "previousOwner",
          "type": "address"
        },
        {
          "indexed": true,
          "internalType": "address",
          "name": "newOwner",
          "type": "address"
        }
      ],
      "name": "OwnershipTransferred",
      "type": "event"
    },
    {
      "anonymous": false,
      "inputs": [
        {
          "indexed": false,
          "internalType": "address",
          "name": "_memberChallenge",
          "type": "address"
        },
        {
          "indexed": false,
          "internalType": "uint256",
          "name": "_idChallenge",
          "type": "uint256"
        }
      ],
      "name": "challengeCircleNFTMinted",
      "type": "event"
    },
    {
      "anonymous": false,
      "inputs": [
        {
          "indexed": false,
          "internalType": "address",
          "name": "_ownerChallenge",
          "type": "address"
        },
        {
          "components": [
            {
              "internalType": "uint256",
              "name": "id",
              "type": "uint256"
            },
            {
              "internalType": "address",
              "name": "owner",
              "type": "address"
            },
            {
              "internalType": "uint256",
              "name": "amountDeposit",
              "type": "uint256"
            },
            {
              "internalType": "uint256",
              "name": "totalJoiners",
              "type": "uint256"
            },
            {
              "internalType": "uint256",
              "name": "totalPool",
              "type": "uint256"
            },
            {
              "internalType": "enum GoalTogeTherHandling.ChallengeStatus",
              "name": "challengeStatus",
              "type": "uint8"
            },
            {
              "internalType": "string",
              "name": "title",
              "type": "string"
            },
            {
              "internalType": "string",
              "name": "commitDesc",
              "type": "string"
            },
            {
              "internalType": "string",
              "name": "proofDesc",
              "type": "string"
            },
            {
              "internalType": "bool",
              "name": "exists",
              "type": "bool"
            }
          ],
          "indexed": false,
          "internalType": "struct GoalTogeTherHandling.Challenge",
          "name": "_challenge",
          "type": "tuple"
        }
      ],
      "name": "challengeCreated",
      "type": "event"
    },
    {
      "anonymous": false,
      "inputs": [
        {
          "indexed": false,
          "internalType": "uint256",
          "name": "_idChallenge",
          "type": "uint256"
        }
      ],
      "name": "challengeDeleted",
      "type": "event"
    },
    {
      "anonymous": false,
      "inputs": [
        {
          "indexed": false,
          "internalType": "uint256",
          "name": "_idChallenge",
          "type": "uint256"
        }
      ],
      "name": "challengeTerminated",
      "type": "event"
    },
    {
      "anonymous": false,
      "inputs": [
        {
          "indexed": false,
          "internalType": "address",
          "name": "_memberChallenge",
          "type": "address"
        },
        {
          "indexed": false,
          "internalType": "uint256",
          "name": "_idChallenge",
          "type": "uint256"
        },
        {
          "indexed": false,
          "internalType": "uint256",
          "name": "_idProof",
          "type": "uint256"
        },
        {
          "indexed": false,
          "internalType": "uint256",
          "name": "timeStamp",
          "type": "uint256"
        }
      ],
      "name": "proofGiven",
      "type": "event"
    },
    {
      "inputs": [
        {
          "internalType": "uint256",
          "name": "",
          "type": "uint256"
        }
      ],
      "name": "challenges",
      "outputs": [
        {
          "internalType": "uint256",
          "name": "id",
          "type": "uint256"
        },
        {
          "internalType": "address",
          "name": "owner",
          "type": "address"
        },
        {
          "internalType": "uint256",
          "name": "amountDeposit",
          "type": "uint256"
        },
        {
          "internalType": "uint256",
          "name": "totalJoiners",
          "type": "uint256"
        },
        {
          "internalType": "uint256",
          "name": "totalPool",
          "type": "uint256"
        },
        {
          "internalType": "enum GoalTogeTherHandling.ChallengeStatus",
          "name": "challengeStatus",
          "type": "uint8"
        },
        {
          "internalType": "string",
          "name": "title",
          "type": "string"
        },
        {
          "internalType": "string",
          "name": "commitDesc",
          "type": "string"
        },
        {
          "internalType": "string",
          "name": "proofDesc",
          "type": "string"
        },
        {
          "internalType": "bool",
          "name": "exists",
          "type": "bool"
        }
      ],
      "stateMutability": "view",
      "type": "function",
      "constant": true
    },
    {
      "inputs": [],
      "name": "owner",
      "outputs": [
        {
          "internalType": "address",
          "name": "",
          "type": "address"
        }
      ],
      "stateMutability": "view",
      "type": "function",
      "constant": true
    },
    {
      "inputs": [],
      "name": "renounceOwnership",
      "outputs": [],
      "stateMutability": "nonpayable",
      "type": "function"
    },
    {
      "inputs": [
        {
          "internalType": "address",
          "name": "newOwner",
          "type": "address"
        }
      ],
      "name": "transferOwnership",
      "outputs": [],
      "stateMutability": "nonpayable",
      "type": "function"
    },
    {
      "inputs": [
        {
          "internalType": "string",
          "name": "_title",
          "type": "string"
        },
        {
          "internalType": "uint256",
          "name": "_amountDeposit",
          "type": "uint256"
        }
      ],
      "name": "createChallenge",
      "outputs": [
        {
          "internalType": "uint256",
          "name": "",
          "type": "uint256"
        }
      ],
      "stateMutability": "nonpayable",
      "type": "function"
    }
  ],
  "bytecode": "0x608060405234801561001057600080fd5b50600160008190555061003561002a61003a60201b60201c565b61004260201b60201c565b610108565b600033905090565b6000600160009054906101000a900473ffffffffffffffffffffffffffffffffffffffff16905081600160006101000a81548173ffffffffffffffffffffffffffffffffffffffff021916908373ffffffffffffffffffffffffffffffffffffffff1602179055508173ffffffffffffffffffffffffffffffffffffffff168173ffffffffffffffffffffffffffffffffffffffff167f8be0079c531659141344cd1fd0a4f28419497f9722a3daafe3b4186f6b6457e060405160405180910390a35050565b611247806101176000396000f3fe608060405234801561001057600080fd5b50600436106100575760003560e01c8063715018a61461005c5780638da5cb5b146100665780638f1d37761461008457806398c9f1df146100bd578063f2fde38b146100ed575b600080fd5b610064610109565b005b61006e61011d565b60405161007b919061081e565b60405180910390f35b61009e60048036038101906100999190610883565b610147565b6040516100b49a999897969594939291906109e1565b60405180910390f35b6100d760048036038101906100d29190610bc7565b61037d565b6040516100e49190610c23565b60405180910390f35b61010760048036038101906101029190610c6a565b61056d565b005b6101116105f0565b61011b600061066e565b565b6000600160009054906101000a900473ffffffffffffffffffffffffffffffffffffffff16905090565b6007818154811061015757600080fd5b90600052602060002090600a02016000915090508060000154908060010160009054906101000a900473ffffffffffffffffffffffffffffffffffffffff16908060020154908060030154908060040154908060050160009054906101000a900460ff16908060060180546101cb90610cc6565b80601f01602080910402602001604051908101604052809291908181526020018280546101f790610cc6565b80156102445780601f1061021957610100808354040283529160200191610244565b820191906000526020600020905b81548152906001019060200180831161022757829003601f168201915b50505050509080600701805461025990610cc6565b80601f016020809104026020016040519081016040528092919081815260200182805461028590610cc6565b80156102d25780601f106102a7576101008083540402835291602001916102d2565b820191906000526020600020905b8154815290600101906020018083116102b557829003601f168201915b5050505050908060080180546102e790610cc6565b80601f016020809104026020016040519081016040528092919081815260200182805461031390610cc6565b80156103605780601f1061033557610100808354040283529160200191610360565b820191906000526020600020905b81548152906001019060200180831161034357829003601f168201915b5050505050908060090160009054906101000a900460ff1690508a565b60006103896002610734565b6000610395600261074a565b905061039f610760565b8181600001818152505033816020019073ffffffffffffffffffffffffffffffffffffffff16908173ffffffffffffffffffffffffffffffffffffffff168152505083816040018181525050848160c0018190525060078190806001815401808255809150506001900390600052602060002090600a02016000909190919091506000820151816000015560208201518160010160006101000a81548173ffffffffffffffffffffffffffffffffffffffff021916908373ffffffffffffffffffffffffffffffffffffffff16021790555060408201518160020155606082015181600301556080820151816004015560a08201518160050160006101000a81548160ff021916908360018111156104ba576104b96108bf565b5b021790555060c08201518160060190816104d49190610ea3565b5060e08201518160070190816104ea9190610ea3565b506101008201518160080190816105019190610ea3565b506101208201518160090160006101000a81548160ff02191690831515021790555050507f875de49d6a57e8a02ea81a784b7f4d3a4d1ca25848b2948981e5852361dbbf7f33826040516105569291906110e3565b60405180910390a180600001519250505092915050565b6105756105f0565b600073ffffffffffffffffffffffffffffffffffffffff168173ffffffffffffffffffffffffffffffffffffffff16036105e4576040517f08c379a00000000000000000000000000000000000000000000000000000000081526004016105db90611185565b60405180910390fd5b6105ed8161066e565b50565b6105f8610758565b73ffffffffffffffffffffffffffffffffffffffff1661061661011d565b73ffffffffffffffffffffffffffffffffffffffff161461066c576040517f08c379a0000000000000000000000000000000000000000000000000000000008152600401610663906111f1565b60405180910390fd5b565b6000600160009054906101000a900473ffffffffffffffffffffffffffffffffffffffff16905081600160006101000a81548173ffffffffffffffffffffffffffffffffffffffff021916908373ffffffffffffffffffffffffffffffffffffffff1602179055508173ffffffffffffffffffffffffffffffffffffffff168173ffffffffffffffffffffffffffffffffffffffff167f8be0079c531659141344cd1fd0a4f28419497f9722a3daafe3b4186f6b6457e060405160405180910390a35050565b6001816000016000828254019250508190555050565b600081600001549050919050565b600033905090565b60405180610140016040528060008152602001600073ffffffffffffffffffffffffffffffffffffffff168152602001600081526020016000815260200160008152602001600060018111156107b9576107b86108bf565b5b81526020016060815260200160608152602001606081526020016000151581525090565b600073ffffffffffffffffffffffffffffffffffffffff82169050919050565b6000610808826107dd565b9050919050565b610818816107fd565b82525050565b6000602082019050610833600083018461080f565b92915050565b6000604051905090565b600080fd5b600080fd5b6000819050919050565b6108608161084d565b811461086b57600080fd5b50565b60008135905061087d81610857565b92915050565b60006020828403121561089957610898610843565b5b60006108a78482850161086e565b91505092915050565b6108b98161084d565b82525050565b7f4e487b7100000000000000000000000000000000000000000000000000000000600052602160045260246000fd5b600281106108ff576108fe6108bf565b5b50565b6000819050610910826108ee565b919050565b600061092082610902565b9050919050565b61093081610915565b82525050565b600081519050919050565b600082825260208201905092915050565b60005b83811015610970578082015181840152602081019050610955565b60008484015250505050565b6000601f19601f8301169050919050565b600061099882610936565b6109a28185610941565b93506109b2818560208601610952565b6109bb8161097c565b840191505092915050565b60008115159050919050565b6109db816109c6565b82525050565b6000610140820190506109f7600083018d6108b0565b610a04602083018c61080f565b610a11604083018b6108b0565b610a1e606083018a6108b0565b610a2b60808301896108b0565b610a3860a0830188610927565b81810360c0830152610a4a818761098d565b905081810360e0830152610a5e818661098d565b9050818103610100830152610a73818561098d565b9050610a836101208301846109d2565b9b9a5050505050505050505050565b600080fd5b600080fd5b7f4e487b7100000000000000000000000000000000000000000000000000000000600052604160045260246000fd5b610ad48261097c565b810181811067ffffffffffffffff82111715610af357610af2610a9c565b5b80604052505050565b6000610b06610839565b9050610b128282610acb565b919050565b600067ffffffffffffffff821115610b3257610b31610a9c565b5b610b3b8261097c565b9050602081019050919050565b82818337600083830152505050565b6000610b6a610b6584610b17565b610afc565b905082815260208101848484011115610b8657610b85610a97565b5b610b91848285610b48565b509392505050565b600082601f830112610bae57610bad610a92565b5b8135610bbe848260208601610b57565b91505092915050565b60008060408385031215610bde57610bdd610843565b5b600083013567ffffffffffffffff811115610bfc57610bfb610848565b5b610c0885828601610b99565b9250506020610c198582860161086e565b9150509250929050565b6000602082019050610c3860008301846108b0565b92915050565b610c47816107fd565b8114610c5257600080fd5b50565b600081359050610c6481610c3e565b92915050565b600060208284031215610c8057610c7f610843565b5b6000610c8e84828501610c55565b91505092915050565b7f4e487b7100000000000000000000000000000000000000000000000000000000600052602260045260246000fd5b60006002820490506001821680610cde57607f821691505b602082108103610cf157610cf0610c97565b5b50919050565b60008190508160005260206000209050919050565b60006020601f8301049050919050565b600082821b905092915050565b600060088302610d597fffffffffffffffffffffffffffffffffffffffffffffffffffffffffffffffff82610d1c565b610d638683610d1c565b95508019841693508086168417925050509392505050565b6000819050919050565b6000610da0610d9b610d968461084d565b610d7b565b61084d565b9050919050565b6000819050919050565b610dba83610d85565b610dce610dc682610da7565b848454610d29565b825550505050565b600090565b610de3610dd6565b610dee818484610db1565b505050565b5b81811015610e1257610e07600082610ddb565b600181019050610df4565b5050565b601f821115610e5757610e2881610cf7565b610e3184610d0c565b81016020851015610e40578190505b610e54610e4c85610d0c565b830182610df3565b50505b505050565b600082821c905092915050565b6000610e7a60001984600802610e5c565b1980831691505092915050565b6000610e938383610e69565b9150826002028217905092915050565b610eac82610936565b67ffffffffffffffff811115610ec557610ec4610a9c565b5b610ecf8254610cc6565b610eda828285610e16565b600060209050601f831160018114610f0d5760008415610efb578287015190505b610f058582610e87565b865550610f6d565b601f198416610f1b86610cf7565b60005b82811015610f4357848901518255600182019150602085019450602081019050610f1e565b86831015610f605784890151610f5c601f891682610e69565b8355505b6001600288020188555050505b505050505050565b610f7e8161084d565b82525050565b610f8d816107fd565b82525050565b610f9c81610915565b82525050565b600082825260208201905092915050565b6000610fbe82610936565b610fc88185610fa2565b9350610fd8818560208601610952565b610fe18161097c565b840191505092915050565b610ff5816109c6565b82525050565b6000610140830160008301516110146000860182610f75565b5060208301516110276020860182610f84565b50604083015161103a6040860182610f75565b50606083015161104d6060860182610f75565b5060808301516110606080860182610f75565b5060a083015161107360a0860182610f93565b5060c083015184820360c086015261108b8282610fb3565b91505060e083015184820360e08601526110a58282610fb3565b9150506101008301518482036101008601526110c18282610fb3565b9150506101208301516110d8610120860182610fec565b508091505092915050565b60006040820190506110f8600083018561080f565b818103602083015261110a8184610ffb565b90509392505050565b7f4f776e61626c653a206e6577206f776e657220697320746865207a65726f206160008201527f6464726573730000000000000000000000000000000000000000000000000000602082015250565b600061116f602683610941565b915061117a82611113565b604082019050919050565b6000602082019050818103600083015261119e81611162565b9050919050565b7f4f776e61626c653a2063616c6c6572206973206e6f7420746865206f776e6572600082015250565b60006111db602083610941565b91506111e6826111a5565b602082019050919050565b6000602082019050818103600083015261120a816111ce565b905091905056fea2646970667358221220b8e759a7e5789322fa8909491a8ef74aa8fd2863acb93123ec8fdd72ddd971cb64736f6c63430008130033",
  "immutableReferences": {},
  "source": "// SPDX-License-Identifier: GPL-3.0\npragma solidity 0.8.19;\n\nimport \"../node_modules/@openzeppelin/contracts/utils/Counters.sol\";\nimport \"../node_modules/@openzeppelin/contracts/security/ReentrancyGuard.sol\";\nimport \"../node_modules/@openzeppelin/contracts/access/Ownable.sol\";\n\ncontract GoalTogeTherHandling is ReentrancyGuard, Ownable {\n    using Counters for Counters.Counter;\n\n    Counters.Counter private _idNewChallenge;\n    Counters.Counter private _idNewProof;\n\n    enum ChallengeStatus {\n        OnGoing,\n        Terminated\n    }\n\n    struct Challenge {\n        uint256 id;\n        address owner;\n        uint256 amountDeposit;\n        uint256 totalJoiners;\n        uint256 totalPool;\n        ChallengeStatus challengeStatus;\n        string title;\n        string commitDesc;\n        string proofDesc;\n        bool exists;\n    }\n\n    struct Member {\n        address memberAddress;\n    }\n\n    mapping(address => uint256) memberToChallenge; //address to id of the challenge\n    mapping(uint256 => address[]) ChallengeToMembers; //challenge to list of members in the challenge\n    mapping(uint256 => Challenge) idToChallenge;\n\n     Challenge[] public challenges;\n\n    event challengeCreated(address _ownerChallenge, Challenge _challenge);\n    event challengeTerminated(uint256 _idChallenge);\n    event challengeDeleted(uint256 _idChallenge);\n    event challengeCircleNFTMinted(\n        address _memberChallenge,\n        uint256 _idChallenge\n    );\n    event proofGiven(\n        address _memberChallenge,\n        uint256 _idChallenge,\n        uint256 _idProof,\n        uint256 timeStamp\n    );\n\n    constructor() {}\n\n    // ::::::::::::: MODIFIERS ::::::::::::: //\n    modifier ChallengeExist(uint256 _idChallenge) {\n        require(idToChallenge[_idChallenge].exists, \"Challenge do not exists\");\n        _;\n    }\n\n\n   // ::::::::::::: GETTERS ::::::::::::: //\n\n\n\n // ::::::::::::: CHALLENGE MANAGEMENT ::::::::::::: //\n\nfunction createChallenge(\n        string memory _title,\n        uint256 _amountDeposit\n      \n    ) public  returns (uint256) {\n     \n\n    //    uint256 id;\n    //     address owner;\n    //     uint256 amountDeposit;\n    //     uint256 totalJoiners;\n    //     uint256 totalPool;\n    //     ChallengeStatus challengeStatus;\n    //     string title;\n    //     string commitDesc;\n    //     string proofDesc;\n    //     bool exists;\n\n\n\n        _idNewChallenge.increment(); \n        uint256 newChallengeId = _idNewChallenge.current();\n        Challenge memory newChallenge;\n\n        //Add new Challenge\n        newChallenge.id = newChallengeId;\n        newChallenge.owner = msg.sender;\n        newChallenge.amountDeposit = _amountDeposit;\n        newChallenge.title = _title;\n        challenges.push(newChallenge);\n    \n        emit challengeCreated(msg.sender,newChallenge);\n        return newChallenge.id;\n    }\n}\n",
  "sourcePath": "/home/saadi/coursAlyra/GoalTogeTher/truffle/contracts/GoalTogeTherHandling.sol",
  "compiler": {
    "name": "solc",
    "version": "0.8.19+commit.7dd6d404.Emscripten.clang"
  },
  "schemaVersion": "3.4.10",
  "updatedAt": "2023-07-23T04:48:45.345Z",
  "networkType": "ethereum",
  "devdoc": {
    "kind": "dev",
    "methods": {
      "owner()": {
        "details": "Returns the address of the current owner."
      },
      "renounceOwnership()": {
        "details": "Leaves the contract without owner. It will not be possible to call `onlyOwner` functions anymore. Can only be called by the current owner. NOTE: Renouncing ownership will leave the contract without an owner, thereby removing any functionality that is only available to the owner."
      },
      "transferOwnership(address)": {
        "details": "Transfers ownership of the contract to a new account (`newOwner`). Can only be called by the current owner."
      }
    },
    "version": 1
  },
  "userdoc": {
    "kind": "user",
    "methods": {},
    "version": 1
  }
}