{
  "contractName": "OpiChainSurveyNFT",
  "abi": [
    {
      "inputs": [],
      "stateMutability": "nonpayable",
      "type": "constructor"
    },
    {
      "anonymous": false,
      "inputs": [
        {
          "indexed": true,
          "internalType": "address",
          "name": "owner",
          "type": "address"
        },
        {
          "indexed": true,
          "internalType": "address",
          "name": "approved",
          "type": "address"
        },
        {
          "indexed": true,
          "internalType": "uint256",
          "name": "tokenId",
          "type": "uint256"
        }
      ],
      "name": "Approval",
      "type": "event"
    },
    {
      "anonymous": false,
      "inputs": [
        {
          "indexed": true,
          "internalType": "address",
          "name": "owner",
          "type": "address"
        },
        {
          "indexed": true,
          "internalType": "address",
          "name": "operator",
          "type": "address"
        },
        {
          "indexed": false,
          "internalType": "bool",
          "name": "approved",
          "type": "bool"
        }
      ],
      "name": "ApprovalForAll",
      "type": "event"
    },
    {
      "anonymous": false,
      "inputs": [
        {
          "indexed": true,
          "internalType": "address",
          "name": "previousOwner",
          "type": "address"
        },
        {
          "indexed": true,
          "internalType": "address",
          "name": "newOwner",
          "type": "address"
        }
      ],
      "name": "OwnershipTransferred",
      "type": "event"
    },
    {
      "anonymous": false,
      "inputs": [
        {
          "indexed": true,
          "internalType": "address",
          "name": "from",
          "type": "address"
        },
        {
          "indexed": true,
          "internalType": "address",
          "name": "to",
          "type": "address"
        },
        {
          "indexed": true,
          "internalType": "uint256",
          "name": "tokenId",
          "type": "uint256"
        }
      ],
      "name": "Transfer",
      "type": "event"
    },
    {
      "anonymous": false,
      "inputs": [
        {
          "indexed": false,
          "internalType": "address",
          "name": "_ownerAnswer",
          "type": "address"
        },
        {
          "indexed": false,
          "internalType": "uint256",
          "name": "_idAnswer",
          "type": "uint256"
        },
        {
          "indexed": false,
          "internalType": "uint256",
          "name": "_idSurvey",
          "type": "uint256"
        },
        {
          "indexed": false,
          "internalType": "uint256",
          "name": "idQuestion",
          "type": "uint256"
        }
      ],
      "name": "answerGiven",
      "type": "event"
    },
    {
      "anonymous": false,
      "inputs": [
        {
          "indexed": false,
          "internalType": "uint256",
          "name": "_idQuestion",
          "type": "uint256"
        },
        {
          "indexed": false,
          "internalType": "uint256",
          "name": "_idSurvey",
          "type": "uint256"
        }
      ],
      "name": "questionAdded",
      "type": "event"
    },
    {
      "anonymous": false,
      "inputs": [
        {
          "indexed": false,
          "internalType": "address",
          "name": "_ownerSurvey",
          "type": "address"
        },
        {
          "indexed": false,
          "internalType": "uint256",
          "name": "_idSurvey",
          "type": "uint256"
        }
      ],
      "name": "surveyCreated",
      "type": "event"
    },
    {
      "anonymous": false,
      "inputs": [
        {
          "indexed": false,
          "internalType": "uint256",
          "name": "_idSurvey",
          "type": "uint256"
        }
      ],
      "name": "surveyDeleted",
      "type": "event"
    },
    {
      "anonymous": false,
      "inputs": [
        {
          "indexed": false,
          "internalType": "uint256",
          "name": "_idSurvey",
          "type": "uint256"
        }
      ],
      "name": "surveyNFTMinted",
      "type": "event"
    },
    {
      "anonymous": false,
      "inputs": [
        {
          "indexed": false,
          "internalType": "uint256",
          "name": "_idSurvey",
          "type": "uint256"
        }
      ],
      "name": "surveyTerminated",
      "type": "event"
    },
    {
      "inputs": [],
      "name": "SurveyUnitCost",
      "outputs": [
        {
          "internalType": "uint256",
          "name": "",
          "type": "uint256"
        }
      ],
      "stateMutability": "view",
      "type": "function",
      "constant": true
    },
    {
      "inputs": [
        {
          "internalType": "address",
          "name": "to",
          "type": "address"
        },
        {
          "internalType": "uint256",
          "name": "tokenId",
          "type": "uint256"
        }
      ],
      "name": "approve",
      "outputs": [],
      "stateMutability": "nonpayable",
      "type": "function"
    },
    {
      "inputs": [
        {
          "internalType": "address",
          "name": "owner",
          "type": "address"
        }
      ],
      "name": "balanceOf",
      "outputs": [
        {
          "internalType": "uint256",
          "name": "",
          "type": "uint256"
        }
      ],
      "stateMutability": "view",
      "type": "function",
      "constant": true
    },
    {
      "inputs": [
        {
          "internalType": "uint256",
          "name": "tokenId",
          "type": "uint256"
        }
      ],
      "name": "getApproved",
      "outputs": [
        {
          "internalType": "address",
          "name": "",
          "type": "address"
        }
      ],
      "stateMutability": "view",
      "type": "function",
      "constant": true
    },
    {
      "inputs": [
        {
          "internalType": "address",
          "name": "owner",
          "type": "address"
        },
        {
          "internalType": "address",
          "name": "operator",
          "type": "address"
        }
      ],
      "name": "isApprovedForAll",
      "outputs": [
        {
          "internalType": "bool",
          "name": "",
          "type": "bool"
        }
      ],
      "stateMutability": "view",
      "type": "function",
      "constant": true
    },
    {
      "inputs": [],
      "name": "name",
      "outputs": [
        {
          "internalType": "string",
          "name": "",
          "type": "string"
        }
      ],
      "stateMutability": "view",
      "type": "function",
      "constant": true
    },
    {
      "inputs": [],
      "name": "owner",
      "outputs": [
        {
          "internalType": "address",
          "name": "",
          "type": "address"
        }
      ],
      "stateMutability": "view",
      "type": "function",
      "constant": true
    },
    {
      "inputs": [
        {
          "internalType": "uint256",
          "name": "tokenId",
          "type": "uint256"
        }
      ],
      "name": "ownerOf",
      "outputs": [
        {
          "internalType": "address",
          "name": "",
          "type": "address"
        }
      ],
      "stateMutability": "view",
      "type": "function",
      "constant": true
    },
    {
      "inputs": [],
      "name": "renounceOwnership",
      "outputs": [],
      "stateMutability": "nonpayable",
      "type": "function"
    },
    {
      "inputs": [
        {
          "internalType": "address",
          "name": "from",
          "type": "address"
        },
        {
          "internalType": "address",
          "name": "to",
          "type": "address"
        },
        {
          "internalType": "uint256",
          "name": "tokenId",
          "type": "uint256"
        }
      ],
      "name": "safeTransferFrom",
      "outputs": [],
      "stateMutability": "nonpayable",
      "type": "function"
    },
    {
      "inputs": [
        {
          "internalType": "address",
          "name": "from",
          "type": "address"
        },
        {
          "internalType": "address",
          "name": "to",
          "type": "address"
        },
        {
          "internalType": "uint256",
          "name": "tokenId",
          "type": "uint256"
        },
        {
          "internalType": "bytes",
          "name": "data",
          "type": "bytes"
        }
      ],
      "name": "safeTransferFrom",
      "outputs": [],
      "stateMutability": "nonpayable",
      "type": "function"
    },
    {
      "inputs": [
        {
          "internalType": "address",
          "name": "operator",
          "type": "address"
        },
        {
          "internalType": "bool",
          "name": "approved",
          "type": "bool"
        }
      ],
      "name": "setApprovalForAll",
      "outputs": [],
      "stateMutability": "nonpayable",
      "type": "function"
    },
    {
      "inputs": [
        {
          "internalType": "bytes4",
          "name": "interfaceId",
          "type": "bytes4"
        }
      ],
      "name": "supportsInterface",
      "outputs": [
        {
          "internalType": "bool",
          "name": "",
          "type": "bool"
        }
      ],
      "stateMutability": "view",
      "type": "function",
      "constant": true
    },
    {
      "inputs": [],
      "name": "symbol",
      "outputs": [
        {
          "internalType": "string",
          "name": "",
          "type": "string"
        }
      ],
      "stateMutability": "view",
      "type": "function",
      "constant": true
    },
    {
      "inputs": [
        {
          "internalType": "uint256",
          "name": "tokenId",
          "type": "uint256"
        }
      ],
      "name": "tokenURI",
      "outputs": [
        {
          "internalType": "string",
          "name": "",
          "type": "string"
        }
      ],
      "stateMutability": "view",
      "type": "function",
      "constant": true
    },
    {
      "inputs": [
        {
          "internalType": "address",
          "name": "from",
          "type": "address"
        },
        {
          "internalType": "address",
          "name": "to",
          "type": "address"
        },
        {
          "internalType": "uint256",
          "name": "tokenId",
          "type": "uint256"
        }
      ],
      "name": "transferFrom",
      "outputs": [],
      "stateMutability": "nonpayable",
      "type": "function"
    },
    {
      "inputs": [
        {
          "internalType": "address",
          "name": "newOwner",
          "type": "address"
        }
      ],
      "name": "transferOwnership",
      "outputs": [],
      "stateMutability": "nonpayable",
      "type": "function"
    },
    {
      "inputs": [
        {
          "internalType": "uint256",
          "name": "_idSurvey",
          "type": "uint256"
        }
      ],
      "name": "getSurveyStatusById",
      "outputs": [
        {
          "internalType": "uint256",
          "name": "",
          "type": "uint256"
        }
      ],
      "stateMutability": "view",
      "type": "function",
      "constant": true
    },
    {
      "inputs": [
        {
          "internalType": "uint256",
          "name": "_idSurvey",
          "type": "uint256"
        }
      ],
      "name": "getSurveyById",
      "outputs": [
        {
          "components": [
            {
              "internalType": "uint256",
              "name": "idSurvey",
              "type": "uint256"
            },
            {
              "internalType": "address",
              "name": "owner",
              "type": "address"
            },
            {
              "internalType": "string",
              "name": "description",
              "type": "string"
            },
            {
              "internalType": "enum OpiChainSurveyNFT.SurveyStatus",
              "name": "surveyStatus",
              "type": "uint8"
            },
            {
              "internalType": "bool",
              "name": "exists",
              "type": "bool"
            },
            {
              "internalType": "bool",
              "name": "minted",
              "type": "bool"
            }
          ],
          "internalType": "struct OpiChainSurveyNFT.Survey",
          "name": "",
          "type": "tuple"
        }
      ],
      "stateMutability": "view",
      "type": "function",
      "constant": true
    },
    {
      "inputs": [
        {
          "internalType": "address",
          "name": "_ownerSurvey",
          "type": "address"
        },
        {
          "internalType": "uint256",
          "name": "_idSurvey",
          "type": "uint256"
        }
      ],
      "name": "getSurveyByAddress",
      "outputs": [
        {
          "components": [
            {
              "internalType": "uint256",
              "name": "idSurvey",
              "type": "uint256"
            },
            {
              "internalType": "address",
              "name": "owner",
              "type": "address"
            },
            {
              "internalType": "string",
              "name": "description",
              "type": "string"
            },
            {
              "internalType": "enum OpiChainSurveyNFT.SurveyStatus",
              "name": "surveyStatus",
              "type": "uint8"
            },
            {
              "internalType": "bool",
              "name": "exists",
              "type": "bool"
            },
            {
              "internalType": "bool",
              "name": "minted",
              "type": "bool"
            }
          ],
          "internalType": "struct OpiChainSurveyNFT.Survey",
          "name": "",
          "type": "tuple"
        }
      ],
      "stateMutability": "view",
      "type": "function",
      "constant": true
    },
    {
      "inputs": [
        {
          "internalType": "address",
          "name": "_ownerSurvey",
          "type": "address"
        },
        {
          "internalType": "string",
          "name": "_description",
          "type": "string"
        }
      ],
      "name": "createSurvey",
      "outputs": [],
      "stateMutability": "nonpayable",
      "type": "function"
    },
    {
      "inputs": [
        {
          "internalType": "uint256",
          "name": "_idSurvey",
          "type": "uint256"
        }
      ],
      "name": "mintSurvey",
      "outputs": [],
      "stateMutability": "nonpayable",
      "type": "function"
    },
    {
      "inputs": [
        {
          "internalType": "uint256",
          "name": "_idSurvey",
          "type": "uint256"
        }
      ],
      "name": "terminateSurvey",
      "outputs": [],
      "stateMutability": "nonpayable",
      "type": "function"
    },
    {
      "inputs": [
        {
          "internalType": "uint256",
          "name": "_idSurvey",
          "type": "uint256"
        }
      ],
      "name": "deleteSurvey",
      "outputs": [],
      "stateMutability": "nonpayable",
      "type": "function"
    },
    {
      "inputs": [
        {
          "internalType": "uint256",
          "name": "_idSurvey",
          "type": "uint256"
        },
        {
          "internalType": "string",
          "name": "_question",
          "type": "string"
        }
      ],
      "name": "addQuestion",
      "outputs": [],
      "stateMutability": "nonpayable",
      "type": "function"
    },
    {
      "inputs": [
        {
          "internalType": "uint256",
          "name": "_idSurvey",
          "type": "uint256"
        },
        {
          "internalType": "uint256",
          "name": "_idQuestionAnswer",
          "type": "uint256"
        },
        {
          "internalType": "string",
          "name": "_answer",
          "type": "string"
        }
      ],
      "name": "giveAnswer",
      "outputs": [],
      "stateMutability": "nonpayable",
      "type": "function"
    }
  ],
  "bytecode": "0x60806040523480156200001157600080fd5b506040518060400160405280600e81526020017f4f7069436861696e5375727665790000000000000000000000000000000000008152506040518060400160405280600381526020017f4f5053000000000000000000000000000000000000000000000000000000000081525081600090816200008f919062000412565b508060019081620000a1919062000412565b505050620000c4620000b8620000ca60201b60201c565b620000d260201b60201c565b620004f9565b600033905090565b6000600760009054906101000a900473ffffffffffffffffffffffffffffffffffffffff16905081600760006101000a81548173ffffffffffffffffffffffffffffffffffffffff021916908373ffffffffffffffffffffffffffffffffffffffff1602179055508173ffffffffffffffffffffffffffffffffffffffff168173ffffffffffffffffffffffffffffffffffffffff167f8be0079c531659141344cd1fd0a4f28419497f9722a3daafe3b4186f6b6457e060405160405180910390a35050565b600081519050919050565b7f4e487b7100000000000000000000000000000000000000000000000000000000600052604160045260246000fd5b7f4e487b7100000000000000000000000000000000000000000000000000000000600052602260045260246000fd5b600060028204905060018216806200021a57607f821691505b60208210810362000230576200022f620001d2565b5b50919050565b60008190508160005260206000209050919050565b60006020601f8301049050919050565b600082821b905092915050565b6000600883026200029a7fffffffffffffffffffffffffffffffffffffffffffffffffffffffffffffffff826200025b565b620002a686836200025b565b95508019841693508086168417925050509392505050565b6000819050919050565b6000819050919050565b6000620002f3620002ed620002e784620002be565b620002c8565b620002be565b9050919050565b6000819050919050565b6200030f83620002d2565b620003276200031e82620002fa565b84845462000268565b825550505050565b600090565b6200033e6200032f565b6200034b81848462000304565b505050565b5b8181101562000373576200036760008262000334565b60018101905062000351565b5050565b601f821115620003c2576200038c8162000236565b62000397846200024b565b81016020851015620003a7578190505b620003bf620003b6856200024b565b83018262000350565b50505b505050565b600082821c905092915050565b6000620003e760001984600802620003c7565b1980831691505092915050565b6000620004028383620003d4565b9150826002028217905092915050565b6200041d8262000198565b67ffffffffffffffff811115620004395762000438620001a3565b5b62000445825462000201565b6200045282828562000377565b600060209050601f8311600181146200048a576000841562000475578287015190505b620004818582620003f4565b865550620004f1565b601f1984166200049a8662000236565b60005b82811015620004c4578489015182556001820191506020850194506020810190506200049d565b86831015620004e45784890151620004e0601f891682620003d4565b8355505b6001600288020188555050505b505050505050565b61430880620005096000396000f3fe608060405234801561001057600080fd5b506004361061018e5760003560e01c80638da5cb5b116100de578063bbb00a5711610097578063cb39b22e11610071578063cb39b22e1461047d578063e985e9c514610499578063f0faeac6146104c9578063f2fde38b146104f95761018e565b8063bbb00a5714610401578063c0ac4ae41461041d578063c87b56dd1461044d5761018e565b80638da5cb5b1461034157806395d89b411461035f578063a22cb4651461037d578063a5f146da14610399578063a93f6829146103b5578063b88d4fde146103e55761018e565b806342842e0e1161014b5780636a63dc4a116101255780636a63dc4a146102cf5780636b370b39146102eb57806370a0823114610307578063715018a6146103375761018e565b806342842e0e1461026757806356e2efcd146102835780636352211e1461029f5761018e565b806301ffc9a71461019357806306fdde03146101c3578063081812fc146101e1578063095ea7b31461021157806323b872dd1461022d578063393dd5d914610249575b600080fd5b6101ad60048036038101906101a89190612b57565b610515565b6040516101ba9190612b9f565b60405180910390f35b6101cb6105f7565b6040516101d89190612c4a565b60405180910390f35b6101fb60048036038101906101f69190612ca2565b610689565b6040516102089190612d10565b60405180910390f35b61022b60048036038101906102269190612d57565b6106cf565b005b61024760048036038101906102429190612d97565b6107e6565b005b610251610846565b60405161025e9190612df9565b60405180910390f35b610281600480360381019061027c9190612d97565b61084c565b005b61029d60048036038101906102989190612ca2565b61086c565b005b6102b960048036038101906102b49190612ca2565b6109df565b6040516102c69190612d10565b60405180910390f35b6102e960048036038101906102e49190612ca2565b610a65565b005b61030560048036038101906103009190612f49565b610b05565b005b610321600480360381019061031c9190612fa5565b610df2565b60405161032e9190612df9565b60405180910390f35b61033f610ea9565b005b610349610ebd565b6040516103569190612d10565b60405180910390f35b610367610ee7565b6040516103749190612c4a565b60405180910390f35b61039760048036038101906103929190612ffe565b610f79565b005b6103b360048036038101906103ae919061303e565b610f8f565b005b6103cf60048036038101906103ca9190612ca2565b6110d1565b6040516103dc9190612df9565b60405180910390f35b6103ff60048036038101906103fa919061314e565b611110565b005b61041b600480360381019061041691906131d1565b611172565b005b61043760048036038101906104329190612ca2565b61123b565b60405161044491906133a4565b60405180910390f35b61046760048036038101906104629190612ca2565b6113cb565b6040516104749190612c4a565b60405180910390f35b61049760048036038101906104929190612ca2565b6114dd565b005b6104b360048036038101906104ae91906133c6565b6115a8565b6040516104c09190612b9f565b60405180910390f35b6104e360048036038101906104de9190612d57565b61163c565b6040516104f091906133a4565b60405180910390f35b610513600480360381019061050e9190612fa5565b611819565b005b60007f80ac58cd000000000000000000000000000000000000000000000000000000007bffffffffffffffffffffffffffffffffffffffffffffffffffffffff1916827bffffffffffffffffffffffffffffffffffffffffffffffffffffffff191614806105e057507f5b5e139f000000000000000000000000000000000000000000000000000000007bffffffffffffffffffffffffffffffffffffffffffffffffffffffff1916827bffffffffffffffffffffffffffffffffffffffffffffffffffffffff1916145b806105f057506105ef8261189c565b5b9050919050565b60606000805461060690613435565b80601f016020809104026020016040519081016040528092919081815260200182805461063290613435565b801561067f5780601f106106545761010080835404028352916020019161067f565b820191906000526020600020905b81548152906001019060200180831161066257829003601f168201915b5050505050905090565b600061069482611906565b6004600083815260200190815260200160002060009054906101000a900473ffffffffffffffffffffffffffffffffffffffff169050919050565b60006106da826109df565b90508073ffffffffffffffffffffffffffffffffffffffff168373ffffffffffffffffffffffffffffffffffffffff160361074a576040517f08c379a0000000000000000000000000000000000000000000000000000000008152600401610741906134d8565b60405180910390fd5b8073ffffffffffffffffffffffffffffffffffffffff16610769611951565b73ffffffffffffffffffffffffffffffffffffffff161480610798575061079781610792611951565b6115a8565b5b6107d7576040517f08c379a00000000000000000000000000000000000000000000000000000000081526004016107ce9061356a565b60405180910390fd5b6107e18383611959565b505050565b6107f76107f1611951565b82611a12565b610836576040517f08c379a000000000000000000000000000000000000000000000000000000000815260040161082d906135fc565b60405180910390fd5b610841838383611aa7565b505050565b6101f481565b61086783838360405180602001604052806000815250611110565b505050565b60018081111561087f5761087e613295565b5b610888826110d1565b146108c8576040517f08c379a00000000000000000000000000000000000000000000000000000000081526004016108bf90613668565b60405180910390fd5b6000600b600083815260200190815260200160002060010160009054906101000a900473ffffffffffffffffffffffffffffffffffffffff16905061090d3083611da0565b610918306001610f79565b6001600b600084815260200190815260200160002060030160026101000a81548160ff021916908315150217905550600061095283611fbd565b9050600060405180608001604052806044815260200161428f604491399050600081836040516020016109869291906136ea565b60405160208183030381529060405290506109a1858261208b565b7fda1522ad3dd77f0eff2905dc72509dd3b837ab58e2d72cf6ad71fd9cd3d77efc856040516109d09190612df9565b60405180910390a15050505050565b6000806109eb836120f8565b9050600073ffffffffffffffffffffffffffffffffffffffff168173ffffffffffffffffffffffffffffffffffffffff1603610a5c576040517f08c379a0000000000000000000000000000000000000000000000000000000008152600401610a5390613769565b60405180910390fd5b80915050919050565b60006001811115610a7957610a78613295565b5b610a82826110d1565b14610ac2576040517f08c379a0000000000000000000000000000000000000000000000000000000008152600401610ab9906137d5565b60405180910390fd5b610acb81612135565b7fcb893910cb393b5bb0c66f4e542a99176d507fa36b0cb944e421bec6a93e735681604051610afa9190612df9565b60405180910390a150565b6000610b11600a612213565b9050610b1b612a2c565b6040518060c001604052808381526020018573ffffffffffffffffffffffffffffffffffffffff16815260200184815260200160006001811115610b6257610b61613295565b5b815260200160011515815260200160001515815250905080600b60008481526020019081526020016000206000820151816000015560208201518160010160006101000a81548173ffffffffffffffffffffffffffffffffffffffff021916908373ffffffffffffffffffffffffffffffffffffffff1602179055506040820151816002019081610bf391906139a1565b5060608201518160030160006101000a81548160ff02191690836001811115610c1f57610c1e613295565b5b021790555060808201518160030160016101000a81548160ff02191690831515021790555060a08201518160030160026101000a81548160ff021916908315150217905550905050600c60008573ffffffffffffffffffffffffffffffffffffffff1673ffffffffffffffffffffffffffffffffffffffff1681526020019081526020016000208190806001815401808255809150506001900390600052602060002090600402016000909190919091506000820151816000015560208201518160010160006101000a81548173ffffffffffffffffffffffffffffffffffffffff021916908373ffffffffffffffffffffffffffffffffffffffff1602179055506040820151816002019081610d3691906139a1565b5060608201518160030160006101000a81548160ff02191690836001811115610d6257610d61613295565b5b021790555060808201518160030160016101000a81548160ff02191690831515021790555060a08201518160030160026101000a81548160ff0219169083151502179055505050610db3600a612221565b7f4279e112134859352ebe1176277f8dc1a80826143bdf7d01b9a0f32a01d068448483604051610de4929190613a73565b60405180910390a150505050565b60008073ffffffffffffffffffffffffffffffffffffffff168273ffffffffffffffffffffffffffffffffffffffff1603610e62576040517f08c379a0000000000000000000000000000000000000000000000000000000008152600401610e5990613b0e565b60405180910390fd5b600360008373ffffffffffffffffffffffffffffffffffffffff1673ffffffffffffffffffffffffffffffffffffffff168152602001908152602001600020549050919050565b610eb1612237565b610ebb60006122b5565b565b6000600760009054906101000a900473ffffffffffffffffffffffffffffffffffffffff16905090565b606060018054610ef690613435565b80601f0160208091040260200160405190810160405280929190818152602001828054610f2290613435565b8015610f6f5780601f10610f4457610100808354040283529160200191610f6f565b820191906000526020600020905b815481529060010190602001808311610f5257829003601f168201915b5050505050905090565b610f8b610f84611951565b838361237b565b5050565b6000610f9b6009612213565b9050600e6000858152602001908152602001600020600084815260200190815260200160002060405180606001604052803373ffffffffffffffffffffffffffffffffffffffff16815260200183815260200184815250908060018154018082558091505060019003906000526020600020906003020160009091909190915060008201518160000160006101000a81548173ffffffffffffffffffffffffffffffffffffffff021916908373ffffffffffffffffffffffffffffffffffffffff16021790555060208201518160010155604082015181600201908161108191906139a1565b50505061108e6009612221565b7fa3685256723dd35073588a74066bf06e4165e5ab7b0d4cab9561d4d382dbda6c338286866040516110c39493929190613b2e565b60405180910390a150505050565b6000600b600083815260200190815260200160002060030160009054906101000a900460ff16600181111561110957611108613295565b5b9050919050565b61112161111b611951565b83611a12565b611160576040517f08c379a0000000000000000000000000000000000000000000000000000000008152600401611157906135fc565b60405180910390fd5b61116c848484846124e7565b50505050565b600061117e6008612213565b9050600d600084815260200190815260200160002060405180604001604052808381526020018481525090806001815401808255809150506001900390600052602060002090600202016000909190919091506000820151816000015560208201518160010190816111f091906139a1565b5050506111fd6008612221565b7f4fe413162e240ea219c33f9324aad83929d30c1e92ec16e96c0c9f62649d9b59818460405161122e929190613b73565b60405180910390a1505050565b611243612a2c565b600b60008381526020019081526020016000206040518060c0016040529081600082015481526020016001820160009054906101000a900473ffffffffffffffffffffffffffffffffffffffff1673ffffffffffffffffffffffffffffffffffffffff1673ffffffffffffffffffffffffffffffffffffffff1681526020016002820180546112d190613435565b80601f01602080910402602001604051908101604052809291908181526020018280546112fd90613435565b801561134a5780601f1061131f5761010080835404028352916020019161134a565b820191906000526020600020905b81548152906001019060200180831161132d57829003601f168201915b505050505081526020016003820160009054906101000a900460ff16600181111561137857611377613295565b5b600181111561138a57611389613295565b5b81526020016003820160019054906101000a900460ff161515151581526020016003820160029054906101000a900460ff1615151515815250509050919050565b60606113d682611906565b60006006600084815260200190815260200160002080546113f690613435565b80601f016020809104026020016040519081016040528092919081815260200182805461142290613435565b801561146f5780601f106114445761010080835404028352916020019161146f565b820191906000526020600020905b81548152906001019060200180831161145257829003601f168201915b505050505090506000611480612543565b905060008151036114955781925050506114d8565b6000825111156114ca5780826040516020016114b2929190613b9c565b604051602081830303815290604052925050506114d8565b6114d38461255a565b925050505b919050565b600b60008281526020019081526020016000206000808201600090556001820160006101000a81549073ffffffffffffffffffffffffffffffffffffffff02191690556002820160006115309190612a8e565b6003820160006101000a81549060ff02191690556003820160016101000a81549060ff02191690556003820160026101000a81549060ff021916905550507f96086f52d0febbca75fcf142eed9097524f3464ae751155c4a11ca084b05dd268160405161159d9190612df9565b60405180910390a150565b6000600560008473ffffffffffffffffffffffffffffffffffffffff1673ffffffffffffffffffffffffffffffffffffffff16815260200190815260200160002060008373ffffffffffffffffffffffffffffffffffffffff1673ffffffffffffffffffffffffffffffffffffffff16815260200190815260200160002060009054906101000a900460ff16905092915050565b611644612a2c565b600c60008473ffffffffffffffffffffffffffffffffffffffff1673ffffffffffffffffffffffffffffffffffffffff168152602001908152602001600020828154811061169557611694613bc0565b5b90600052602060002090600402016040518060c0016040529081600082015481526020016001820160009054906101000a900473ffffffffffffffffffffffffffffffffffffffff1673ffffffffffffffffffffffffffffffffffffffff1673ffffffffffffffffffffffffffffffffffffffff16815260200160028201805461171e90613435565b80601f016020809104026020016040519081016040528092919081815260200182805461174a90613435565b80156117975780601f1061176c57610100808354040283529160200191611797565b820191906000526020600020905b81548152906001019060200180831161177a57829003601f168201915b505050505081526020016003820160009054906101000a900460ff1660018111156117c5576117c4613295565b5b60018111156117d7576117d6613295565b5b81526020016003820160019054906101000a900460ff161515151581526020016003820160029054906101000a900460ff161515151581525050905092915050565b611821612237565b600073ffffffffffffffffffffffffffffffffffffffff168173ffffffffffffffffffffffffffffffffffffffff1603611890576040517f08c379a000000000000000000000000000000000000000000000000000000000815260040161188790613c61565b60405180910390fd5b611899816122b5565b50565b60007f01ffc9a7000000000000000000000000000000000000000000000000000000007bffffffffffffffffffffffffffffffffffffffffffffffffffffffff1916827bffffffffffffffffffffffffffffffffffffffffffffffffffffffff1916149050919050565b61190f816125c2565b61194e576040517f08c379a000000000000000000000000000000000000000000000000000000000815260040161194590613769565b60405180910390fd5b50565b600033905090565b816004600083815260200190815260200160002060006101000a81548173ffffffffffffffffffffffffffffffffffffffff021916908373ffffffffffffffffffffffffffffffffffffffff160217905550808273ffffffffffffffffffffffffffffffffffffffff166119cc836109df565b73ffffffffffffffffffffffffffffffffffffffff167f8c5be1e5ebec7d5bd14f71427d1e84f3dd0314c0f7b2291e5b200ac8c7c3b92560405160405180910390a45050565b600080611a1e836109df565b90508073ffffffffffffffffffffffffffffffffffffffff168473ffffffffffffffffffffffffffffffffffffffff161480611a605750611a5f81856115a8565b5b80611a9e57508373ffffffffffffffffffffffffffffffffffffffff16611a8684610689565b73ffffffffffffffffffffffffffffffffffffffff16145b91505092915050565b8273ffffffffffffffffffffffffffffffffffffffff16611ac7826109df565b73ffffffffffffffffffffffffffffffffffffffff1614611b1d576040517f08c379a0000000000000000000000000000000000000000000000000000000008152600401611b1490613cf3565b60405180910390fd5b600073ffffffffffffffffffffffffffffffffffffffff168273ffffffffffffffffffffffffffffffffffffffff1603611b8c576040517f08c379a0000000000000000000000000000000000000000000000000000000008152600401611b8390613d85565b60405180910390fd5b611b998383836001612603565b8273ffffffffffffffffffffffffffffffffffffffff16611bb9826109df565b73ffffffffffffffffffffffffffffffffffffffff1614611c0f576040517f08c379a0000000000000000000000000000000000000000000000000000000008152600401611c0690613cf3565b60405180910390fd5b6004600082815260200190815260200160002060006101000a81549073ffffffffffffffffffffffffffffffffffffffff02191690556001600360008573ffffffffffffffffffffffffffffffffffffffff1673ffffffffffffffffffffffffffffffffffffffff168152602001908152602001600020600082825403925050819055506001600360008473ffffffffffffffffffffffffffffffffffffffff1673ffffffffffffffffffffffffffffffffffffffff16815260200190815260200160002060008282540192505081905550816002600083815260200190815260200160002060006101000a81548173ffffffffffffffffffffffffffffffffffffffff021916908373ffffffffffffffffffffffffffffffffffffffff160217905550808273ffffffffffffffffffffffffffffffffffffffff168473ffffffffffffffffffffffffffffffffffffffff167fddf252ad1be2c89b69c2b068fc378daa952ba7f163c4a11628f55a4df523b3ef60405160405180910390a4611d9b8383836001612729565b505050565b600073ffffffffffffffffffffffffffffffffffffffff168273ffffffffffffffffffffffffffffffffffffffff1603611e0f576040517f08c379a0000000000000000000000000000000000000000000000000000000008152600401611e0690613df1565b60405180910390fd5b611e18816125c2565b15611e58576040517f08c379a0000000000000000000000000000000000000000000000000000000008152600401611e4f90613e5d565b60405180910390fd5b611e66600083836001612603565b611e6f816125c2565b15611eaf576040517f08c379a0000000000000000000000000000000000000000000000000000000008152600401611ea690613e5d565b60405180910390fd5b6001600360008473ffffffffffffffffffffffffffffffffffffffff1673ffffffffffffffffffffffffffffffffffffffff16815260200190815260200160002060008282540192505081905550816002600083815260200190815260200160002060006101000a81548173ffffffffffffffffffffffffffffffffffffffff021916908373ffffffffffffffffffffffffffffffffffffffff160217905550808273ffffffffffffffffffffffffffffffffffffffff16600073ffffffffffffffffffffffffffffffffffffffff167fddf252ad1be2c89b69c2b068fc378daa952ba7f163c4a11628f55a4df523b3ef60405160405180910390a4611fb9600083836001612729565b5050565b606060006001611fcc8461272f565b01905060008167ffffffffffffffff811115611feb57611fea612e1e565b5b6040519080825280601f01601f19166020018201604052801561201d5781602001600182028036833780820191505090505b509050600082602001820190505b600115612080578080600190039150507f3031323334353637383961626364656600000000000000000000000000000000600a86061a8153600a858161207457612073613e7d565b5b0494506000850361202b575b819350505050919050565b612094826125c2565b6120d3576040517f08c379a00000000000000000000000000000000000000000000000000000000081526004016120ca90613f1e565b60405180910390fd5b806006600084815260200190815260200160002090816120f391906139a1565b505050565b60006002600083815260200190815260200160002060009054906101000a900473ffffffffffffffffffffffffffffffffffffffff169050919050565b80600b600082815260200190815260200160002060030160019054906101000a900460ff16612199576040517f08c379a000000000000000000000000000000000000000000000000000000000815260040161219090613f8a565b60405180910390fd5b6001600b600084815260200190815260200160002060030160006101000a81548160ff021916908360018111156121d3576121d2613295565b5b02179055507fcb893910cb393b5bb0c66f4e542a99176d507fa36b0cb944e421bec6a93e7356826040516122079190612df9565b60405180910390a15050565b600081600001549050919050565b6001816000016000828254019250508190555050565b61223f611951565b73ffffffffffffffffffffffffffffffffffffffff1661225d610ebd565b73ffffffffffffffffffffffffffffffffffffffff16146122b3576040517f08c379a00000000000000000000000000000000000000000000000000000000081526004016122aa90613ff6565b60405180910390fd5b565b6000600760009054906101000a900473ffffffffffffffffffffffffffffffffffffffff16905081600760006101000a81548173ffffffffffffffffffffffffffffffffffffffff021916908373ffffffffffffffffffffffffffffffffffffffff1602179055508173ffffffffffffffffffffffffffffffffffffffff168173ffffffffffffffffffffffffffffffffffffffff167f8be0079c531659141344cd1fd0a4f28419497f9722a3daafe3b4186f6b6457e060405160405180910390a35050565b8173ffffffffffffffffffffffffffffffffffffffff168373ffffffffffffffffffffffffffffffffffffffff16036123e9576040517f08c379a00000000000000000000000000000000000000000000000000000000081526004016123e090614062565b60405180910390fd5b80600560008573ffffffffffffffffffffffffffffffffffffffff1673ffffffffffffffffffffffffffffffffffffffff16815260200190815260200160002060008473ffffffffffffffffffffffffffffffffffffffff1673ffffffffffffffffffffffffffffffffffffffff16815260200190815260200160002060006101000a81548160ff0219169083151502179055508173ffffffffffffffffffffffffffffffffffffffff168373ffffffffffffffffffffffffffffffffffffffff167f17307eab39ab6107e8899845ad3d59bd9653f200f220920489ca2b5937696c31836040516124da9190612b9f565b60405180910390a3505050565b6124f2848484611aa7565b6124fe84848484612882565b61253d576040517f08c379a0000000000000000000000000000000000000000000000000000000008152600401612534906140f4565b60405180910390fd5b50505050565b606060405180602001604052806000815250905090565b606061256582611906565b600061256f612543565b9050600081511161258f57604051806020016040528060008152506125ba565b8061259984611fbd565b6040516020016125aa929190613b9c565b6040516020818303038152906040525b915050919050565b60008073ffffffffffffffffffffffffffffffffffffffff166125e4836120f8565b73ffffffffffffffffffffffffffffffffffffffff1614159050919050565b600181111561272357600073ffffffffffffffffffffffffffffffffffffffff168473ffffffffffffffffffffffffffffffffffffffff16146126975780600360008673ffffffffffffffffffffffffffffffffffffffff1673ffffffffffffffffffffffffffffffffffffffff168152602001908152602001600020600082825461268f9190614143565b925050819055505b600073ffffffffffffffffffffffffffffffffffffffff168373ffffffffffffffffffffffffffffffffffffffff16146127225780600360008573ffffffffffffffffffffffffffffffffffffffff1673ffffffffffffffffffffffffffffffffffffffff168152602001908152602001600020600082825461271a9190614177565b925050819055505b5b50505050565b50505050565b600080600090507a184f03e93ff9f4daa797ed6e38ed64bf6a1f010000000000000000831061278d577a184f03e93ff9f4daa797ed6e38ed64bf6a1f010000000000000000838161278357612782613e7d565b5b0492506040810190505b6d04ee2d6d415b85acef810000000083106127ca576d04ee2d6d415b85acef810000000083816127c0576127bf613e7d565b5b0492506020810190505b662386f26fc1000083106127f957662386f26fc1000083816127ef576127ee613e7d565b5b0492506010810190505b6305f5e1008310612822576305f5e100838161281857612817613e7d565b5b0492506008810190505b612710831061284757612710838161283d5761283c613e7d565b5b0492506004810190505b6064831061286a57606483816128605761285f613e7d565b5b0492506002810190505b600a8310612879576001810190505b80915050919050565b60006128a38473ffffffffffffffffffffffffffffffffffffffff16612a09565b156129fc578373ffffffffffffffffffffffffffffffffffffffff1663150b7a026128cc611951565b8786866040518563ffffffff1660e01b81526004016128ee9493929190614200565b6020604051808303816000875af192505050801561292a57506040513d601f19601f820116820180604052508101906129279190614261565b60015b6129ac573d806000811461295a576040519150601f19603f3d011682016040523d82523d6000602084013e61295f565b606091505b5060008151036129a4576040517f08c379a000000000000000000000000000000000000000000000000000000000815260040161299b906140f4565b60405180910390fd5b805181602001fd5b63150b7a0260e01b7bffffffffffffffffffffffffffffffffffffffffffffffffffffffff1916817bffffffffffffffffffffffffffffffffffffffffffffffffffffffff191614915050612a01565b600190505b949350505050565b6000808273ffffffffffffffffffffffffffffffffffffffff163b119050919050565b6040518060c0016040528060008152602001600073ffffffffffffffffffffffffffffffffffffffff1681526020016060815260200160006001811115612a7657612a75613295565b5b81526020016000151581526020016000151581525090565b508054612a9a90613435565b6000825580601f10612aac5750612acb565b601f016020900490600052602060002090810190612aca9190612ace565b5b50565b5b80821115612ae7576000816000905550600101612acf565b5090565b6000604051905090565b600080fd5b600080fd5b60007fffffffff0000000000000000000000000000000000000000000000000000000082169050919050565b612b3481612aff565b8114612b3f57600080fd5b50565b600081359050612b5181612b2b565b92915050565b600060208284031215612b6d57612b6c612af5565b5b6000612b7b84828501612b42565b91505092915050565b60008115159050919050565b612b9981612b84565b82525050565b6000602082019050612bb46000830184612b90565b92915050565b600081519050919050565b600082825260208201905092915050565b60005b83811015612bf4578082015181840152602081019050612bd9565b60008484015250505050565b6000601f19601f8301169050919050565b6000612c1c82612bba565b612c268185612bc5565b9350612c36818560208601612bd6565b612c3f81612c00565b840191505092915050565b60006020820190508181036000830152612c648184612c11565b905092915050565b6000819050919050565b612c7f81612c6c565b8114612c8a57600080fd5b50565b600081359050612c9c81612c76565b92915050565b600060208284031215612cb857612cb7612af5565b5b6000612cc684828501612c8d565b91505092915050565b600073ffffffffffffffffffffffffffffffffffffffff82169050919050565b6000612cfa82612ccf565b9050919050565b612d0a81612cef565b82525050565b6000602082019050612d256000830184612d01565b92915050565b612d3481612cef565b8114612d3f57600080fd5b50565b600081359050612d5181612d2b565b92915050565b60008060408385031215612d6e57612d6d612af5565b5b6000612d7c85828601612d42565b9250506020612d8d85828601612c8d565b9150509250929050565b600080600060608486031215612db057612daf612af5565b5b6000612dbe86828701612d42565b9350506020612dcf86828701612d42565b9250506040612de086828701612c8d565b9150509250925092565b612df381612c6c565b82525050565b6000602082019050612e0e6000830184612dea565b92915050565b600080fd5b600080fd5b7f4e487b7100000000000000000000000000000000000000000000000000000000600052604160045260246000fd5b612e5682612c00565b810181811067ffffffffffffffff82111715612e7557612e74612e1e565b5b80604052505050565b6000612e88612aeb565b9050612e948282612e4d565b919050565b600067ffffffffffffffff821115612eb457612eb3612e1e565b5b612ebd82612c00565b9050602081019050919050565b82818337600083830152505050565b6000612eec612ee784612e99565b612e7e565b905082815260208101848484011115612f0857612f07612e19565b5b612f13848285612eca565b509392505050565b600082601f830112612f3057612f2f612e14565b5b8135612f40848260208601612ed9565b91505092915050565b60008060408385031215612f6057612f5f612af5565b5b6000612f6e85828601612d42565b925050602083013567ffffffffffffffff811115612f8f57612f8e612afa565b5b612f9b85828601612f1b565b9150509250929050565b600060208284031215612fbb57612fba612af5565b5b6000612fc984828501612d42565b91505092915050565b612fdb81612b84565b8114612fe657600080fd5b50565b600081359050612ff881612fd2565b92915050565b6000806040838503121561301557613014612af5565b5b600061302385828601612d42565b925050602061303485828601612fe9565b9150509250929050565b60008060006060848603121561305757613056612af5565b5b600061306586828701612c8d565b935050602061307686828701612c8d565b925050604084013567ffffffffffffffff81111561309757613096612afa565b5b6130a386828701612f1b565b9150509250925092565b600067ffffffffffffffff8211156130c8576130c7612e1e565b5b6130d182612c00565b9050602081019050919050565b60006130f16130ec846130ad565b612e7e565b90508281526020810184848401111561310d5761310c612e19565b5b613118848285612eca565b509392505050565b600082601f83011261313557613134612e14565b5b81356131458482602086016130de565b91505092915050565b6000806000806080858703121561316857613167612af5565b5b600061317687828801612d42565b945050602061318787828801612d42565b935050604061319887828801612c8d565b925050606085013567ffffffffffffffff8111156131b9576131b8612afa565b5b6131c587828801613120565b91505092959194509250565b600080604083850312156131e8576131e7612af5565b5b60006131f685828601612c8d565b925050602083013567ffffffffffffffff81111561321757613216612afa565b5b61322385828601612f1b565b9150509250929050565b61323681612c6c565b82525050565b61324581612cef565b82525050565b600082825260208201905092915050565b600061326782612bba565b613271818561324b565b9350613281818560208601612bd6565b61328a81612c00565b840191505092915050565b7f4e487b7100000000000000000000000000000000000000000000000000000000600052602160045260246000fd5b600281106132d5576132d4613295565b5b50565b60008190506132e6826132c4565b919050565b60006132f6826132d8565b9050919050565b613306816132eb565b82525050565b61331581612b84565b82525050565b600060c083016000830151613333600086018261322d565b506020830151613346602086018261323c565b506040830151848203604086015261335e828261325c565b915050606083015161337360608601826132fd565b506080830151613386608086018261330c565b5060a083015161339960a086018261330c565b508091505092915050565b600060208201905081810360008301526133be818461331b565b905092915050565b600080604083850312156133dd576133dc612af5565b5b60006133eb85828601612d42565b92505060206133fc85828601612d42565b9150509250929050565b7f4e487b7100000000000000000000000000000000000000000000000000000000600052602260045260246000fd5b6000600282049050600182168061344d57607f821691505b6020821081036134605761345f613406565b5b50919050565b7f4552433732313a20617070726f76616c20746f2063757272656e74206f776e6560008201527f7200000000000000000000000000000000000000000000000000000000000000602082015250565b60006134c2602183612bc5565b91506134cd82613466565b604082019050919050565b600060208201905081810360008301526134f1816134b5565b9050919050565b7f4552433732313a20617070726f76652063616c6c6572206973206e6f7420746f60008201527f6b656e206f776e6572206f7220617070726f76656420666f7220616c6c000000602082015250565b6000613554603d83612bc5565b915061355f826134f8565b604082019050919050565b6000602082019050818103600083015261358381613547565b9050919050565b7f4552433732313a2063616c6c6572206973206e6f7420746f6b656e206f776e6560008201527f72206f7220617070726f76656400000000000000000000000000000000000000602082015250565b60006135e6602d83612bc5565b91506135f18261358a565b604082019050919050565b60006020820190508181036000830152613615816135d9565b9050919050565b7f537572766579206e6f74207465726d696e617465640000000000000000000000600082015250565b6000613652601583612bc5565b915061365d8261361c565b602082019050919050565b6000602082019050818103600083015261368181613645565b9050919050565b600081905092915050565b600061369e82612bba565b6136a88185613688565b93506136b8818560208601612bd6565b80840191505092915050565b7f2e6a736f6e000000000000000000000000000000000000000000000000000000815250565b60006136f68285613693565b91506137028284613693565b915061370d826136c4565b6005820191508190509392505050565b7f4552433732313a20696e76616c696420746f6b656e2049440000000000000000600082015250565b6000613753601883612bc5565b915061375e8261371d565b602082019050919050565b6000602082019050818103600083015261378281613746565b9050919050565b7f537572766579206e6f74206f6e476f696e672100000000000000000000000000600082015250565b60006137bf601383612bc5565b91506137ca82613789565b602082019050919050565b600060208201905081810360008301526137ee816137b2565b9050919050565b60008190508160005260206000209050919050565b60006020601f8301049050919050565b600082821b905092915050565b6000600883026138577fffffffffffffffffffffffffffffffffffffffffffffffffffffffffffffffff8261381a565b613861868361381a565b95508019841693508086168417925050509392505050565b6000819050919050565b600061389e61389961389484612c6c565b613879565b612c6c565b9050919050565b6000819050919050565b6138b883613883565b6138cc6138c4826138a5565b848454613827565b825550505050565b600090565b6138e16138d4565b6138ec8184846138af565b505050565b5b81811015613910576139056000826138d9565b6001810190506138f2565b5050565b601f82111561395557613926816137f5565b61392f8461380a565b8101602085101561393e578190505b61395261394a8561380a565b8301826138f1565b50505b505050565b600082821c905092915050565b60006139786000198460080261395a565b1980831691505092915050565b60006139918383613967565b9150826002028217905092915050565b6139aa82612bba565b67ffffffffffffffff8111156139c3576139c2612e1e565b5b6139cd8254613435565b6139d8828285613914565b600060209050601f831160018114613a0b57600084156139f9578287015190505b613a038582613985565b865550613a6b565b601f198416613a19866137f5565b60005b82811015613a4157848901518255600182019150602085019450602081019050613a1c565b86831015613a5e5784890151613a5a601f891682613967565b8355505b6001600288020188555050505b505050505050565b6000604082019050613a886000830185612d01565b613a956020830184612dea565b9392505050565b7f4552433732313a2061646472657373207a65726f206973206e6f74206120766160008201527f6c6964206f776e65720000000000000000000000000000000000000000000000602082015250565b6000613af8602983612bc5565b9150613b0382613a9c565b604082019050919050565b60006020820190508181036000830152613b2781613aeb565b9050919050565b6000608082019050613b436000830187612d01565b613b506020830186612dea565b613b5d6040830185612dea565b613b6a6060830184612dea565b95945050505050565b6000604082019050613b886000830185612dea565b613b956020830184612dea565b9392505050565b6000613ba88285613693565b9150613bb48284613693565b91508190509392505050565b7f4e487b7100000000000000000000000000000000000000000000000000000000600052603260045260246000fd5b7f4f776e61626c653a206e6577206f776e657220697320746865207a65726f206160008201527f6464726573730000000000000000000000000000000000000000000000000000602082015250565b6000613c4b602683612bc5565b9150613c5682613bef565b604082019050919050565b60006020820190508181036000830152613c7a81613c3e565b9050919050565b7f4552433732313a207472616e736665722066726f6d20696e636f72726563742060008201527f6f776e6572000000000000000000000000000000000000000000000000000000602082015250565b6000613cdd602583612bc5565b9150613ce882613c81565b604082019050919050565b60006020820190508181036000830152613d0c81613cd0565b9050919050565b7f4552433732313a207472616e7366657220746f20746865207a65726f2061646460008201527f7265737300000000000000000000000000000000000000000000000000000000602082015250565b6000613d6f602483612bc5565b9150613d7a82613d13565b604082019050919050565b60006020820190508181036000830152613d9e81613d62565b9050919050565b7f4552433732313a206d696e7420746f20746865207a65726f2061646472657373600082015250565b6000613ddb602083612bc5565b9150613de682613da5565b602082019050919050565b60006020820190508181036000830152613e0a81613dce565b9050919050565b7f4552433732313a20746f6b656e20616c7265616479206d696e74656400000000600082015250565b6000613e47601c83612bc5565b9150613e5282613e11565b602082019050919050565b60006020820190508181036000830152613e7681613e3a565b9050919050565b7f4e487b7100000000000000000000000000000000000000000000000000000000600052601260045260246000fd5b7f45524337323155524953746f726167653a2055524920736574206f66206e6f6e60008201527f6578697374656e7420746f6b656e000000000000000000000000000000000000602082015250565b6000613f08602e83612bc5565b9150613f1382613eac565b604082019050919050565b60006020820190508181036000830152613f3781613efb565b9050919050565b7f53757276657920646f206e6f7420657869737473000000000000000000000000600082015250565b6000613f74601483612bc5565b9150613f7f82613f3e565b602082019050919050565b60006020820190508181036000830152613fa381613f67565b9050919050565b7f4f776e61626c653a2063616c6c6572206973206e6f7420746865206f776e6572600082015250565b6000613fe0602083612bc5565b9150613feb82613faa565b602082019050919050565b6000602082019050818103600083015261400f81613fd3565b9050919050565b7f4552433732313a20617070726f766520746f2063616c6c657200000000000000600082015250565b600061404c601983612bc5565b915061405782614016565b602082019050919050565b6000602082019050818103600083015261407b8161403f565b9050919050565b7f4552433732313a207472616e7366657220746f206e6f6e20455243373231526560008201527f63656976657220696d706c656d656e7465720000000000000000000000000000602082015250565b60006140de603283612bc5565b91506140e982614082565b604082019050919050565b6000602082019050818103600083015261410d816140d1565b9050919050565b7f4e487b7100000000000000000000000000000000000000000000000000000000600052601160045260246000fd5b600061414e82612c6c565b915061415983612c6c565b925082820390508181111561417157614170614114565b5b92915050565b600061418282612c6c565b915061418d83612c6c565b92508282019050808211156141a5576141a4614114565b5b92915050565b600081519050919050565b600082825260208201905092915050565b60006141d2826141ab565b6141dc81856141b6565b93506141ec818560208601612bd6565b6141f581612c00565b840191505092915050565b60006080820190506142156000830187612d01565b6142226020830186612d01565b61422f6040830185612dea565b818103606083015261424181846141c7565b905095945050505050565b60008151905061425b81612b2b565b92915050565b60006020828403121561427757614276612af5565b5b60006142858482850161424c565b9150509291505056fe68747470733a2f2f697066732e696f2f697066732f516d5571444575785134676d7039395a7145665152646e72683459736e45416a686944726555787759434775786f2fa2646970667358221220ea2f4ed2420ecbc2311e1f38ee25ff92294435914406d54e4c45d899d077826964736f6c63430008110033",
  "immutableReferences": {},
  "source": "// SPDX-License-Identifier: GPL-3.0\npragma solidity 0.8.17;\n\nimport \"../node_modules/@openzeppelin/contracts/token/ERC721/extensions/ERC721URIStorage.sol\";\nimport \"../node_modules/@openzeppelin/contracts/token/ERC20/IERC20.sol\";\nimport \"../node_modules/@openzeppelin/contracts/token/ERC20/IERC20.sol\";\nimport \"../node_modules/@openzeppelin/contracts/utils/Counters.sol\";\nimport \"../node_modules/@openzeppelin/contracts/access/Ownable.sol\";\nimport \"../node_modules/@openzeppelin/contracts/utils/Strings.sol\";\n\n//Interface OpiChainSBT\n/*interface OpiChainSBT {\n    function isSounder(address _profileAddress) external view returns (bool);\n    function isSurveyed(address _profileAddress) external view returns (bool);\n}*/\n\n/// @title  OpiChain Survey NFT\n/// @author Saad Igueninni\n/// @notice ERC721 NFT associated to on survey\n/// @dev Inherits the OpenZepplin Ownable ,ERC721URIStorage,Counters & Strings contracts\ncontract OpiChainSurveyNFT is ERC721URIStorage, Ownable {\n    using Counters for Counters.Counter;\n\n    Counters.Counter private _idQuestion;\n    Counters.Counter private _idAnswer;\n    Counters.Counter private _idSurveyNFT;\n\n    enum SurveyStatus {\n        OnGoing,\n        Terminated\n    }\n\n    struct Question {\n        uint256 idQuestion;\n        string textQuestion;\n    }\n\n    struct Answer {\n        address ownerAnswer;\n        uint256 idAnswer;\n        string textAnswer;\n    }\n\n    struct Survey {\n        uint256 idSurvey;\n        address owner;\n        string description;\n        SurveyStatus surveyStatus;\n        bool exists;\n        bool minted;\n    }\n\n    mapping(uint256 => Survey) idToSurveys;\n    //mapping(uint256 => address) idToOwner;\n    mapping(address => Survey[]) addressToSurveys;\n    // mapping( uint => Answer[])  questionToAnswers;\n    mapping(uint256 => Question[]) surveyToQuestion;\n    mapping(uint256 => mapping(uint256 => Answer[])) surveyToQuestionToAnswer;\n\n\n    uint public constant SurveyUnitCost = 500;  \n    address marketplaceContract;\n   // OpiChainSBT sbtContract;\n    IERC20 opi;\n\n    event surveyCreated(address _ownerSurvey, uint256 _idSurvey);\n    event surveyTerminated(uint256 _idSurvey);\n    event surveyDeleted(uint256 _idSurvey);\n    event surveyNFTMinted(uint256 _idSurvey);\n    event questionAdded(uint256 _idQuestion, uint256 _idSurvey);\n    event answerGiven(address _ownerAnswer, uint256 _idAnswer , uint256 _idSurvey, uint256 idQuestion);\n\n    //constructor(address _marketplaceContract, address _opiChainSBTAddress,address _opiAddress)\n    constructor()\n        ERC721(\"OpiChainSurvey\", \"OPS\")\n    {\n        //marketplaceContract = _marketplaceContract;\n       // sbtContract = OpiChainSBT(_opiChainSBTAddress);\n       // opi = IERC20(_opiAddress);\n    }\n\n    // ::::::::::::: MODIFIERS ::::::::::::: //\n    modifier SurveyExist(uint256 _idSurvey) {\n        require(idToSurveys[_idSurvey].exists, \"Survey do not exists\");\n        _;\n    }\n\n    /* modifier onlySounders() {\n        require(sbtContract.isSounder(msg.sender), \"You are not a sounder\");\n        _;\n    }\n\n    modifier onlySurveyeds() {\n        require(sbtContract.isSurveyed(msg.sender), \"You are not a surveyed\");\n        _;\n    }*/\n\n    // ::::::::::::: GETTERS ::::::::::::: //\n    function getSurveyStatusById(uint256 _idSurvey)\n        public\n        view\n        returns (uint256)\n    {\n        return (uint256(idToSurveys[_idSurvey].surveyStatus));\n    }\n\n\n      function getSurveyById(uint256 _idSurvey)\n        public\n        view\n        returns (Survey memory)\n    {\n        return idToSurveys[_idSurvey] ;\n    }\n\n    function getSurveyByAddress(address _ownerSurvey, uint256 _idSurvey)\n        public\n        view\n        returns (Survey memory)\n    {\n        return addressToSurveys[_ownerSurvey][_idSurvey];\n    }\n\n    // ::::::::::::: SETTERS ::::::::::::: //\n    function setSurveyTerminated(uint256 _idSurvey)\n        internal\n        SurveyExist(_idSurvey)\n    {\n        idToSurveys[_idSurvey].surveyStatus = SurveyStatus.Terminated;\n        //Check if we need the mapping\n        emit surveyTerminated(_idSurvey);\n    }\n\n    // ::::::::::::: SURVEYS HANDLING ::::::::::::: //\n    function createSurvey(address _ownerSurvey, string memory _description)\n        external\n    {\n        //require assez de balance \n        uint256 newIdSurvey = _idSurveyNFT.current();\n        Survey memory newSurvey;\n        newSurvey = Survey(\n            newIdSurvey,\n            _ownerSurvey,\n            _description,\n            SurveyStatus.OnGoing,\n            true,\n            false\n        );\n\n        //Update mapping\n        idToSurveys[newIdSurvey] = newSurvey;\n        addressToSurveys[_ownerSurvey].push(newSurvey);\n        _idSurveyNFT.increment();\n        emit surveyCreated(_ownerSurvey, newIdSurvey);\n\n    }\n\n    //Mint only when in status Terminated\n    function mintSurvey(uint256 _idSurvey) external  {\n        require(\n            getSurveyStatusById(_idSurvey) == uint256(SurveyStatus.Terminated),\n            \"Survey not terminated\"\n        );\n\n        address _ownerSurvey;\n\n        //setApprovalForAll(marketplaceContract, true); //Give approval to marketplace\n        _ownerSurvey = idToSurveys[_idSurvey].owner;\n        _mint(address(this), _idSurvey);\n         setApprovalForAll(address(this), true);\n        idToSurveys[_idSurvey].minted = true;\n        string memory urinumber = Strings.toString(_idSurvey);\n        string\n            memory tokenURI = \"https://ipfs.io/ipfs/QmUqDEuxQ4gmp99ZqEfQRdnrh4YsnEAjhiDreUxwYCGuxo/\"; //To change by CID of !!\n        string memory _Uri = string.concat(tokenURI, urinumber, \".json\");\n\n        _setTokenURI(_idSurvey, _Uri);\n\n        emit surveyNFTMinted(_idSurvey);\n    }\n\n  \n    function terminateSurvey(uint256 _idSurvey) external \n    //onlySurveyeds\n     {\n        require(\n            getSurveyStatusById(_idSurvey) == uint256(SurveyStatus.OnGoing),\n            \"Survey not onGoing!\"\n        );\n        setSurveyTerminated(_idSurvey);\n        emit surveyTerminated(_idSurvey);\n    }\n\n    function deleteSurvey(uint256 _idSurvey) external {\n        delete idToSurveys[_idSurvey];\n        emit surveyDeleted(_idSurvey);\n    }\n\n    // ::::::::::::: QUESTIONS MANAGEMENT ::::::::::::: //\n\n  function addQuestion(uint256 _idSurvey , string memory _question) external \n  //onlySurveyeds\n  {\n       uint256 newIdQuestion = _idQuestion.current();\n        surveyToQuestion[_idSurvey].push( Question(newIdQuestion,_question));\n      _idQuestion.increment();\n      emit questionAdded(newIdQuestion, _idSurvey);\n  }\n\n\n\n  // ::::::::::::: ANSWERS MANAGEMENT ::::::::::::: //\n  function giveAnswer(uint256 _idSurvey , uint256 _idQuestionAnswer ,string memory _answer) external \n  //onlySounders\n  {\n\n      uint256 newIdAnswer= _idAnswer.current();\n        surveyToQuestionToAnswer[_idSurvey][_idQuestionAnswer].push(Answer(msg.sender,newIdAnswer,_answer));\n      _idAnswer.increment();\n      emit answerGiven(msg.sender,newIdAnswer , _idSurvey, _idQuestionAnswer);\n  }\n\n\n\n    //reveal_results -> une fois TERMINATED , & vendu on peut reveal.\n\n    // ::::::::::::: OVVERIDES ::::::::::::: //\n}\n",
  "sourcePath": "/home/saadi/coursAlyra/OpiChain/truffle/contracts/OpiChainSurveyNFT.sol",
  "compiler": {
    "name": "solc",
    "version": "0.8.17+commit.8df45f5f.Emscripten.clang"
  },
  "schemaVersion": "3.4.10",
  "updatedAt": "2022-12-12T08:49:30.473Z",
  "networkType": "ethereum",
  "devdoc": {
    "author": "Saad Igueninni",
    "details": "Inherits the OpenZepplin Ownable ,ERC721URIStorage,Counters & Strings contracts",
    "kind": "dev",
    "methods": {
      "approve(address,uint256)": {
        "details": "See {IERC721-approve}."
      },
      "balanceOf(address)": {
        "details": "See {IERC721-balanceOf}."
      },
      "getApproved(uint256)": {
        "details": "See {IERC721-getApproved}."
      },
      "isApprovedForAll(address,address)": {
        "details": "See {IERC721-isApprovedForAll}."
      },
      "name()": {
        "details": "See {IERC721Metadata-name}."
      },
      "owner()": {
        "details": "Returns the address of the current owner."
      },
      "ownerOf(uint256)": {
        "details": "See {IERC721-ownerOf}."
      },
      "renounceOwnership()": {
        "details": "Leaves the contract without owner. It will not be possible to call `onlyOwner` functions anymore. Can only be called by the current owner. NOTE: Renouncing ownership will leave the contract without an owner, thereby removing any functionality that is only available to the owner."
      },
      "safeTransferFrom(address,address,uint256)": {
        "details": "See {IERC721-safeTransferFrom}."
      },
      "safeTransferFrom(address,address,uint256,bytes)": {
        "details": "See {IERC721-safeTransferFrom}."
      },
      "setApprovalForAll(address,bool)": {
        "details": "See {IERC721-setApprovalForAll}."
      },
      "supportsInterface(bytes4)": {
        "details": "See {IERC165-supportsInterface}."
      },
      "symbol()": {
        "details": "See {IERC721Metadata-symbol}."
      },
      "tokenURI(uint256)": {
        "details": "See {IERC721Metadata-tokenURI}."
      },
      "transferFrom(address,address,uint256)": {
        "details": "See {IERC721-transferFrom}."
      },
      "transferOwnership(address)": {
        "details": "Transfers ownership of the contract to a new account (`newOwner`). Can only be called by the current owner."
      }
    },
    "title": "OpiChain Survey NFT",
    "version": 1
  },
  "userdoc": {
    "kind": "user",
    "methods": {},
    "notice": "ERC721 NFT associated to on survey",
    "version": 1
  }
}