{
  "contractName": "OpiChainSBT",
  "abi": [
    {
      "inputs": [],
      "stateMutability": "nonpayable",
      "type": "constructor"
    },
    {
      "anonymous": false,
      "inputs": [
        {
          "indexed": true,
          "internalType": "address",
          "name": "owner",
          "type": "address"
        },
        {
          "indexed": true,
          "internalType": "address",
          "name": "approved",
          "type": "address"
        },
        {
          "indexed": true,
          "internalType": "uint256",
          "name": "tokenId",
          "type": "uint256"
        }
      ],
      "name": "Approval",
      "type": "event"
    },
    {
      "anonymous": false,
      "inputs": [
        {
          "indexed": true,
          "internalType": "address",
          "name": "owner",
          "type": "address"
        },
        {
          "indexed": true,
          "internalType": "address",
          "name": "operator",
          "type": "address"
        },
        {
          "indexed": false,
          "internalType": "bool",
          "name": "approved",
          "type": "bool"
        }
      ],
      "name": "ApprovalForAll",
      "type": "event"
    },
    {
      "anonymous": false,
      "inputs": [
        {
          "indexed": true,
          "internalType": "address",
          "name": "previousOwner",
          "type": "address"
        },
        {
          "indexed": true,
          "internalType": "address",
          "name": "newOwner",
          "type": "address"
        }
      ],
      "name": "OwnershipTransferred",
      "type": "event"
    },
    {
      "anonymous": false,
      "inputs": [
        {
          "indexed": true,
          "internalType": "address",
          "name": "from",
          "type": "address"
        },
        {
          "indexed": true,
          "internalType": "address",
          "name": "to",
          "type": "address"
        },
        {
          "indexed": true,
          "internalType": "uint256",
          "name": "tokenId",
          "type": "uint256"
        }
      ],
      "name": "Transfer",
      "type": "event"
    },
    {
      "anonymous": false,
      "inputs": [
        {
          "indexed": false,
          "internalType": "address",
          "name": "_profileAddress",
          "type": "address"
        },
        {
          "indexed": false,
          "internalType": "uint256",
          "name": "_OpiIdCounter",
          "type": "uint256"
        }
      ],
      "name": "grantedOpiID",
      "type": "event"
    },
    {
      "anonymous": false,
      "inputs": [
        {
          "indexed": false,
          "internalType": "address",
          "name": "_profileAddress",
          "type": "address"
        }
      ],
      "name": "revokedOpiID",
      "type": "event"
    },
    {
      "anonymous": false,
      "inputs": [
        {
          "indexed": false,
          "internalType": "address",
          "name": "_profileAddress",
          "type": "address"
        }
      ],
      "name": "updatedOpiID",
      "type": "event"
    },
    {
      "inputs": [
        {
          "internalType": "address",
          "name": "to",
          "type": "address"
        },
        {
          "internalType": "uint256",
          "name": "tokenId",
          "type": "uint256"
        }
      ],
      "name": "approve",
      "outputs": [],
      "stateMutability": "nonpayable",
      "type": "function"
    },
    {
      "inputs": [
        {
          "internalType": "address",
          "name": "owner",
          "type": "address"
        }
      ],
      "name": "balanceOf",
      "outputs": [
        {
          "internalType": "uint256",
          "name": "",
          "type": "uint256"
        }
      ],
      "stateMutability": "view",
      "type": "function",
      "constant": true
    },
    {
      "inputs": [
        {
          "internalType": "uint256",
          "name": "tokenId",
          "type": "uint256"
        }
      ],
      "name": "getApproved",
      "outputs": [
        {
          "internalType": "address",
          "name": "",
          "type": "address"
        }
      ],
      "stateMutability": "view",
      "type": "function",
      "constant": true
    },
    {
      "inputs": [
        {
          "internalType": "address",
          "name": "owner",
          "type": "address"
        },
        {
          "internalType": "address",
          "name": "operator",
          "type": "address"
        }
      ],
      "name": "isApprovedForAll",
      "outputs": [
        {
          "internalType": "bool",
          "name": "",
          "type": "bool"
        }
      ],
      "stateMutability": "view",
      "type": "function",
      "constant": true
    },
    {
      "inputs": [],
      "name": "name",
      "outputs": [
        {
          "internalType": "string",
          "name": "",
          "type": "string"
        }
      ],
      "stateMutability": "view",
      "type": "function",
      "constant": true
    },
    {
      "inputs": [],
      "name": "owner",
      "outputs": [
        {
          "internalType": "address",
          "name": "",
          "type": "address"
        }
      ],
      "stateMutability": "view",
      "type": "function",
      "constant": true
    },
    {
      "inputs": [
        {
          "internalType": "uint256",
          "name": "tokenId",
          "type": "uint256"
        }
      ],
      "name": "ownerOf",
      "outputs": [
        {
          "internalType": "address",
          "name": "",
          "type": "address"
        }
      ],
      "stateMutability": "view",
      "type": "function",
      "constant": true
    },
    {
      "inputs": [],
      "name": "renounceOwnership",
      "outputs": [],
      "stateMutability": "nonpayable",
      "type": "function"
    },
    {
      "inputs": [
        {
          "internalType": "address",
          "name": "from",
          "type": "address"
        },
        {
          "internalType": "address",
          "name": "to",
          "type": "address"
        },
        {
          "internalType": "uint256",
          "name": "tokenId",
          "type": "uint256"
        }
      ],
      "name": "safeTransferFrom",
      "outputs": [],
      "stateMutability": "nonpayable",
      "type": "function"
    },
    {
      "inputs": [
        {
          "internalType": "address",
          "name": "from",
          "type": "address"
        },
        {
          "internalType": "address",
          "name": "to",
          "type": "address"
        },
        {
          "internalType": "uint256",
          "name": "tokenId",
          "type": "uint256"
        },
        {
          "internalType": "bytes",
          "name": "data",
          "type": "bytes"
        }
      ],
      "name": "safeTransferFrom",
      "outputs": [],
      "stateMutability": "nonpayable",
      "type": "function"
    },
    {
      "inputs": [
        {
          "internalType": "address",
          "name": "operator",
          "type": "address"
        },
        {
          "internalType": "bool",
          "name": "approved",
          "type": "bool"
        }
      ],
      "name": "setApprovalForAll",
      "outputs": [],
      "stateMutability": "nonpayable",
      "type": "function"
    },
    {
      "inputs": [
        {
          "internalType": "bytes4",
          "name": "interfaceId",
          "type": "bytes4"
        }
      ],
      "name": "supportsInterface",
      "outputs": [
        {
          "internalType": "bool",
          "name": "",
          "type": "bool"
        }
      ],
      "stateMutability": "view",
      "type": "function",
      "constant": true
    },
    {
      "inputs": [],
      "name": "symbol",
      "outputs": [
        {
          "internalType": "string",
          "name": "",
          "type": "string"
        }
      ],
      "stateMutability": "view",
      "type": "function",
      "constant": true
    },
    {
      "inputs": [
        {
          "internalType": "uint256",
          "name": "tokenId",
          "type": "uint256"
        }
      ],
      "name": "tokenURI",
      "outputs": [
        {
          "internalType": "string",
          "name": "",
          "type": "string"
        }
      ],
      "stateMutability": "view",
      "type": "function",
      "constant": true
    },
    {
      "inputs": [
        {
          "internalType": "address",
          "name": "from",
          "type": "address"
        },
        {
          "internalType": "address",
          "name": "to",
          "type": "address"
        },
        {
          "internalType": "uint256",
          "name": "tokenId",
          "type": "uint256"
        }
      ],
      "name": "transferFrom",
      "outputs": [],
      "stateMutability": "nonpayable",
      "type": "function"
    },
    {
      "inputs": [
        {
          "internalType": "address",
          "name": "newOwner",
          "type": "address"
        }
      ],
      "name": "transferOwnership",
      "outputs": [],
      "stateMutability": "nonpayable",
      "type": "function"
    },
    {
      "inputs": [
        {
          "internalType": "address",
          "name": "_profileAddress",
          "type": "address"
        }
      ],
      "name": "getOpiID",
      "outputs": [
        {
          "components": [
            {
              "internalType": "uint256",
              "name": "OpiIdCounter",
              "type": "uint256"
            },
            {
              "internalType": "string",
              "name": "name",
              "type": "string"
            },
            {
              "internalType": "enum OpiChainSBT.Gender",
              "name": "gender",
              "type": "uint8"
            },
            {
              "internalType": "uint256",
              "name": "age",
              "type": "uint256"
            },
            {
              "internalType": "enum OpiChainSBT.Role",
              "name": "role",
              "type": "uint8"
            },
            {
              "internalType": "bool",
              "name": "isOpiIdGranted",
              "type": "bool"
            }
          ],
          "internalType": "struct OpiChainSBT.OpiProfile",
          "name": "",
          "type": "tuple"
        }
      ],
      "stateMutability": "view",
      "type": "function",
      "constant": true
    },
    {
      "inputs": [
        {
          "internalType": "address",
          "name": "_profileAddress",
          "type": "address"
        }
      ],
      "name": "isGrantedOpiID",
      "outputs": [
        {
          "internalType": "bool",
          "name": "",
          "type": "bool"
        }
      ],
      "stateMutability": "view",
      "type": "function",
      "constant": true
    },
    {
      "inputs": [
        {
          "internalType": "address",
          "name": "_profileAddress",
          "type": "address"
        }
      ],
      "name": "isSounder",
      "outputs": [
        {
          "internalType": "bool",
          "name": "",
          "type": "bool"
        }
      ],
      "stateMutability": "view",
      "type": "function",
      "constant": true
    },
    {
      "inputs": [
        {
          "internalType": "address",
          "name": "_profileAddress",
          "type": "address"
        }
      ],
      "name": "isSurveyed",
      "outputs": [
        {
          "internalType": "bool",
          "name": "",
          "type": "bool"
        }
      ],
      "stateMutability": "view",
      "type": "function",
      "constant": true
    },
    {
      "inputs": [
        {
          "internalType": "address",
          "name": "_profileAddress",
          "type": "address"
        },
        {
          "internalType": "string",
          "name": "_SBTUri",
          "type": "string"
        },
        {
          "internalType": "string",
          "name": "_name",
          "type": "string"
        },
        {
          "internalType": "uint256",
          "name": "_age",
          "type": "uint256"
        },
        {
          "internalType": "uint8",
          "name": "_gender",
          "type": "uint8"
        },
        {
          "internalType": "uint8",
          "name": "_role",
          "type": "uint8"
        }
      ],
      "name": "grantOpiID",
      "outputs": [
        {
          "internalType": "uint256",
          "name": "",
          "type": "uint256"
        }
      ],
      "stateMutability": "nonpayable",
      "type": "function"
    },
    {
      "inputs": [
        {
          "internalType": "address",
          "name": "_profileAddress",
          "type": "address"
        }
      ],
      "name": "revokeOpiID",
      "outputs": [],
      "stateMutability": "nonpayable",
      "type": "function"
    },
    {
      "inputs": [
        {
          "internalType": "address",
          "name": "_profileAddress",
          "type": "address"
        },
        {
          "internalType": "string",
          "name": "_name",
          "type": "string"
        },
        {
          "internalType": "uint256",
          "name": "_age",
          "type": "uint256"
        },
        {
          "internalType": "uint8",
          "name": "_gender",
          "type": "uint8"
        },
        {
          "internalType": "uint8",
          "name": "_role",
          "type": "uint8"
        }
      ],
      "name": "updateOpiID",
      "outputs": [],
      "stateMutability": "nonpayable",
      "type": "function"
    }
  ],
  "bytecode": "0x60806040523480156200001157600080fd5b506040518060400160405280600a81526020017f4f7069436861696e4944000000000000000000000000000000000000000000008152506040518060400160405280600581526020017f4f7069496400000000000000000000000000000000000000000000000000000081525081600090816200008f919062000412565b508060019081620000a1919062000412565b505050620000c4620000b8620000ca60201b60201c565b620000d260201b60201c565b620004f9565b600033905090565b6000600760009054906101000a900473ffffffffffffffffffffffffffffffffffffffff16905081600760006101000a81548173ffffffffffffffffffffffffffffffffffffffff021916908373ffffffffffffffffffffffffffffffffffffffff1602179055508173ffffffffffffffffffffffffffffffffffffffff168173ffffffffffffffffffffffffffffffffffffffff167f8be0079c531659141344cd1fd0a4f28419497f9722a3daafe3b4186f6b6457e060405160405180910390a35050565b600081519050919050565b7f4e487b7100000000000000000000000000000000000000000000000000000000600052604160045260246000fd5b7f4e487b7100000000000000000000000000000000000000000000000000000000600052602260045260246000fd5b600060028204905060018216806200021a57607f821691505b60208210810362000230576200022f620001d2565b5b50919050565b60008190508160005260206000209050919050565b60006020601f8301049050919050565b600082821b905092915050565b6000600883026200029a7fffffffffffffffffffffffffffffffffffffffffffffffffffffffffffffffff826200025b565b620002a686836200025b565b95508019841693508086168417925050509392505050565b6000819050919050565b6000819050919050565b6000620002f3620002ed620002e784620002be565b620002c8565b620002be565b9050919050565b6000819050919050565b6200030f83620002d2565b620003276200031e82620002fa565b84845462000268565b825550505050565b600090565b6200033e6200032f565b6200034b81848462000304565b505050565b5b8181101562000373576200036760008262000334565b60018101905062000351565b5050565b601f821115620003c2576200038c8162000236565b62000397846200024b565b81016020851015620003a7578190505b620003bf620003b6856200024b565b83018262000350565b50505b505050565b600082821c905092915050565b6000620003e760001984600802620003c7565b1980831691505092915050565b6000620004028383620003d4565b9150826002028217905092915050565b6200041d8262000198565b67ffffffffffffffff811115620004395762000438620001a3565b5b62000445825462000201565b6200045282828562000377565b600060209050601f8311600181146200048a576000841562000475578287015190505b620004818582620003f4565b865550620004f1565b601f1984166200049a8662000236565b60005b82811015620004c4578489015182556001820191506020850194506020810190506200049d565b86831015620004e45784890151620004e0601f891682620003d4565b8355505b6001600288020188555050505b505050505050565b61444c80620005096000396000f3fe608060405234801561001057600080fd5b506004361061014d5760003560e01c8063715018a6116100c3578063b88d4fde1161007c578063b88d4fde146103c2578063c87b56dd146103de578063d9d1ddbe1461040e578063db7e02131461043e578063e985e9c51461045a578063f2fde38b1461048a5761014d565b8063715018a61461030057806373addd8b1461030a578063750623351461033a5780638da5cb5b1461036a57806395d89b4114610388578063a22cb465146103a65761014d565b806323b872dd1161011557806323b872dd146102085780633ee5c24f1461022457806340cfeb4e1461025457806342842e0e146102845780636352211e146102a057806370a08231146102d05761014d565b806301ffc9a71461015257806306fdde0314610182578063081812fc146101a0578063095ea7b3146101d05780631a71b6d2146101ec575b600080fd5b61016c60048036038101906101679190612d3c565b6104a6565b6040516101799190612d84565b60405180910390f35b61018a610588565b6040516101979190612e2f565b60405180910390f35b6101ba60048036038101906101b59190612e87565b61061a565b6040516101c79190612ef5565b60405180910390f35b6101ea60048036038101906101e59190612f3c565b610660565b005b6102066004803603810190610201919061301a565b610777565b005b610222600480360381019061021d91906130b4565b610b9d565b005b61023e60048036038101906102399190613107565b610bfd565b60405161024b9190612d84565b60405180910390f35b61026e60048036038101906102699190613107565b610c5e565b60405161027b9190612d84565b60405180910390f35b61029e600480360381019061029991906130b4565b610dcf565b005b6102ba60048036038101906102b59190612e87565b610def565b6040516102c79190612ef5565b60405180910390f35b6102ea60048036038101906102e59190613107565b610e75565b6040516102f79190613143565b60405180910390f35b610308610f2c565b005b610324600480360381019061031f9190613107565b610f40565b604051610331919061330e565b60405180910390f35b610354600480360381019061034f9190613330565b611169565b6040516103619190613143565b60405180910390f35b6103726114b2565b60405161037f9190612ef5565b60405180910390f35b6103906114dc565b60405161039d9190612e2f565b60405180910390f35b6103c060048036038101906103bb919061342b565b61156e565b005b6103dc60048036038101906103d7919061359b565b611584565b005b6103f860048036038101906103f39190612e87565b6115e6565b6040516104059190612e2f565b60405180910390f35b61042860048036038101906104239190613107565b6116f8565b6040516104359190612d84565b60405180910390f35b61045860048036038101906104539190613107565b611868565b005b610474600480360381019061046f919061361e565b6119cd565b6040516104819190612d84565b60405180910390f35b6104a4600480360381019061049f9190613107565b611a61565b005b60007f80ac58cd000000000000000000000000000000000000000000000000000000007bffffffffffffffffffffffffffffffffffffffffffffffffffffffff1916827bffffffffffffffffffffffffffffffffffffffffffffffffffffffff1916148061057157507f5b5e139f000000000000000000000000000000000000000000000000000000007bffffffffffffffffffffffffffffffffffffffffffffffffffffffff1916827bffffffffffffffffffffffffffffffffffffffffffffffffffffffff1916145b80610581575061058082611ae4565b5b9050919050565b6060600080546105979061368d565b80601f01602080910402602001604051908101604052809291908181526020018280546105c39061368d565b80156106105780601f106105e557610100808354040283529160200191610610565b820191906000526020600020905b8154815290600101906020018083116105f357829003601f168201915b5050505050905090565b600061062582611b4e565b6004600083815260200190815260200160002060009054906101000a900473ffffffffffffffffffffffffffffffffffffffff169050919050565b600061066b82610def565b90508073ffffffffffffffffffffffffffffffffffffffff168373ffffffffffffffffffffffffffffffffffffffff16036106db576040517f08c379a00000000000000000000000000000000000000000000000000000000081526004016106d290613730565b60405180910390fd5b8073ffffffffffffffffffffffffffffffffffffffff166106fa611b99565b73ffffffffffffffffffffffffffffffffffffffff161480610729575061072881610723611b99565b6119cd565b5b610768576040517f08c379a000000000000000000000000000000000000000000000000000000000815260040161075f906137c2565b60405180910390fd5b6107728383611ba1565b505050565b61077f611c5a565b6000600860003373ffffffffffffffffffffffffffffffffffffffff1673ffffffffffffffffffffffffffffffffffffffff1681526020019081526020016000206000015403610804576040517f08c379a00000000000000000000000000000000000000000000000000000000081526004016107fb9061382e565b60405180910390fd5b61080c612c17565b600860008873ffffffffffffffffffffffffffffffffffffffff1673ffffffffffffffffffffffffffffffffffffffff1681526020019081526020016000206040518060c0016040529081600082015481526020016001820180546108709061368d565b80601f016020809104026020016040519081016040528092919081815260200182805461089c9061368d565b80156108e95780601f106108be576101008083540402835291602001916108e9565b820191906000526020600020905b8154815290600101906020018083116108cc57829003601f168201915b505050505081526020016002820160009054906101000a900460ff166001811115610917576109166131b7565b5b6001811115610929576109286131b7565b5b8152602001600382015481526020016004820160009054906101000a900460ff16600181111561095c5761095b6131b7565b5b600181111561096e5761096d6131b7565b5b81526020016004820160019054906101000a900460ff161515151581525050905085858080601f016020809104026020016040519081016040528093929190818152602001838380828437600081840152601f19601f820116905080830192505050505050508160200181905250838160600181815250508260ff1660018111156109fc576109fb6131b7565b5b81604001906001811115610a1357610a126131b7565b5b90816001811115610a2757610a266131b7565b5b815250508160ff166001811115610a4157610a406131b7565b5b81608001906001811115610a5857610a576131b7565b5b90816001811115610a6c57610a6b6131b7565b5b8152505080600860008973ffffffffffffffffffffffffffffffffffffffff1673ffffffffffffffffffffffffffffffffffffffff168152602001908152602001600020600082015181600001556020820151816001019081610acf91906139fa565b5060408201518160020160006101000a81548160ff02191690836001811115610afb57610afa6131b7565b5b02179055506060820151816003015560808201518160040160006101000a81548160ff02191690836001811115610b3557610b346131b7565b5b021790555060a08201518160040160016101000a81548160ff0219169083151502179055509050507ffbe677b07b780a20c8f6f9ab6061b5dec9604f4b7bacd0b4172b887d6c882f1187604051610b8c9190612ef5565b60405180910390a150505050505050565b610bae610ba8611b99565b82611cd8565b610bed576040517f08c379a0000000000000000000000000000000000000000000000000000000008152600401610be490613b3e565b60405180910390fd5b610bf8838383611d6d565b505050565b6000610c07611c5a565b600860008373ffffffffffffffffffffffffffffffffffffffff1673ffffffffffffffffffffffffffffffffffffffff16815260200190815260200160002060040160019054906101000a900460ff169050919050565b6000610c68611c5a565b81600860008273ffffffffffffffffffffffffffffffffffffffff1673ffffffffffffffffffffffffffffffffffffffff16815260200190815260200160002060040160019054906101000a900460ff16610cf8576040517f08c379a0000000000000000000000000000000000000000000000000000000008152600401610cef9061382e565b60405180910390fd5b600860008473ffffffffffffffffffffffffffffffffffffffff1673ffffffffffffffffffffffffffffffffffffffff16815260200190815260200160002060040160019054906101000a900460ff168015610dc7575060006001811115610d6357610d626131b7565b5b600860008573ffffffffffffffffffffffffffffffffffffffff1673ffffffffffffffffffffffffffffffffffffffff16815260200190815260200160002060040160009054906101000a900460ff166001811115610dc557610dc46131b7565b5b145b915050919050565b610dea83838360405180602001604052806000815250611584565b505050565b600080610dfb83612066565b9050600073ffffffffffffffffffffffffffffffffffffffff168173ffffffffffffffffffffffffffffffffffffffff1603610e6c576040517f08c379a0000000000000000000000000000000000000000000000000000000008152600401610e6390613baa565b60405180910390fd5b80915050919050565b60008073ffffffffffffffffffffffffffffffffffffffff168273ffffffffffffffffffffffffffffffffffffffff1603610ee5576040517f08c379a0000000000000000000000000000000000000000000000000000000008152600401610edc90613c3c565b60405180910390fd5b600360008373ffffffffffffffffffffffffffffffffffffffff1673ffffffffffffffffffffffffffffffffffffffff168152602001908152602001600020549050919050565b610f34611c5a565b610f3e60006120a3565b565b610f48612c17565b610f50611c5a565b81600860008273ffffffffffffffffffffffffffffffffffffffff1673ffffffffffffffffffffffffffffffffffffffff16815260200190815260200160002060040160019054906101000a900460ff16610fe0576040517f08c379a0000000000000000000000000000000000000000000000000000000008152600401610fd79061382e565b60405180910390fd5b600860008473ffffffffffffffffffffffffffffffffffffffff1673ffffffffffffffffffffffffffffffffffffffff1681526020019081526020016000206040518060c0016040529081600082015481526020016001820180546110449061368d565b80601f01602080910402602001604051908101604052809291908181526020018280546110709061368d565b80156110bd5780601f10611092576101008083540402835291602001916110bd565b820191906000526020600020905b8154815290600101906020018083116110a057829003601f168201915b505050505081526020016002820160009054906101000a900460ff1660018111156110eb576110ea6131b7565b5b60018111156110fd576110fc6131b7565b5b8152602001600382015481526020016004820160009054906101000a900460ff1660018111156111305761112f6131b7565b5b6001811115611142576111416131b7565b5b81526020016004820160019054906101000a900460ff161515151581525050915050919050565b6000611173611c5a565b600860003373ffffffffffffffffffffffffffffffffffffffff1673ffffffffffffffffffffffffffffffffffffffff16815260200190815260200160002060040160019054906101000a900460ff1615611203576040517f08c379a00000000000000000000000000000000000000000000000000000000081526004016111fa90613ca8565b60405180910390fd5b61120d6009612169565b6000611219600961217f565b9050611223612c17565b8181600001818152505087878080601f016020809104026020016040519081016040528093929190818152602001838380828437600081840152601f19601f820116905080830192505050505050508160200181905250858160600181815250508460ff16600181111561129a576112996131b7565b5b816040019060018111156112b1576112b06131b7565b5b908160018111156112c5576112c46131b7565b5b815250508360ff1660018111156112df576112de6131b7565b5b816080019060018111156112f6576112f56131b7565b5b9081600181111561130a576113096131b7565b5b8152505060018160a001901515908115158152505080600860008d73ffffffffffffffffffffffffffffffffffffffff1673ffffffffffffffffffffffffffffffffffffffff16815260200190815260200160002060008201518160000155602082015181600101908161137e91906139fa565b5060408201518160020160006101000a81548160ff021916908360018111156113aa576113a96131b7565b5b02179055506060820151816003015560808201518160040160006101000a81548160ff021916908360018111156113e4576113e36131b7565b5b021790555060a08201518160040160016101000a81548160ff0219169083151502179055509050506114168b8361218d565b611464828b8b8080601f016020809104026020016040519081016040528093929190818152602001838380828437600081840152601f19601f820116905080830192505050505050506123aa565b7f8bab1e154354a8ac2120a9a65d4312758138cdf5cd4816f99aefee78bf713f828b8260000151604051611499929190613cc8565b60405180910390a1819250505098975050505050505050565b6000600760009054906101000a900473ffffffffffffffffffffffffffffffffffffffff16905090565b6060600180546114eb9061368d565b80601f01602080910402602001604051908101604052809291908181526020018280546115179061368d565b80156115645780601f1061153957610100808354040283529160200191611564565b820191906000526020600020905b81548152906001019060200180831161154757829003601f168201915b5050505050905090565b611580611579611b99565b8383612417565b5050565b61159561158f611b99565b83611cd8565b6115d4576040517f08c379a00000000000000000000000000000000000000000000000000000000081526004016115cb90613b3e565b60405180910390fd5b6115e084848484612583565b50505050565b60606115f182611b4e565b60006006600084815260200190815260200160002080546116119061368d565b80601f016020809104026020016040519081016040528092919081815260200182805461163d9061368d565b801561168a5780601f1061165f5761010080835404028352916020019161168a565b820191906000526020600020905b81548152906001019060200180831161166d57829003601f168201915b50505050509050600061169b6125df565b905060008151036116b05781925050506116f3565b6000825111156116e55780826040516020016116cd929190613d2d565b604051602081830303815290604052925050506116f3565b6116ee846125f6565b925050505b919050565b6000611702611c5a565b81600860008273ffffffffffffffffffffffffffffffffffffffff1673ffffffffffffffffffffffffffffffffffffffff16815260200190815260200160002060040160019054906101000a900460ff16611792576040517f08c379a00000000000000000000000000000000000000000000000000000000081526004016117899061382e565b60405180910390fd5b600860008473ffffffffffffffffffffffffffffffffffffffff1673ffffffffffffffffffffffffffffffffffffffff16815260200190815260200160002060040160019054906101000a900460ff16801561186057506001808111156117fc576117fb6131b7565b5b600860008573ffffffffffffffffffffffffffffffffffffffff1673ffffffffffffffffffffffffffffffffffffffff16815260200190815260200160002060040160009054906101000a900460ff16600181111561185e5761185d6131b7565b5b145b915050919050565b611870611c5a565b6000600860003373ffffffffffffffffffffffffffffffffffffffff1673ffffffffffffffffffffffffffffffffffffffff16815260200190815260200160002060000154036118f5576040517f08c379a00000000000000000000000000000000000000000000000000000000081526004016118ec9061382e565b60405180910390fd5b600860008273ffffffffffffffffffffffffffffffffffffffff1673ffffffffffffffffffffffffffffffffffffffff16815260200190815260200160002060008082016000905560018201600061194d9190612c73565b6002820160006101000a81549060ff021916905560038201600090556004820160006101000a81549060ff02191690556004820160016101000a81549060ff021916905550507ffbe677b07b780a20c8f6f9ab6061b5dec9604f4b7bacd0b4172b887d6c882f11816040516119c29190612ef5565b60405180910390a150565b6000600560008473ffffffffffffffffffffffffffffffffffffffff1673ffffffffffffffffffffffffffffffffffffffff16815260200190815260200160002060008373ffffffffffffffffffffffffffffffffffffffff1673ffffffffffffffffffffffffffffffffffffffff16815260200190815260200160002060009054906101000a900460ff16905092915050565b611a69611c5a565b600073ffffffffffffffffffffffffffffffffffffffff168173ffffffffffffffffffffffffffffffffffffffff1603611ad8576040517f08c379a0000000000000000000000000000000000000000000000000000000008152600401611acf90613dc3565b60405180910390fd5b611ae1816120a3565b50565b60007f01ffc9a7000000000000000000000000000000000000000000000000000000007bffffffffffffffffffffffffffffffffffffffffffffffffffffffff1916827bffffffffffffffffffffffffffffffffffffffffffffffffffffffff1916149050919050565b611b578161265e565b611b96576040517f08c379a0000000000000000000000000000000000000000000000000000000008152600401611b8d90613baa565b60405180910390fd5b50565b600033905090565b816004600083815260200190815260200160002060006101000a81548173ffffffffffffffffffffffffffffffffffffffff021916908373ffffffffffffffffffffffffffffffffffffffff160217905550808273ffffffffffffffffffffffffffffffffffffffff16611c1483610def565b73ffffffffffffffffffffffffffffffffffffffff167f8c5be1e5ebec7d5bd14f71427d1e84f3dd0314c0f7b2291e5b200ac8c7c3b92560405160405180910390a45050565b611c62611b99565b73ffffffffffffffffffffffffffffffffffffffff16611c806114b2565b73ffffffffffffffffffffffffffffffffffffffff1614611cd6576040517f08c379a0000000000000000000000000000000000000000000000000000000008152600401611ccd90613e2f565b60405180910390fd5b565b600080611ce483610def565b90508073ffffffffffffffffffffffffffffffffffffffff168473ffffffffffffffffffffffffffffffffffffffff161480611d265750611d2581856119cd565b5b80611d6457508373ffffffffffffffffffffffffffffffffffffffff16611d4c8461061a565b73ffffffffffffffffffffffffffffffffffffffff16145b91505092915050565b8273ffffffffffffffffffffffffffffffffffffffff16611d8d82610def565b73ffffffffffffffffffffffffffffffffffffffff1614611de3576040517f08c379a0000000000000000000000000000000000000000000000000000000008152600401611dda90613ec1565b60405180910390fd5b600073ffffffffffffffffffffffffffffffffffffffff168273ffffffffffffffffffffffffffffffffffffffff1603611e52576040517f08c379a0000000000000000000000000000000000000000000000000000000008152600401611e4990613f53565b60405180910390fd5b611e5f838383600161269f565b8273ffffffffffffffffffffffffffffffffffffffff16611e7f82610def565b73ffffffffffffffffffffffffffffffffffffffff1614611ed5576040517f08c379a0000000000000000000000000000000000000000000000000000000008152600401611ecc90613ec1565b60405180910390fd5b6004600082815260200190815260200160002060006101000a81549073ffffffffffffffffffffffffffffffffffffffff02191690556001600360008573ffffffffffffffffffffffffffffffffffffffff1673ffffffffffffffffffffffffffffffffffffffff168152602001908152602001600020600082825403925050819055506001600360008473ffffffffffffffffffffffffffffffffffffffff1673ffffffffffffffffffffffffffffffffffffffff16815260200190815260200160002060008282540192505081905550816002600083815260200190815260200160002060006101000a81548173ffffffffffffffffffffffffffffffffffffffff021916908373ffffffffffffffffffffffffffffffffffffffff160217905550808273ffffffffffffffffffffffffffffffffffffffff168473ffffffffffffffffffffffffffffffffffffffff167fddf252ad1be2c89b69c2b068fc378daa952ba7f163c4a11628f55a4df523b3ef60405160405180910390a46120618383836001612720565b505050565b60006002600083815260200190815260200160002060009054906101000a900473ffffffffffffffffffffffffffffffffffffffff169050919050565b6000600760009054906101000a900473ffffffffffffffffffffffffffffffffffffffff16905081600760006101000a81548173ffffffffffffffffffffffffffffffffffffffff021916908373ffffffffffffffffffffffffffffffffffffffff1602179055508173ffffffffffffffffffffffffffffffffffffffff168173ffffffffffffffffffffffffffffffffffffffff167f8be0079c531659141344cd1fd0a4f28419497f9722a3daafe3b4186f6b6457e060405160405180910390a35050565b6001816000016000828254019250508190555050565b600081600001549050919050565b600073ffffffffffffffffffffffffffffffffffffffff168273ffffffffffffffffffffffffffffffffffffffff16036121fc576040517f08c379a00000000000000000000000000000000000000000000000000000000081526004016121f390613fbf565b60405180910390fd5b6122058161265e565b15612245576040517f08c379a000000000000000000000000000000000000000000000000000000000815260040161223c9061402b565b60405180910390fd5b61225360008383600161269f565b61225c8161265e565b1561229c576040517f08c379a00000000000000000000000000000000000000000000000000000000081526004016122939061402b565b60405180910390fd5b6001600360008473ffffffffffffffffffffffffffffffffffffffff1673ffffffffffffffffffffffffffffffffffffffff16815260200190815260200160002060008282540192505081905550816002600083815260200190815260200160002060006101000a81548173ffffffffffffffffffffffffffffffffffffffff021916908373ffffffffffffffffffffffffffffffffffffffff160217905550808273ffffffffffffffffffffffffffffffffffffffff16600073ffffffffffffffffffffffffffffffffffffffff167fddf252ad1be2c89b69c2b068fc378daa952ba7f163c4a11628f55a4df523b3ef60405160405180910390a46123a6600083836001612720565b5050565b6123b38261265e565b6123f2576040517f08c379a00000000000000000000000000000000000000000000000000000000081526004016123e9906140bd565b60405180910390fd5b8060066000848152602001908152602001600020908161241291906139fa565b505050565b8173ffffffffffffffffffffffffffffffffffffffff168373ffffffffffffffffffffffffffffffffffffffff1603612485576040517f08c379a000000000000000000000000000000000000000000000000000000000815260040161247c90614129565b60405180910390fd5b80600560008573ffffffffffffffffffffffffffffffffffffffff1673ffffffffffffffffffffffffffffffffffffffff16815260200190815260200160002060008473ffffffffffffffffffffffffffffffffffffffff1673ffffffffffffffffffffffffffffffffffffffff16815260200190815260200160002060006101000a81548160ff0219169083151502179055508173ffffffffffffffffffffffffffffffffffffffff168373ffffffffffffffffffffffffffffffffffffffff167f17307eab39ab6107e8899845ad3d59bd9653f200f220920489ca2b5937696c31836040516125769190612d84565b60405180910390a3505050565b61258e848484611d6d565b61259a84848484612726565b6125d9576040517f08c379a00000000000000000000000000000000000000000000000000000000081526004016125d0906141bb565b60405180910390fd5b50505050565b606060405180602001604052806000815250905090565b606061260182611b4e565b600061260b6125df565b9050600081511161262b5760405180602001604052806000815250612656565b80612635846128ad565b604051602001612646929190613d2d565b6040516020818303038152906040525b915050919050565b60008073ffffffffffffffffffffffffffffffffffffffff1661268083612066565b73ffffffffffffffffffffffffffffffffffffffff1614159050919050565b600073ffffffffffffffffffffffffffffffffffffffff168473ffffffffffffffffffffffffffffffffffffffff161461270e576040517f08c379a00000000000000000000000000000000000000000000000000000000081526004016127059061424d565b60405180910390fd5b61271a8484848461297b565b50505050565b50505050565b60006127478473ffffffffffffffffffffffffffffffffffffffff16612aa1565b156128a0578373ffffffffffffffffffffffffffffffffffffffff1663150b7a02612770611b99565b8786866040518563ffffffff1660e01b815260040161279294939291906142c2565b6020604051808303816000875af19250505080156127ce57506040513d601f19601f820116820180604052508101906127cb9190614323565b60015b612850573d80600081146127fe576040519150601f19603f3d011682016040523d82523d6000602084013e612803565b606091505b506000815103612848576040517f08c379a000000000000000000000000000000000000000000000000000000000815260040161283f906141bb565b60405180910390fd5b805181602001fd5b63150b7a0260e01b7bffffffffffffffffffffffffffffffffffffffffffffffffffffffff1916817bffffffffffffffffffffffffffffffffffffffffffffffffffffffff1916149150506128a5565b600190505b949350505050565b6060600060016128bc84612ac4565b01905060008167ffffffffffffffff8111156128db576128da613470565b5b6040519080825280601f01601f19166020018201604052801561290d5781602001600182028036833780820191505090505b509050600082602001820190505b600115612970578080600190039150507f3031323334353637383961626364656600000000000000000000000000000000600a86061a8153600a858161296457612963614350565b5b0494506000850361291b575b819350505050919050565b6001811115612a9b57600073ffffffffffffffffffffffffffffffffffffffff168473ffffffffffffffffffffffffffffffffffffffff1614612a0f5780600360008673ffffffffffffffffffffffffffffffffffffffff1673ffffffffffffffffffffffffffffffffffffffff1681526020019081526020016000206000828254612a0791906143ae565b925050819055505b600073ffffffffffffffffffffffffffffffffffffffff168373ffffffffffffffffffffffffffffffffffffffff1614612a9a5780600360008573ffffffffffffffffffffffffffffffffffffffff1673ffffffffffffffffffffffffffffffffffffffff1681526020019081526020016000206000828254612a9291906143e2565b925050819055505b5b50505050565b6000808273ffffffffffffffffffffffffffffffffffffffff163b119050919050565b600080600090507a184f03e93ff9f4daa797ed6e38ed64bf6a1f0100000000000000008310612b22577a184f03e93ff9f4daa797ed6e38ed64bf6a1f0100000000000000008381612b1857612b17614350565b5b0492506040810190505b6d04ee2d6d415b85acef81000000008310612b5f576d04ee2d6d415b85acef81000000008381612b5557612b54614350565b5b0492506020810190505b662386f26fc100008310612b8e57662386f26fc100008381612b8457612b83614350565b5b0492506010810190505b6305f5e1008310612bb7576305f5e1008381612bad57612bac614350565b5b0492506008810190505b6127108310612bdc576127108381612bd257612bd1614350565b5b0492506004810190505b60648310612bff5760648381612bf557612bf4614350565b5b0492506002810190505b600a8310612c0e576001810190505b80915050919050565b6040518060c00160405280600081526020016060815260200160006001811115612c4457612c436131b7565b5b81526020016000815260200160006001811115612c6457612c636131b7565b5b81526020016000151581525090565b508054612c7f9061368d565b6000825580601f10612c915750612cb0565b601f016020900490600052602060002090810190612caf9190612cb3565b5b50565b5b80821115612ccc576000816000905550600101612cb4565b5090565b6000604051905090565b600080fd5b600080fd5b60007fffffffff0000000000000000000000000000000000000000000000000000000082169050919050565b612d1981612ce4565b8114612d2457600080fd5b50565b600081359050612d3681612d10565b92915050565b600060208284031215612d5257612d51612cda565b5b6000612d6084828501612d27565b91505092915050565b60008115159050919050565b612d7e81612d69565b82525050565b6000602082019050612d996000830184612d75565b92915050565b600081519050919050565b600082825260208201905092915050565b60005b83811015612dd9578082015181840152602081019050612dbe565b60008484015250505050565b6000601f19601f8301169050919050565b6000612e0182612d9f565b612e0b8185612daa565b9350612e1b818560208601612dbb565b612e2481612de5565b840191505092915050565b60006020820190508181036000830152612e498184612df6565b905092915050565b6000819050919050565b612e6481612e51565b8114612e6f57600080fd5b50565b600081359050612e8181612e5b565b92915050565b600060208284031215612e9d57612e9c612cda565b5b6000612eab84828501612e72565b91505092915050565b600073ffffffffffffffffffffffffffffffffffffffff82169050919050565b6000612edf82612eb4565b9050919050565b612eef81612ed4565b82525050565b6000602082019050612f0a6000830184612ee6565b92915050565b612f1981612ed4565b8114612f2457600080fd5b50565b600081359050612f3681612f10565b92915050565b60008060408385031215612f5357612f52612cda565b5b6000612f6185828601612f27565b9250506020612f7285828601612e72565b9150509250929050565b600080fd5b600080fd5b600080fd5b60008083601f840112612fa157612fa0612f7c565b5b8235905067ffffffffffffffff811115612fbe57612fbd612f81565b5b602083019150836001820283011115612fda57612fd9612f86565b5b9250929050565b600060ff82169050919050565b612ff781612fe1565b811461300257600080fd5b50565b60008135905061301481612fee565b92915050565b60008060008060008060a0878903121561303757613036612cda565b5b600061304589828a01612f27565b965050602087013567ffffffffffffffff81111561306657613065612cdf565b5b61307289828a01612f8b565b9550955050604061308589828a01612e72565b935050606061309689828a01613005565b92505060806130a789828a01613005565b9150509295509295509295565b6000806000606084860312156130cd576130cc612cda565b5b60006130db86828701612f27565b93505060206130ec86828701612f27565b92505060406130fd86828701612e72565b9150509250925092565b60006020828403121561311d5761311c612cda565b5b600061312b84828501612f27565b91505092915050565b61313d81612e51565b82525050565b60006020820190506131586000830184613134565b92915050565b61316781612e51565b82525050565b600082825260208201905092915050565b600061318982612d9f565b613193818561316d565b93506131a3818560208601612dbb565b6131ac81612de5565b840191505092915050565b7f4e487b7100000000000000000000000000000000000000000000000000000000600052602160045260246000fd5b600281106131f7576131f66131b7565b5b50565b6000819050613208826131e6565b919050565b6000613218826131fa565b9050919050565b6132288161320d565b82525050565b6002811061323f5761323e6131b7565b5b50565b60008190506132508261322e565b919050565b600061326082613242565b9050919050565b61327081613255565b82525050565b61327f81612d69565b82525050565b600060c08301600083015161329d600086018261315e565b50602083015184820360208601526132b5828261317e565b91505060408301516132ca604086018261321f565b5060608301516132dd606086018261315e565b5060808301516132f06080860182613267565b5060a083015161330360a0860182613276565b508091505092915050565b600060208201905081810360008301526133288184613285565b905092915050565b60008060008060008060008060c0898b0312156133505761334f612cda565b5b600061335e8b828c01612f27565b985050602089013567ffffffffffffffff81111561337f5761337e612cdf565b5b61338b8b828c01612f8b565b9750975050604089013567ffffffffffffffff8111156133ae576133ad612cdf565b5b6133ba8b828c01612f8b565b955095505060606133cd8b828c01612e72565b93505060806133de8b828c01613005565b92505060a06133ef8b828c01613005565b9150509295985092959890939650565b61340881612d69565b811461341357600080fd5b50565b600081359050613425816133ff565b92915050565b6000806040838503121561344257613441612cda565b5b600061345085828601612f27565b925050602061346185828601613416565b9150509250929050565b600080fd5b7f4e487b7100000000000000000000000000000000000000000000000000000000600052604160045260246000fd5b6134a882612de5565b810181811067ffffffffffffffff821117156134c7576134c6613470565b5b80604052505050565b60006134da612cd0565b90506134e6828261349f565b919050565b600067ffffffffffffffff82111561350657613505613470565b5b61350f82612de5565b9050602081019050919050565b82818337600083830152505050565b600061353e613539846134eb565b6134d0565b90508281526020810184848401111561355a5761355961346b565b5b61356584828561351c565b509392505050565b600082601f83011261358257613581612f7c565b5b813561359284826020860161352b565b91505092915050565b600080600080608085870312156135b5576135b4612cda565b5b60006135c387828801612f27565b94505060206135d487828801612f27565b93505060406135e587828801612e72565b925050606085013567ffffffffffffffff81111561360657613605612cdf565b5b6136128782880161356d565b91505092959194509250565b6000806040838503121561363557613634612cda565b5b600061364385828601612f27565b925050602061365485828601612f27565b9150509250929050565b7f4e487b7100000000000000000000000000000000000000000000000000000000600052602260045260246000fd5b600060028204905060018216806136a557607f821691505b6020821081036136b8576136b761365e565b5b50919050565b7f4552433732313a20617070726f76616c20746f2063757272656e74206f776e6560008201527f7200000000000000000000000000000000000000000000000000000000000000602082015250565b600061371a602183612daa565b9150613725826136be565b604082019050919050565b600060208201905081810360008301526137498161370d565b9050919050565b7f4552433732313a20617070726f76652063616c6c6572206973206e6f7420746f60008201527f6b656e206f776e6572206f7220617070726f76656420666f7220616c6c000000602082015250565b60006137ac603d83612daa565b91506137b782613750565b604082019050919050565b600060208201905081810360008301526137db8161379f565b9050919050565b7f4f7069494420646f206e6f742065786973747300000000000000000000000000600082015250565b6000613818601383612daa565b9150613823826137e2565b602082019050919050565b600060208201905081810360008301526138478161380b565b9050919050565b60008190508160005260206000209050919050565b60006020601f8301049050919050565b600082821b905092915050565b6000600883026138b07fffffffffffffffffffffffffffffffffffffffffffffffffffffffffffffffff82613873565b6138ba8683613873565b95508019841693508086168417925050509392505050565b6000819050919050565b60006138f76138f26138ed84612e51565b6138d2565b612e51565b9050919050565b6000819050919050565b613911836138dc565b61392561391d826138fe565b848454613880565b825550505050565b600090565b61393a61392d565b613945818484613908565b505050565b5b818110156139695761395e600082613932565b60018101905061394b565b5050565b601f8211156139ae5761397f8161384e565b61398884613863565b81016020851015613997578190505b6139ab6139a385613863565b83018261394a565b50505b505050565b600082821c905092915050565b60006139d1600019846008026139b3565b1980831691505092915050565b60006139ea83836139c0565b9150826002028217905092915050565b613a0382612d9f565b67ffffffffffffffff811115613a1c57613a1b613470565b5b613a26825461368d565b613a3182828561396d565b600060209050601f831160018114613a645760008415613a52578287015190505b613a5c85826139de565b865550613ac4565b601f198416613a728661384e565b60005b82811015613a9a57848901518255600182019150602085019450602081019050613a75565b86831015613ab75784890151613ab3601f8916826139c0565b8355505b6001600288020188555050505b505050505050565b7f4552433732313a2063616c6c6572206973206e6f7420746f6b656e206f776e6560008201527f72206f7220617070726f76656400000000000000000000000000000000000000602082015250565b6000613b28602d83612daa565b9150613b3382613acc565b604082019050919050565b60006020820190508181036000830152613b5781613b1b565b9050919050565b7f4552433732313a20696e76616c696420746f6b656e2049440000000000000000600082015250565b6000613b94601883612daa565b9150613b9f82613b5e565b602082019050919050565b60006020820190508181036000830152613bc381613b87565b9050919050565b7f4552433732313a2061646472657373207a65726f206973206e6f74206120766160008201527f6c6964206f776e65720000000000000000000000000000000000000000000000602082015250565b6000613c26602983612daa565b9150613c3182613bca565b604082019050919050565b60006020820190508181036000830152613c5581613c19565b9050919050565b7f4f7069494420616c726561647920657869737473000000000000000000000000600082015250565b6000613c92601483612daa565b9150613c9d82613c5c565b602082019050919050565b60006020820190508181036000830152613cc181613c85565b9050919050565b6000604082019050613cdd6000830185612ee6565b613cea6020830184613134565b9392505050565b600081905092915050565b6000613d0782612d9f565b613d118185613cf1565b9350613d21818560208601612dbb565b80840191505092915050565b6000613d398285613cfc565b9150613d458284613cfc565b91508190509392505050565b7f4f776e61626c653a206e6577206f776e657220697320746865207a65726f206160008201527f6464726573730000000000000000000000000000000000000000000000000000602082015250565b6000613dad602683612daa565b9150613db882613d51565b604082019050919050565b60006020820190508181036000830152613ddc81613da0565b9050919050565b7f4f776e61626c653a2063616c6c6572206973206e6f7420746865206f776e6572600082015250565b6000613e19602083612daa565b9150613e2482613de3565b602082019050919050565b60006020820190508181036000830152613e4881613e0c565b9050919050565b7f4552433732313a207472616e736665722066726f6d20696e636f72726563742060008201527f6f776e6572000000000000000000000000000000000000000000000000000000602082015250565b6000613eab602583612daa565b9150613eb682613e4f565b604082019050919050565b60006020820190508181036000830152613eda81613e9e565b9050919050565b7f4552433732313a207472616e7366657220746f20746865207a65726f2061646460008201527f7265737300000000000000000000000000000000000000000000000000000000602082015250565b6000613f3d602483612daa565b9150613f4882613ee1565b604082019050919050565b60006020820190508181036000830152613f6c81613f30565b9050919050565b7f4552433732313a206d696e7420746f20746865207a65726f2061646472657373600082015250565b6000613fa9602083612daa565b9150613fb482613f73565b602082019050919050565b60006020820190508181036000830152613fd881613f9c565b9050919050565b7f4552433732313a20746f6b656e20616c7265616479206d696e74656400000000600082015250565b6000614015601c83612daa565b915061402082613fdf565b602082019050919050565b6000602082019050818103600083015261404481614008565b9050919050565b7f45524337323155524953746f726167653a2055524920736574206f66206e6f6e60008201527f6578697374656e7420746f6b656e000000000000000000000000000000000000602082015250565b60006140a7602e83612daa565b91506140b28261404b565b604082019050919050565b600060208201905081810360008301526140d68161409a565b9050919050565b7f4552433732313a20617070726f766520746f2063616c6c657200000000000000600082015250565b6000614113601983612daa565b915061411e826140dd565b602082019050919050565b6000602082019050818103600083015261414281614106565b9050919050565b7f4552433732313a207472616e7366657220746f206e6f6e20455243373231526560008201527f63656976657220696d706c656d656e7465720000000000000000000000000000602082015250565b60006141a5603283612daa565b91506141b082614149565b604082019050919050565b600060208201905081810360008301526141d481614198565b9050919050565b7f534254203a206e6f7420706f737369626c65206465205472616e73666572207960008201527f6f7572204f706949640000000000000000000000000000000000000000000000602082015250565b6000614237602983612daa565b9150614242826141db565b604082019050919050565b600060208201905081810360008301526142668161422a565b9050919050565b600081519050919050565b600082825260208201905092915050565b60006142948261426d565b61429e8185614278565b93506142ae818560208601612dbb565b6142b781612de5565b840191505092915050565b60006080820190506142d76000830187612ee6565b6142e46020830186612ee6565b6142f16040830185613134565b81810360608301526143038184614289565b905095945050505050565b60008151905061431d81612d10565b92915050565b60006020828403121561433957614338612cda565b5b60006143478482850161430e565b91505092915050565b7f4e487b7100000000000000000000000000000000000000000000000000000000600052601260045260246000fd5b7f4e487b7100000000000000000000000000000000000000000000000000000000600052601160045260246000fd5b60006143b982612e51565b91506143c483612e51565b92508282039050818111156143dc576143db61437f565b5b92915050565b60006143ed82612e51565b91506143f883612e51565b92508282019050808211156144105761440f61437f565b5b9291505056fea26469706673582212206f3d98fdd9c0b49ca042e24e2abc498a7498ef6eed5474c316f5bb78284d6ced64736f6c63430008110033",
  "immutableReferences": {},
  "source": "// SPDX-License-Identifier: GPL-3.0\npragma solidity 0.8.17;\n\nimport \"../node_modules/@openzeppelin/contracts/token/ERC721/extensions/ERC721URIStorage.sol\";\nimport \"../node_modules/@openzeppelin/contracts/utils/Counters.sol\";\nimport \"../node_modules/@openzeppelin/contracts/access/Ownable.sol\";\nimport \"../node_modules/@openzeppelin/contracts/utils/Strings.sol\";\n\n/// @title  OpiChain SBT contract\n/// @author Saad Igueninni\n/// @notice ERC721 not transferable, bound to Soul\n/// @dev Inherits the OpenZepplin Ownable ,ERC721URIStorage,Counters & Strings contracts\ncontract OpiChainSBT is ERC721URIStorage, Ownable {\n    using Counters for Counters.Counter;\n\n    enum Gender {\n        Male,\n        Female\n    }\n\n    enum Role {\n        Sounder,\n        Surveyed\n    }\n\n    struct OpiProfile {\n        uint256 OpiIdCounter;\n        string name;\n        Gender gender;\n        uint256 age;\n        Role role;\n        bool isOpiIdGranted;\n    }\n\n    mapping(address => OpiProfile) OpiProfiles;\n    Counters.Counter private _OpiIdCounter;\n\n    event grantedOpiID(address _profileAddress, uint256 _OpiIdCounter);\n    event revokedOpiID(address _profileAddress);\n    event updatedOpiID(address _profileAddress);\n\n    constructor() ERC721(\"OpiChainID\", \"OpiId\") {}\n\n    // ::::::::::::: MODIFIERS ::::::::::::: //\n    modifier onlySounders(address _profileAddress) {\n        require(\n            (OpiProfiles[_profileAddress].isOpiIdGranted &&\n                OpiProfiles[_profileAddress].role == Role.Sounder),\n            \"You are not a sounder\"\n        );\n        _;\n    }\n\n    modifier onlySurveyeds(address _profileAddress) {\n        require(\n            (OpiProfiles[_profileAddress].isOpiIdGranted &&\n                OpiProfiles[msg.sender].role == Role.Surveyed),\n            \"You are not a surveyed\"\n        );\n        _;\n    }\n\n    modifier opiIdExists(address _profileAddress) {\n        require(\n            OpiProfiles[_profileAddress].isOpiIdGranted,\n            \"OpiID do not exists\"\n        );\n        _;\n    }\n\n    // ::::::::::::: GETTERS ::::::::::::: //\n    function getOpiID(address _profileAddress)\n        external\n        view\n        onlyOwner\n        opiIdExists(_profileAddress)\n        returns (OpiProfile memory)\n    {\n        return OpiProfiles[_profileAddress];\n    }\n\n    function isGrantedOpiID(address _profileAddress)\n        external\n        view\n        onlyOwner\n        returns (bool)\n    {\n        return OpiProfiles[_profileAddress].isOpiIdGranted;\n    }\n\n    function isSounder(address _profileAddress)\n        external\n        view\n        onlyOwner\n        opiIdExists(_profileAddress)\n        returns (bool)\n    {\n        return (OpiProfiles[_profileAddress].isOpiIdGranted &&\n            OpiProfiles[_profileAddress].role == Role.Sounder);\n    }\n\n    function isSurveyed(address _profileAddress)\n        external\n        view\n        onlyOwner\n        opiIdExists(_profileAddress)\n        returns (bool)\n    {\n        return (OpiProfiles[_profileAddress].isOpiIdGranted &&\n            OpiProfiles[_profileAddress].role == Role.Surveyed);\n    }\n\n    // ::::::::::::: MEMBERS MANAGEMENT ::::::::::::: //\n    function grantOpiID(\n        address _profileAddress,\n        string calldata _SBTUri,\n        string calldata _name,\n        uint256 _age,\n        uint8 _gender,\n        uint8 _role\n    ) external onlyOwner returns (uint256) {\n        require(\n            !OpiProfiles[msg.sender].isOpiIdGranted,\n            \"OpiID already exists\"\n        );\n\n        _OpiIdCounter.increment(); //To start at 1\n        uint256 newOpiID = _OpiIdCounter.current();\n        OpiProfile memory newOpiProfile;\n\n        //Add new Profile\n        newOpiProfile.OpiIdCounter = newOpiID;\n        newOpiProfile.name = _name;\n        newOpiProfile.age = _age;\n        newOpiProfile.gender = Gender(_gender);\n        newOpiProfile.role = Role(_role);\n        newOpiProfile.isOpiIdGranted = true;\n        OpiProfiles[_profileAddress] = newOpiProfile;\n\n        _mint(_profileAddress, newOpiID);\n        _setTokenURI(newOpiID, _SBTUri);\n\n        emit grantedOpiID(_profileAddress, newOpiProfile.OpiIdCounter);\n        return newOpiID;\n    }\n\n    function revokeOpiID(address _profileAddress) external onlyOwner {\n        require(\n            OpiProfiles[msg.sender].OpiIdCounter != 0,\n            \"OpiID do not exists\"\n        );\n        delete OpiProfiles[_profileAddress];\n        emit revokedOpiID(_profileAddress);\n    }\n\n    function updateOpiID(\n        address _profileAddress,\n        string calldata _name,\n        uint256 _age,\n        uint8 _gender,\n        uint8 _role\n    ) external onlyOwner {\n        require(\n            OpiProfiles[msg.sender].OpiIdCounter != 0,\n            \"OpiID do not exists\"\n        );\n\n        OpiProfile memory UpdOpiProfile;\n\n        UpdOpiProfile = OpiProfiles[_profileAddress];\n        UpdOpiProfile.name = _name;\n        UpdOpiProfile.age = _age;\n        UpdOpiProfile.gender = Gender(_gender);\n        UpdOpiProfile.role = Role(_role);\n        OpiProfiles[_profileAddress] = UpdOpiProfile;\n\n        emit revokedOpiID(_profileAddress);\n    }\n\n    // ::::::::::::: OVVERIDES ::::::::::::: //\n    function _beforeTokenTransfer(\n        address from,\n        address to,\n        uint256 tokenId,\n        uint256 batchSize\n    ) internal virtual override {\n        require(\n            from == address(0),\n            \"SBT : not possible de Transfer your OpiId\"\n        );\n        super._beforeTokenTransfer(from, to, tokenId, batchSize);\n    }\n}\n",
  "sourcePath": "/home/saadi/coursAlyra/OpiChain/truffle/contracts/OpiChainSBT.sol",
  "compiler": {
    "name": "solc",
    "version": "0.8.17+commit.8df45f5f.Emscripten.clang"
  },
  "schemaVersion": "3.4.10",
  "updatedAt": "2022-12-03T18:13:31.790Z",
  "networkType": "ethereum",
  "devdoc": {
    "author": "Saad Igueninni",
    "details": "Inherits the OpenZepplin Ownable ,ERC721URIStorage,Counters & Strings contracts",
    "kind": "dev",
    "methods": {
      "approve(address,uint256)": {
        "details": "See {IERC721-approve}."
      },
      "balanceOf(address)": {
        "details": "See {IERC721-balanceOf}."
      },
      "getApproved(uint256)": {
        "details": "See {IERC721-getApproved}."
      },
      "isApprovedForAll(address,address)": {
        "details": "See {IERC721-isApprovedForAll}."
      },
      "name()": {
        "details": "See {IERC721Metadata-name}."
      },
      "owner()": {
        "details": "Returns the address of the current owner."
      },
      "ownerOf(uint256)": {
        "details": "See {IERC721-ownerOf}."
      },
      "renounceOwnership()": {
        "details": "Leaves the contract without owner. It will not be possible to call `onlyOwner` functions anymore. Can only be called by the current owner. NOTE: Renouncing ownership will leave the contract without an owner, thereby removing any functionality that is only available to the owner."
      },
      "safeTransferFrom(address,address,uint256)": {
        "details": "See {IERC721-safeTransferFrom}."
      },
      "safeTransferFrom(address,address,uint256,bytes)": {
        "details": "See {IERC721-safeTransferFrom}."
      },
      "setApprovalForAll(address,bool)": {
        "details": "See {IERC721-setApprovalForAll}."
      },
      "supportsInterface(bytes4)": {
        "details": "See {IERC165-supportsInterface}."
      },
      "symbol()": {
        "details": "See {IERC721Metadata-symbol}."
      },
      "tokenURI(uint256)": {
        "details": "See {IERC721Metadata-tokenURI}."
      },
      "transferFrom(address,address,uint256)": {
        "details": "See {IERC721-transferFrom}."
      },
      "transferOwnership(address)": {
        "details": "Transfers ownership of the contract to a new account (`newOwner`). Can only be called by the current owner."
      }
    },
    "title": "OpiChain SBT contract",
    "version": 1
  },
  "userdoc": {
    "kind": "user",
    "methods": {},
    "notice": "ERC721 not transferable, bound to Soul",
    "version": 1
  }
}