{
  "contractName": "OpiChainSurveyNFT",
  "abi": [
    {
      "inputs": [],
      "stateMutability": "nonpayable",
      "type": "constructor"
    },
    {
      "anonymous": false,
      "inputs": [
        {
          "indexed": true,
          "internalType": "address",
          "name": "owner",
          "type": "address"
        },
        {
          "indexed": true,
          "internalType": "address",
          "name": "approved",
          "type": "address"
        },
        {
          "indexed": true,
          "internalType": "uint256",
          "name": "tokenId",
          "type": "uint256"
        }
      ],
      "name": "Approval",
      "type": "event"
    },
    {
      "anonymous": false,
      "inputs": [
        {
          "indexed": true,
          "internalType": "address",
          "name": "owner",
          "type": "address"
        },
        {
          "indexed": true,
          "internalType": "address",
          "name": "operator",
          "type": "address"
        },
        {
          "indexed": false,
          "internalType": "bool",
          "name": "approved",
          "type": "bool"
        }
      ],
      "name": "ApprovalForAll",
      "type": "event"
    },
    {
      "anonymous": false,
      "inputs": [
        {
          "indexed": true,
          "internalType": "address",
          "name": "previousOwner",
          "type": "address"
        },
        {
          "indexed": true,
          "internalType": "address",
          "name": "newOwner",
          "type": "address"
        }
      ],
      "name": "OwnershipTransferred",
      "type": "event"
    },
    {
      "anonymous": false,
      "inputs": [
        {
          "indexed": true,
          "internalType": "address",
          "name": "from",
          "type": "address"
        },
        {
          "indexed": true,
          "internalType": "address",
          "name": "to",
          "type": "address"
        },
        {
          "indexed": true,
          "internalType": "uint256",
          "name": "tokenId",
          "type": "uint256"
        }
      ],
      "name": "Transfer",
      "type": "event"
    },
    {
      "anonymous": false,
      "inputs": [
        {
          "indexed": false,
          "internalType": "address",
          "name": "_ownerAnswer",
          "type": "address"
        },
        {
          "indexed": false,
          "internalType": "uint256",
          "name": "_idAnswer",
          "type": "uint256"
        },
        {
          "indexed": false,
          "internalType": "uint256",
          "name": "_idSurvey",
          "type": "uint256"
        },
        {
          "indexed": false,
          "internalType": "uint256",
          "name": "idQuestion",
          "type": "uint256"
        }
      ],
      "name": "answerGiven",
      "type": "event"
    },
    {
      "anonymous": false,
      "inputs": [
        {
          "indexed": false,
          "internalType": "uint256",
          "name": "_idQuestion",
          "type": "uint256"
        },
        {
          "indexed": false,
          "internalType": "uint256",
          "name": "_idSurvey",
          "type": "uint256"
        }
      ],
      "name": "questionAdded",
      "type": "event"
    },
    {
      "anonymous": false,
      "inputs": [
        {
          "indexed": false,
          "internalType": "address",
          "name": "_ownerSurvey",
          "type": "address"
        },
        {
          "indexed": false,
          "internalType": "uint256",
          "name": "_idSurvey",
          "type": "uint256"
        }
      ],
      "name": "surveyCreated",
      "type": "event"
    },
    {
      "anonymous": false,
      "inputs": [
        {
          "indexed": false,
          "internalType": "uint256",
          "name": "_idSurvey",
          "type": "uint256"
        }
      ],
      "name": "surveyDeleted",
      "type": "event"
    },
    {
      "anonymous": false,
      "inputs": [
        {
          "indexed": false,
          "internalType": "uint256",
          "name": "_idSurvey",
          "type": "uint256"
        }
      ],
      "name": "surveyNFTMinted",
      "type": "event"
    },
    {
      "anonymous": false,
      "inputs": [
        {
          "indexed": false,
          "internalType": "uint256",
          "name": "_idSurvey",
          "type": "uint256"
        }
      ],
      "name": "surveyTerminated",
      "type": "event"
    },
    {
      "inputs": [],
      "name": "SurveyUnitCost",
      "outputs": [
        {
          "internalType": "uint256",
          "name": "",
          "type": "uint256"
        }
      ],
      "stateMutability": "view",
      "type": "function",
      "constant": true
    },
    {
      "inputs": [
        {
          "internalType": "address",
          "name": "to",
          "type": "address"
        },
        {
          "internalType": "uint256",
          "name": "tokenId",
          "type": "uint256"
        }
      ],
      "name": "approve",
      "outputs": [],
      "stateMutability": "nonpayable",
      "type": "function"
    },
    {
      "inputs": [
        {
          "internalType": "address",
          "name": "owner",
          "type": "address"
        }
      ],
      "name": "balanceOf",
      "outputs": [
        {
          "internalType": "uint256",
          "name": "",
          "type": "uint256"
        }
      ],
      "stateMutability": "view",
      "type": "function",
      "constant": true
    },
    {
      "inputs": [
        {
          "internalType": "uint256",
          "name": "tokenId",
          "type": "uint256"
        }
      ],
      "name": "getApproved",
      "outputs": [
        {
          "internalType": "address",
          "name": "",
          "type": "address"
        }
      ],
      "stateMutability": "view",
      "type": "function",
      "constant": true
    },
    {
      "inputs": [
        {
          "internalType": "address",
          "name": "owner",
          "type": "address"
        },
        {
          "internalType": "address",
          "name": "operator",
          "type": "address"
        }
      ],
      "name": "isApprovedForAll",
      "outputs": [
        {
          "internalType": "bool",
          "name": "",
          "type": "bool"
        }
      ],
      "stateMutability": "view",
      "type": "function",
      "constant": true
    },
    {
      "inputs": [],
      "name": "name",
      "outputs": [
        {
          "internalType": "string",
          "name": "",
          "type": "string"
        }
      ],
      "stateMutability": "view",
      "type": "function",
      "constant": true
    },
    {
      "inputs": [],
      "name": "owner",
      "outputs": [
        {
          "internalType": "address",
          "name": "",
          "type": "address"
        }
      ],
      "stateMutability": "view",
      "type": "function",
      "constant": true
    },
    {
      "inputs": [
        {
          "internalType": "uint256",
          "name": "tokenId",
          "type": "uint256"
        }
      ],
      "name": "ownerOf",
      "outputs": [
        {
          "internalType": "address",
          "name": "",
          "type": "address"
        }
      ],
      "stateMutability": "view",
      "type": "function",
      "constant": true
    },
    {
      "inputs": [],
      "name": "renounceOwnership",
      "outputs": [],
      "stateMutability": "nonpayable",
      "type": "function"
    },
    {
      "inputs": [
        {
          "internalType": "address",
          "name": "from",
          "type": "address"
        },
        {
          "internalType": "address",
          "name": "to",
          "type": "address"
        },
        {
          "internalType": "uint256",
          "name": "tokenId",
          "type": "uint256"
        }
      ],
      "name": "safeTransferFrom",
      "outputs": [],
      "stateMutability": "nonpayable",
      "type": "function"
    },
    {
      "inputs": [
        {
          "internalType": "address",
          "name": "from",
          "type": "address"
        },
        {
          "internalType": "address",
          "name": "to",
          "type": "address"
        },
        {
          "internalType": "uint256",
          "name": "tokenId",
          "type": "uint256"
        },
        {
          "internalType": "bytes",
          "name": "data",
          "type": "bytes"
        }
      ],
      "name": "safeTransferFrom",
      "outputs": [],
      "stateMutability": "nonpayable",
      "type": "function"
    },
    {
      "inputs": [
        {
          "internalType": "address",
          "name": "operator",
          "type": "address"
        },
        {
          "internalType": "bool",
          "name": "approved",
          "type": "bool"
        }
      ],
      "name": "setApprovalForAll",
      "outputs": [],
      "stateMutability": "nonpayable",
      "type": "function"
    },
    {
      "inputs": [
        {
          "internalType": "bytes4",
          "name": "interfaceId",
          "type": "bytes4"
        }
      ],
      "name": "supportsInterface",
      "outputs": [
        {
          "internalType": "bool",
          "name": "",
          "type": "bool"
        }
      ],
      "stateMutability": "view",
      "type": "function",
      "constant": true
    },
    {
      "inputs": [],
      "name": "symbol",
      "outputs": [
        {
          "internalType": "string",
          "name": "",
          "type": "string"
        }
      ],
      "stateMutability": "view",
      "type": "function",
      "constant": true
    },
    {
      "inputs": [
        {
          "internalType": "uint256",
          "name": "tokenId",
          "type": "uint256"
        }
      ],
      "name": "tokenURI",
      "outputs": [
        {
          "internalType": "string",
          "name": "",
          "type": "string"
        }
      ],
      "stateMutability": "view",
      "type": "function",
      "constant": true
    },
    {
      "inputs": [
        {
          "internalType": "address",
          "name": "from",
          "type": "address"
        },
        {
          "internalType": "address",
          "name": "to",
          "type": "address"
        },
        {
          "internalType": "uint256",
          "name": "tokenId",
          "type": "uint256"
        }
      ],
      "name": "transferFrom",
      "outputs": [],
      "stateMutability": "nonpayable",
      "type": "function"
    },
    {
      "inputs": [
        {
          "internalType": "address",
          "name": "newOwner",
          "type": "address"
        }
      ],
      "name": "transferOwnership",
      "outputs": [],
      "stateMutability": "nonpayable",
      "type": "function"
    },
    {
      "inputs": [
        {
          "internalType": "uint256",
          "name": "_idSurvey",
          "type": "uint256"
        }
      ],
      "name": "getSurveyStatusById",
      "outputs": [
        {
          "internalType": "uint256",
          "name": "",
          "type": "uint256"
        }
      ],
      "stateMutability": "view",
      "type": "function",
      "constant": true
    },
    {
      "inputs": [
        {
          "internalType": "uint256",
          "name": "_idSurvey",
          "type": "uint256"
        }
      ],
      "name": "getSurveyById",
      "outputs": [
        {
          "components": [
            {
              "internalType": "uint256",
              "name": "idSurvey",
              "type": "uint256"
            },
            {
              "internalType": "address",
              "name": "owner",
              "type": "address"
            },
            {
              "internalType": "string",
              "name": "description",
              "type": "string"
            },
            {
              "internalType": "enum OpiChainSurveyNFT.SurveyStatus",
              "name": "surveyStatus",
              "type": "uint8"
            },
            {
              "internalType": "bool",
              "name": "exists",
              "type": "bool"
            },
            {
              "internalType": "bool",
              "name": "minted",
              "type": "bool"
            },
            {
              "internalType": "bool",
              "name": "listed",
              "type": "bool"
            }
          ],
          "internalType": "struct OpiChainSurveyNFT.Survey",
          "name": "",
          "type": "tuple"
        }
      ],
      "stateMutability": "view",
      "type": "function",
      "constant": true
    },
    {
      "inputs": [
        {
          "internalType": "address",
          "name": "_ownerSurvey",
          "type": "address"
        },
        {
          "internalType": "uint256",
          "name": "_idSurvey",
          "type": "uint256"
        }
      ],
      "name": "getSurveyByAddress",
      "outputs": [
        {
          "components": [
            {
              "internalType": "uint256",
              "name": "idSurvey",
              "type": "uint256"
            },
            {
              "internalType": "address",
              "name": "owner",
              "type": "address"
            },
            {
              "internalType": "string",
              "name": "description",
              "type": "string"
            },
            {
              "internalType": "enum OpiChainSurveyNFT.SurveyStatus",
              "name": "surveyStatus",
              "type": "uint8"
            },
            {
              "internalType": "bool",
              "name": "exists",
              "type": "bool"
            },
            {
              "internalType": "bool",
              "name": "minted",
              "type": "bool"
            },
            {
              "internalType": "bool",
              "name": "listed",
              "type": "bool"
            }
          ],
          "internalType": "struct OpiChainSurveyNFT.Survey",
          "name": "",
          "type": "tuple"
        }
      ],
      "stateMutability": "view",
      "type": "function",
      "constant": true
    },
    {
      "inputs": [
        {
          "internalType": "uint256",
          "name": "_idSurvey",
          "type": "uint256"
        }
      ],
      "name": "setSurveyListed",
      "outputs": [],
      "stateMutability": "nonpayable",
      "type": "function"
    },
    {
      "inputs": [
        {
          "internalType": "uint256",
          "name": "_idSurvey",
          "type": "uint256"
        },
        {
          "internalType": "address",
          "name": "_owner",
          "type": "address"
        }
      ],
      "name": "setSurveyOwner",
      "outputs": [],
      "stateMutability": "nonpayable",
      "type": "function"
    },
    {
      "inputs": [
        {
          "internalType": "address",
          "name": "_ownerSurvey",
          "type": "address"
        },
        {
          "internalType": "string",
          "name": "_description",
          "type": "string"
        }
      ],
      "name": "createSurvey",
      "outputs": [],
      "stateMutability": "nonpayable",
      "type": "function"
    },
    {
      "inputs": [
        {
          "internalType": "address",
          "name": "marketplaceContract",
          "type": "address"
        },
        {
          "internalType": "uint256",
          "name": "_idSurvey",
          "type": "uint256"
        }
      ],
      "name": "mintSurvey",
      "outputs": [],
      "stateMutability": "nonpayable",
      "type": "function"
    },
    {
      "inputs": [
        {
          "internalType": "uint256",
          "name": "_idSurvey",
          "type": "uint256"
        }
      ],
      "name": "terminateSurvey",
      "outputs": [],
      "stateMutability": "nonpayable",
      "type": "function"
    },
    {
      "inputs": [
        {
          "internalType": "uint256",
          "name": "_idSurvey",
          "type": "uint256"
        }
      ],
      "name": "deleteSurvey",
      "outputs": [],
      "stateMutability": "nonpayable",
      "type": "function"
    },
    {
      "inputs": [
        {
          "internalType": "uint256",
          "name": "_idSurvey",
          "type": "uint256"
        },
        {
          "internalType": "string",
          "name": "_question",
          "type": "string"
        }
      ],
      "name": "addQuestion",
      "outputs": [],
      "stateMutability": "nonpayable",
      "type": "function"
    },
    {
      "inputs": [
        {
          "internalType": "uint256",
          "name": "_idSurvey",
          "type": "uint256"
        },
        {
          "internalType": "uint256",
          "name": "_idQuestionAnswer",
          "type": "uint256"
        },
        {
          "internalType": "string",
          "name": "_answer",
          "type": "string"
        }
      ],
      "name": "giveAnswer",
      "outputs": [],
      "stateMutability": "nonpayable",
      "type": "function"
    }
  ],
  "bytecode": "0x60806040523480156200001157600080fd5b506040518060400160405280600e81526020017f4f7069436861696e5375727665790000000000000000000000000000000000008152506040518060400160405280600381526020017f4f5053000000000000000000000000000000000000000000000000000000000081525081600090816200008f919062000412565b508060019081620000a1919062000412565b505050620000c4620000b8620000ca60201b60201c565b620000d260201b60201c565b620004f9565b600033905090565b6000600760009054906101000a900473ffffffffffffffffffffffffffffffffffffffff16905081600760006101000a81548173ffffffffffffffffffffffffffffffffffffffff021916908373ffffffffffffffffffffffffffffffffffffffff1602179055508173ffffffffffffffffffffffffffffffffffffffff168173ffffffffffffffffffffffffffffffffffffffff167f8be0079c531659141344cd1fd0a4f28419497f9722a3daafe3b4186f6b6457e060405160405180910390a35050565b600081519050919050565b7f4e487b7100000000000000000000000000000000000000000000000000000000600052604160045260246000fd5b7f4e487b7100000000000000000000000000000000000000000000000000000000600052602260045260246000fd5b600060028204905060018216806200021a57607f821691505b60208210810362000230576200022f620001d2565b5b50919050565b60008190508160005260206000209050919050565b60006020601f8301049050919050565b600082821b905092915050565b6000600883026200029a7fffffffffffffffffffffffffffffffffffffffffffffffffffffffffffffffff826200025b565b620002a686836200025b565b95508019841693508086168417925050509392505050565b6000819050919050565b6000819050919050565b6000620002f3620002ed620002e784620002be565b620002c8565b620002be565b9050919050565b6000819050919050565b6200030f83620002d2565b620003276200031e82620002fa565b84845462000268565b825550505050565b600090565b6200033e6200032f565b6200034b81848462000304565b505050565b5b8181101562000373576200036760008262000334565b60018101905062000351565b5050565b601f821115620003c2576200038c8162000236565b62000397846200024b565b81016020851015620003a7578190505b620003bf620003b6856200024b565b83018262000350565b50505b505050565b600082821c905092915050565b6000620003e760001984600802620003c7565b1980831691505092915050565b6000620004028383620003d4565b9150826002028217905092915050565b6200041d8262000198565b67ffffffffffffffff811115620004395762000438620001a3565b5b62000445825462000201565b6200045282828562000377565b600060209050601f8311600181146200048a576000841562000475578287015190505b620004818582620003f4565b865550620004f1565b601f1984166200049a8662000236565b60005b82811015620004c4578489015182556001820191506020850194506020810190506200049d565b86831015620004e45784890151620004e0601f891682620003d4565b8355505b6001600288020188555050505b505050505050565b6144f180620005096000396000f3fe608060405234801561001057600080fd5b50600436106101c45760003560e01c80638da5cb5b116100f9578063c0ac4ae411610097578063cf97c41211610071578063cf97c412146104eb578063e985e9c514610507578063f0faeac614610537578063f2fde38b14610567576101c4565b8063c0ac4ae41461046f578063c87b56dd1461049f578063cb39b22e146104cf576101c4565b8063a5f146da116100d3578063a5f146da146103eb578063a93f682914610407578063b88d4fde14610437578063bbb00a5714610453576101c4565b80638da5cb5b1461039357806395d89b41146103b1578063a22cb465146103cf576101c4565b806342842e0e116101665780636a63dc4a116101405780636a63dc4a146103215780636b370b391461033d57806370a0823114610359578063715018a614610389576101c4565b806342842e0e146102b95780636352211e146102d557806368e4d26e14610305576101c4565b8063095ea7b3116101a2578063095ea7b3146102475780631abe62c11461026357806323b872dd1461027f578063393dd5d91461029b576101c4565b806301ffc9a7146101c957806306fdde03146101f9578063081812fc14610217575b600080fd5b6101e360048036038101906101de9190612ced565b610583565b6040516101f09190612d35565b60405180910390f35b610201610665565b60405161020e9190612de0565b60405180910390f35b610231600480360381019061022c9190612e38565b6106f7565b60405161023e9190612ea6565b60405180910390f35b610261600480360381019061025c9190612eed565b61073d565b005b61027d60048036038101906102789190612eed565b610854565b005b61029960048036038101906102949190612f2d565b6109c8565b005b6102a3610a28565b6040516102b09190612f8f565b60405180910390f35b6102d360048036038101906102ce9190612f2d565b610a2e565b005b6102ef60048036038101906102ea9190612e38565b610a4e565b6040516102fc9190612ea6565b60405180910390f35b61031f600480360381019061031a9190612e38565b610ad4565b005b61033b60048036038101906103369190612e38565b610b06565b005b610357600480360381019061035291906130df565b610ba6565b005b610373600480360381019061036e919061313b565b610edc565b6040516103809190612f8f565b60405180910390f35b610391610f93565b005b61039b610fa7565b6040516103a89190612ea6565b60405180910390f35b6103b9610fd1565b6040516103c69190612de0565b60405180910390f35b6103e960048036038101906103e49190613194565b611063565b005b610405600480360381019061040091906131d4565b611079565b005b610421600480360381019061041c9190612e38565b6111bb565b60405161042e9190612f8f565b60405180910390f35b610451600480360381019061044c91906132e4565b6111fa565b005b61046d60048036038101906104689190613367565b61125c565b005b61048960048036038101906104849190612e38565b611325565b604051610496919061354d565b60405180910390f35b6104b960048036038101906104b49190612e38565b6114d0565b6040516104c69190612de0565b60405180910390f35b6104e960048036038101906104e49190612e38565b6115e2565b005b6105056004803603810190610500919061356f565b6116c1565b005b610521600480360381019061051c91906135af565b61171a565b60405161052e9190612d35565b60405180910390f35b610551600480360381019061054c9190612eed565b6117ae565b60405161055e919061354d565b60405180910390f35b610581600480360381019061057c919061313b565b6119a6565b005b60007f80ac58cd000000000000000000000000000000000000000000000000000000007bffffffffffffffffffffffffffffffffffffffffffffffffffffffff1916827bffffffffffffffffffffffffffffffffffffffffffffffffffffffff1916148061064e57507f5b5e139f000000000000000000000000000000000000000000000000000000007bffffffffffffffffffffffffffffffffffffffffffffffffffffffff1916827bffffffffffffffffffffffffffffffffffffffffffffffffffffffff1916145b8061065e575061065d82611a29565b5b9050919050565b6060600080546106749061361e565b80601f01602080910402602001604051908101604052809291908181526020018280546106a09061361e565b80156106ed5780601f106106c2576101008083540402835291602001916106ed565b820191906000526020600020905b8154815290600101906020018083116106d057829003601f168201915b5050505050905090565b600061070282611a93565b6004600083815260200190815260200160002060009054906101000a900473ffffffffffffffffffffffffffffffffffffffff169050919050565b600061074882610a4e565b90508073ffffffffffffffffffffffffffffffffffffffff168373ffffffffffffffffffffffffffffffffffffffff16036107b8576040517f08c379a00000000000000000000000000000000000000000000000000000000081526004016107af906136c1565b60405180910390fd5b8073ffffffffffffffffffffffffffffffffffffffff166107d7611ade565b73ffffffffffffffffffffffffffffffffffffffff161480610806575061080581610800611ade565b61171a565b5b610845576040517f08c379a000000000000000000000000000000000000000000000000000000000815260040161083c90613753565b60405180910390fd5b61084f8383611ae6565b505050565b6001808111156108675761086661342b565b5b610870826111bb565b146108b0576040517f08c379a00000000000000000000000000000000000000000000000000000000081526004016108a7906137bf565b60405180910390fd5b6000600b600083815260200190815260200160002060010160009054906101000a900473ffffffffffffffffffffffffffffffffffffffff1690506108f58383611b9f565b610900836001611063565b6001600b600084815260200190815260200160002060030160026101000a81548160ff021916908315150217905550600061093a83611dbc565b905060006040518060800160405280604481526020016144786044913990506000818360405160200161096e929190613841565b60405160208183030381529060405290506109898582611e8a565b7fda1522ad3dd77f0eff2905dc72509dd3b837ab58e2d72cf6ad71fd9cd3d77efc856040516109b89190612f8f565b60405180910390a1505050505050565b6109d96109d3611ade565b82611ef7565b610a18576040517f08c379a0000000000000000000000000000000000000000000000000000000008152600401610a0f906138e6565b60405180910390fd5b610a23838383611f8c565b505050565b6101f481565b610a49838383604051806020016040528060008152506111fa565b505050565b600080610a5a83612285565b9050600073ffffffffffffffffffffffffffffffffffffffff168173ffffffffffffffffffffffffffffffffffffffff1603610acb576040517f08c379a0000000000000000000000000000000000000000000000000000000008152600401610ac290613952565b60405180910390fd5b80915050919050565b6001600b600083815260200190815260200160002060030160036101000a81548160ff02191690831515021790555050565b60006001811115610b1a57610b1961342b565b5b610b23826111bb565b14610b63576040517f08c379a0000000000000000000000000000000000000000000000000000000008152600401610b5a906139be565b60405180910390fd5b610b6c816122c2565b7fcb893910cb393b5bb0c66f4e542a99176d507fa36b0cb944e421bec6a93e735681604051610b9b9190612f8f565b60405180910390a150565b6000610bb2600a6123a0565b9050610bbc612bb9565b6040518060e001604052808381526020018573ffffffffffffffffffffffffffffffffffffffff16815260200184815260200160006001811115610c0357610c0261342b565b5b815260200160011515815260200160001515815260200160001515815250905080600b60008481526020019081526020016000206000820151816000015560208201518160010160006101000a81548173ffffffffffffffffffffffffffffffffffffffff021916908373ffffffffffffffffffffffffffffffffffffffff1602179055506040820151816002019081610c9d9190613b8a565b5060608201518160030160006101000a81548160ff02191690836001811115610cc957610cc861342b565b5b021790555060808201518160030160016101000a81548160ff02191690831515021790555060a08201518160030160026101000a81548160ff02191690831515021790555060c08201518160030160036101000a81548160ff021916908315150217905550905050600c60008573ffffffffffffffffffffffffffffffffffffffff1673ffffffffffffffffffffffffffffffffffffffff1681526020019081526020016000208190806001815401808255809150506001900390600052602060002090600402016000909190919091506000820151816000015560208201518160010160006101000a81548173ffffffffffffffffffffffffffffffffffffffff021916908373ffffffffffffffffffffffffffffffffffffffff1602179055506040820151816002019081610e009190613b8a565b5060608201518160030160006101000a81548160ff02191690836001811115610e2c57610e2b61342b565b5b021790555060808201518160030160016101000a81548160ff02191690831515021790555060a08201518160030160026101000a81548160ff02191690831515021790555060c08201518160030160036101000a81548160ff0219169083151502179055505050610e9d600a6123ae565b7f4279e112134859352ebe1176277f8dc1a80826143bdf7d01b9a0f32a01d068448483604051610ece929190613c5c565b60405180910390a150505050565b60008073ffffffffffffffffffffffffffffffffffffffff168273ffffffffffffffffffffffffffffffffffffffff1603610f4c576040517f08c379a0000000000000000000000000000000000000000000000000000000008152600401610f4390613cf7565b60405180910390fd5b600360008373ffffffffffffffffffffffffffffffffffffffff1673ffffffffffffffffffffffffffffffffffffffff168152602001908152602001600020549050919050565b610f9b6123c4565b610fa56000612442565b565b6000600760009054906101000a900473ffffffffffffffffffffffffffffffffffffffff16905090565b606060018054610fe09061361e565b80601f016020809104026020016040519081016040528092919081815260200182805461100c9061361e565b80156110595780601f1061102e57610100808354040283529160200191611059565b820191906000526020600020905b81548152906001019060200180831161103c57829003601f168201915b5050505050905090565b61107561106e611ade565b8383612508565b5050565b600061108560096123a0565b9050600e6000858152602001908152602001600020600084815260200190815260200160002060405180606001604052803373ffffffffffffffffffffffffffffffffffffffff16815260200183815260200184815250908060018154018082558091505060019003906000526020600020906003020160009091909190915060008201518160000160006101000a81548173ffffffffffffffffffffffffffffffffffffffff021916908373ffffffffffffffffffffffffffffffffffffffff16021790555060208201518160010155604082015181600201908161116b9190613b8a565b50505061117860096123ae565b7fa3685256723dd35073588a74066bf06e4165e5ab7b0d4cab9561d4d382dbda6c338286866040516111ad9493929190613d17565b60405180910390a150505050565b6000600b600083815260200190815260200160002060030160009054906101000a900460ff1660018111156111f3576111f261342b565b5b9050919050565b61120b611205611ade565b83611ef7565b61124a576040517f08c379a0000000000000000000000000000000000000000000000000000000008152600401611241906138e6565b60405180910390fd5b61125684848484612674565b50505050565b600061126860086123a0565b9050600d600084815260200190815260200160002060405180604001604052808381526020018481525090806001815401808255809150506001900390600052602060002090600202016000909190919091506000820151816000015560208201518160010190816112da9190613b8a565b5050506112e760086123ae565b7f4fe413162e240ea219c33f9324aad83929d30c1e92ec16e96c0c9f62649d9b598184604051611318929190613d5c565b60405180910390a1505050565b61132d612bb9565b600b60008381526020019081526020016000206040518060e0016040529081600082015481526020016001820160009054906101000a900473ffffffffffffffffffffffffffffffffffffffff1673ffffffffffffffffffffffffffffffffffffffff1673ffffffffffffffffffffffffffffffffffffffff1681526020016002820180546113bb9061361e565b80601f01602080910402602001604051908101604052809291908181526020018280546113e79061361e565b80156114345780601f1061140957610100808354040283529160200191611434565b820191906000526020600020905b81548152906001019060200180831161141757829003601f168201915b505050505081526020016003820160009054906101000a900460ff1660018111156114625761146161342b565b5b60018111156114745761147361342b565b5b81526020016003820160019054906101000a900460ff161515151581526020016003820160029054906101000a900460ff161515151581526020016003820160039054906101000a900460ff1615151515815250509050919050565b60606114db82611a93565b60006006600084815260200190815260200160002080546114fb9061361e565b80601f01602080910402602001604051908101604052809291908181526020018280546115279061361e565b80156115745780601f1061154957610100808354040283529160200191611574565b820191906000526020600020905b81548152906001019060200180831161155757829003601f168201915b5050505050905060006115856126d0565b9050600081510361159a5781925050506115dd565b6000825111156115cf5780826040516020016115b7929190613d85565b604051602081830303815290604052925050506115dd565b6115d8846126e7565b925050505b919050565b600b60008281526020019081526020016000206000808201600090556001820160006101000a81549073ffffffffffffffffffffffffffffffffffffffff02191690556002820160006116359190612c24565b6003820160006101000a81549060ff02191690556003820160016101000a81549060ff02191690556003820160026101000a81549060ff02191690556003820160036101000a81549060ff021916905550507f96086f52d0febbca75fcf142eed9097524f3464ae751155c4a11ca084b05dd26816040516116b69190612f8f565b60405180910390a150565b80600b600084815260200190815260200160002060010160006101000a81548173ffffffffffffffffffffffffffffffffffffffff021916908373ffffffffffffffffffffffffffffffffffffffff1602179055505050565b6000600560008473ffffffffffffffffffffffffffffffffffffffff1673ffffffffffffffffffffffffffffffffffffffff16815260200190815260200160002060008373ffffffffffffffffffffffffffffffffffffffff1673ffffffffffffffffffffffffffffffffffffffff16815260200190815260200160002060009054906101000a900460ff16905092915050565b6117b6612bb9565b600c60008473ffffffffffffffffffffffffffffffffffffffff1673ffffffffffffffffffffffffffffffffffffffff168152602001908152602001600020828154811061180757611806613da9565b5b90600052602060002090600402016040518060e0016040529081600082015481526020016001820160009054906101000a900473ffffffffffffffffffffffffffffffffffffffff1673ffffffffffffffffffffffffffffffffffffffff1673ffffffffffffffffffffffffffffffffffffffff1681526020016002820180546118909061361e565b80601f01602080910402602001604051908101604052809291908181526020018280546118bc9061361e565b80156119095780601f106118de57610100808354040283529160200191611909565b820191906000526020600020905b8154815290600101906020018083116118ec57829003601f168201915b505050505081526020016003820160009054906101000a900460ff1660018111156119375761193661342b565b5b60018111156119495761194861342b565b5b81526020016003820160019054906101000a900460ff161515151581526020016003820160029054906101000a900460ff161515151581526020016003820160039054906101000a900460ff161515151581525050905092915050565b6119ae6123c4565b600073ffffffffffffffffffffffffffffffffffffffff168173ffffffffffffffffffffffffffffffffffffffff1603611a1d576040517f08c379a0000000000000000000000000000000000000000000000000000000008152600401611a1490613e4a565b60405180910390fd5b611a2681612442565b50565b60007f01ffc9a7000000000000000000000000000000000000000000000000000000007bffffffffffffffffffffffffffffffffffffffffffffffffffffffff1916827bffffffffffffffffffffffffffffffffffffffffffffffffffffffff1916149050919050565b611a9c8161274f565b611adb576040517f08c379a0000000000000000000000000000000000000000000000000000000008152600401611ad290613952565b60405180910390fd5b50565b600033905090565b816004600083815260200190815260200160002060006101000a81548173ffffffffffffffffffffffffffffffffffffffff021916908373ffffffffffffffffffffffffffffffffffffffff160217905550808273ffffffffffffffffffffffffffffffffffffffff16611b5983610a4e565b73ffffffffffffffffffffffffffffffffffffffff167f8c5be1e5ebec7d5bd14f71427d1e84f3dd0314c0f7b2291e5b200ac8c7c3b92560405160405180910390a45050565b600073ffffffffffffffffffffffffffffffffffffffff168273ffffffffffffffffffffffffffffffffffffffff1603611c0e576040517f08c379a0000000000000000000000000000000000000000000000000000000008152600401611c0590613eb6565b60405180910390fd5b611c178161274f565b15611c57576040517f08c379a0000000000000000000000000000000000000000000000000000000008152600401611c4e90613f22565b60405180910390fd5b611c65600083836001612790565b611c6e8161274f565b15611cae576040517f08c379a0000000000000000000000000000000000000000000000000000000008152600401611ca590613f22565b60405180910390fd5b6001600360008473ffffffffffffffffffffffffffffffffffffffff1673ffffffffffffffffffffffffffffffffffffffff16815260200190815260200160002060008282540192505081905550816002600083815260200190815260200160002060006101000a81548173ffffffffffffffffffffffffffffffffffffffff021916908373ffffffffffffffffffffffffffffffffffffffff160217905550808273ffffffffffffffffffffffffffffffffffffffff16600073ffffffffffffffffffffffffffffffffffffffff167fddf252ad1be2c89b69c2b068fc378daa952ba7f163c4a11628f55a4df523b3ef60405160405180910390a4611db86000838360016128b6565b5050565b606060006001611dcb846128bc565b01905060008167ffffffffffffffff811115611dea57611de9612fb4565b5b6040519080825280601f01601f191660200182016040528015611e1c5781602001600182028036833780820191505090505b509050600082602001820190505b600115611e7f578080600190039150507f3031323334353637383961626364656600000000000000000000000000000000600a86061a8153600a8581611e7357611e72613f42565b5b04945060008503611e2a575b819350505050919050565b611e938261274f565b611ed2576040517f08c379a0000000000000000000000000000000000000000000000000000000008152600401611ec990613fe3565b60405180910390fd5b80600660008481526020019081526020016000209081611ef29190613b8a565b505050565b600080611f0383610a4e565b90508073ffffffffffffffffffffffffffffffffffffffff168473ffffffffffffffffffffffffffffffffffffffff161480611f455750611f44818561171a565b5b80611f8357508373ffffffffffffffffffffffffffffffffffffffff16611f6b846106f7565b73ffffffffffffffffffffffffffffffffffffffff16145b91505092915050565b8273ffffffffffffffffffffffffffffffffffffffff16611fac82610a4e565b73ffffffffffffffffffffffffffffffffffffffff1614612002576040517f08c379a0000000000000000000000000000000000000000000000000000000008152600401611ff990614075565b60405180910390fd5b600073ffffffffffffffffffffffffffffffffffffffff168273ffffffffffffffffffffffffffffffffffffffff1603612071576040517f08c379a000000000000000000000000000000000000000000000000000000000815260040161206890614107565b60405180910390fd5b61207e8383836001612790565b8273ffffffffffffffffffffffffffffffffffffffff1661209e82610a4e565b73ffffffffffffffffffffffffffffffffffffffff16146120f4576040517f08c379a00000000000000000000000000000000000000000000000000000000081526004016120eb90614075565b60405180910390fd5b6004600082815260200190815260200160002060006101000a81549073ffffffffffffffffffffffffffffffffffffffff02191690556001600360008573ffffffffffffffffffffffffffffffffffffffff1673ffffffffffffffffffffffffffffffffffffffff168152602001908152602001600020600082825403925050819055506001600360008473ffffffffffffffffffffffffffffffffffffffff1673ffffffffffffffffffffffffffffffffffffffff16815260200190815260200160002060008282540192505081905550816002600083815260200190815260200160002060006101000a81548173ffffffffffffffffffffffffffffffffffffffff021916908373ffffffffffffffffffffffffffffffffffffffff160217905550808273ffffffffffffffffffffffffffffffffffffffff168473ffffffffffffffffffffffffffffffffffffffff167fddf252ad1be2c89b69c2b068fc378daa952ba7f163c4a11628f55a4df523b3ef60405160405180910390a461228083838360016128b6565b505050565b60006002600083815260200190815260200160002060009054906101000a900473ffffffffffffffffffffffffffffffffffffffff169050919050565b80600b600082815260200190815260200160002060030160019054906101000a900460ff16612326576040517f08c379a000000000000000000000000000000000000000000000000000000000815260040161231d90614173565b60405180910390fd5b6001600b600084815260200190815260200160002060030160006101000a81548160ff021916908360018111156123605761235f61342b565b5b02179055507fcb893910cb393b5bb0c66f4e542a99176d507fa36b0cb944e421bec6a93e7356826040516123949190612f8f565b60405180910390a15050565b600081600001549050919050565b6001816000016000828254019250508190555050565b6123cc611ade565b73ffffffffffffffffffffffffffffffffffffffff166123ea610fa7565b73ffffffffffffffffffffffffffffffffffffffff1614612440576040517f08c379a0000000000000000000000000000000000000000000000000000000008152600401612437906141df565b60405180910390fd5b565b6000600760009054906101000a900473ffffffffffffffffffffffffffffffffffffffff16905081600760006101000a81548173ffffffffffffffffffffffffffffffffffffffff021916908373ffffffffffffffffffffffffffffffffffffffff1602179055508173ffffffffffffffffffffffffffffffffffffffff168173ffffffffffffffffffffffffffffffffffffffff167f8be0079c531659141344cd1fd0a4f28419497f9722a3daafe3b4186f6b6457e060405160405180910390a35050565b8173ffffffffffffffffffffffffffffffffffffffff168373ffffffffffffffffffffffffffffffffffffffff1603612576576040517f08c379a000000000000000000000000000000000000000000000000000000000815260040161256d9061424b565b60405180910390fd5b80600560008573ffffffffffffffffffffffffffffffffffffffff1673ffffffffffffffffffffffffffffffffffffffff16815260200190815260200160002060008473ffffffffffffffffffffffffffffffffffffffff1673ffffffffffffffffffffffffffffffffffffffff16815260200190815260200160002060006101000a81548160ff0219169083151502179055508173ffffffffffffffffffffffffffffffffffffffff168373ffffffffffffffffffffffffffffffffffffffff167f17307eab39ab6107e8899845ad3d59bd9653f200f220920489ca2b5937696c31836040516126679190612d35565b60405180910390a3505050565b61267f848484611f8c565b61268b84848484612a0f565b6126ca576040517f08c379a00000000000000000000000000000000000000000000000000000000081526004016126c1906142dd565b60405180910390fd5b50505050565b606060405180602001604052806000815250905090565b60606126f282611a93565b60006126fc6126d0565b9050600081511161271c5760405180602001604052806000815250612747565b8061272684611dbc565b604051602001612737929190613d85565b6040516020818303038152906040525b915050919050565b60008073ffffffffffffffffffffffffffffffffffffffff1661277183612285565b73ffffffffffffffffffffffffffffffffffffffff1614159050919050565b60018111156128b057600073ffffffffffffffffffffffffffffffffffffffff168473ffffffffffffffffffffffffffffffffffffffff16146128245780600360008673ffffffffffffffffffffffffffffffffffffffff1673ffffffffffffffffffffffffffffffffffffffff168152602001908152602001600020600082825461281c919061432c565b925050819055505b600073ffffffffffffffffffffffffffffffffffffffff168373ffffffffffffffffffffffffffffffffffffffff16146128af5780600360008573ffffffffffffffffffffffffffffffffffffffff1673ffffffffffffffffffffffffffffffffffffffff16815260200190815260200160002060008282546128a79190614360565b925050819055505b5b50505050565b50505050565b600080600090507a184f03e93ff9f4daa797ed6e38ed64bf6a1f010000000000000000831061291a577a184f03e93ff9f4daa797ed6e38ed64bf6a1f01000000000000000083816129105761290f613f42565b5b0492506040810190505b6d04ee2d6d415b85acef81000000008310612957576d04ee2d6d415b85acef8100000000838161294d5761294c613f42565b5b0492506020810190505b662386f26fc10000831061298657662386f26fc10000838161297c5761297b613f42565b5b0492506010810190505b6305f5e10083106129af576305f5e10083816129a5576129a4613f42565b5b0492506008810190505b61271083106129d45761271083816129ca576129c9613f42565b5b0492506004810190505b606483106129f757606483816129ed576129ec613f42565b5b0492506002810190505b600a8310612a06576001810190505b80915050919050565b6000612a308473ffffffffffffffffffffffffffffffffffffffff16612b96565b15612b89578373ffffffffffffffffffffffffffffffffffffffff1663150b7a02612a59611ade565b8786866040518563ffffffff1660e01b8152600401612a7b94939291906143e9565b6020604051808303816000875af1925050508015612ab757506040513d601f19601f82011682018060405250810190612ab4919061444a565b60015b612b39573d8060008114612ae7576040519150601f19603f3d011682016040523d82523d6000602084013e612aec565b606091505b506000815103612b31576040517f08c379a0000000000000000000000000000000000000000000000000000000008152600401612b28906142dd565b60405180910390fd5b805181602001fd5b63150b7a0260e01b7bffffffffffffffffffffffffffffffffffffffffffffffffffffffff1916817bffffffffffffffffffffffffffffffffffffffffffffffffffffffff191614915050612b8e565b600190505b949350505050565b6000808273ffffffffffffffffffffffffffffffffffffffff163b119050919050565b6040518060e0016040528060008152602001600073ffffffffffffffffffffffffffffffffffffffff1681526020016060815260200160006001811115612c0357612c0261342b565b5b81526020016000151581526020016000151581526020016000151581525090565b508054612c309061361e565b6000825580601f10612c425750612c61565b601f016020900490600052602060002090810190612c609190612c64565b5b50565b5b80821115612c7d576000816000905550600101612c65565b5090565b6000604051905090565b600080fd5b600080fd5b60007fffffffff0000000000000000000000000000000000000000000000000000000082169050919050565b612cca81612c95565b8114612cd557600080fd5b50565b600081359050612ce781612cc1565b92915050565b600060208284031215612d0357612d02612c8b565b5b6000612d1184828501612cd8565b91505092915050565b60008115159050919050565b612d2f81612d1a565b82525050565b6000602082019050612d4a6000830184612d26565b92915050565b600081519050919050565b600082825260208201905092915050565b60005b83811015612d8a578082015181840152602081019050612d6f565b60008484015250505050565b6000601f19601f8301169050919050565b6000612db282612d50565b612dbc8185612d5b565b9350612dcc818560208601612d6c565b612dd581612d96565b840191505092915050565b60006020820190508181036000830152612dfa8184612da7565b905092915050565b6000819050919050565b612e1581612e02565b8114612e2057600080fd5b50565b600081359050612e3281612e0c565b92915050565b600060208284031215612e4e57612e4d612c8b565b5b6000612e5c84828501612e23565b91505092915050565b600073ffffffffffffffffffffffffffffffffffffffff82169050919050565b6000612e9082612e65565b9050919050565b612ea081612e85565b82525050565b6000602082019050612ebb6000830184612e97565b92915050565b612eca81612e85565b8114612ed557600080fd5b50565b600081359050612ee781612ec1565b92915050565b60008060408385031215612f0457612f03612c8b565b5b6000612f1285828601612ed8565b9250506020612f2385828601612e23565b9150509250929050565b600080600060608486031215612f4657612f45612c8b565b5b6000612f5486828701612ed8565b9350506020612f6586828701612ed8565b9250506040612f7686828701612e23565b9150509250925092565b612f8981612e02565b82525050565b6000602082019050612fa46000830184612f80565b92915050565b600080fd5b600080fd5b7f4e487b7100000000000000000000000000000000000000000000000000000000600052604160045260246000fd5b612fec82612d96565b810181811067ffffffffffffffff8211171561300b5761300a612fb4565b5b80604052505050565b600061301e612c81565b905061302a8282612fe3565b919050565b600067ffffffffffffffff82111561304a57613049612fb4565b5b61305382612d96565b9050602081019050919050565b82818337600083830152505050565b600061308261307d8461302f565b613014565b90508281526020810184848401111561309e5761309d612faf565b5b6130a9848285613060565b509392505050565b600082601f8301126130c6576130c5612faa565b5b81356130d684826020860161306f565b91505092915050565b600080604083850312156130f6576130f5612c8b565b5b600061310485828601612ed8565b925050602083013567ffffffffffffffff81111561312557613124612c90565b5b613131858286016130b1565b9150509250929050565b60006020828403121561315157613150612c8b565b5b600061315f84828501612ed8565b91505092915050565b61317181612d1a565b811461317c57600080fd5b50565b60008135905061318e81613168565b92915050565b600080604083850312156131ab576131aa612c8b565b5b60006131b985828601612ed8565b92505060206131ca8582860161317f565b9150509250929050565b6000806000606084860312156131ed576131ec612c8b565b5b60006131fb86828701612e23565b935050602061320c86828701612e23565b925050604084013567ffffffffffffffff81111561322d5761322c612c90565b5b613239868287016130b1565b9150509250925092565b600067ffffffffffffffff82111561325e5761325d612fb4565b5b61326782612d96565b9050602081019050919050565b600061328761328284613243565b613014565b9050828152602081018484840111156132a3576132a2612faf565b5b6132ae848285613060565b509392505050565b600082601f8301126132cb576132ca612faa565b5b81356132db848260208601613274565b91505092915050565b600080600080608085870312156132fe576132fd612c8b565b5b600061330c87828801612ed8565b945050602061331d87828801612ed8565b935050604061332e87828801612e23565b925050606085013567ffffffffffffffff81111561334f5761334e612c90565b5b61335b878288016132b6565b91505092959194509250565b6000806040838503121561337e5761337d612c8b565b5b600061338c85828601612e23565b925050602083013567ffffffffffffffff8111156133ad576133ac612c90565b5b6133b9858286016130b1565b9150509250929050565b6133cc81612e02565b82525050565b6133db81612e85565b82525050565b600082825260208201905092915050565b60006133fd82612d50565b61340781856133e1565b9350613417818560208601612d6c565b61342081612d96565b840191505092915050565b7f4e487b7100000000000000000000000000000000000000000000000000000000600052602160045260246000fd5b6002811061346b5761346a61342b565b5b50565b600081905061347c8261345a565b919050565b600061348c8261346e565b9050919050565b61349c81613481565b82525050565b6134ab81612d1a565b82525050565b600060e0830160008301516134c960008601826133c3565b5060208301516134dc60208601826133d2565b50604083015184820360408601526134f482826133f2565b91505060608301516135096060860182613493565b50608083015161351c60808601826134a2565b5060a083015161352f60a08601826134a2565b5060c083015161354260c08601826134a2565b508091505092915050565b6000602082019050818103600083015261356781846134b1565b905092915050565b6000806040838503121561358657613585612c8b565b5b600061359485828601612e23565b92505060206135a585828601612ed8565b9150509250929050565b600080604083850312156135c6576135c5612c8b565b5b60006135d485828601612ed8565b92505060206135e585828601612ed8565b9150509250929050565b7f4e487b7100000000000000000000000000000000000000000000000000000000600052602260045260246000fd5b6000600282049050600182168061363657607f821691505b602082108103613649576136486135ef565b5b50919050565b7f4552433732313a20617070726f76616c20746f2063757272656e74206f776e6560008201527f7200000000000000000000000000000000000000000000000000000000000000602082015250565b60006136ab602183612d5b565b91506136b68261364f565b604082019050919050565b600060208201905081810360008301526136da8161369e565b9050919050565b7f4552433732313a20617070726f76652063616c6c6572206973206e6f7420746f60008201527f6b656e206f776e6572206f7220617070726f76656420666f7220616c6c000000602082015250565b600061373d603d83612d5b565b9150613748826136e1565b604082019050919050565b6000602082019050818103600083015261376c81613730565b9050919050565b7f537572766579206e6f74207465726d696e617465640000000000000000000000600082015250565b60006137a9601583612d5b565b91506137b482613773565b602082019050919050565b600060208201905081810360008301526137d88161379c565b9050919050565b600081905092915050565b60006137f582612d50565b6137ff81856137df565b935061380f818560208601612d6c565b80840191505092915050565b7f2e6a736f6e000000000000000000000000000000000000000000000000000000815250565b600061384d82856137ea565b915061385982846137ea565b91506138648261381b565b6005820191508190509392505050565b7f4552433732313a2063616c6c6572206973206e6f7420746f6b656e206f776e6560008201527f72206f7220617070726f76656400000000000000000000000000000000000000602082015250565b60006138d0602d83612d5b565b91506138db82613874565b604082019050919050565b600060208201905081810360008301526138ff816138c3565b9050919050565b7f4552433732313a20696e76616c696420746f6b656e2049440000000000000000600082015250565b600061393c601883612d5b565b915061394782613906565b602082019050919050565b6000602082019050818103600083015261396b8161392f565b9050919050565b7f537572766579206e6f74206f6e476f696e672100000000000000000000000000600082015250565b60006139a8601383612d5b565b91506139b382613972565b602082019050919050565b600060208201905081810360008301526139d78161399b565b9050919050565b60008190508160005260206000209050919050565b60006020601f8301049050919050565b600082821b905092915050565b600060088302613a407fffffffffffffffffffffffffffffffffffffffffffffffffffffffffffffffff82613a03565b613a4a8683613a03565b95508019841693508086168417925050509392505050565b6000819050919050565b6000613a87613a82613a7d84612e02565b613a62565b612e02565b9050919050565b6000819050919050565b613aa183613a6c565b613ab5613aad82613a8e565b848454613a10565b825550505050565b600090565b613aca613abd565b613ad5818484613a98565b505050565b5b81811015613af957613aee600082613ac2565b600181019050613adb565b5050565b601f821115613b3e57613b0f816139de565b613b18846139f3565b81016020851015613b27578190505b613b3b613b33856139f3565b830182613ada565b50505b505050565b600082821c905092915050565b6000613b6160001984600802613b43565b1980831691505092915050565b6000613b7a8383613b50565b9150826002028217905092915050565b613b9382612d50565b67ffffffffffffffff811115613bac57613bab612fb4565b5b613bb6825461361e565b613bc1828285613afd565b600060209050601f831160018114613bf45760008415613be2578287015190505b613bec8582613b6e565b865550613c54565b601f198416613c02866139de565b60005b82811015613c2a57848901518255600182019150602085019450602081019050613c05565b86831015613c475784890151613c43601f891682613b50565b8355505b6001600288020188555050505b505050505050565b6000604082019050613c716000830185612e97565b613c7e6020830184612f80565b9392505050565b7f4552433732313a2061646472657373207a65726f206973206e6f74206120766160008201527f6c6964206f776e65720000000000000000000000000000000000000000000000602082015250565b6000613ce1602983612d5b565b9150613cec82613c85565b604082019050919050565b60006020820190508181036000830152613d1081613cd4565b9050919050565b6000608082019050613d2c6000830187612e97565b613d396020830186612f80565b613d466040830185612f80565b613d536060830184612f80565b95945050505050565b6000604082019050613d716000830185612f80565b613d7e6020830184612f80565b9392505050565b6000613d9182856137ea565b9150613d9d82846137ea565b91508190509392505050565b7f4e487b7100000000000000000000000000000000000000000000000000000000600052603260045260246000fd5b7f4f776e61626c653a206e6577206f776e657220697320746865207a65726f206160008201527f6464726573730000000000000000000000000000000000000000000000000000602082015250565b6000613e34602683612d5b565b9150613e3f82613dd8565b604082019050919050565b60006020820190508181036000830152613e6381613e27565b9050919050565b7f4552433732313a206d696e7420746f20746865207a65726f2061646472657373600082015250565b6000613ea0602083612d5b565b9150613eab82613e6a565b602082019050919050565b60006020820190508181036000830152613ecf81613e93565b9050919050565b7f4552433732313a20746f6b656e20616c7265616479206d696e74656400000000600082015250565b6000613f0c601c83612d5b565b9150613f1782613ed6565b602082019050919050565b60006020820190508181036000830152613f3b81613eff565b9050919050565b7f4e487b7100000000000000000000000000000000000000000000000000000000600052601260045260246000fd5b7f45524337323155524953746f726167653a2055524920736574206f66206e6f6e60008201527f6578697374656e7420746f6b656e000000000000000000000000000000000000602082015250565b6000613fcd602e83612d5b565b9150613fd882613f71565b604082019050919050565b60006020820190508181036000830152613ffc81613fc0565b9050919050565b7f4552433732313a207472616e736665722066726f6d20696e636f72726563742060008201527f6f776e6572000000000000000000000000000000000000000000000000000000602082015250565b600061405f602583612d5b565b915061406a82614003565b604082019050919050565b6000602082019050818103600083015261408e81614052565b9050919050565b7f4552433732313a207472616e7366657220746f20746865207a65726f2061646460008201527f7265737300000000000000000000000000000000000000000000000000000000602082015250565b60006140f1602483612d5b565b91506140fc82614095565b604082019050919050565b60006020820190508181036000830152614120816140e4565b9050919050565b7f53757276657920646f206e6f7420657869737473000000000000000000000000600082015250565b600061415d601483612d5b565b915061416882614127565b602082019050919050565b6000602082019050818103600083015261418c81614150565b9050919050565b7f4f776e61626c653a2063616c6c6572206973206e6f7420746865206f776e6572600082015250565b60006141c9602083612d5b565b91506141d482614193565b602082019050919050565b600060208201905081810360008301526141f8816141bc565b9050919050565b7f4552433732313a20617070726f766520746f2063616c6c657200000000000000600082015250565b6000614235601983612d5b565b9150614240826141ff565b602082019050919050565b6000602082019050818103600083015261426481614228565b9050919050565b7f4552433732313a207472616e7366657220746f206e6f6e20455243373231526560008201527f63656976657220696d706c656d656e7465720000000000000000000000000000602082015250565b60006142c7603283612d5b565b91506142d28261426b565b604082019050919050565b600060208201905081810360008301526142f6816142ba565b9050919050565b7f4e487b7100000000000000000000000000000000000000000000000000000000600052601160045260246000fd5b600061433782612e02565b915061434283612e02565b925082820390508181111561435a576143596142fd565b5b92915050565b600061436b82612e02565b915061437683612e02565b925082820190508082111561438e5761438d6142fd565b5b92915050565b600081519050919050565b600082825260208201905092915050565b60006143bb82614394565b6143c5818561439f565b93506143d5818560208601612d6c565b6143de81612d96565b840191505092915050565b60006080820190506143fe6000830187612e97565b61440b6020830186612e97565b6144186040830185612f80565b818103606083015261442a81846143b0565b905095945050505050565b60008151905061444481612cc1565b92915050565b6000602082840312156144605761445f612c8b565b5b600061446e84828501614435565b9150509291505056fe68747470733a2f2f697066732e696f2f697066732f516d5571444575785134676d7039395a7145665152646e72683459736e45416a686944726555787759434775786f2fa2646970667358221220a074bdb7bd84a3c22fe6e0b48f7a9115913aba05a5c6523a52e38945b0a05a4c64736f6c63430008110033",
  "immutableReferences": {},
  "source": "// SPDX-License-Identifier: GPL-3.0\npragma solidity 0.8.17;\n\nimport \"../node_modules/@openzeppelin/contracts/token/ERC721/extensions/ERC721URIStorage.sol\";\nimport \"../node_modules/@openzeppelin/contracts/token/ERC20/IERC20.sol\";\nimport \"../node_modules/@openzeppelin/contracts/token/ERC20/IERC20.sol\";\nimport \"../node_modules/@openzeppelin/contracts/utils/Counters.sol\";\nimport \"../node_modules/@openzeppelin/contracts/access/Ownable.sol\";\nimport \"../node_modules/@openzeppelin/contracts/utils/Strings.sol\";\n\n//Interface OpiChainSBT\n/*interface OpiChainSBT {\n    function isSounder(address _profileAddress) external view returns (bool);\n    function isSurveyed(address _profileAddress) external view returns (bool);\n}*/\n\n/// @title  OpiChain Survey NFT\n/// @author Saad Igueninni\n/// @notice ERC721 NFT associated to on survey\n/// @dev Inherits the OpenZepplin Ownable ,ERC721URIStorage,Counters & Strings contracts\ncontract OpiChainSurveyNFT is ERC721URIStorage, Ownable {\n    using Counters for Counters.Counter;\n\n    Counters.Counter private _idQuestion;\n    Counters.Counter private _idAnswer;\n    Counters.Counter private _idSurveyNFT;\n\n    enum SurveyStatus {\n        OnGoing,\n        Terminated\n    }\n\n    struct Question {\n        uint256 idQuestion;\n        string textQuestion;\n    }\n\n    struct Answer {\n        address ownerAnswer;\n        uint256 idAnswer;\n        string textAnswer;\n    }\n\n    struct Survey {\n        uint256 idSurvey;\n        address owner;\n        string description;\n        SurveyStatus surveyStatus;\n        bool exists;\n        bool minted;\n        bool listed;\n    }\n\n    mapping(uint256 => Survey) idToSurveys;\n    //mapping(uint256 => address) idToOwner;\n    mapping(address => Survey[]) addressToSurveys;\n    // mapping( uint => Answer[])  questionToAnswers;\n    mapping(uint256 => Question[]) surveyToQuestion;\n    mapping(uint256 => mapping(uint256 => Answer[])) surveyToQuestionToAnswer;\n\n    uint256 public constant SurveyUnitCost = 500;\n    //address marketplaceContract;\n    // OpiChainSBT sbtContract;\n    IERC20 opi;\n\n    event surveyCreated(address _ownerSurvey, uint256 _idSurvey);\n    event surveyTerminated(uint256 _idSurvey);\n    event surveyDeleted(uint256 _idSurvey);\n    event surveyNFTMinted(uint256 _idSurvey);\n    event questionAdded(uint256 _idQuestion, uint256 _idSurvey);\n    event answerGiven(\n        address _ownerAnswer,\n        uint256 _idAnswer,\n        uint256 _idSurvey,\n        uint256 idQuestion\n    );\n\n    //constructor(address _marketplaceContract, address _opiChainSBTAddress,address _opiAddress)\n    constructor() ERC721(\"OpiChainSurvey\", \"OPS\") {\n        //marketplaceContract = _marketplaceContract;\n        // sbtContract = OpiChainSBT(_opiChainSBTAddress);\n        // opi = IERC20(_opiAddress);\n    }\n\n    // ::::::::::::: MODIFIERS ::::::::::::: //\n    modifier SurveyExist(uint256 _idSurvey) {\n        require(idToSurveys[_idSurvey].exists, \"Survey do not exists\");\n        _;\n    }\n\n    /* modifier onlySounders() {\n        require(sbtContract.isSounder(msg.sender), \"You are not a sounder\");\n        _;\n    }\n\n    modifier onlySurveyeds() {\n        require(sbtContract.isSurveyed(msg.sender), \"You are not a surveyed\");\n        _;\n    }*/\n\n    // ::::::::::::: GETTERS ::::::::::::: //\n    function getSurveyStatusById(uint256 _idSurvey)\n        public\n        view\n        returns (uint256)\n    {\n        return (uint256(idToSurveys[_idSurvey].surveyStatus));\n    }\n\n    function getSurveyById(uint256 _idSurvey)\n        public\n        view\n        returns (Survey memory)\n    {\n        return idToSurveys[_idSurvey];\n    }\n\n    function getSurveyByAddress(address _ownerSurvey, uint256 _idSurvey)\n        public\n        view\n        returns (Survey memory)\n    {\n        return addressToSurveys[_ownerSurvey][_idSurvey];\n    }\n\n    // ::::::::::::: SETTERS ::::::::::::: //\n    /// @notice Terminate Survey\n    /// @dev We check non existence of survey\n    /// @param _idSurvey Id of SurveyNFT result\n    function setSurveyTerminated(uint256 _idSurvey)\n        internal\n        SurveyExist(_idSurvey)\n    {\n        idToSurveys[_idSurvey].surveyStatus = SurveyStatus.Terminated;\n        //Check if we need the mapping\n        emit surveyTerminated(_idSurvey);\n    }\n\n    /// @notice change Flag listed\n    /// @param _idSurvey Id of SurveyNFT result\n    function setSurveyListed(uint256 _idSurvey) external {\n        idToSurveys[_idSurvey].listed = true;\n    }\n\n    function setSurveyOwner(uint256 _idSurvey, address _owner) external {\n        idToSurveys[_idSurvey].owner = _owner;\n    }\n\n    // ::::::::::::: SURVEYS HANDLING ::::::::::::: //\n\n    /// @notice Create a survey\n    /// @dev We check non existence of survey and check Balance of Opis to be able to create Surveys\n    /// @param _ownerSurvey owner of SurveyNFT result\n    /// @param _description description\n    function createSurvey(address _ownerSurvey, string memory _description)\n        external\n    {\n        //require assez de balance\n        uint256 newIdSurvey = _idSurveyNFT.current();\n        Survey memory newSurvey;\n        newSurvey = Survey(\n            newIdSurvey,\n            _ownerSurvey,\n            _description,\n            SurveyStatus.OnGoing,\n            true,\n            false,\n            false\n        );\n\n        //Update mapping\n        idToSurveys[newIdSurvey] = newSurvey;\n        addressToSurveys[_ownerSurvey].push(newSurvey);\n        _idSurveyNFT.increment();\n        emit surveyCreated(_ownerSurvey, newIdSurvey);\n    }\n\n    /// @notice Mint a survey\n    /// @dev Mint only when in status Terminated\n    /// @param _idSurvey id of SurveyNFT result\n    function mintSurvey(address marketplaceContract, uint256 _idSurvey)\n        external\n    {\n        require(\n            getSurveyStatusById(_idSurvey) == uint256(SurveyStatus.Terminated),\n            \"Survey not terminated\"\n        );\n\n        address _ownerSurvey;\n\n        //setApprovalForAll(marketplaceContract, true); //Give approval to marketplace\n        _ownerSurvey = idToSurveys[_idSurvey].owner;\n        _mint(marketplaceContract, _idSurvey);\n        setApprovalForAll(marketplaceContract, true);\n        idToSurveys[_idSurvey].minted = true;\n        string memory urinumber = Strings.toString(_idSurvey);\n        string\n            memory tokenURI = \"https://ipfs.io/ipfs/QmUqDEuxQ4gmp99ZqEfQRdnrh4YsnEAjhiDreUxwYCGuxo/\"; //To change by CID of !!\n        string memory _Uri = string.concat(tokenURI, urinumber, \".json\");\n\n        _setTokenURI(_idSurvey, _Uri);\n\n        emit surveyNFTMinted(_idSurvey);\n    }\n\n    /// @notice Terminate a survey\n    /// @dev only Terminated surveys can be minted\n    /// @param _idSurvey id of SurveyNFT result\n    function terminateSurvey(\n        uint256 _idSurvey //onlySurveyeds\n    ) external {\n        require(\n            getSurveyStatusById(_idSurvey) == uint256(SurveyStatus.OnGoing),\n            \"Survey not onGoing!\"\n        );\n        setSurveyTerminated(_idSurvey);\n        emit surveyTerminated(_idSurvey);\n    }\n\n    function deleteSurvey(uint256 _idSurvey) external {\n        delete idToSurveys[_idSurvey];\n        emit surveyDeleted(_idSurvey);\n    }\n\n    // ::::::::::::: QUESTIONS MANAGEMENT ::::::::::::: //\n\n    /// @notice Add a question\n    /// @dev Only Surveyeds can add a question\n    /// @param _idSurvey id of SurveyNFT result\n    /// @param _question txt of question\n    function addQuestion(uint256 _idSurvey, string memory _question)\n        external\n    //onlySurveyeds\n    {\n        uint256 newIdQuestion = _idQuestion.current();\n        surveyToQuestion[_idSurvey].push(Question(newIdQuestion, _question));\n        _idQuestion.increment();\n        emit questionAdded(newIdQuestion, _idSurvey);\n    }\n\n    // ::::::::::::: ANSWERS MANAGEMENT ::::::::::::: //\n\n    /// @notice Give answer\n    /// @dev Only Sounders can answer\n    /// @param _idSurvey id of SurveyNFT result\n    /// @param _answer txt of answer\n    function giveAnswer(\n        uint256 _idSurvey,\n        uint256 _idQuestionAnswer,\n        string memory _answer //onlySounders\n    ) external {\n        uint256 newIdAnswer = _idAnswer.current();\n        surveyToQuestionToAnswer[_idSurvey][_idQuestionAnswer].push(\n            Answer(msg.sender, newIdAnswer, _answer)\n        );\n        _idAnswer.increment();\n        emit answerGiven(msg.sender, newIdAnswer, _idSurvey, _idQuestionAnswer);\n    }\n\n    //reveal_results -> une fois TERMINATED , & vendu on peut reveal.\n\n    // ::::::::::::: OVVERIDES ::::::::::::: //\n}\n",
  "sourcePath": "/home/saadi/coursAlyra/OpiChain/truffle/contracts/OpiChainSurveyNFT.sol",
  "compiler": {
    "name": "solc",
    "version": "0.8.17+commit.8df45f5f.Emscripten.clang"
  },
  "schemaVersion": "3.4.10",
  "updatedAt": "2022-12-12T16:49:04.922Z",
  "networkType": "ethereum",
  "devdoc": {
    "author": "Saad Igueninni",
    "details": "Inherits the OpenZepplin Ownable ,ERC721URIStorage,Counters & Strings contracts",
    "kind": "dev",
    "methods": {
      "addQuestion(uint256,string)": {
        "details": "Only Surveyeds can add a question",
        "params": {
          "_idSurvey": "id of SurveyNFT result",
          "_question": "txt of question"
        }
      },
      "approve(address,uint256)": {
        "details": "See {IERC721-approve}."
      },
      "balanceOf(address)": {
        "details": "See {IERC721-balanceOf}."
      },
      "createSurvey(address,string)": {
        "details": "We check non existence of survey and check Balance of Opis to be able to create Surveys",
        "params": {
          "_description": "description",
          "_ownerSurvey": "owner of SurveyNFT result"
        }
      },
      "getApproved(uint256)": {
        "details": "See {IERC721-getApproved}."
      },
      "giveAnswer(uint256,uint256,string)": {
        "details": "Only Sounders can answer",
        "params": {
          "_answer": "txt of answer",
          "_idSurvey": "id of SurveyNFT result"
        }
      },
      "isApprovedForAll(address,address)": {
        "details": "See {IERC721-isApprovedForAll}."
      },
      "mintSurvey(address,uint256)": {
        "details": "Mint only when in status Terminated",
        "params": {
          "_idSurvey": "id of SurveyNFT result"
        }
      },
      "name()": {
        "details": "See {IERC721Metadata-name}."
      },
      "owner()": {
        "details": "Returns the address of the current owner."
      },
      "ownerOf(uint256)": {
        "details": "See {IERC721-ownerOf}."
      },
      "renounceOwnership()": {
        "details": "Leaves the contract without owner. It will not be possible to call `onlyOwner` functions anymore. Can only be called by the current owner. NOTE: Renouncing ownership will leave the contract without an owner, thereby removing any functionality that is only available to the owner."
      },
      "safeTransferFrom(address,address,uint256)": {
        "details": "See {IERC721-safeTransferFrom}."
      },
      "safeTransferFrom(address,address,uint256,bytes)": {
        "details": "See {IERC721-safeTransferFrom}."
      },
      "setApprovalForAll(address,bool)": {
        "details": "See {IERC721-setApprovalForAll}."
      },
      "setSurveyListed(uint256)": {
        "params": {
          "_idSurvey": "Id of SurveyNFT result"
        }
      },
      "supportsInterface(bytes4)": {
        "details": "See {IERC165-supportsInterface}."
      },
      "symbol()": {
        "details": "See {IERC721Metadata-symbol}."
      },
      "terminateSurvey(uint256)": {
        "details": "only Terminated surveys can be minted",
        "params": {
          "_idSurvey": "id of SurveyNFT result"
        }
      },
      "tokenURI(uint256)": {
        "details": "See {IERC721Metadata-tokenURI}."
      },
      "transferFrom(address,address,uint256)": {
        "details": "See {IERC721-transferFrom}."
      },
      "transferOwnership(address)": {
        "details": "Transfers ownership of the contract to a new account (`newOwner`). Can only be called by the current owner."
      }
    },
    "title": "OpiChain Survey NFT",
    "version": 1
  },
  "userdoc": {
    "kind": "user",
    "methods": {
      "addQuestion(uint256,string)": {
        "notice": "Add a question"
      },
      "createSurvey(address,string)": {
        "notice": "Create a survey"
      },
      "giveAnswer(uint256,uint256,string)": {
        "notice": "Give answer"
      },
      "mintSurvey(address,uint256)": {
        "notice": "Mint a survey"
      },
      "setSurveyListed(uint256)": {
        "notice": "change Flag listed"
      },
      "terminateSurvey(uint256)": {
        "notice": "Terminate a survey"
      }
    },
    "notice": "ERC721 NFT associated to on survey",
    "version": 1
  }
}