{
  "contractName": "ChlChallengesMarketPlace",
  "abi": [
    {
      "inputs": [
        {
          "internalType": "address",
          "name": "_ChlAddress",
          "type": "address"
        },
        {
          "internalType": "address",
          "name": "_ChallengeChlNFTAddress",
          "type": "address"
        }
      ],
      "stateMutability": "nonpayable",
      "type": "constructor"
    },
    {
      "anonymous": false,
      "inputs": [
        {
          "indexed": false,
          "internalType": "uint256",
          "name": "id",
          "type": "uint256"
        },
        {
          "indexed": false,
          "internalType": "address",
          "name": "seller",
          "type": "address"
        },
        {
          "indexed": false,
          "internalType": "address",
          "name": "owner",
          "type": "address"
        },
        {
          "indexed": false,
          "internalType": "uint256",
          "name": "price",
          "type": "uint256"
        }
      ],
      "name": "ChallengeNFTListed",
      "type": "event"
    },
    {
      "anonymous": false,
      "inputs": [
        {
          "indexed": false,
          "internalType": "uint256",
          "name": "id",
          "type": "uint256"
        },
        {
          "indexed": false,
          "internalType": "address",
          "name": "seller",
          "type": "address"
        },
        {
          "indexed": false,
          "internalType": "address",
          "name": "owner",
          "type": "address"
        },
        {
          "indexed": false,
          "internalType": "uint256",
          "name": "price",
          "type": "uint256"
        }
      ],
      "name": "ChallengeNFTSold",
      "type": "event"
    },
    {
      "anonymous": false,
      "inputs": [
        {
          "indexed": true,
          "internalType": "address",
          "name": "previousOwner",
          "type": "address"
        },
        {
          "indexed": true,
          "internalType": "address",
          "name": "newOwner",
          "type": "address"
        }
      ],
      "name": "OwnershipTransferred",
      "type": "event"
    },
    {
      "inputs": [],
      "name": "ChallengeChlNFT",
      "outputs": [
        {
          "internalType": "contract IERC721",
          "name": "",
          "type": "address"
        }
      ],
      "stateMutability": "view",
      "type": "function",
      "constant": true
    },
    {
      "inputs": [],
      "name": "LISTING_CHLCHAIN_FEE",
      "outputs": [
        {
          "internalType": "uint256",
          "name": "",
          "type": "uint256"
        }
      ],
      "stateMutability": "view",
      "type": "function",
      "constant": true
    },
    {
      "inputs": [],
      "name": "Chl",
      "outputs": [
        {
          "internalType": "contract IERC20",
          "name": "",
          "type": "address"
        }
      ],
      "stateMutability": "view",
      "type": "function",
      "constant": true
    },
    {
      "inputs": [],
      "name": "owner",
      "outputs": [
        {
          "internalType": "address",
          "name": "",
          "type": "address"
        }
      ],
      "stateMutability": "view",
      "type": "function",
      "constant": true
    },
    {
      "inputs": [],
      "name": "renounceOwnership",
      "outputs": [],
      "stateMutability": "nonpayable",
      "type": "function"
    },
    {
      "inputs": [
        {
          "internalType": "address",
          "name": "newOwner",
          "type": "address"
        }
      ],
      "name": "transferOwnership",
      "outputs": [],
      "stateMutability": "nonpayable",
      "type": "function"
    },
    {
      "inputs": [],
      "name": "getListingFee",
      "outputs": [
        {
          "internalType": "uint256",
          "name": "",
          "type": "uint256"
        }
      ],
      "stateMutability": "view",
      "type": "function",
      "constant": true
    },
    {
      "inputs": [],
      "name": "getListedChallengesNfts",
      "outputs": [
        {
          "components": [
            {
              "internalType": "uint256",
              "name": "id",
              "type": "uint256"
            },
            {
              "internalType": "address payable",
              "name": "seller",
              "type": "address"
            },
            {
              "internalType": "address payable",
              "name": "owner",
              "type": "address"
            },
            {
              "internalType": "uint256",
              "name": "price",
              "type": "uint256"
            },
            {
              "internalType": "bool",
              "name": "listed",
              "type": "bool"
            }
          ],
          "internalType": "struct ChlChallengesMarketPlace.ChallengeNFT[]",
          "name": "",
          "type": "tuple[]"
        }
      ],
      "stateMutability": "view",
      "type": "function",
      "constant": true
    },
    {
      "inputs": [],
      "name": "getMyChallengesNfts",
      "outputs": [
        {
          "components": [
            {
              "internalType": "uint256",
              "name": "id",
              "type": "uint256"
            },
            {
              "internalType": "address payable",
              "name": "seller",
              "type": "address"
            },
            {
              "internalType": "address payable",
              "name": "owner",
              "type": "address"
            },
            {
              "internalType": "uint256",
              "name": "price",
              "type": "uint256"
            },
            {
              "internalType": "bool",
              "name": "listed",
              "type": "bool"
            }
          ],
          "internalType": "struct ChlChallengesMarketPlace.ChallengeNFT[]",
          "name": "",
          "type": "tuple[]"
        }
      ],
      "stateMutability": "view",
      "type": "function",
      "constant": true
    },
    {
      "inputs": [],
      "name": "getMyListedChallengesNfts",
      "outputs": [
        {
          "components": [
            {
              "internalType": "uint256",
              "name": "id",
              "type": "uint256"
            },
            {
              "internalType": "address payable",
              "name": "seller",
              "type": "address"
            },
            {
              "internalType": "address payable",
              "name": "owner",
              "type": "address"
            },
            {
              "internalType": "uint256",
              "name": "price",
              "type": "uint256"
            },
            {
              "internalType": "bool",
              "name": "listed",
              "type": "bool"
            }
          ],
          "internalType": "struct ChlChallengesMarketPlace.ChallengeNFT[]",
          "name": "",
          "type": "tuple[]"
        }
      ],
      "stateMutability": "view",
      "type": "function",
      "constant": true
    },
    {
      "inputs": [
        {
          "internalType": "uint256",
          "name": "_tokenId",
          "type": "uint256"
        },
        {
          "internalType": "uint256",
          "name": "_price",
          "type": "uint256"
        }
      ],
      "name": "listChallengeNft",
      "outputs": [],
      "stateMutability": "payable",
      "type": "function",
      "payable": true
    },
    {
      "inputs": [
        {
          "internalType": "uint256",
          "name": "_tokenId",
          "type": "uint256"
        }
      ],
      "name": "buyChallengeResultNft",
      "outputs": [],
      "stateMutability": "payable",
      "type": "function",
      "payable": true
    },
    {
      "inputs": [
        {
          "internalType": "uint256",
          "name": "_tokenId",
          "type": "uint256"
        },
        {
          "internalType": "uint256",
          "name": "_price",
          "type": "uint256"
        }
      ],
      "name": "resellChallengeResultNft",
      "outputs": [],
      "stateMutability": "payable",
      "type": "function",
      "payable": true
    }
  ],
  "bytecode": "0x6080604052655af3107a40006006553480156200001b57600080fd5b50604051620021fb380380620021fb83398181016040528101906200004191906200022b565b6001600081905550620000696200005d620000f360201b60201c565b620000fb60201b60201c565b81600460006101000a81548173ffffffffffffffffffffffffffffffffffffffff021916908373ffffffffffffffffffffffffffffffffffffffff16021790555080600560006101000a81548173ffffffffffffffffffffffffffffffffffffffff021916908373ffffffffffffffffffffffffffffffffffffffff160217905550505062000272565b600033905090565b6000600160009054906101000a900473ffffffffffffffffffffffffffffffffffffffff16905081600160006101000a81548173ffffffffffffffffffffffffffffffffffffffff021916908373ffffffffffffffffffffffffffffffffffffffff1602179055508173ffffffffffffffffffffffffffffffffffffffff168173ffffffffffffffffffffffffffffffffffffffff167f8be0079c531659141344cd1fd0a4f28419497f9722a3daafe3b4186f6b6457e060405160405180910390a35050565b600080fd5b600073ffffffffffffffffffffffffffffffffffffffff82169050919050565b6000620001f382620001c6565b9050919050565b6200020581620001e6565b81146200021157600080fd5b50565b6000815190506200022581620001fa565b92915050565b60008060408385031215620002455762000244620001c1565b5b6000620002558582860162000214565b9250506020620002688582860162000214565b9150509250929050565b611f7980620002826000396000f3fe6080604052600436106100c25760003560e01c80638da5cb5b1161007f578063b8fe6abe11610059578063b8fe6abe14610209578063f2fde38b14610234578063fa77b7491461025d578063fca2901614610288576100c2565b80638da5cb5b14610197578063909eac5b146101c2578063a3b0a5b1146101de576100c2565b80630b3e76df146100c75780631ae1b339146100f257806323c366891461011d5780634f45e41d14610139578063715018a614610164578063823231af1461017b575b600080fd5b3480156100d357600080fd5b506100dc6102b3565b6040516100e991906115ee565b60405180910390f35b3480156100fe57600080fd5b506101076102d9565b6040516101149190611775565b60405180910390f35b610137600480360381019061013291906117c8565b6105b6565b005b34801561014557600080fd5b5061014e61084d565b60405161015b9190611804565b60405180910390f35b34801561017057600080fd5b50610179610853565b005b6101956004803603810190610190919061181f565b610867565b005b3480156101a357600080fd5b506101ac610a9e565b6040516101b99190611880565b60405180910390f35b6101dc60048036038101906101d7919061181f565b610ac8565b005b3480156101ea57600080fd5b506101f3610cd9565b6040516102009190611775565b60405180910390f35b34801561021557600080fd5b5061021e610eeb565b60405161022b9190611804565b60405180910390f35b34801561024057600080fd5b5061025b600480360381019061025691906118c7565b610ef5565b005b34801561026957600080fd5b50610272610f78565b60405161027f9190611915565b60405180910390f35b34801561029457600080fd5b5061029d610f9e565b6040516102aa9190611775565b60405180910390f35b600460009054906101000a900473ffffffffffffffffffffffffffffffffffffffff1681565b606060006102e760036112ed565b90506000805b8281101561038c573373ffffffffffffffffffffffffffffffffffffffff166007600060018461031d919061195f565b815260200190815260200160002060020160009054906101000a900473ffffffffffffffffffffffffffffffffffffffff1673ffffffffffffffffffffffffffffffffffffffff160361037957818061037590611993565b9250505b808061038490611993565b9150506102ed565b5060008167ffffffffffffffff8111156103a9576103a86119db565b5b6040519080825280602002602001820160405280156103e257816020015b6103cf611512565b8152602001906001900390816103c75790505b5090506000805b848110156105ab573373ffffffffffffffffffffffffffffffffffffffff1660076000600184610419919061195f565b815260200190815260200160002060020160009054906101000a900473ffffffffffffffffffffffffffffffffffffffff1673ffffffffffffffffffffffffffffffffffffffff16036105985760076000600183610477919061195f565b81526020019081526020016000206040518060a0016040529081600082015481526020016001820160009054906101000a900473ffffffffffffffffffffffffffffffffffffffff1673ffffffffffffffffffffffffffffffffffffffff1673ffffffffffffffffffffffffffffffffffffffff1681526020016002820160009054906101000a900473ffffffffffffffffffffffffffffffffffffffff1673ffffffffffffffffffffffffffffffffffffffff1673ffffffffffffffffffffffffffffffffffffffff168152602001600382015481526020016004820160009054906101000a900460ff16151515158152505083838151811061057e5761057d611a0a565b5b6020026020010181905250818061059490611993565b9250505b80806105a390611993565b9150506103e9565b508194505050505090565b6105be6112fb565b6000600760008381526020019081526020016000209050806003015434101561061c576040517f08c379a000000000000000000000000000000000000000000000000000000000815260040161061390611abc565b60405180910390fd5b60003390508160010160009054906101000a900473ffffffffffffffffffffffffffffffffffffffff1673ffffffffffffffffffffffffffffffffffffffff166108fc349081150290604051600060405180830381858888f1935050505015801561068b573d6000803e3d6000fd5b50600560009054906101000a900473ffffffffffffffffffffffffffffffffffffffff1673ffffffffffffffffffffffffffffffffffffffff166323b872dd308385600001546040518463ffffffff1660e01b81526004016106ef93929190611afd565b600060405180830381600087803b15801561070957600080fd5b505af115801561071d573d6000803e3d6000fd5b50505050610729610a9e565b73ffffffffffffffffffffffffffffffffffffffff166108fc6006549081150290604051600060405180830381858888f19350505050158015610770573d6000803e3d6000fd5b50808260020160006101000a81548173ffffffffffffffffffffffffffffffffffffffff021916908373ffffffffffffffffffffffffffffffffffffffff16021790555060008260040160006101000a81548160ff0219169083151502179055506107db600261134a565b7f22cff799eb58806cf6129f22f4383878deffe2401b90f766d5bbb7fa352d3d1682600001548360010160009054906101000a900473ffffffffffffffffffffffffffffffffffffffff1683346040516108389493929190611b34565b60405180910390a1505061084a611360565b50565b60065481565b61085b61136a565b61086560006113e8565b565b61086f6112fb565b600081116108b2576040517f08c379a00000000000000000000000000000000000000000000000000000000081526004016108a990611bc5565b60405180910390fd5b60065434146108f6576040517f08c379a00000000000000000000000000000000000000000000000000000000081526004016108ed90611c31565b60405180910390fd5b600560009054906101000a900473ffffffffffffffffffffffffffffffffffffffff1673ffffffffffffffffffffffffffffffffffffffff166323b872dd3330856040518463ffffffff1660e01b815260040161095593929190611c51565b600060405180830381600087803b15801561096f57600080fd5b505af1158015610983573d6000803e3d6000fd5b505050506000600760008481526020019081526020016000209050338160010160006101000a81548173ffffffffffffffffffffffffffffffffffffffff021916908373ffffffffffffffffffffffffffffffffffffffff160217905550308160020160006101000a81548173ffffffffffffffffffffffffffffffffffffffff021916908373ffffffffffffffffffffffffffffffffffffffff16021790555060018160040160006101000a81548160ff021916908315150217905550818160030181905550610a5460026114ae565b7f88a4ae05841f8dc29a4a0faa67bf87aa0db07626fd0f47fec5b9b732add6729283333085604051610a899493929190611c88565b60405180910390a150610a9a611360565b5050565b6000600160009054906101000a900473ffffffffffffffffffffffffffffffffffffffff16905090565b610ad06112fb565b60008111610b13576040517f08c379a0000000000000000000000000000000000000000000000000000000008152600401610b0a90611d19565b60405180910390fd5b600654341015610b58576040517f08c379a0000000000000000000000000000000000000000000000000000000008152600401610b4f90611c31565b60405180910390fd5b610b62600361134a565b6040518060a001604052808381526020013373ffffffffffffffffffffffffffffffffffffffff1681526020013073ffffffffffffffffffffffffffffffffffffffff16815260200182815260200160011515815250600760008481526020019081526020016000206000820151816000015560208201518160010160006101000a81548173ffffffffffffffffffffffffffffffffffffffff021916908373ffffffffffffffffffffffffffffffffffffffff16021790555060408201518160020160006101000a81548173ffffffffffffffffffffffffffffffffffffffff021916908373ffffffffffffffffffffffffffffffffffffffff1602179055506060820151816003015560808201518160040160006101000a81548160ff0219169083151502179055509050507f88a4ae05841f8dc29a4a0faa67bf87aa0db07626fd0f47fec5b9b732add6729282333084604051610cc59493929190611c88565b60405180910390a1610cd5611360565b5050565b60606000610ce760036112ed565b90506000610cf560026112ed565b82610d009190611d39565b905060008167ffffffffffffffff811115610d1e57610d1d6119db565b5b604051908082528060200260200182016040528015610d5757816020015b610d44611512565b815260200190600190039081610d3c5790505b5090506000805b84811015610ee05760076000600183610d77919061195f565b815260200190815260200160002060040160009054906101000a900460ff1615610ecd5760076000600183610dac919061195f565b81526020019081526020016000206040518060a0016040529081600082015481526020016001820160009054906101000a900473ffffffffffffffffffffffffffffffffffffffff1673ffffffffffffffffffffffffffffffffffffffff1673ffffffffffffffffffffffffffffffffffffffff1681526020016002820160009054906101000a900473ffffffffffffffffffffffffffffffffffffffff1673ffffffffffffffffffffffffffffffffffffffff1673ffffffffffffffffffffffffffffffffffffffff168152602001600382015481526020016004820160009054906101000a900460ff161515151581525050838381518110610eb357610eb2611a0a565b5b60200260200101819052508180610ec990611993565b9250505b8080610ed890611993565b915050610d5e565b508194505050505090565b6000600654905090565b610efd61136a565b600073ffffffffffffffffffffffffffffffffffffffff168173ffffffffffffffffffffffffffffffffffffffff1603610f6c576040517f08c379a0000000000000000000000000000000000000000000000000000000008152600401610f6390611ddf565b60405180910390fd5b610f75816113e8565b50565b600560009054906101000a900473ffffffffffffffffffffffffffffffffffffffff1681565b60606000610fac60036112ed565b90506000805b8281101561108a573373ffffffffffffffffffffffffffffffffffffffff1660076000600184610fe2919061195f565b815260200190815260200160002060010160009054906101000a900473ffffffffffffffffffffffffffffffffffffffff1673ffffffffffffffffffffffffffffffffffffffff16148015611063575060076000600183611043919061195f565b815260200190815260200160002060040160009054906101000a900460ff165b1561107757818061107390611993565b9250505b808061108290611993565b915050610fb2565b5060008167ffffffffffffffff8111156110a7576110a66119db565b5b6040519080825280602002602001820160405280156110e057816020015b6110cd611512565b8152602001906001900390816110c55790505b5090506000805b848110156112e2573373ffffffffffffffffffffffffffffffffffffffff1660076000600184611117919061195f565b815260200190815260200160002060010160009054906101000a900473ffffffffffffffffffffffffffffffffffffffff1673ffffffffffffffffffffffffffffffffffffffff16148015611198575060076000600183611178919061195f565b815260200190815260200160002060040160009054906101000a900460ff165b156112cf57600760006001836111ae919061195f565b81526020019081526020016000206040518060a0016040529081600082015481526020016001820160009054906101000a900473ffffffffffffffffffffffffffffffffffffffff1673ffffffffffffffffffffffffffffffffffffffff1673ffffffffffffffffffffffffffffffffffffffff1681526020016002820160009054906101000a900473ffffffffffffffffffffffffffffffffffffffff1673ffffffffffffffffffffffffffffffffffffffff1673ffffffffffffffffffffffffffffffffffffffff168152602001600382015481526020016004820160009054906101000a900460ff1615151515815250508383815181106112b5576112b4611a0a565b5b602002602001018190525081806112cb90611993565b9250505b80806112da90611993565b9150506110e7565b508194505050505090565b600081600001549050919050565b600260005403611340576040517f08c379a000000000000000000000000000000000000000000000000000000000815260040161133790611e4b565b60405180910390fd5b6002600081905550565b6001816000016000828254019250508190555050565b6001600081905550565b61137261150a565b73ffffffffffffffffffffffffffffffffffffffff16611390610a9e565b73ffffffffffffffffffffffffffffffffffffffff16146113e6576040517f08c379a00000000000000000000000000000000000000000000000000000000081526004016113dd90611eb7565b60405180910390fd5b565b6000600160009054906101000a900473ffffffffffffffffffffffffffffffffffffffff16905081600160006101000a81548173ffffffffffffffffffffffffffffffffffffffff021916908373ffffffffffffffffffffffffffffffffffffffff1602179055508173ffffffffffffffffffffffffffffffffffffffff168173ffffffffffffffffffffffffffffffffffffffff167f8be0079c531659141344cd1fd0a4f28419497f9722a3daafe3b4186f6b6457e060405160405180910390a35050565b600081600001549050600081116114fa576040517f08c379a00000000000000000000000000000000000000000000000000000000081526004016114f190611f23565b60405180910390fd5b6001810382600001819055505050565b600033905090565b6040518060a0016040528060008152602001600073ffffffffffffffffffffffffffffffffffffffff168152602001600073ffffffffffffffffffffffffffffffffffffffff168152602001600081526020016000151581525090565b600073ffffffffffffffffffffffffffffffffffffffff82169050919050565b6000819050919050565b60006115b46115af6115aa8461156f565b61158f565b61156f565b9050919050565b60006115c682611599565b9050919050565b60006115d8826115bb565b9050919050565b6115e8816115cd565b82525050565b600060208201905061160360008301846115df565b92915050565b600081519050919050565b600082825260208201905092915050565b6000819050602082019050919050565b6000819050919050565b61164881611635565b82525050565b60006116598261156f565b9050919050565b6116698161164e565b82525050565b60008115159050919050565b6116848161166f565b82525050565b60a0820160008201516116a0600085018261163f565b5060208201516116b36020850182611660565b5060408201516116c66040850182611660565b5060608201516116d9606085018261163f565b5060808201516116ec608085018261167b565b50505050565b60006116fe838361168a565b60a08301905092915050565b6000602082019050919050565b600061172282611609565b61172c8185611614565b935061173783611625565b8060005b8381101561176857815161174f88826116f2565b975061175a8361170a565b92505060018101905061173b565b5085935050505092915050565b6000602082019050818103600083015261178f8184611717565b905092915050565b600080fd5b6117a581611635565b81146117b057600080fd5b50565b6000813590506117c28161179c565b92915050565b6000602082840312156117de576117dd611797565b5b60006117ec848285016117b3565b91505092915050565b6117fe81611635565b82525050565b600060208201905061181960008301846117f5565b92915050565b6000806040838503121561183657611835611797565b5b6000611844858286016117b3565b9250506020611855858286016117b3565b9150509250929050565b600061186a8261156f565b9050919050565b61187a8161185f565b82525050565b60006020820190506118956000830184611871565b92915050565b6118a48161185f565b81146118af57600080fd5b50565b6000813590506118c18161189b565b92915050565b6000602082840312156118dd576118dc611797565b5b60006118eb848285016118b2565b91505092915050565b60006118ff826115bb565b9050919050565b61190f816118f4565b82525050565b600060208201905061192a6000830184611906565b92915050565b7f4e487b7100000000000000000000000000000000000000000000000000000000600052601160045260246000fd5b600061196a82611635565b915061197583611635565b925082820190508082111561198d5761198c611930565b5b92915050565b600061199e82611635565b91507fffffffffffffffffffffffffffffffffffffffffffffffffffffffffffffffff82036119d0576119cf611930565b5b600182019050919050565b7f4e487b7100000000000000000000000000000000000000000000000000000000600052604160045260246000fd5b7f4e487b7100000000000000000000000000000000000000000000000000000000600052603260045260246000fd5b600082825260208201905092915050565b7f4e6f7420656e6f75676820657468657220746f20636f7665722061736b696e6760008201527f2070726963650000000000000000000000000000000000000000000000000000602082015250565b6000611aa6602683611a39565b9150611ab182611a4a565b604082019050919050565b60006020820190508181036000830152611ad581611a99565b9050919050565b6000611ae7826115bb565b9050919050565b611af781611adc565b82525050565b6000606082019050611b126000830186611871565b611b1f6020830185611aee565b611b2c60408301846117f5565b949350505050565b6000608082019050611b4960008301876117f5565b611b566020830186611aee565b611b636040830185611aee565b611b7060608301846117f5565b95945050505050565b7f5072696365206d757374206265206174206c6561737420312077656900000000600082015250565b6000611baf601c83611a39565b9150611bba82611b79565b602082019050919050565b60006020820190508181036000830152611bde81611ba2565b9050919050565b7f4e6f7420656e6f75676820657468657220666f72206c697374696e6720666565600082015250565b6000611c1b602083611a39565b9150611c2682611be5565b602082019050919050565b60006020820190508181036000830152611c4a81611c0e565b9050919050565b6000606082019050611c666000830186611871565b611c736020830185611871565b611c8060408301846117f5565b949350505050565b6000608082019050611c9d60008301876117f5565b611caa6020830186611871565b611cb76040830185611871565b611cc460608301846117f5565b95945050505050565b7f5072696365206d757374206265206174206c656173742031206f706900000000600082015250565b6000611d03601c83611a39565b9150611d0e82611ccd565b602082019050919050565b60006020820190508181036000830152611d3281611cf6565b9050919050565b6000611d4482611635565b9150611d4f83611635565b9250828203905081811115611d6757611d66611930565b5b92915050565b7f4f776e61626c653a206e6577206f776e657220697320746865207a65726f206160008201527f6464726573730000000000000000000000000000000000000000000000000000602082015250565b6000611dc9602683611a39565b9150611dd482611d6d565b604082019050919050565b60006020820190508181036000830152611df881611dbc565b9050919050565b7f5265656e7472616e637947756172643a207265656e7472616e742063616c6c00600082015250565b6000611e35601f83611a39565b9150611e4082611dff565b602082019050919050565b60006020820190508181036000830152611e6481611e28565b9050919050565b7f4f776e61626c653a2063616c6c6572206973206e6f7420746865206f776e6572600082015250565b6000611ea1602083611a39565b9150611eac82611e6b565b602082019050919050565b60006020820190508181036000830152611ed081611e94565b9050919050565b7f436f756e7465723a2064656372656d656e74206f766572666c6f770000000000600082015250565b6000611f0d601b83611a39565b9150611f1882611ed7565b602082019050919050565b60006020820190508181036000830152611f3c81611f00565b905091905056fea26469706673582212200820595d0cf9a9ecfdc70dcac6b3c771c2559ddace65e00c8a7de1c688a447c964736f6c63430008130033",
  "immutableReferences": {},
  "source": "// SPDX-License-Identifier: GPL-3.0\npragma solidity 0.8.19;\n\nimport \"../node_modules/@openzeppelin/contracts/utils/Counters.sol\";\nimport \"../node_modules/@openzeppelin/contracts/token/ERC721/ERC721.sol\";\nimport \"../node_modules/@openzeppelin/contracts/token/ERC20/ERC20.sol\";\nimport \"../node_modules/@openzeppelin/contracts/security/ReentrancyGuard.sol\";\nimport \"../node_modules/@openzeppelin/contracts/access/Ownable.sol\";\n\n\n/// @title  ChlChallengesMarketPlace\n/// @author Saad Igueninni\n/// @notice Marketplace for NFT Challenges results\n/// @dev Inherits the OpenZepplin ReentrancyGuard Ownable contracts\n\ncontract ChlChallengesMarketPlace is ReentrancyGuard, Ownable {\n    using Counters for Counters.Counter;\n\n    Counters.Counter private _nftsChallengeSold;\n    Counters.Counter private _nftChallengeCount;\n\n    IERC20 public Chl;\n    IERC721 public ChallengeChlNFT;\n\n    uint256 public LISTING_CHLCHAIN_FEE = 0.0001 ether; // we keep ether as fees to have a stable fee\n\n    mapping(uint256 => ChallengeNFT) private _idToNFT; //Keep trace of listed NFT, actual owner and seller\n\n    struct ChallengeNFT {\n        uint256 id;\n        address payable seller;\n        address payable owner;\n        uint256 price;\n        bool listed;\n    }\n    event ChallengeNFTListed(\n        uint256 id,\n        address seller,\n        address owner, //current owner of contract\n        uint256 price\n    );\n    event ChallengeNFTSold(\n        uint256 id,\n        address seller,\n        address owner,\n        uint256 price\n    );\n\n    constructor(address _ChlAddress, address _ChallengeChlNFTAddress) {\n     \n         Chl = IERC20(_ChlAddress);\n        ChallengeChlNFT = IERC721(_ChallengeChlNFTAddress);\n    }\n\n    // ::::::::::::: MODIFIERS ::::::::::::: //\n\n    // ::::::::::::: GETTERS ::::::::::::: //\n    function getListingFee() public view returns (uint256) {\n        return LISTING_CHLCHAIN_FEE;\n    }\n\n    function getListedChallengesNfts() public view returns (ChallengeNFT[] memory) {\n        uint256 nftCount = _nftChallengeCount.current();\n        uint256 unsoldNftsCount = nftCount - _nftsChallengeSold.current();\n\n        ChallengeNFT[] memory ListedChallengesNfts = new ChallengeNFT[](unsoldNftsCount);\n        uint256 nftsIndex = 0;\n        for (uint256 i = 0; i < nftCount; i++) {\n            if (_idToNFT[i + 1].listed) {\n                ListedChallengesNfts[nftsIndex] = _idToNFT[i + 1];\n                nftsIndex++;\n            }\n        }\n        return ListedChallengesNfts;\n    }\n\n    function getMyChallengesNfts() public view returns (ChallengeNFT[] memory) {\n        uint256 nftCount = _nftChallengeCount.current();\n        uint256 myNftCount = 0;\n        for (uint256 i = 0; i < nftCount; i++) {\n            if (_idToNFT[i + 1].owner == msg.sender) {\n                myNftCount++;\n            }\n        }\n\n        ChallengeNFT[] memory MyNftsChallenge = new ChallengeNFT[](myNftCount);\n        uint256 nftsIndex = 0;\n        for (uint256 i = 0; i < nftCount; i++) {\n            if (_idToNFT[i + 1].owner == msg.sender) {\n                MyNftsChallenge[nftsIndex] = _idToNFT[i + 1];\n                nftsIndex++;\n            }\n        }\n        return MyNftsChallenge;\n    }\n\n    function getMyListedChallengesNfts() public view returns (ChallengeNFT[] memory) {\n        uint256 nftCount = _nftChallengeCount.current();\n        uint256 myListedNftCount = 0;\n        for (uint256 i = 0; i < nftCount; i++) {\n            if (\n                _idToNFT[i + 1].seller == msg.sender && _idToNFT[i + 1].listed\n            ) {\n                myListedNftCount++;\n            }\n        }\n\n        ChallengeNFT[] memory nfts = new ChallengeNFT[](myListedNftCount);\n        uint256 nftsIndex = 0;\n        for (uint256 i = 0; i < nftCount; i++) {\n            if (\n                _idToNFT[i + 1].seller == msg.sender && _idToNFT[i + 1].listed\n            ) {\n                nfts[nftsIndex] = _idToNFT[i + 1];\n                nftsIndex++;\n            }\n        }\n        return nfts;\n    }\n\n    // ::::::::::::: MARKETPLACE MANAGEMENT ::::::::::::: //\n\n    // List the NFT on the marketplace\n    function listChallengeNft(uint256 _tokenId, uint256 _price)\n        public\n        payable\n        nonReentrant\n    {\n        require(_price > 0, \"Price must be at least 1 Chl\");\n        require(\n            msg.value >= LISTING_CHLCHAIN_FEE,\n            \"Not enough ether for listing fee\"\n        );\n        //require tokenid est au statut Terminated!\n       // ChallengeChlNFT.transferFrom(msg.sender, address(this), _tokenId); \n       //We choose to  mint to Marketplace from the beginning because we have 2 NFTs, \n       //one represnting the Challenge and One for results of Challenge if to be listed\n\n        _nftChallengeCount.increment();\n\n        _idToNFT[_tokenId] = ChallengeNFT(\n            _tokenId,\n            payable(msg.sender),\n            payable(address(this)),\n            _price,\n            true\n        );\n\n        emit ChallengeNFTListed(_tokenId, msg.sender, address(this), _price);\n    }\n\n    // Buy a Challenge result\n    function buyChallengeResultNft(uint256 _tokenId) //address _nftContract, \n        public\n        payable\n        nonReentrant\n    {\n        ChallengeNFT storage nft = _idToNFT[_tokenId];\n        require(\n            msg.value >= nft.price,\n            \"Not enough ether to cover asking price\"\n        );\n\n        address payable buyer = payable(msg.sender);\n        payable(nft.seller).transfer(msg.value);\n        ChallengeChlNFT.transferFrom(address(this), buyer, nft.id);\n        payable(owner()).transfer(LISTING_CHLCHAIN_FEE);\n        nft.owner = buyer;\n        nft.listed = false;\n\n        _nftsChallengeSold.increment();\n        emit ChallengeNFTSold(nft.id, nft.seller, buyer, msg.value);\n    }\n\n    // Resell the Challenge results\n    function resellChallengeResultNft(\n       // address _nftContract,\n        uint256 _tokenId,\n        uint256 _price\n    ) public payable nonReentrant {\n        require(_price > 0, \"Price must be at least 1 wei\");\n        require(\n            msg.value == LISTING_CHLCHAIN_FEE,\n            \"Not enough ether for listing fee\"\n        );\n\n        ChallengeChlNFT.transferFrom(msg.sender, address(this), _tokenId);\n\n        ChallengeNFT storage nft = _idToNFT[_tokenId];\n        nft.seller = payable(msg.sender);\n        nft.owner = payable(address(this));\n        nft.listed = true;\n        nft.price = _price;\n\n        _nftsChallengeSold.decrement();\n        emit ChallengeNFTListed(_tokenId, msg.sender, address(this), _price);\n    }\n}\n",
  "sourcePath": "/home/saadi/coursAlyra/ChlChain/truffle/contracts/ChlSurveysMarketPlace.sol",
  "compiler": {
    "name": "solc",
    "version": "0.8.19+commit.7dd6d404.Emscripten.clang"
  },
  "schemaVersion": "3.4.10",
  "updatedAt": "2023-07-21T16:11:28.455Z",
  "networkType": "ethereum",
  "devdoc": {
    "author": "Saad Igueninni",
    "details": "Inherits the OpenZepplin ReentrancyGuard Ownable contracts",
    "kind": "dev",
    "methods": {
      "owner()": {
        "details": "Returns the address of the current owner."
      },
      "renounceOwnership()": {
        "details": "Leaves the contract without owner. It will not be possible to call `onlyOwner` functions anymore. Can only be called by the current owner. NOTE: Renouncing ownership will leave the contract without an owner, thereby removing any functionality that is only available to the owner."
      },
      "transferOwnership(address)": {
        "details": "Transfers ownership of the contract to a new account (`newOwner`). Can only be called by the current owner."
      }
    },
    "title": "ChlChallengesMarketPlace",
    "version": 1
  },
  "userdoc": {
    "kind": "user",
    "methods": {},
    "notice": "Marketplace for NFT Challenges results",
    "version": 1
  }
}