{
  "contractName": "OpiChainSBT",
  "abi": [
    {
      "inputs": [],
      "stateMutability": "nonpayable",
      "type": "constructor"
    },
    {
      "anonymous": false,
      "inputs": [
        {
          "indexed": true,
          "internalType": "address",
          "name": "owner",
          "type": "address"
        },
        {
          "indexed": true,
          "internalType": "address",
          "name": "approved",
          "type": "address"
        },
        {
          "indexed": true,
          "internalType": "uint256",
          "name": "tokenId",
          "type": "uint256"
        }
      ],
      "name": "Approval",
      "type": "event"
    },
    {
      "anonymous": false,
      "inputs": [
        {
          "indexed": true,
          "internalType": "address",
          "name": "owner",
          "type": "address"
        },
        {
          "indexed": true,
          "internalType": "address",
          "name": "operator",
          "type": "address"
        },
        {
          "indexed": false,
          "internalType": "bool",
          "name": "approved",
          "type": "bool"
        }
      ],
      "name": "ApprovalForAll",
      "type": "event"
    },
    {
      "anonymous": false,
      "inputs": [
        {
          "indexed": true,
          "internalType": "address",
          "name": "previousOwner",
          "type": "address"
        },
        {
          "indexed": true,
          "internalType": "address",
          "name": "newOwner",
          "type": "address"
        }
      ],
      "name": "OwnershipTransferred",
      "type": "event"
    },
    {
      "anonymous": false,
      "inputs": [
        {
          "indexed": true,
          "internalType": "address",
          "name": "from",
          "type": "address"
        },
        {
          "indexed": true,
          "internalType": "address",
          "name": "to",
          "type": "address"
        },
        {
          "indexed": true,
          "internalType": "uint256",
          "name": "tokenId",
          "type": "uint256"
        }
      ],
      "name": "Transfer",
      "type": "event"
    },
    {
      "anonymous": false,
      "inputs": [
        {
          "components": [
            {
              "internalType": "uint256",
              "name": "OpiIdCounter",
              "type": "uint256"
            },
            {
              "internalType": "string",
              "name": "name",
              "type": "string"
            },
            {
              "internalType": "enum OpiChainSBT.Gender",
              "name": "gender",
              "type": "uint8"
            },
            {
              "internalType": "uint256",
              "name": "age",
              "type": "uint256"
            },
            {
              "internalType": "enum OpiChainSBT.Role",
              "name": "role",
              "type": "uint8"
            },
            {
              "internalType": "bool",
              "name": "isOpiIdGranted",
              "type": "bool"
            }
          ],
          "indexed": false,
          "internalType": "struct OpiChainSBT.OpiProfile",
          "name": "_newOpiProfile",
          "type": "tuple"
        }
      ],
      "name": "grantedOpiID",
      "type": "event"
    },
    {
      "anonymous": false,
      "inputs": [
        {
          "indexed": false,
          "internalType": "address",
          "name": "_profileAddress",
          "type": "address"
        }
      ],
      "name": "revokedOpiID",
      "type": "event"
    },
    {
      "anonymous": false,
      "inputs": [
        {
          "indexed": false,
          "internalType": "address",
          "name": "_profileAddress",
          "type": "address"
        }
      ],
      "name": "updatedOpiID",
      "type": "event"
    },
    {
      "inputs": [
        {
          "internalType": "address",
          "name": "to",
          "type": "address"
        },
        {
          "internalType": "uint256",
          "name": "tokenId",
          "type": "uint256"
        }
      ],
      "name": "approve",
      "outputs": [],
      "stateMutability": "nonpayable",
      "type": "function"
    },
    {
      "inputs": [
        {
          "internalType": "address",
          "name": "owner",
          "type": "address"
        }
      ],
      "name": "balanceOf",
      "outputs": [
        {
          "internalType": "uint256",
          "name": "",
          "type": "uint256"
        }
      ],
      "stateMutability": "view",
      "type": "function",
      "constant": true
    },
    {
      "inputs": [
        {
          "internalType": "uint256",
          "name": "tokenId",
          "type": "uint256"
        }
      ],
      "name": "getApproved",
      "outputs": [
        {
          "internalType": "address",
          "name": "",
          "type": "address"
        }
      ],
      "stateMutability": "view",
      "type": "function",
      "constant": true
    },
    {
      "inputs": [
        {
          "internalType": "address",
          "name": "owner",
          "type": "address"
        },
        {
          "internalType": "address",
          "name": "operator",
          "type": "address"
        }
      ],
      "name": "isApprovedForAll",
      "outputs": [
        {
          "internalType": "bool",
          "name": "",
          "type": "bool"
        }
      ],
      "stateMutability": "view",
      "type": "function",
      "constant": true
    },
    {
      "inputs": [],
      "name": "name",
      "outputs": [
        {
          "internalType": "string",
          "name": "",
          "type": "string"
        }
      ],
      "stateMutability": "view",
      "type": "function",
      "constant": true
    },
    {
      "inputs": [],
      "name": "owner",
      "outputs": [
        {
          "internalType": "address",
          "name": "",
          "type": "address"
        }
      ],
      "stateMutability": "view",
      "type": "function",
      "constant": true
    },
    {
      "inputs": [
        {
          "internalType": "uint256",
          "name": "tokenId",
          "type": "uint256"
        }
      ],
      "name": "ownerOf",
      "outputs": [
        {
          "internalType": "address",
          "name": "",
          "type": "address"
        }
      ],
      "stateMutability": "view",
      "type": "function",
      "constant": true
    },
    {
      "inputs": [],
      "name": "renounceOwnership",
      "outputs": [],
      "stateMutability": "nonpayable",
      "type": "function"
    },
    {
      "inputs": [
        {
          "internalType": "address",
          "name": "from",
          "type": "address"
        },
        {
          "internalType": "address",
          "name": "to",
          "type": "address"
        },
        {
          "internalType": "uint256",
          "name": "tokenId",
          "type": "uint256"
        }
      ],
      "name": "safeTransferFrom",
      "outputs": [],
      "stateMutability": "nonpayable",
      "type": "function"
    },
    {
      "inputs": [
        {
          "internalType": "address",
          "name": "from",
          "type": "address"
        },
        {
          "internalType": "address",
          "name": "to",
          "type": "address"
        },
        {
          "internalType": "uint256",
          "name": "tokenId",
          "type": "uint256"
        },
        {
          "internalType": "bytes",
          "name": "data",
          "type": "bytes"
        }
      ],
      "name": "safeTransferFrom",
      "outputs": [],
      "stateMutability": "nonpayable",
      "type": "function"
    },
    {
      "inputs": [
        {
          "internalType": "address",
          "name": "operator",
          "type": "address"
        },
        {
          "internalType": "bool",
          "name": "approved",
          "type": "bool"
        }
      ],
      "name": "setApprovalForAll",
      "outputs": [],
      "stateMutability": "nonpayable",
      "type": "function"
    },
    {
      "inputs": [
        {
          "internalType": "bytes4",
          "name": "interfaceId",
          "type": "bytes4"
        }
      ],
      "name": "supportsInterface",
      "outputs": [
        {
          "internalType": "bool",
          "name": "",
          "type": "bool"
        }
      ],
      "stateMutability": "view",
      "type": "function",
      "constant": true
    },
    {
      "inputs": [],
      "name": "symbol",
      "outputs": [
        {
          "internalType": "string",
          "name": "",
          "type": "string"
        }
      ],
      "stateMutability": "view",
      "type": "function",
      "constant": true
    },
    {
      "inputs": [
        {
          "internalType": "uint256",
          "name": "tokenId",
          "type": "uint256"
        }
      ],
      "name": "tokenURI",
      "outputs": [
        {
          "internalType": "string",
          "name": "",
          "type": "string"
        }
      ],
      "stateMutability": "view",
      "type": "function",
      "constant": true
    },
    {
      "inputs": [
        {
          "internalType": "address",
          "name": "from",
          "type": "address"
        },
        {
          "internalType": "address",
          "name": "to",
          "type": "address"
        },
        {
          "internalType": "uint256",
          "name": "tokenId",
          "type": "uint256"
        }
      ],
      "name": "transferFrom",
      "outputs": [],
      "stateMutability": "nonpayable",
      "type": "function"
    },
    {
      "inputs": [
        {
          "internalType": "address",
          "name": "newOwner",
          "type": "address"
        }
      ],
      "name": "transferOwnership",
      "outputs": [],
      "stateMutability": "nonpayable",
      "type": "function"
    },
    {
      "inputs": [
        {
          "internalType": "address",
          "name": "_profileAddress",
          "type": "address"
        }
      ],
      "name": "getOpiID",
      "outputs": [
        {
          "components": [
            {
              "internalType": "uint256",
              "name": "OpiIdCounter",
              "type": "uint256"
            },
            {
              "internalType": "string",
              "name": "name",
              "type": "string"
            },
            {
              "internalType": "enum OpiChainSBT.Gender",
              "name": "gender",
              "type": "uint8"
            },
            {
              "internalType": "uint256",
              "name": "age",
              "type": "uint256"
            },
            {
              "internalType": "enum OpiChainSBT.Role",
              "name": "role",
              "type": "uint8"
            },
            {
              "internalType": "bool",
              "name": "isOpiIdGranted",
              "type": "bool"
            }
          ],
          "internalType": "struct OpiChainSBT.OpiProfile",
          "name": "",
          "type": "tuple"
        }
      ],
      "stateMutability": "view",
      "type": "function",
      "constant": true
    },
    {
      "inputs": [
        {
          "internalType": "address",
          "name": "_profileAddress",
          "type": "address"
        }
      ],
      "name": "isGrantedOpiID",
      "outputs": [
        {
          "internalType": "bool",
          "name": "",
          "type": "bool"
        }
      ],
      "stateMutability": "view",
      "type": "function",
      "constant": true
    },
    {
      "inputs": [
        {
          "internalType": "address",
          "name": "_profileAddress",
          "type": "address"
        }
      ],
      "name": "isSounder",
      "outputs": [
        {
          "internalType": "bool",
          "name": "",
          "type": "bool"
        }
      ],
      "stateMutability": "view",
      "type": "function",
      "constant": true
    },
    {
      "inputs": [
        {
          "internalType": "address",
          "name": "_profileAddress",
          "type": "address"
        }
      ],
      "name": "isSurveyed",
      "outputs": [
        {
          "internalType": "bool",
          "name": "",
          "type": "bool"
        }
      ],
      "stateMutability": "view",
      "type": "function",
      "constant": true
    },
    {
      "inputs": [
        {
          "internalType": "address",
          "name": "_profileAddress",
          "type": "address"
        },
        {
          "internalType": "string",
          "name": "_SBTUri",
          "type": "string"
        },
        {
          "internalType": "string",
          "name": "_name",
          "type": "string"
        },
        {
          "internalType": "uint256",
          "name": "_age",
          "type": "uint256"
        },
        {
          "internalType": "uint8",
          "name": "_gender",
          "type": "uint8"
        },
        {
          "internalType": "uint8",
          "name": "_role",
          "type": "uint8"
        }
      ],
      "name": "grantOpiID",
      "outputs": [
        {
          "internalType": "uint256",
          "name": "",
          "type": "uint256"
        }
      ],
      "stateMutability": "nonpayable",
      "type": "function"
    },
    {
      "inputs": [
        {
          "internalType": "address",
          "name": "_profileAddress",
          "type": "address"
        }
      ],
      "name": "revokeOpiID",
      "outputs": [],
      "stateMutability": "nonpayable",
      "type": "function"
    },
    {
      "inputs": [
        {
          "internalType": "address",
          "name": "_profileAddress",
          "type": "address"
        },
        {
          "internalType": "string",
          "name": "_name",
          "type": "string"
        },
        {
          "internalType": "uint256",
          "name": "_age",
          "type": "uint256"
        },
        {
          "internalType": "uint8",
          "name": "_gender",
          "type": "uint8"
        },
        {
          "internalType": "uint8",
          "name": "_role",
          "type": "uint8"
        }
      ],
      "name": "updateOpiID",
      "outputs": [],
      "stateMutability": "nonpayable",
      "type": "function"
    }
  ],
  "bytecode": "0x60806040523480156200001157600080fd5b506040518060400160405280600a81526020017f4f7069436861696e4944000000000000000000000000000000000000000000008152506040518060400160405280600581526020017f4f7069496400000000000000000000000000000000000000000000000000000081525081600090816200008f919062000dea565b508060019081620000a1919062000dea565b505050620000c4620000b86200014b60201b60201c565b6200015360201b60201c565b600073d9cb466b10b86da36cb7e39d6dd86d25a500ccd69050620001438160405180608001604052806057815260200162005900605791396040518060400160405280600481526020017f736161640000000000000000000000000000000000000000000000000000000081525060266000806200021960201b60201c565b5050620014c6565b600033905090565b6000600760009054906101000a900473ffffffffffffffffffffffffffffffffffffffff16905081600760006101000a81548173ffffffffffffffffffffffffffffffffffffffff021916908373ffffffffffffffffffffffffffffffffffffffff1602179055508173ffffffffffffffffffffffffffffffffffffffff168173ffffffffffffffffffffffffffffffffffffffff167f8be0079c531659141344cd1fd0a4f28419497f9722a3daafe3b4186f6b6457e060405160405180910390a35050565b60006200022b6200052560201b60201c565b600860003373ffffffffffffffffffffffffffffffffffffffff1673ffffffffffffffffffffffffffffffffffffffff16815260200190815260200160002060040160019054906101000a900460ff1615620002be576040517f08c379a0000000000000000000000000000000000000000000000000000000008152600401620002b59062000f32565b60405180910390fd5b620002d56009620005b660201b62001a541760201c565b6000620002ee6009620005cc60201b62001a6a1760201c565b9050620002fa62000b0e565b81816000018181525050868160200181905250858160600181815250508460ff16600181111562000330576200032f62000f54565b5b816040019060018111156200034a576200034962000f54565b5b9081600181111562000361576200036062000f54565b5b815250508360ff1660018111156200037e576200037d62000f54565b5b8160800190600181111562000398576200039762000f54565b5b90816001811115620003af57620003ae62000f54565b5b8152505060018160a001901515908115158152505080600860008b73ffffffffffffffffffffffffffffffffffffffff1673ffffffffffffffffffffffffffffffffffffffff16815260200190815260200160002060008201518160000155602082015181600101908162000425919062000dea565b5060408201518160020160006101000a81548160ff0219169083600181111562000454576200045362000f54565b5b02179055506060820151816003015560808201518160040160006101000a81548160ff0219169083600181111562000491576200049062000f54565b5b021790555060a08201518160040160016101000a81548160ff021916908315150217905550905050620004cb8983620005da60201b60201c565b620004dd82896200082060201b60201c565b7fb82f9ae6643517fa1e435850fb48a60e89bf1821da9b0bdc113da9e425f38dd3816040516200050e919062001177565b60405180910390a181925050509695505050505050565b620005356200014b60201b60201c565b73ffffffffffffffffffffffffffffffffffffffff166200055b6200089a60201b60201c565b73ffffffffffffffffffffffffffffffffffffffff1614620005b4576040517f08c379a0000000000000000000000000000000000000000000000000000000008152600401620005ab90620011eb565b60405180910390fd5b565b6001816000016000828254019250508190555050565b600081600001549050919050565b600073ffffffffffffffffffffffffffffffffffffffff168273ffffffffffffffffffffffffffffffffffffffff16036200064c576040517f08c379a000000000000000000000000000000000000000000000000000000000815260040162000643906200125d565b60405180910390fd5b6200065d81620008c460201b60201c565b15620006a0576040517f08c379a00000000000000000000000000000000000000000000000000000000081526004016200069790620012cf565b60405180910390fd5b620006b66000838360016200090d60201b60201c565b620006c781620008c460201b60201c565b156200070a576040517f08c379a00000000000000000000000000000000000000000000000000000000081526004016200070190620012cf565b60405180910390fd5b6001600360008473ffffffffffffffffffffffffffffffffffffffff1673ffffffffffffffffffffffffffffffffffffffff16815260200190815260200160002060008282540192505081905550816002600083815260200190815260200160002060006101000a81548173ffffffffffffffffffffffffffffffffffffffff021916908373ffffffffffffffffffffffffffffffffffffffff160217905550808273ffffffffffffffffffffffffffffffffffffffff16600073ffffffffffffffffffffffffffffffffffffffff167fddf252ad1be2c89b69c2b068fc378daa952ba7f163c4a11628f55a4df523b3ef60405160405180910390a46200081c6000838360016200099e60201b60201c565b5050565b6200083182620008c460201b60201c565b62000873576040517f08c379a00000000000000000000000000000000000000000000000000000000081526004016200086a9062001367565b60405180910390fd5b8060066000848152602001908152602001600020908162000895919062000dea565b505050565b6000600760009054906101000a900473ffffffffffffffffffffffffffffffffffffffff16905090565b60008073ffffffffffffffffffffffffffffffffffffffff16620008ee83620009a460201b60201c565b73ffffffffffffffffffffffffffffffffffffffff1614159050919050565b600073ffffffffffffffffffffffffffffffffffffffff168473ffffffffffffffffffffffffffffffffffffffff16146200097f576040517f08c379a00000000000000000000000000000000000000000000000000000000081526004016200097690620013ff565b60405180910390fd5b6200099884848484620009e160201b62001a781760201c565b50505050565b50505050565b60006002600083815260200190815260200160002060009054906101000a900473ffffffffffffffffffffffffffffffffffffffff169050919050565b600181111562000b0857600073ffffffffffffffffffffffffffffffffffffffff168473ffffffffffffffffffffffffffffffffffffffff161462000a795780600360008673ffffffffffffffffffffffffffffffffffffffff1673ffffffffffffffffffffffffffffffffffffffff168152602001908152602001600020600082825462000a71919062001450565b925050819055505b600073ffffffffffffffffffffffffffffffffffffffff168373ffffffffffffffffffffffffffffffffffffffff161462000b075780600360008573ffffffffffffffffffffffffffffffffffffffff1673ffffffffffffffffffffffffffffffffffffffff168152602001908152602001600020600082825462000aff91906200148b565b925050819055505b5b50505050565b6040518060c0016040528060008152602001606081526020016000600181111562000b3e5762000b3d62000f54565b5b8152602001600081526020016000600181111562000b615762000b6062000f54565b5b81526020016000151581525090565b600081519050919050565b7f4e487b7100000000000000000000000000000000000000000000000000000000600052604160045260246000fd5b7f4e487b7100000000000000000000000000000000000000000000000000000000600052602260045260246000fd5b6000600282049050600182168062000bf257607f821691505b60208210810362000c085762000c0762000baa565b5b50919050565b60008190508160005260206000209050919050565b60006020601f8301049050919050565b600082821b905092915050565b60006008830262000c727fffffffffffffffffffffffffffffffffffffffffffffffffffffffffffffffff8262000c33565b62000c7e868362000c33565b95508019841693508086168417925050509392505050565b6000819050919050565b6000819050919050565b600062000ccb62000cc562000cbf8462000c96565b62000ca0565b62000c96565b9050919050565b6000819050919050565b62000ce78362000caa565b62000cff62000cf68262000cd2565b84845462000c40565b825550505050565b600090565b62000d1662000d07565b62000d2381848462000cdc565b505050565b5b8181101562000d4b5762000d3f60008262000d0c565b60018101905062000d29565b5050565b601f82111562000d9a5762000d648162000c0e565b62000d6f8462000c23565b8101602085101562000d7f578190505b62000d9762000d8e8562000c23565b83018262000d28565b50505b505050565b600082821c905092915050565b600062000dbf6000198460080262000d9f565b1980831691505092915050565b600062000dda838362000dac565b9150826002028217905092915050565b62000df58262000b70565b67ffffffffffffffff81111562000e115762000e1062000b7b565b5b62000e1d825462000bd9565b62000e2a82828562000d4f565b600060209050601f83116001811462000e62576000841562000e4d578287015190505b62000e59858262000dcc565b86555062000ec9565b601f19841662000e728662000c0e565b60005b8281101562000e9c5784890151825560018201915060208501945060208101905062000e75565b8683101562000ebc578489015162000eb8601f89168262000dac565b8355505b6001600288020188555050505b505050505050565b600082825260208201905092915050565b7f4f7069494420616c726561647920657869737473000000000000000000000000600082015250565b600062000f1a60148362000ed1565b915062000f278262000ee2565b602082019050919050565b6000602082019050818103600083015262000f4d8162000f0b565b9050919050565b7f4e487b7100000000000000000000000000000000000000000000000000000000600052602160045260246000fd5b62000f8e8162000c96565b82525050565b600082825260208201905092915050565b60005b8381101562000fc557808201518184015260208101905062000fa8565b60008484015250505050565b6000601f19601f8301169050919050565b600062000fef8262000b70565b62000ffb818562000f94565b93506200100d81856020860162000fa5565b620010188162000fd1565b840191505092915050565b6002811062001037576200103662000f54565b5b50565b60008190506200104a8262001023565b919050565b60006200105c826200103a565b9050919050565b6200106e816200104f565b82525050565b6002811062001088576200108762000f54565b5b50565b60008190506200109b8262001074565b919050565b6000620010ad826200108b565b9050919050565b620010bf81620010a0565b82525050565b60008115159050919050565b620010dc81620010c5565b82525050565b600060c083016000830151620010fc600086018262000f83565b506020830151848203602086015262001116828262000fe2565b91505060408301516200112d604086018262001063565b50606083015162001142606086018262000f83565b506080830151620011576080860182620010b4565b5060a08301516200116c60a0860182620010d1565b508091505092915050565b60006020820190508181036000830152620011938184620010e2565b905092915050565b7f4f776e61626c653a2063616c6c6572206973206e6f7420746865206f776e6572600082015250565b6000620011d360208362000ed1565b9150620011e0826200119b565b602082019050919050565b600060208201905081810360008301526200120681620011c4565b9050919050565b7f4552433732313a206d696e7420746f20746865207a65726f2061646472657373600082015250565b60006200124560208362000ed1565b915062001252826200120d565b602082019050919050565b60006020820190508181036000830152620012788162001236565b9050919050565b7f4552433732313a20746f6b656e20616c7265616479206d696e74656400000000600082015250565b6000620012b7601c8362000ed1565b9150620012c4826200127f565b602082019050919050565b60006020820190508181036000830152620012ea81620012a8565b9050919050565b7f45524337323155524953746f726167653a2055524920736574206f66206e6f6e60008201527f6578697374656e7420746f6b656e000000000000000000000000000000000000602082015250565b60006200134f602e8362000ed1565b91506200135c82620012f1565b604082019050919050565b60006020820190508181036000830152620013828162001340565b9050919050565b7f534254203a206e6f7420706f737369626c65206465205472616e73666572207960008201527f6f7572204f706949640000000000000000000000000000000000000000000000602082015250565b6000620013e760298362000ed1565b9150620013f48262001389565b604082019050919050565b600060208201905081810360008301526200141a81620013d8565b9050919050565b7f4e487b7100000000000000000000000000000000000000000000000000000000600052601160045260246000fd5b60006200145d8262000c96565b91506200146a8362000c96565b925082820390508181111562001485576200148462001421565b5b92915050565b6000620014988262000c96565b9150620014a58362000c96565b9250828201905080821115620014c057620014bf62001421565b5b92915050565b61442a80620014d66000396000f3fe608060405234801561001057600080fd5b506004361061014d5760003560e01c8063715018a6116100c3578063b88d4fde1161007c578063b88d4fde146103c2578063c87b56dd146103de578063d9d1ddbe1461040e578063db7e02131461043e578063e985e9c51461045a578063f2fde38b1461048a5761014d565b8063715018a61461030057806373addd8b1461030a578063750623351461033a5780638da5cb5b1461036a57806395d89b4114610388578063a22cb465146103a65761014d565b806323b872dd1161011557806323b872dd146102085780633ee5c24f1461022457806340cfeb4e1461025457806342842e0e146102845780636352211e146102a057806370a08231146102d05761014d565b806301ffc9a71461015257806306fdde0314610182578063081812fc146101a0578063095ea7b3146101d05780631a71b6d2146101ec575b600080fd5b61016c60048036038101906101679190612cac565b6104a6565b6040516101799190612cf4565b60405180910390f35b61018a610588565b6040516101979190612d9f565b60405180910390f35b6101ba60048036038101906101b59190612df7565b61061a565b6040516101c79190612e65565b60405180910390f35b6101ea60048036038101906101e59190612eac565b610660565b005b61020660048036038101906102019190612f8a565b610777565b005b610222600480360381019061021d9190613024565b610b9d565b005b61023e60048036038101906102399190613077565b610bfd565b60405161024b9190612cf4565b60405180910390f35b61026e60048036038101906102699190613077565b610c5e565b60405161027b9190612cf4565b60405180910390f35b61029e60048036038101906102999190613024565b610dcf565b005b6102ba60048036038101906102b59190612df7565b610def565b6040516102c79190612e65565b60405180910390f35b6102ea60048036038101906102e59190613077565b610e75565b6040516102f791906130b3565b60405180910390f35b610308610f2c565b005b610324600480360381019061031f9190613077565b610f40565b604051610331919061327e565b60405180910390f35b610354600480360381019061034f91906133d0565b611169565b60405161036191906130b3565b60405180910390f35b610372611422565b60405161037f9190612e65565b60405180910390f35b61039061144c565b60405161039d9190612d9f565b60405180910390f35b6103c060048036038101906103bb91906134c1565b6114de565b005b6103dc60048036038101906103d791906135a2565b6114f4565b005b6103f860048036038101906103f39190612df7565b611556565b6040516104059190612d9f565b60405180910390f35b61042860048036038101906104239190613077565b611668565b6040516104359190612cf4565b60405180910390f35b61045860048036038101906104539190613077565b6117d8565b005b610474600480360381019061046f9190613625565b61193d565b6040516104819190612cf4565b60405180910390f35b6104a4600480360381019061049f9190613077565b6119d1565b005b60007f80ac58cd000000000000000000000000000000000000000000000000000000007bffffffffffffffffffffffffffffffffffffffffffffffffffffffff1916827bffffffffffffffffffffffffffffffffffffffffffffffffffffffff1916148061057157507f5b5e139f000000000000000000000000000000000000000000000000000000007bffffffffffffffffffffffffffffffffffffffffffffffffffffffff1916827bffffffffffffffffffffffffffffffffffffffffffffffffffffffff1916145b80610581575061058082611b9e565b5b9050919050565b60606000805461059790613694565b80601f01602080910402602001604051908101604052809291908181526020018280546105c390613694565b80156106105780601f106105e557610100808354040283529160200191610610565b820191906000526020600020905b8154815290600101906020018083116105f357829003601f168201915b5050505050905090565b600061062582611c08565b6004600083815260200190815260200160002060009054906101000a900473ffffffffffffffffffffffffffffffffffffffff169050919050565b600061066b82610def565b90508073ffffffffffffffffffffffffffffffffffffffff168373ffffffffffffffffffffffffffffffffffffffff16036106db576040517f08c379a00000000000000000000000000000000000000000000000000000000081526004016106d290613737565b60405180910390fd5b8073ffffffffffffffffffffffffffffffffffffffff166106fa611c53565b73ffffffffffffffffffffffffffffffffffffffff161480610729575061072881610723611c53565b61193d565b5b610768576040517f08c379a000000000000000000000000000000000000000000000000000000000815260040161075f906137c9565b60405180910390fd5b6107728383611c5b565b505050565b61077f611d14565b6000600860003373ffffffffffffffffffffffffffffffffffffffff1673ffffffffffffffffffffffffffffffffffffffff1681526020019081526020016000206000015403610804576040517f08c379a00000000000000000000000000000000000000000000000000000000081526004016107fb90613835565b60405180910390fd5b61080c612b87565b600860008873ffffffffffffffffffffffffffffffffffffffff1673ffffffffffffffffffffffffffffffffffffffff1681526020019081526020016000206040518060c00160405290816000820154815260200160018201805461087090613694565b80601f016020809104026020016040519081016040528092919081815260200182805461089c90613694565b80156108e95780601f106108be576101008083540402835291602001916108e9565b820191906000526020600020905b8154815290600101906020018083116108cc57829003601f168201915b505050505081526020016002820160009054906101000a900460ff16600181111561091757610916613127565b5b600181111561092957610928613127565b5b8152602001600382015481526020016004820160009054906101000a900460ff16600181111561095c5761095b613127565b5b600181111561096e5761096d613127565b5b81526020016004820160019054906101000a900460ff161515151581525050905085858080601f016020809104026020016040519081016040528093929190818152602001838380828437600081840152601f19601f820116905080830192505050505050508160200181905250838160600181815250508260ff1660018111156109fc576109fb613127565b5b81604001906001811115610a1357610a12613127565b5b90816001811115610a2757610a26613127565b5b815250508160ff166001811115610a4157610a40613127565b5b81608001906001811115610a5857610a57613127565b5b90816001811115610a6c57610a6b613127565b5b8152505080600860008973ffffffffffffffffffffffffffffffffffffffff1673ffffffffffffffffffffffffffffffffffffffff168152602001908152602001600020600082015181600001556020820151816001019081610acf9190613a01565b5060408201518160020160006101000a81548160ff02191690836001811115610afb57610afa613127565b5b02179055506060820151816003015560808201518160040160006101000a81548160ff02191690836001811115610b3557610b34613127565b5b021790555060a08201518160040160016101000a81548160ff0219169083151502179055509050507ffbe677b07b780a20c8f6f9ab6061b5dec9604f4b7bacd0b4172b887d6c882f1187604051610b8c9190612e65565b60405180910390a150505050505050565b610bae610ba8611c53565b82611d92565b610bed576040517f08c379a0000000000000000000000000000000000000000000000000000000008152600401610be490613b45565b60405180910390fd5b610bf8838383611e27565b505050565b6000610c07611d14565b600860008373ffffffffffffffffffffffffffffffffffffffff1673ffffffffffffffffffffffffffffffffffffffff16815260200190815260200160002060040160019054906101000a900460ff169050919050565b6000610c68611d14565b81600860008273ffffffffffffffffffffffffffffffffffffffff1673ffffffffffffffffffffffffffffffffffffffff16815260200190815260200160002060040160019054906101000a900460ff16610cf8576040517f08c379a0000000000000000000000000000000000000000000000000000000008152600401610cef90613835565b60405180910390fd5b600860008473ffffffffffffffffffffffffffffffffffffffff1673ffffffffffffffffffffffffffffffffffffffff16815260200190815260200160002060040160019054906101000a900460ff168015610dc7575060006001811115610d6357610d62613127565b5b600860008573ffffffffffffffffffffffffffffffffffffffff1673ffffffffffffffffffffffffffffffffffffffff16815260200190815260200160002060040160009054906101000a900460ff166001811115610dc557610dc4613127565b5b145b915050919050565b610dea838383604051806020016040528060008152506114f4565b505050565b600080610dfb83612120565b9050600073ffffffffffffffffffffffffffffffffffffffff168173ffffffffffffffffffffffffffffffffffffffff1603610e6c576040517f08c379a0000000000000000000000000000000000000000000000000000000008152600401610e6390613bb1565b60405180910390fd5b80915050919050565b60008073ffffffffffffffffffffffffffffffffffffffff168273ffffffffffffffffffffffffffffffffffffffff1603610ee5576040517f08c379a0000000000000000000000000000000000000000000000000000000008152600401610edc90613c43565b60405180910390fd5b600360008373ffffffffffffffffffffffffffffffffffffffff1673ffffffffffffffffffffffffffffffffffffffff168152602001908152602001600020549050919050565b610f34611d14565b610f3e600061215d565b565b610f48612b87565b610f50611d14565b81600860008273ffffffffffffffffffffffffffffffffffffffff1673ffffffffffffffffffffffffffffffffffffffff16815260200190815260200160002060040160019054906101000a900460ff16610fe0576040517f08c379a0000000000000000000000000000000000000000000000000000000008152600401610fd790613835565b60405180910390fd5b600860008473ffffffffffffffffffffffffffffffffffffffff1673ffffffffffffffffffffffffffffffffffffffff1681526020019081526020016000206040518060c00160405290816000820154815260200160018201805461104490613694565b80601f016020809104026020016040519081016040528092919081815260200182805461107090613694565b80156110bd5780601f10611092576101008083540402835291602001916110bd565b820191906000526020600020905b8154815290600101906020018083116110a057829003601f168201915b505050505081526020016002820160009054906101000a900460ff1660018111156110eb576110ea613127565b5b60018111156110fd576110fc613127565b5b8152602001600382015481526020016004820160009054906101000a900460ff1660018111156111305761112f613127565b5b600181111561114257611141613127565b5b81526020016004820160019054906101000a900460ff161515151581525050915050919050565b6000611173611d14565b600860003373ffffffffffffffffffffffffffffffffffffffff1673ffffffffffffffffffffffffffffffffffffffff16815260200190815260200160002060040160019054906101000a900460ff1615611203576040517f08c379a00000000000000000000000000000000000000000000000000000000081526004016111fa90613caf565b60405180910390fd5b61120d6009611a54565b60006112196009611a6a565b9050611223612b87565b81816000018181525050868160200181905250858160600181815250508460ff16600181111561125657611255613127565b5b8160400190600181111561126d5761126c613127565b5b9081600181111561128157611280613127565b5b815250508360ff16600181111561129b5761129a613127565b5b816080019060018111156112b2576112b1613127565b5b908160018111156112c6576112c5613127565b5b8152505060018160a001901515908115158152505080600860008b73ffffffffffffffffffffffffffffffffffffffff1673ffffffffffffffffffffffffffffffffffffffff16815260200190815260200160002060008201518160000155602082015181600101908161133a9190613a01565b5060408201518160020160006101000a81548160ff0219169083600181111561136657611365613127565b5b02179055506060820151816003015560808201518160040160006101000a81548160ff021916908360018111156113a05761139f613127565b5b021790555060a08201518160040160016101000a81548160ff0219169083151502179055509050506113d28983612223565b6113dc8289612440565b7fb82f9ae6643517fa1e435850fb48a60e89bf1821da9b0bdc113da9e425f38dd38160405161140b919061327e565b60405180910390a181925050509695505050505050565b6000600760009054906101000a900473ffffffffffffffffffffffffffffffffffffffff16905090565b60606001805461145b90613694565b80601f016020809104026020016040519081016040528092919081815260200182805461148790613694565b80156114d45780601f106114a9576101008083540402835291602001916114d4565b820191906000526020600020905b8154815290600101906020018083116114b757829003601f168201915b5050505050905090565b6114f06114e9611c53565b83836124ad565b5050565b6115056114ff611c53565b83611d92565b611544576040517f08c379a000000000000000000000000000000000000000000000000000000000815260040161153b90613b45565b60405180910390fd5b61155084848484612619565b50505050565b606061156182611c08565b600060066000848152602001908152602001600020805461158190613694565b80601f01602080910402602001604051908101604052809291908181526020018280546115ad90613694565b80156115fa5780601f106115cf576101008083540402835291602001916115fa565b820191906000526020600020905b8154815290600101906020018083116115dd57829003601f168201915b50505050509050600061160b612675565b90506000815103611620578192505050611663565b60008251111561165557808260405160200161163d929190613d0b565b60405160208183030381529060405292505050611663565b61165e8461268c565b925050505b919050565b6000611672611d14565b81600860008273ffffffffffffffffffffffffffffffffffffffff1673ffffffffffffffffffffffffffffffffffffffff16815260200190815260200160002060040160019054906101000a900460ff16611702576040517f08c379a00000000000000000000000000000000000000000000000000000000081526004016116f990613835565b60405180910390fd5b600860008473ffffffffffffffffffffffffffffffffffffffff1673ffffffffffffffffffffffffffffffffffffffff16815260200190815260200160002060040160019054906101000a900460ff1680156117d0575060018081111561176c5761176b613127565b5b600860008573ffffffffffffffffffffffffffffffffffffffff1673ffffffffffffffffffffffffffffffffffffffff16815260200190815260200160002060040160009054906101000a900460ff1660018111156117ce576117cd613127565b5b145b915050919050565b6117e0611d14565b6000600860003373ffffffffffffffffffffffffffffffffffffffff1673ffffffffffffffffffffffffffffffffffffffff1681526020019081526020016000206000015403611865576040517f08c379a000000000000000000000000000000000000000000000000000000000815260040161185c90613835565b60405180910390fd5b600860008273ffffffffffffffffffffffffffffffffffffffff1673ffffffffffffffffffffffffffffffffffffffff1681526020019081526020016000206000808201600090556001820160006118bd9190612be3565b6002820160006101000a81549060ff021916905560038201600090556004820160006101000a81549060ff02191690556004820160016101000a81549060ff021916905550507ffbe677b07b780a20c8f6f9ab6061b5dec9604f4b7bacd0b4172b887d6c882f11816040516119329190612e65565b60405180910390a150565b6000600560008473ffffffffffffffffffffffffffffffffffffffff1673ffffffffffffffffffffffffffffffffffffffff16815260200190815260200160002060008373ffffffffffffffffffffffffffffffffffffffff1673ffffffffffffffffffffffffffffffffffffffff16815260200190815260200160002060009054906101000a900460ff16905092915050565b6119d9611d14565b600073ffffffffffffffffffffffffffffffffffffffff168173ffffffffffffffffffffffffffffffffffffffff1603611a48576040517f08c379a0000000000000000000000000000000000000000000000000000000008152600401611a3f90613da1565b60405180910390fd5b611a518161215d565b50565b6001816000016000828254019250508190555050565b600081600001549050919050565b6001811115611b9857600073ffffffffffffffffffffffffffffffffffffffff168473ffffffffffffffffffffffffffffffffffffffff1614611b0c5780600360008673ffffffffffffffffffffffffffffffffffffffff1673ffffffffffffffffffffffffffffffffffffffff1681526020019081526020016000206000828254611b049190613df0565b925050819055505b600073ffffffffffffffffffffffffffffffffffffffff168373ffffffffffffffffffffffffffffffffffffffff1614611b975780600360008573ffffffffffffffffffffffffffffffffffffffff1673ffffffffffffffffffffffffffffffffffffffff1681526020019081526020016000206000828254611b8f9190613e24565b925050819055505b5b50505050565b60007f01ffc9a7000000000000000000000000000000000000000000000000000000007bffffffffffffffffffffffffffffffffffffffffffffffffffffffff1916827bffffffffffffffffffffffffffffffffffffffffffffffffffffffff1916149050919050565b611c11816126f4565b611c50576040517f08c379a0000000000000000000000000000000000000000000000000000000008152600401611c4790613bb1565b60405180910390fd5b50565b600033905090565b816004600083815260200190815260200160002060006101000a81548173ffffffffffffffffffffffffffffffffffffffff021916908373ffffffffffffffffffffffffffffffffffffffff160217905550808273ffffffffffffffffffffffffffffffffffffffff16611cce83610def565b73ffffffffffffffffffffffffffffffffffffffff167f8c5be1e5ebec7d5bd14f71427d1e84f3dd0314c0f7b2291e5b200ac8c7c3b92560405160405180910390a45050565b611d1c611c53565b73ffffffffffffffffffffffffffffffffffffffff16611d3a611422565b73ffffffffffffffffffffffffffffffffffffffff1614611d90576040517f08c379a0000000000000000000000000000000000000000000000000000000008152600401611d8790613ea4565b60405180910390fd5b565b600080611d9e83610def565b90508073ffffffffffffffffffffffffffffffffffffffff168473ffffffffffffffffffffffffffffffffffffffff161480611de05750611ddf818561193d565b5b80611e1e57508373ffffffffffffffffffffffffffffffffffffffff16611e068461061a565b73ffffffffffffffffffffffffffffffffffffffff16145b91505092915050565b8273ffffffffffffffffffffffffffffffffffffffff16611e4782610def565b73ffffffffffffffffffffffffffffffffffffffff1614611e9d576040517f08c379a0000000000000000000000000000000000000000000000000000000008152600401611e9490613f36565b60405180910390fd5b600073ffffffffffffffffffffffffffffffffffffffff168273ffffffffffffffffffffffffffffffffffffffff1603611f0c576040517f08c379a0000000000000000000000000000000000000000000000000000000008152600401611f0390613fc8565b60405180910390fd5b611f198383836001612735565b8273ffffffffffffffffffffffffffffffffffffffff16611f3982610def565b73ffffffffffffffffffffffffffffffffffffffff1614611f8f576040517f08c379a0000000000000000000000000000000000000000000000000000000008152600401611f8690613f36565b60405180910390fd5b6004600082815260200190815260200160002060006101000a81549073ffffffffffffffffffffffffffffffffffffffff02191690556001600360008573ffffffffffffffffffffffffffffffffffffffff1673ffffffffffffffffffffffffffffffffffffffff168152602001908152602001600020600082825403925050819055506001600360008473ffffffffffffffffffffffffffffffffffffffff1673ffffffffffffffffffffffffffffffffffffffff16815260200190815260200160002060008282540192505081905550816002600083815260200190815260200160002060006101000a81548173ffffffffffffffffffffffffffffffffffffffff021916908373ffffffffffffffffffffffffffffffffffffffff160217905550808273ffffffffffffffffffffffffffffffffffffffff168473ffffffffffffffffffffffffffffffffffffffff167fddf252ad1be2c89b69c2b068fc378daa952ba7f163c4a11628f55a4df523b3ef60405160405180910390a461211b83838360016127b6565b505050565b60006002600083815260200190815260200160002060009054906101000a900473ffffffffffffffffffffffffffffffffffffffff169050919050565b6000600760009054906101000a900473ffffffffffffffffffffffffffffffffffffffff16905081600760006101000a81548173ffffffffffffffffffffffffffffffffffffffff021916908373ffffffffffffffffffffffffffffffffffffffff1602179055508173ffffffffffffffffffffffffffffffffffffffff168173ffffffffffffffffffffffffffffffffffffffff167f8be0079c531659141344cd1fd0a4f28419497f9722a3daafe3b4186f6b6457e060405160405180910390a35050565b600073ffffffffffffffffffffffffffffffffffffffff168273ffffffffffffffffffffffffffffffffffffffff1603612292576040517f08c379a000000000000000000000000000000000000000000000000000000000815260040161228990614034565b60405180910390fd5b61229b816126f4565b156122db576040517f08c379a00000000000000000000000000000000000000000000000000000000081526004016122d2906140a0565b60405180910390fd5b6122e9600083836001612735565b6122f2816126f4565b15612332576040517f08c379a0000000000000000000000000000000000000000000000000000000008152600401612329906140a0565b60405180910390fd5b6001600360008473ffffffffffffffffffffffffffffffffffffffff1673ffffffffffffffffffffffffffffffffffffffff16815260200190815260200160002060008282540192505081905550816002600083815260200190815260200160002060006101000a81548173ffffffffffffffffffffffffffffffffffffffff021916908373ffffffffffffffffffffffffffffffffffffffff160217905550808273ffffffffffffffffffffffffffffffffffffffff16600073ffffffffffffffffffffffffffffffffffffffff167fddf252ad1be2c89b69c2b068fc378daa952ba7f163c4a11628f55a4df523b3ef60405160405180910390a461243c6000838360016127b6565b5050565b612449826126f4565b612488576040517f08c379a000000000000000000000000000000000000000000000000000000000815260040161247f90614132565b60405180910390fd5b806006600084815260200190815260200160002090816124a89190613a01565b505050565b8173ffffffffffffffffffffffffffffffffffffffff168373ffffffffffffffffffffffffffffffffffffffff160361251b576040517f08c379a00000000000000000000000000000000000000000000000000000000081526004016125129061419e565b60405180910390fd5b80600560008573ffffffffffffffffffffffffffffffffffffffff1673ffffffffffffffffffffffffffffffffffffffff16815260200190815260200160002060008473ffffffffffffffffffffffffffffffffffffffff1673ffffffffffffffffffffffffffffffffffffffff16815260200190815260200160002060006101000a81548160ff0219169083151502179055508173ffffffffffffffffffffffffffffffffffffffff168373ffffffffffffffffffffffffffffffffffffffff167f17307eab39ab6107e8899845ad3d59bd9653f200f220920489ca2b5937696c318360405161260c9190612cf4565b60405180910390a3505050565b612624848484611e27565b612630848484846127bc565b61266f576040517f08c379a000000000000000000000000000000000000000000000000000000000815260040161266690614230565b60405180910390fd5b50505050565b606060405180602001604052806000815250905090565b606061269782611c08565b60006126a1612675565b905060008151116126c157604051806020016040528060008152506126ec565b806126cb84612943565b6040516020016126dc929190613d0b565b6040516020818303038152906040525b915050919050565b60008073ffffffffffffffffffffffffffffffffffffffff1661271683612120565b73ffffffffffffffffffffffffffffffffffffffff1614159050919050565b600073ffffffffffffffffffffffffffffffffffffffff168473ffffffffffffffffffffffffffffffffffffffff16146127a4576040517f08c379a000000000000000000000000000000000000000000000000000000000815260040161279b906142c2565b60405180910390fd5b6127b084848484611a78565b50505050565b50505050565b60006127dd8473ffffffffffffffffffffffffffffffffffffffff16612a11565b15612936578373ffffffffffffffffffffffffffffffffffffffff1663150b7a02612806611c53565b8786866040518563ffffffff1660e01b81526004016128289493929190614337565b6020604051808303816000875af192505050801561286457506040513d601f19601f820116820180604052508101906128619190614398565b60015b6128e6573d8060008114612894576040519150601f19603f3d011682016040523d82523d6000602084013e612899565b606091505b5060008151036128de576040517f08c379a00000000000000000000000000000000000000000000000000000000081526004016128d590614230565b60405180910390fd5b805181602001fd5b63150b7a0260e01b7bffffffffffffffffffffffffffffffffffffffffffffffffffffffff1916817bffffffffffffffffffffffffffffffffffffffffffffffffffffffff19161491505061293b565b600190505b949350505050565b60606000600161295284612a34565b01905060008167ffffffffffffffff811115612971576129706132a5565b5b6040519080825280601f01601f1916602001820160405280156129a35781602001600182028036833780820191505090505b509050600082602001820190505b600115612a06578080600190039150507f3031323334353637383961626364656600000000000000000000000000000000600a86061a8153600a85816129fa576129f96143c5565b5b049450600085036129b1575b819350505050919050565b6000808273ffffffffffffffffffffffffffffffffffffffff163b119050919050565b600080600090507a184f03e93ff9f4daa797ed6e38ed64bf6a1f0100000000000000008310612a92577a184f03e93ff9f4daa797ed6e38ed64bf6a1f0100000000000000008381612a8857612a876143c5565b5b0492506040810190505b6d04ee2d6d415b85acef81000000008310612acf576d04ee2d6d415b85acef81000000008381612ac557612ac46143c5565b5b0492506020810190505b662386f26fc100008310612afe57662386f26fc100008381612af457612af36143c5565b5b0492506010810190505b6305f5e1008310612b27576305f5e1008381612b1d57612b1c6143c5565b5b0492506008810190505b6127108310612b4c576127108381612b4257612b416143c5565b5b0492506004810190505b60648310612b6f5760648381612b6557612b646143c5565b5b0492506002810190505b600a8310612b7e576001810190505b80915050919050565b6040518060c00160405280600081526020016060815260200160006001811115612bb457612bb3613127565b5b81526020016000815260200160006001811115612bd457612bd3613127565b5b81526020016000151581525090565b508054612bef90613694565b6000825580601f10612c015750612c20565b601f016020900490600052602060002090810190612c1f9190612c23565b5b50565b5b80821115612c3c576000816000905550600101612c24565b5090565b6000604051905090565b600080fd5b600080fd5b60007fffffffff0000000000000000000000000000000000000000000000000000000082169050919050565b612c8981612c54565b8114612c9457600080fd5b50565b600081359050612ca681612c80565b92915050565b600060208284031215612cc257612cc1612c4a565b5b6000612cd084828501612c97565b91505092915050565b60008115159050919050565b612cee81612cd9565b82525050565b6000602082019050612d096000830184612ce5565b92915050565b600081519050919050565b600082825260208201905092915050565b60005b83811015612d49578082015181840152602081019050612d2e565b60008484015250505050565b6000601f19601f8301169050919050565b6000612d7182612d0f565b612d7b8185612d1a565b9350612d8b818560208601612d2b565b612d9481612d55565b840191505092915050565b60006020820190508181036000830152612db98184612d66565b905092915050565b6000819050919050565b612dd481612dc1565b8114612ddf57600080fd5b50565b600081359050612df181612dcb565b92915050565b600060208284031215612e0d57612e0c612c4a565b5b6000612e1b84828501612de2565b91505092915050565b600073ffffffffffffffffffffffffffffffffffffffff82169050919050565b6000612e4f82612e24565b9050919050565b612e5f81612e44565b82525050565b6000602082019050612e7a6000830184612e56565b92915050565b612e8981612e44565b8114612e9457600080fd5b50565b600081359050612ea681612e80565b92915050565b60008060408385031215612ec357612ec2612c4a565b5b6000612ed185828601612e97565b9250506020612ee285828601612de2565b9150509250929050565b600080fd5b600080fd5b600080fd5b60008083601f840112612f1157612f10612eec565b5b8235905067ffffffffffffffff811115612f2e57612f2d612ef1565b5b602083019150836001820283011115612f4a57612f49612ef6565b5b9250929050565b600060ff82169050919050565b612f6781612f51565b8114612f7257600080fd5b50565b600081359050612f8481612f5e565b92915050565b60008060008060008060a08789031215612fa757612fa6612c4a565b5b6000612fb589828a01612e97565b965050602087013567ffffffffffffffff811115612fd657612fd5612c4f565b5b612fe289828a01612efb565b95509550506040612ff589828a01612de2565b935050606061300689828a01612f75565b925050608061301789828a01612f75565b9150509295509295509295565b60008060006060848603121561303d5761303c612c4a565b5b600061304b86828701612e97565b935050602061305c86828701612e97565b925050604061306d86828701612de2565b9150509250925092565b60006020828403121561308d5761308c612c4a565b5b600061309b84828501612e97565b91505092915050565b6130ad81612dc1565b82525050565b60006020820190506130c860008301846130a4565b92915050565b6130d781612dc1565b82525050565b600082825260208201905092915050565b60006130f982612d0f565b61310381856130dd565b9350613113818560208601612d2b565b61311c81612d55565b840191505092915050565b7f4e487b7100000000000000000000000000000000000000000000000000000000600052602160045260246000fd5b6002811061316757613166613127565b5b50565b600081905061317882613156565b919050565b60006131888261316a565b9050919050565b6131988161317d565b82525050565b600281106131af576131ae613127565b5b50565b60008190506131c08261319e565b919050565b60006131d0826131b2565b9050919050565b6131e0816131c5565b82525050565b6131ef81612cd9565b82525050565b600060c08301600083015161320d60008601826130ce565b506020830151848203602086015261322582826130ee565b915050604083015161323a604086018261318f565b50606083015161324d60608601826130ce565b50608083015161326060808601826131d7565b5060a083015161327360a08601826131e6565b508091505092915050565b6000602082019050818103600083015261329881846131f5565b905092915050565b600080fd5b7f4e487b7100000000000000000000000000000000000000000000000000000000600052604160045260246000fd5b6132dd82612d55565b810181811067ffffffffffffffff821117156132fc576132fb6132a5565b5b80604052505050565b600061330f612c40565b905061331b82826132d4565b919050565b600067ffffffffffffffff82111561333b5761333a6132a5565b5b61334482612d55565b9050602081019050919050565b82818337600083830152505050565b600061337361336e84613320565b613305565b90508281526020810184848401111561338f5761338e6132a0565b5b61339a848285613351565b509392505050565b600082601f8301126133b7576133b6612eec565b5b81356133c7848260208601613360565b91505092915050565b60008060008060008060c087890312156133ed576133ec612c4a565b5b60006133fb89828a01612e97565b965050602087013567ffffffffffffffff81111561341c5761341b612c4f565b5b61342889828a016133a2565b955050604087013567ffffffffffffffff81111561344957613448612c4f565b5b61345589828a016133a2565b945050606061346689828a01612de2565b935050608061347789828a01612f75565b92505060a061348889828a01612f75565b9150509295509295509295565b61349e81612cd9565b81146134a957600080fd5b50565b6000813590506134bb81613495565b92915050565b600080604083850312156134d8576134d7612c4a565b5b60006134e685828601612e97565b92505060206134f7858286016134ac565b9150509250929050565b600067ffffffffffffffff82111561351c5761351b6132a5565b5b61352582612d55565b9050602081019050919050565b600061354561354084613501565b613305565b905082815260208101848484011115613561576135606132a0565b5b61356c848285613351565b509392505050565b600082601f83011261358957613588612eec565b5b8135613599848260208601613532565b91505092915050565b600080600080608085870312156135bc576135bb612c4a565b5b60006135ca87828801612e97565b94505060206135db87828801612e97565b93505060406135ec87828801612de2565b925050606085013567ffffffffffffffff81111561360d5761360c612c4f565b5b61361987828801613574565b91505092959194509250565b6000806040838503121561363c5761363b612c4a565b5b600061364a85828601612e97565b925050602061365b85828601612e97565b9150509250929050565b7f4e487b7100000000000000000000000000000000000000000000000000000000600052602260045260246000fd5b600060028204905060018216806136ac57607f821691505b6020821081036136bf576136be613665565b5b50919050565b7f4552433732313a20617070726f76616c20746f2063757272656e74206f776e6560008201527f7200000000000000000000000000000000000000000000000000000000000000602082015250565b6000613721602183612d1a565b915061372c826136c5565b604082019050919050565b6000602082019050818103600083015261375081613714565b9050919050565b7f4552433732313a20617070726f76652063616c6c6572206973206e6f7420746f60008201527f6b656e206f776e6572206f7220617070726f76656420666f7220616c6c000000602082015250565b60006137b3603d83612d1a565b91506137be82613757565b604082019050919050565b600060208201905081810360008301526137e2816137a6565b9050919050565b7f4f7069494420646f206e6f742065786973747300000000000000000000000000600082015250565b600061381f601383612d1a565b915061382a826137e9565b602082019050919050565b6000602082019050818103600083015261384e81613812565b9050919050565b60008190508160005260206000209050919050565b60006020601f8301049050919050565b600082821b905092915050565b6000600883026138b77fffffffffffffffffffffffffffffffffffffffffffffffffffffffffffffffff8261387a565b6138c1868361387a565b95508019841693508086168417925050509392505050565b6000819050919050565b60006138fe6138f96138f484612dc1565b6138d9565b612dc1565b9050919050565b6000819050919050565b613918836138e3565b61392c61392482613905565b848454613887565b825550505050565b600090565b613941613934565b61394c81848461390f565b505050565b5b8181101561397057613965600082613939565b600181019050613952565b5050565b601f8211156139b55761398681613855565b61398f8461386a565b8101602085101561399e578190505b6139b26139aa8561386a565b830182613951565b50505b505050565b600082821c905092915050565b60006139d8600019846008026139ba565b1980831691505092915050565b60006139f183836139c7565b9150826002028217905092915050565b613a0a82612d0f565b67ffffffffffffffff811115613a2357613a226132a5565b5b613a2d8254613694565b613a38828285613974565b600060209050601f831160018114613a6b5760008415613a59578287015190505b613a6385826139e5565b865550613acb565b601f198416613a7986613855565b60005b82811015613aa157848901518255600182019150602085019450602081019050613a7c565b86831015613abe5784890151613aba601f8916826139c7565b8355505b6001600288020188555050505b505050505050565b7f4552433732313a2063616c6c6572206973206e6f7420746f6b656e206f776e6560008201527f72206f7220617070726f76656400000000000000000000000000000000000000602082015250565b6000613b2f602d83612d1a565b9150613b3a82613ad3565b604082019050919050565b60006020820190508181036000830152613b5e81613b22565b9050919050565b7f4552433732313a20696e76616c696420746f6b656e2049440000000000000000600082015250565b6000613b9b601883612d1a565b9150613ba682613b65565b602082019050919050565b60006020820190508181036000830152613bca81613b8e565b9050919050565b7f4552433732313a2061646472657373207a65726f206973206e6f74206120766160008201527f6c6964206f776e65720000000000000000000000000000000000000000000000602082015250565b6000613c2d602983612d1a565b9150613c3882613bd1565b604082019050919050565b60006020820190508181036000830152613c5c81613c20565b9050919050565b7f4f7069494420616c726561647920657869737473000000000000000000000000600082015250565b6000613c99601483612d1a565b9150613ca482613c63565b602082019050919050565b60006020820190508181036000830152613cc881613c8c565b9050919050565b600081905092915050565b6000613ce582612d0f565b613cef8185613ccf565b9350613cff818560208601612d2b565b80840191505092915050565b6000613d178285613cda565b9150613d238284613cda565b91508190509392505050565b7f4f776e61626c653a206e6577206f776e657220697320746865207a65726f206160008201527f6464726573730000000000000000000000000000000000000000000000000000602082015250565b6000613d8b602683612d1a565b9150613d9682613d2f565b604082019050919050565b60006020820190508181036000830152613dba81613d7e565b9050919050565b7f4e487b7100000000000000000000000000000000000000000000000000000000600052601160045260246000fd5b6000613dfb82612dc1565b9150613e0683612dc1565b9250828203905081811115613e1e57613e1d613dc1565b5b92915050565b6000613e2f82612dc1565b9150613e3a83612dc1565b9250828201905080821115613e5257613e51613dc1565b5b92915050565b7f4f776e61626c653a2063616c6c6572206973206e6f7420746865206f776e6572600082015250565b6000613e8e602083612d1a565b9150613e9982613e58565b602082019050919050565b60006020820190508181036000830152613ebd81613e81565b9050919050565b7f4552433732313a207472616e736665722066726f6d20696e636f72726563742060008201527f6f776e6572000000000000000000000000000000000000000000000000000000602082015250565b6000613f20602583612d1a565b9150613f2b82613ec4565b604082019050919050565b60006020820190508181036000830152613f4f81613f13565b9050919050565b7f4552433732313a207472616e7366657220746f20746865207a65726f2061646460008201527f7265737300000000000000000000000000000000000000000000000000000000602082015250565b6000613fb2602483612d1a565b9150613fbd82613f56565b604082019050919050565b60006020820190508181036000830152613fe181613fa5565b9050919050565b7f4552433732313a206d696e7420746f20746865207a65726f2061646472657373600082015250565b600061401e602083612d1a565b915061402982613fe8565b602082019050919050565b6000602082019050818103600083015261404d81614011565b9050919050565b7f4552433732313a20746f6b656e20616c7265616479206d696e74656400000000600082015250565b600061408a601c83612d1a565b915061409582614054565b602082019050919050565b600060208201905081810360008301526140b98161407d565b9050919050565b7f45524337323155524953746f726167653a2055524920736574206f66206e6f6e60008201527f6578697374656e7420746f6b656e000000000000000000000000000000000000602082015250565b600061411c602e83612d1a565b9150614127826140c0565b604082019050919050565b6000602082019050818103600083015261414b8161410f565b9050919050565b7f4552433732313a20617070726f766520746f2063616c6c657200000000000000600082015250565b6000614188601983612d1a565b915061419382614152565b602082019050919050565b600060208201905081810360008301526141b78161417b565b9050919050565b7f4552433732313a207472616e7366657220746f206e6f6e20455243373231526560008201527f63656976657220696d706c656d656e7465720000000000000000000000000000602082015250565b600061421a603283612d1a565b9150614225826141be565b604082019050919050565b600060208201905081810360008301526142498161420d565b9050919050565b7f534254203a206e6f7420706f737369626c65206465205472616e73666572207960008201527f6f7572204f706949640000000000000000000000000000000000000000000000602082015250565b60006142ac602983612d1a565b91506142b782614250565b604082019050919050565b600060208201905081810360008301526142db8161429f565b9050919050565b600081519050919050565b600082825260208201905092915050565b6000614309826142e2565b61431381856142ed565b9350614323818560208601612d2b565b61432c81612d55565b840191505092915050565b600060808201905061434c6000830187612e56565b6143596020830186612e56565b61436660408301856130a4565b818103606083015261437881846142fe565b905095945050505050565b60008151905061439281612c80565b92915050565b6000602082840312156143ae576143ad612c4a565b5b60006143bc84828501614383565b91505092915050565b7f4e487b7100000000000000000000000000000000000000000000000000000000600052601260045260246000fdfea2646970667358221220f6d2cdee833559870c89f957de0622e50efda99d1452aaed5e7c3848db0fbfbf64736f6c6343000811003368747470733a2f2f676174657761792e70696e6174612e636c6f75642f697066732f516d517a45456276595356326174694476385064543457754e796a544c624b704557465671464656464c474175742f312e6a736f6e",
  "immutableReferences": {},
  "source": "// SPDX-License-Identifier: GPL-3.0\npragma solidity 0.8.17;\n\nimport \"../node_modules/@openzeppelin/contracts/token/ERC721/extensions/ERC721URIStorage.sol\";\nimport \"../node_modules/@openzeppelin/contracts/utils/Counters.sol\";\nimport \"../node_modules/@openzeppelin/contracts/access/Ownable.sol\";\nimport \"../node_modules/@openzeppelin/contracts/utils/Strings.sol\";\n\n/// @title  OpiChain SBT contract\n/// @author Saad Igueninni\n/// @notice ERC721 not transferable, bound to Soul\n/// @dev Inherits the OpenZepplin Ownable ,ERC721URIStorage,Counters & Strings contracts\ncontract OpiChainSBT is ERC721URIStorage, Ownable {\n    using Counters for Counters.Counter;\n\n    enum Gender {\n        Male,\n        Female\n    }\n\n    enum Role {\n        Sounder,\n        Surveyed\n    }\n\n    struct OpiProfile {\n        uint256 OpiIdCounter;\n        string name;\n        Gender gender;\n        uint256 age;\n        Role role;\n        bool isOpiIdGranted;\n    }\n\n    //mapping(address=>bool) grantedOPIIds;\n    mapping(address => OpiProfile) OpiProfiles;\n    Counters.Counter private _OpiIdCounter;\n\n    event grantedOpiID(OpiProfile _newOpiProfile);\n    event revokedOpiID(address _profileAddress);\n    event updatedOpiID(address _profileAddress);\n\n    constructor() ERC721(\"OpiChainID\", \"OpiId\") {\n        \n        address test = 0xd9cB466B10b86Da36Cb7E39d6DD86d25A500Ccd6;\n        grantOpiID( test,\n        \"https://gateway.pinata.cloud/ipfs/QmQzEEbvYSV2atiDv8PdT4WuNyjTLbKpEWFVqFFVFLGAut/1.json\",\n        \"saad\",\n        38,\n        0,\n        0);\n\n\n    }\n\n    // ::::::::::::: MODIFIERS ::::::::::::: //\n    modifier onlySounders(address _profileAddress) {\n        require(\n            (OpiProfiles[_profileAddress].isOpiIdGranted &&\n                OpiProfiles[_profileAddress].role == Role.Sounder),\n            \"You are not a sounder\"\n        );\n        _;\n    }\n\n    modifier onlySurveyeds(address _profileAddress) {\n        require(\n            (OpiProfiles[_profileAddress].isOpiIdGranted &&\n                OpiProfiles[msg.sender].role == Role.Surveyed),\n            \"You are not a surveyed\"\n        );\n        _;\n    }\n\n    modifier opiIdExists(address _profileAddress) {\n        require(\n            OpiProfiles[_profileAddress].isOpiIdGranted,\n            \"OpiID do not exists\"\n        );\n        _;\n    }\n\n    // ::::::::::::: GETTERS ::::::::::::: //\n    function getOpiID(address _profileAddress)\n        external\n        view\n        onlyOwner\n        opiIdExists(_profileAddress)\n        returns (OpiProfile memory)\n    {\n        return OpiProfiles[_profileAddress];\n    }\n\n    function isGrantedOpiID(address _profileAddress)\n        external\n        view\n        onlyOwner\n        returns (bool)\n    {\n        return OpiProfiles[_profileAddress].isOpiIdGranted;\n    }\n\n    function isSounder(address _profileAddress)\n        external\n        view\n        onlyOwner\n        opiIdExists(_profileAddress)\n        returns (bool)\n    {\n        return (OpiProfiles[_profileAddress].isOpiIdGranted &&\n            OpiProfiles[_profileAddress].role == Role.Sounder);\n    }\n\n    function isSurveyed(address _profileAddress)\n        external\n        view\n        onlyOwner\n        opiIdExists(_profileAddress)\n        returns (bool)\n    {\n        return (OpiProfiles[_profileAddress].isOpiIdGranted &&\n            OpiProfiles[_profileAddress].role == Role.Surveyed);\n    }\n\n    // ::::::::::::: MEMBERS MANAGEMENT ::::::::::::: //\n    function grantOpiID(\n        address _profileAddress,\n        string memory _SBTUri,\n        string memory _name,\n        uint256 _age,\n        uint8 _gender,\n        uint8 _role\n    ) public onlyOwner returns (uint256) { //To change to external after test\n        require(\n            !OpiProfiles[msg.sender].isOpiIdGranted,\n            \"OpiID already exists\"\n        );\n\n        _OpiIdCounter.increment(); //To start at 1\n        uint256 newOpiID = _OpiIdCounter.current();\n        OpiProfile memory newOpiProfile;\n\n        //Add new Profile\n        newOpiProfile.OpiIdCounter = newOpiID;\n        newOpiProfile.name = _name;\n        newOpiProfile.age = _age;\n        newOpiProfile.gender = Gender(_gender);\n        newOpiProfile.role = Role(_role);\n        newOpiProfile.isOpiIdGranted = true;\n        OpiProfiles[_profileAddress] = newOpiProfile;\n\n        _mint(_profileAddress, newOpiID);\n        _setTokenURI(newOpiID, _SBTUri);\n\n        emit grantedOpiID(newOpiProfile);\n        return newOpiID;\n    }\n\n    function revokeOpiID(address _profileAddress) external onlyOwner {\n        require(\n            OpiProfiles[msg.sender].OpiIdCounter != 0,\n            \"OpiID do not exists\"\n        );\n        delete OpiProfiles[_profileAddress];\n        emit revokedOpiID(_profileAddress);\n    }\n\n    function updateOpiID(\n        address _profileAddress,\n        string calldata _name,\n        uint256 _age,\n        uint8 _gender,\n        uint8 _role\n    ) external onlyOwner {\n        require(\n            OpiProfiles[msg.sender].OpiIdCounter != 0,\n            \"OpiID do not exists\"\n        );\n\n        OpiProfile memory UpdOpiProfile;\n\n        UpdOpiProfile = OpiProfiles[_profileAddress];\n        UpdOpiProfile.name = _name;\n        UpdOpiProfile.age = _age;\n        UpdOpiProfile.gender = Gender(_gender);\n        UpdOpiProfile.role = Role(_role);\n        OpiProfiles[_profileAddress] = UpdOpiProfile;\n\n        emit revokedOpiID(_profileAddress);\n    }\n\n    // ::::::::::::: OVVERIDES ::::::::::::: //\n    function _beforeTokenTransfer(\n        address from,\n        address to,\n        uint256 tokenId,\n        uint256 batchSize\n    ) internal virtual override {\n        require(\n            from == address(0),\n            \"SBT : not possible de Transfer your OpiId\"\n        );\n        super._beforeTokenTransfer(from, to, tokenId, batchSize);\n    }\n}\n",
  "sourcePath": "/home/saadi/coursAlyra/OpiChain/truffle/contracts/OpiChainSBT.sol",
  "compiler": {
    "name": "solc",
    "version": "0.8.17+commit.8df45f5f.Emscripten.clang"
  },
  "schemaVersion": "3.4.10",
  "updatedAt": "2022-12-04T12:23:10.191Z",
  "networkType": "ethereum",
  "devdoc": {
    "author": "Saad Igueninni",
    "details": "Inherits the OpenZepplin Ownable ,ERC721URIStorage,Counters & Strings contracts",
    "kind": "dev",
    "methods": {
      "approve(address,uint256)": {
        "details": "See {IERC721-approve}."
      },
      "balanceOf(address)": {
        "details": "See {IERC721-balanceOf}."
      },
      "getApproved(uint256)": {
        "details": "See {IERC721-getApproved}."
      },
      "isApprovedForAll(address,address)": {
        "details": "See {IERC721-isApprovedForAll}."
      },
      "name()": {
        "details": "See {IERC721Metadata-name}."
      },
      "owner()": {
        "details": "Returns the address of the current owner."
      },
      "ownerOf(uint256)": {
        "details": "See {IERC721-ownerOf}."
      },
      "renounceOwnership()": {
        "details": "Leaves the contract without owner. It will not be possible to call `onlyOwner` functions anymore. Can only be called by the current owner. NOTE: Renouncing ownership will leave the contract without an owner, thereby removing any functionality that is only available to the owner."
      },
      "safeTransferFrom(address,address,uint256)": {
        "details": "See {IERC721-safeTransferFrom}."
      },
      "safeTransferFrom(address,address,uint256,bytes)": {
        "details": "See {IERC721-safeTransferFrom}."
      },
      "setApprovalForAll(address,bool)": {
        "details": "See {IERC721-setApprovalForAll}."
      },
      "supportsInterface(bytes4)": {
        "details": "See {IERC165-supportsInterface}."
      },
      "symbol()": {
        "details": "See {IERC721Metadata-symbol}."
      },
      "tokenURI(uint256)": {
        "details": "See {IERC721Metadata-tokenURI}."
      },
      "transferFrom(address,address,uint256)": {
        "details": "See {IERC721-transferFrom}."
      },
      "transferOwnership(address)": {
        "details": "Transfers ownership of the contract to a new account (`newOwner`). Can only be called by the current owner."
      }
    },
    "title": "OpiChain SBT contract",
    "version": 1
  },
  "userdoc": {
    "kind": "user",
    "methods": {},
    "notice": "ERC721 not transferable, bound to Soul",
    "version": 1
  }
}