{
  "contractName": "OpiChainSBT",
  "abi": [
    {
      "inputs": [],
      "stateMutability": "nonpayable",
      "type": "constructor"
    },
    {
      "anonymous": false,
      "inputs": [
        {
          "indexed": true,
          "internalType": "address",
          "name": "owner",
          "type": "address"
        },
        {
          "indexed": true,
          "internalType": "address",
          "name": "approved",
          "type": "address"
        },
        {
          "indexed": true,
          "internalType": "uint256",
          "name": "tokenId",
          "type": "uint256"
        }
      ],
      "name": "Approval",
      "type": "event"
    },
    {
      "anonymous": false,
      "inputs": [
        {
          "indexed": true,
          "internalType": "address",
          "name": "owner",
          "type": "address"
        },
        {
          "indexed": true,
          "internalType": "address",
          "name": "operator",
          "type": "address"
        },
        {
          "indexed": false,
          "internalType": "bool",
          "name": "approved",
          "type": "bool"
        }
      ],
      "name": "ApprovalForAll",
      "type": "event"
    },
    {
      "anonymous": false,
      "inputs": [
        {
          "indexed": true,
          "internalType": "address",
          "name": "previousOwner",
          "type": "address"
        },
        {
          "indexed": true,
          "internalType": "address",
          "name": "newOwner",
          "type": "address"
        }
      ],
      "name": "OwnershipTransferred",
      "type": "event"
    },
    {
      "anonymous": false,
      "inputs": [
        {
          "indexed": true,
          "internalType": "address",
          "name": "from",
          "type": "address"
        },
        {
          "indexed": true,
          "internalType": "address",
          "name": "to",
          "type": "address"
        },
        {
          "indexed": true,
          "internalType": "uint256",
          "name": "tokenId",
          "type": "uint256"
        }
      ],
      "name": "Transfer",
      "type": "event"
    },
    {
      "anonymous": false,
      "inputs": [
        {
          "components": [
            {
              "internalType": "uint256",
              "name": "OpiIdCounter",
              "type": "uint256"
            },
            {
              "internalType": "string",
              "name": "name",
              "type": "string"
            },
            {
              "internalType": "enum OpiChainSBT.Gender",
              "name": "gender",
              "type": "uint8"
            },
            {
              "internalType": "uint256",
              "name": "age",
              "type": "uint256"
            },
            {
              "internalType": "enum OpiChainSBT.Role",
              "name": "role",
              "type": "uint8"
            },
            {
              "internalType": "bool",
              "name": "isOpiIdGranted",
              "type": "bool"
            }
          ],
          "indexed": false,
          "internalType": "struct OpiChainSBT.OpiProfile",
          "name": "_newOpiProfile",
          "type": "tuple"
        }
      ],
      "name": "grantedOpiID",
      "type": "event"
    },
    {
      "anonymous": false,
      "inputs": [
        {
          "indexed": false,
          "internalType": "address",
          "name": "_profileAddress",
          "type": "address"
        }
      ],
      "name": "revokedOpiID",
      "type": "event"
    },
    {
      "anonymous": false,
      "inputs": [
        {
          "indexed": false,
          "internalType": "address",
          "name": "_profileAddress",
          "type": "address"
        }
      ],
      "name": "updatedOpiID",
      "type": "event"
    },
    {
      "inputs": [
        {
          "internalType": "address",
          "name": "to",
          "type": "address"
        },
        {
          "internalType": "uint256",
          "name": "tokenId",
          "type": "uint256"
        }
      ],
      "name": "approve",
      "outputs": [],
      "stateMutability": "nonpayable",
      "type": "function"
    },
    {
      "inputs": [
        {
          "internalType": "address",
          "name": "owner",
          "type": "address"
        }
      ],
      "name": "balanceOf",
      "outputs": [
        {
          "internalType": "uint256",
          "name": "",
          "type": "uint256"
        }
      ],
      "stateMutability": "view",
      "type": "function",
      "constant": true
    },
    {
      "inputs": [
        {
          "internalType": "uint256",
          "name": "tokenId",
          "type": "uint256"
        }
      ],
      "name": "getApproved",
      "outputs": [
        {
          "internalType": "address",
          "name": "",
          "type": "address"
        }
      ],
      "stateMutability": "view",
      "type": "function",
      "constant": true
    },
    {
      "inputs": [
        {
          "internalType": "address",
          "name": "owner",
          "type": "address"
        },
        {
          "internalType": "address",
          "name": "operator",
          "type": "address"
        }
      ],
      "name": "isApprovedForAll",
      "outputs": [
        {
          "internalType": "bool",
          "name": "",
          "type": "bool"
        }
      ],
      "stateMutability": "view",
      "type": "function",
      "constant": true
    },
    {
      "inputs": [],
      "name": "name",
      "outputs": [
        {
          "internalType": "string",
          "name": "",
          "type": "string"
        }
      ],
      "stateMutability": "view",
      "type": "function",
      "constant": true
    },
    {
      "inputs": [],
      "name": "owner",
      "outputs": [
        {
          "internalType": "address",
          "name": "",
          "type": "address"
        }
      ],
      "stateMutability": "view",
      "type": "function",
      "constant": true
    },
    {
      "inputs": [
        {
          "internalType": "uint256",
          "name": "tokenId",
          "type": "uint256"
        }
      ],
      "name": "ownerOf",
      "outputs": [
        {
          "internalType": "address",
          "name": "",
          "type": "address"
        }
      ],
      "stateMutability": "view",
      "type": "function",
      "constant": true
    },
    {
      "inputs": [],
      "name": "renounceOwnership",
      "outputs": [],
      "stateMutability": "nonpayable",
      "type": "function"
    },
    {
      "inputs": [
        {
          "internalType": "address",
          "name": "from",
          "type": "address"
        },
        {
          "internalType": "address",
          "name": "to",
          "type": "address"
        },
        {
          "internalType": "uint256",
          "name": "tokenId",
          "type": "uint256"
        }
      ],
      "name": "safeTransferFrom",
      "outputs": [],
      "stateMutability": "nonpayable",
      "type": "function"
    },
    {
      "inputs": [
        {
          "internalType": "address",
          "name": "from",
          "type": "address"
        },
        {
          "internalType": "address",
          "name": "to",
          "type": "address"
        },
        {
          "internalType": "uint256",
          "name": "tokenId",
          "type": "uint256"
        },
        {
          "internalType": "bytes",
          "name": "data",
          "type": "bytes"
        }
      ],
      "name": "safeTransferFrom",
      "outputs": [],
      "stateMutability": "nonpayable",
      "type": "function"
    },
    {
      "inputs": [
        {
          "internalType": "address",
          "name": "operator",
          "type": "address"
        },
        {
          "internalType": "bool",
          "name": "approved",
          "type": "bool"
        }
      ],
      "name": "setApprovalForAll",
      "outputs": [],
      "stateMutability": "nonpayable",
      "type": "function"
    },
    {
      "inputs": [
        {
          "internalType": "bytes4",
          "name": "interfaceId",
          "type": "bytes4"
        }
      ],
      "name": "supportsInterface",
      "outputs": [
        {
          "internalType": "bool",
          "name": "",
          "type": "bool"
        }
      ],
      "stateMutability": "view",
      "type": "function",
      "constant": true
    },
    {
      "inputs": [],
      "name": "symbol",
      "outputs": [
        {
          "internalType": "string",
          "name": "",
          "type": "string"
        }
      ],
      "stateMutability": "view",
      "type": "function",
      "constant": true
    },
    {
      "inputs": [
        {
          "internalType": "uint256",
          "name": "tokenId",
          "type": "uint256"
        }
      ],
      "name": "tokenURI",
      "outputs": [
        {
          "internalType": "string",
          "name": "",
          "type": "string"
        }
      ],
      "stateMutability": "view",
      "type": "function",
      "constant": true
    },
    {
      "inputs": [
        {
          "internalType": "address",
          "name": "from",
          "type": "address"
        },
        {
          "internalType": "address",
          "name": "to",
          "type": "address"
        },
        {
          "internalType": "uint256",
          "name": "tokenId",
          "type": "uint256"
        }
      ],
      "name": "transferFrom",
      "outputs": [],
      "stateMutability": "nonpayable",
      "type": "function"
    },
    {
      "inputs": [
        {
          "internalType": "address",
          "name": "newOwner",
          "type": "address"
        }
      ],
      "name": "transferOwnership",
      "outputs": [],
      "stateMutability": "nonpayable",
      "type": "function"
    },
    {
      "inputs": [
        {
          "internalType": "address",
          "name": "_profileAddress",
          "type": "address"
        }
      ],
      "name": "getOpiID",
      "outputs": [
        {
          "components": [
            {
              "internalType": "uint256",
              "name": "OpiIdCounter",
              "type": "uint256"
            },
            {
              "internalType": "string",
              "name": "name",
              "type": "string"
            },
            {
              "internalType": "enum OpiChainSBT.Gender",
              "name": "gender",
              "type": "uint8"
            },
            {
              "internalType": "uint256",
              "name": "age",
              "type": "uint256"
            },
            {
              "internalType": "enum OpiChainSBT.Role",
              "name": "role",
              "type": "uint8"
            },
            {
              "internalType": "bool",
              "name": "isOpiIdGranted",
              "type": "bool"
            }
          ],
          "internalType": "struct OpiChainSBT.OpiProfile",
          "name": "",
          "type": "tuple"
        }
      ],
      "stateMutability": "view",
      "type": "function",
      "constant": true
    },
    {
      "inputs": [
        {
          "internalType": "address",
          "name": "_profileAddress",
          "type": "address"
        }
      ],
      "name": "isGrantedOpiID",
      "outputs": [
        {
          "internalType": "bool",
          "name": "",
          "type": "bool"
        }
      ],
      "stateMutability": "view",
      "type": "function",
      "constant": true
    },
    {
      "inputs": [
        {
          "internalType": "address",
          "name": "_profileAddress",
          "type": "address"
        }
      ],
      "name": "isSounder",
      "outputs": [
        {
          "internalType": "bool",
          "name": "",
          "type": "bool"
        }
      ],
      "stateMutability": "view",
      "type": "function",
      "constant": true
    },
    {
      "inputs": [
        {
          "internalType": "address",
          "name": "_profileAddress",
          "type": "address"
        }
      ],
      "name": "isSurveyed",
      "outputs": [
        {
          "internalType": "bool",
          "name": "",
          "type": "bool"
        }
      ],
      "stateMutability": "view",
      "type": "function",
      "constant": true
    },
    {
      "inputs": [
        {
          "internalType": "address",
          "name": "_profileAddress",
          "type": "address"
        },
        {
          "internalType": "string",
          "name": "_name",
          "type": "string"
        },
        {
          "internalType": "uint256",
          "name": "_age",
          "type": "uint256"
        },
        {
          "internalType": "uint8",
          "name": "_gender",
          "type": "uint8"
        },
        {
          "internalType": "uint8",
          "name": "_role",
          "type": "uint8"
        }
      ],
      "name": "grantOpiID",
      "outputs": [
        {
          "internalType": "uint256",
          "name": "",
          "type": "uint256"
        }
      ],
      "stateMutability": "nonpayable",
      "type": "function"
    },
    {
      "inputs": [
        {
          "internalType": "address",
          "name": "_profileAddress",
          "type": "address"
        }
      ],
      "name": "revokeOpiID",
      "outputs": [],
      "stateMutability": "nonpayable",
      "type": "function"
    },
    {
      "inputs": [
        {
          "internalType": "address",
          "name": "_profileAddress",
          "type": "address"
        },
        {
          "internalType": "string",
          "name": "_name",
          "type": "string"
        },
        {
          "internalType": "uint256",
          "name": "_age",
          "type": "uint256"
        },
        {
          "internalType": "uint8",
          "name": "_gender",
          "type": "uint8"
        },
        {
          "internalType": "uint8",
          "name": "_role",
          "type": "uint8"
        }
      ],
      "name": "updateOpiID",
      "outputs": [],
      "stateMutability": "nonpayable",
      "type": "function"
    }
  ],
  "bytecode": "0x60806040523480156200001157600080fd5b506040518060400160405280600a81526020017f4f7069436861696e4944000000000000000000000000000000000000000000008152506040518060400160405280600581526020017f4f7069496400000000000000000000000000000000000000000000000000000081525081600090816200008f919062000412565b508060019081620000a1919062000412565b505050620000c4620000b8620000ca60201b60201c565b620000d260201b60201c565b620004f9565b600033905090565b6000600760009054906101000a900473ffffffffffffffffffffffffffffffffffffffff16905081600760006101000a81548173ffffffffffffffffffffffffffffffffffffffff021916908373ffffffffffffffffffffffffffffffffffffffff1602179055508173ffffffffffffffffffffffffffffffffffffffff168173ffffffffffffffffffffffffffffffffffffffff167f8be0079c531659141344cd1fd0a4f28419497f9722a3daafe3b4186f6b6457e060405160405180910390a35050565b600081519050919050565b7f4e487b7100000000000000000000000000000000000000000000000000000000600052604160045260246000fd5b7f4e487b7100000000000000000000000000000000000000000000000000000000600052602260045260246000fd5b600060028204905060018216806200021a57607f821691505b60208210810362000230576200022f620001d2565b5b50919050565b60008190508160005260206000209050919050565b60006020601f8301049050919050565b600082821b905092915050565b6000600883026200029a7fffffffffffffffffffffffffffffffffffffffffffffffffffffffffffffffff826200025b565b620002a686836200025b565b95508019841693508086168417925050509392505050565b6000819050919050565b6000819050919050565b6000620002f3620002ed620002e784620002be565b620002c8565b620002be565b9050919050565b6000819050919050565b6200030f83620002d2565b620003276200031e82620002fa565b84845462000268565b825550505050565b600090565b6200033e6200032f565b6200034b81848462000304565b505050565b5b8181101562000373576200036760008262000334565b60018101905062000351565b5050565b601f821115620003c2576200038c8162000236565b62000397846200024b565b81016020851015620003a7578190505b620003bf620003b6856200024b565b83018262000350565b50505b505050565b600082821c905092915050565b6000620003e760001984600802620003c7565b1980831691505092915050565b6000620004028383620003d4565b9150826002028217905092915050565b6200041d8262000198565b67ffffffffffffffff811115620004395762000438620001a3565b5b62000445825462000201565b6200045282828562000377565b600060209050601f8311600181146200048a576000841562000475578287015190505b620004818582620003f4565b865550620004f1565b601f1984166200049a8662000236565b60005b82811015620004c4578489015182556001820191506020850194506020810190506200049d565b86831015620004e45784890151620004e0601f891682620003d4565b8355505b6001600288020188555050505b505050505050565b6143c980620005096000396000f3fe608060405234801561001057600080fd5b506004361061014d5760003560e01c806370a08231116100c3578063b88d4fde1161007c578063b88d4fde146103c2578063c87b56dd146103de578063d9d1ddbe1461040e578063db7e02131461043e578063e985e9c51461045a578063f2fde38b1461048a5761014d565b806370a0823114610300578063715018a61461033057806373addd8b1461033a5780638da5cb5b1461036a57806395d89b4114610388578063a22cb465146103a65761014d565b806323b872dd1161011557806323b872dd146102085780633ee5c24f1461022457806340cfeb4e1461025457806342842e0e146102845780635f23cbca146102a05780636352211e146102d05761014d565b806301ffc9a71461015257806306fdde0314610182578063081812fc146101a0578063095ea7b3146101d05780631a71b6d2146101ec575b600080fd5b61016c60048036038101906101679190612bdc565b6104a6565b6040516101799190612c24565b60405180910390f35b61018a610588565b6040516101979190612ccf565b60405180910390f35b6101ba60048036038101906101b59190612d27565b61061a565b6040516101c79190612d95565b60405180910390f35b6101ea60048036038101906101e59190612ddc565b610660565b005b61020660048036038101906102019190612eba565b610777565b005b610222600480360381019061021d9190612f54565b610b9d565b005b61023e60048036038101906102399190612fa7565b610bfd565b60405161024b9190612c24565b60405180910390f35b61026e60048036038101906102699190612fa7565b610c5e565b60405161027b9190612c24565b60405180910390f35b61029e60048036038101906102999190612f54565b610d3e565b005b6102ba60048036038101906102b59190613104565b610d5e565b6040516102c791906131aa565b60405180910390f35b6102ea60048036038101906102e59190612d27565b611069565b6040516102f79190612d95565b60405180910390f35b61031a60048036038101906103159190612fa7565b6110ef565b60405161032791906131aa565b60405180910390f35b6103386111a6565b005b610354600480360381019061034f9190612fa7565b6111ba565b6040516103619190613375565b60405180910390f35b6103726113e3565b60405161037f9190612d95565b60405180910390f35b61039061140d565b60405161039d9190612ccf565b60405180910390f35b6103c060048036038101906103bb91906133c3565b61149f565b005b6103dc60048036038101906103d791906134a4565b6114b5565b005b6103f860048036038101906103f39190612d27565b611517565b6040516104059190612ccf565b60405180910390f35b61042860048036038101906104239190612fa7565b611629565b6040516104359190612c24565b60405180910390f35b61045860048036038101906104539190612fa7565b611708565b005b610474600480360381019061046f9190613527565b61186d565b6040516104819190612c24565b60405180910390f35b6104a4600480360381019061049f9190612fa7565b611901565b005b60007f80ac58cd000000000000000000000000000000000000000000000000000000007bffffffffffffffffffffffffffffffffffffffffffffffffffffffff1916827bffffffffffffffffffffffffffffffffffffffffffffffffffffffff1916148061057157507f5b5e139f000000000000000000000000000000000000000000000000000000007bffffffffffffffffffffffffffffffffffffffffffffffffffffffff1916827bffffffffffffffffffffffffffffffffffffffffffffffffffffffff1916145b80610581575061058082611984565b5b9050919050565b60606000805461059790613596565b80601f01602080910402602001604051908101604052809291908181526020018280546105c390613596565b80156106105780601f106105e557610100808354040283529160200191610610565b820191906000526020600020905b8154815290600101906020018083116105f357829003601f168201915b5050505050905090565b6000610625826119ee565b6004600083815260200190815260200160002060009054906101000a900473ffffffffffffffffffffffffffffffffffffffff169050919050565b600061066b82611069565b90508073ffffffffffffffffffffffffffffffffffffffff168373ffffffffffffffffffffffffffffffffffffffff16036106db576040517f08c379a00000000000000000000000000000000000000000000000000000000081526004016106d290613639565b60405180910390fd5b8073ffffffffffffffffffffffffffffffffffffffff166106fa611a39565b73ffffffffffffffffffffffffffffffffffffffff161480610729575061072881610723611a39565b61186d565b5b610768576040517f08c379a000000000000000000000000000000000000000000000000000000000815260040161075f906136cb565b60405180910390fd5b6107728383611a41565b505050565b61077f611afa565b6000600860003373ffffffffffffffffffffffffffffffffffffffff1673ffffffffffffffffffffffffffffffffffffffff1681526020019081526020016000206000015403610804576040517f08c379a00000000000000000000000000000000000000000000000000000000081526004016107fb90613737565b60405180910390fd5b61080c612ab7565b600860008873ffffffffffffffffffffffffffffffffffffffff1673ffffffffffffffffffffffffffffffffffffffff1681526020019081526020016000206040518060c00160405290816000820154815260200160018201805461087090613596565b80601f016020809104026020016040519081016040528092919081815260200182805461089c90613596565b80156108e95780601f106108be576101008083540402835291602001916108e9565b820191906000526020600020905b8154815290600101906020018083116108cc57829003601f168201915b505050505081526020016002820160009054906101000a900460ff1660018111156109175761091661321e565b5b60018111156109295761092861321e565b5b8152602001600382015481526020016004820160009054906101000a900460ff16600181111561095c5761095b61321e565b5b600181111561096e5761096d61321e565b5b81526020016004820160019054906101000a900460ff161515151581525050905085858080601f016020809104026020016040519081016040528093929190818152602001838380828437600081840152601f19601f820116905080830192505050505050508160200181905250838160600181815250508260ff1660018111156109fc576109fb61321e565b5b81604001906001811115610a1357610a1261321e565b5b90816001811115610a2757610a2661321e565b5b815250508160ff166001811115610a4157610a4061321e565b5b81608001906001811115610a5857610a5761321e565b5b90816001811115610a6c57610a6b61321e565b5b8152505080600860008973ffffffffffffffffffffffffffffffffffffffff1673ffffffffffffffffffffffffffffffffffffffff168152602001908152602001600020600082015181600001556020820151816001019081610acf9190613903565b5060408201518160020160006101000a81548160ff02191690836001811115610afb57610afa61321e565b5b02179055506060820151816003015560808201518160040160006101000a81548160ff02191690836001811115610b3557610b3461321e565b5b021790555060a08201518160040160016101000a81548160ff0219169083151502179055509050507ffbe677b07b780a20c8f6f9ab6061b5dec9604f4b7bacd0b4172b887d6c882f1187604051610b8c9190612d95565b60405180910390a150505050505050565b610bae610ba8611a39565b82611b78565b610bed576040517f08c379a0000000000000000000000000000000000000000000000000000000008152600401610be490613a47565b60405180910390fd5b610bf8838383611c0d565b505050565b6000610c07611afa565b600860008373ffffffffffffffffffffffffffffffffffffffff1673ffffffffffffffffffffffffffffffffffffffff16815260200190815260200160002060040160019054906101000a900460ff169050919050565b6000610c68611afa565b600860008373ffffffffffffffffffffffffffffffffffffffff1673ffffffffffffffffffffffffffffffffffffffff16815260200190815260200160002060040160019054906101000a900460ff168015610d37575060006001811115610cd357610cd261321e565b5b600860008473ffffffffffffffffffffffffffffffffffffffff1673ffffffffffffffffffffffffffffffffffffffff16815260200190815260200160002060040160009054906101000a900460ff166001811115610d3557610d3461321e565b5b145b9050919050565b610d59838383604051806020016040528060008152506114b5565b505050565b6000610d68611afa565b600860003373ffffffffffffffffffffffffffffffffffffffff1673ffffffffffffffffffffffffffffffffffffffff16815260200190815260200160002060040160019054906101000a900460ff1615610df8576040517f08c379a0000000000000000000000000000000000000000000000000000000008152600401610def90613ab3565b60405180910390fd5b610e026009611f06565b6000610e0e6009611f1c565b9050610e18612ab7565b81816000018181525050868160200181905250858160600181815250508460ff166001811115610e4b57610e4a61321e565b5b81604001906001811115610e6257610e6161321e565b5b90816001811115610e7657610e7561321e565b5b815250508360ff166001811115610e9057610e8f61321e565b5b81608001906001811115610ea757610ea661321e565b5b90816001811115610ebb57610eba61321e565b5b8152505060018160a001901515908115158152505080600860008a73ffffffffffffffffffffffffffffffffffffffff1673ffffffffffffffffffffffffffffffffffffffff168152602001908152602001600020600082015181600001556020820151816001019081610f2f9190613903565b5060408201518160020160006101000a81548160ff02191690836001811115610f5b57610f5a61321e565b5b02179055506060820151816003015560808201518160040160006101000a81548160ff02191690836001811115610f9557610f9461321e565b5b021790555060a08201518160040160016101000a81548160ff021916908315150217905550905050610fc78883611f2a565b6000610fd283612147565b9050600060405180608001604052806044815260200161435060449139905060008183604051602001611006929190613b35565b60405160208183030381529060405290506110218582612215565b7fb82f9ae6643517fa1e435850fb48a60e89bf1821da9b0bdc113da9e425f38dd3846040516110509190613375565b60405180910390a1849550505050505095945050505050565b60008061107583612282565b9050600073ffffffffffffffffffffffffffffffffffffffff168173ffffffffffffffffffffffffffffffffffffffff16036110e6576040517f08c379a00000000000000000000000000000000000000000000000000000000081526004016110dd90613bb4565b60405180910390fd5b80915050919050565b60008073ffffffffffffffffffffffffffffffffffffffff168273ffffffffffffffffffffffffffffffffffffffff160361115f576040517f08c379a000000000000000000000000000000000000000000000000000000000815260040161115690613c46565b60405180910390fd5b600360008373ffffffffffffffffffffffffffffffffffffffff1673ffffffffffffffffffffffffffffffffffffffff168152602001908152602001600020549050919050565b6111ae611afa565b6111b860006122bf565b565b6111c2612ab7565b6111ca611afa565b81600860008273ffffffffffffffffffffffffffffffffffffffff1673ffffffffffffffffffffffffffffffffffffffff16815260200190815260200160002060040160019054906101000a900460ff1661125a576040517f08c379a000000000000000000000000000000000000000000000000000000000815260040161125190613737565b60405180910390fd5b600860008473ffffffffffffffffffffffffffffffffffffffff1673ffffffffffffffffffffffffffffffffffffffff1681526020019081526020016000206040518060c0016040529081600082015481526020016001820180546112be90613596565b80601f01602080910402602001604051908101604052809291908181526020018280546112ea90613596565b80156113375780601f1061130c57610100808354040283529160200191611337565b820191906000526020600020905b81548152906001019060200180831161131a57829003601f168201915b505050505081526020016002820160009054906101000a900460ff1660018111156113655761136461321e565b5b60018111156113775761137661321e565b5b8152602001600382015481526020016004820160009054906101000a900460ff1660018111156113aa576113a961321e565b5b60018111156113bc576113bb61321e565b5b81526020016004820160019054906101000a900460ff161515151581525050915050919050565b6000600760009054906101000a900473ffffffffffffffffffffffffffffffffffffffff16905090565b60606001805461141c90613596565b80601f016020809104026020016040519081016040528092919081815260200182805461144890613596565b80156114955780601f1061146a57610100808354040283529160200191611495565b820191906000526020600020905b81548152906001019060200180831161147857829003601f168201915b5050505050905090565b6114b16114aa611a39565b8383612385565b5050565b6114c66114c0611a39565b83611b78565b611505576040517f08c379a00000000000000000000000000000000000000000000000000000000081526004016114fc90613a47565b60405180910390fd5b611511848484846124f1565b50505050565b6060611522826119ee565b600060066000848152602001908152602001600020805461154290613596565b80601f016020809104026020016040519081016040528092919081815260200182805461156e90613596565b80156115bb5780601f10611590576101008083540402835291602001916115bb565b820191906000526020600020905b81548152906001019060200180831161159e57829003601f168201915b5050505050905060006115cc61254d565b905060008151036115e1578192505050611624565b6000825111156116165780826040516020016115fe929190613c66565b60405160208183030381529060405292505050611624565b61161f84612564565b925050505b919050565b6000611633611afa565b600860008373ffffffffffffffffffffffffffffffffffffffff1673ffffffffffffffffffffffffffffffffffffffff16815260200190815260200160002060040160019054906101000a900460ff168015611701575060018081111561169d5761169c61321e565b5b600860008473ffffffffffffffffffffffffffffffffffffffff1673ffffffffffffffffffffffffffffffffffffffff16815260200190815260200160002060040160009054906101000a900460ff1660018111156116ff576116fe61321e565b5b145b9050919050565b611710611afa565b6000600860003373ffffffffffffffffffffffffffffffffffffffff1673ffffffffffffffffffffffffffffffffffffffff1681526020019081526020016000206000015403611795576040517f08c379a000000000000000000000000000000000000000000000000000000000815260040161178c90613737565b60405180910390fd5b600860008273ffffffffffffffffffffffffffffffffffffffff1673ffffffffffffffffffffffffffffffffffffffff1681526020019081526020016000206000808201600090556001820160006117ed9190612b13565b6002820160006101000a81549060ff021916905560038201600090556004820160006101000a81549060ff02191690556004820160016101000a81549060ff021916905550507ffbe677b07b780a20c8f6f9ab6061b5dec9604f4b7bacd0b4172b887d6c882f11816040516118629190612d95565b60405180910390a150565b6000600560008473ffffffffffffffffffffffffffffffffffffffff1673ffffffffffffffffffffffffffffffffffffffff16815260200190815260200160002060008373ffffffffffffffffffffffffffffffffffffffff1673ffffffffffffffffffffffffffffffffffffffff16815260200190815260200160002060009054906101000a900460ff16905092915050565b611909611afa565b600073ffffffffffffffffffffffffffffffffffffffff168173ffffffffffffffffffffffffffffffffffffffff1603611978576040517f08c379a000000000000000000000000000000000000000000000000000000000815260040161196f90613cfc565b60405180910390fd5b611981816122bf565b50565b60007f01ffc9a7000000000000000000000000000000000000000000000000000000007bffffffffffffffffffffffffffffffffffffffffffffffffffffffff1916827bffffffffffffffffffffffffffffffffffffffffffffffffffffffff1916149050919050565b6119f7816125cc565b611a36576040517f08c379a0000000000000000000000000000000000000000000000000000000008152600401611a2d90613bb4565b60405180910390fd5b50565b600033905090565b816004600083815260200190815260200160002060006101000a81548173ffffffffffffffffffffffffffffffffffffffff021916908373ffffffffffffffffffffffffffffffffffffffff160217905550808273ffffffffffffffffffffffffffffffffffffffff16611ab483611069565b73ffffffffffffffffffffffffffffffffffffffff167f8c5be1e5ebec7d5bd14f71427d1e84f3dd0314c0f7b2291e5b200ac8c7c3b92560405160405180910390a45050565b611b02611a39565b73ffffffffffffffffffffffffffffffffffffffff16611b206113e3565b73ffffffffffffffffffffffffffffffffffffffff1614611b76576040517f08c379a0000000000000000000000000000000000000000000000000000000008152600401611b6d90613d68565b60405180910390fd5b565b600080611b8483611069565b90508073ffffffffffffffffffffffffffffffffffffffff168473ffffffffffffffffffffffffffffffffffffffff161480611bc65750611bc5818561186d565b5b80611c0457508373ffffffffffffffffffffffffffffffffffffffff16611bec8461061a565b73ffffffffffffffffffffffffffffffffffffffff16145b91505092915050565b8273ffffffffffffffffffffffffffffffffffffffff16611c2d82611069565b73ffffffffffffffffffffffffffffffffffffffff1614611c83576040517f08c379a0000000000000000000000000000000000000000000000000000000008152600401611c7a90613dfa565b60405180910390fd5b600073ffffffffffffffffffffffffffffffffffffffff168273ffffffffffffffffffffffffffffffffffffffff1603611cf2576040517f08c379a0000000000000000000000000000000000000000000000000000000008152600401611ce990613e8c565b60405180910390fd5b611cff838383600161260d565b8273ffffffffffffffffffffffffffffffffffffffff16611d1f82611069565b73ffffffffffffffffffffffffffffffffffffffff1614611d75576040517f08c379a0000000000000000000000000000000000000000000000000000000008152600401611d6c90613dfa565b60405180910390fd5b6004600082815260200190815260200160002060006101000a81549073ffffffffffffffffffffffffffffffffffffffff02191690556001600360008573ffffffffffffffffffffffffffffffffffffffff1673ffffffffffffffffffffffffffffffffffffffff168152602001908152602001600020600082825403925050819055506001600360008473ffffffffffffffffffffffffffffffffffffffff1673ffffffffffffffffffffffffffffffffffffffff16815260200190815260200160002060008282540192505081905550816002600083815260200190815260200160002060006101000a81548173ffffffffffffffffffffffffffffffffffffffff021916908373ffffffffffffffffffffffffffffffffffffffff160217905550808273ffffffffffffffffffffffffffffffffffffffff168473ffffffffffffffffffffffffffffffffffffffff167fddf252ad1be2c89b69c2b068fc378daa952ba7f163c4a11628f55a4df523b3ef60405160405180910390a4611f01838383600161268e565b505050565b6001816000016000828254019250508190555050565b600081600001549050919050565b600073ffffffffffffffffffffffffffffffffffffffff168273ffffffffffffffffffffffffffffffffffffffff1603611f99576040517f08c379a0000000000000000000000000000000000000000000000000000000008152600401611f9090613ef8565b60405180910390fd5b611fa2816125cc565b15611fe2576040517f08c379a0000000000000000000000000000000000000000000000000000000008152600401611fd990613f64565b60405180910390fd5b611ff060008383600161260d565b611ff9816125cc565b15612039576040517f08c379a000000000000000000000000000000000000000000000000000000000815260040161203090613f64565b60405180910390fd5b6001600360008473ffffffffffffffffffffffffffffffffffffffff1673ffffffffffffffffffffffffffffffffffffffff16815260200190815260200160002060008282540192505081905550816002600083815260200190815260200160002060006101000a81548173ffffffffffffffffffffffffffffffffffffffff021916908373ffffffffffffffffffffffffffffffffffffffff160217905550808273ffffffffffffffffffffffffffffffffffffffff16600073ffffffffffffffffffffffffffffffffffffffff167fddf252ad1be2c89b69c2b068fc378daa952ba7f163c4a11628f55a4df523b3ef60405160405180910390a461214360008383600161268e565b5050565b60606000600161215684612694565b01905060008167ffffffffffffffff81111561217557612174612fd9565b5b6040519080825280601f01601f1916602001820160405280156121a75781602001600182028036833780820191505090505b509050600082602001820190505b60011561220a578080600190039150507f3031323334353637383961626364656600000000000000000000000000000000600a86061a8153600a85816121fe576121fd613f84565b5b049450600085036121b5575b819350505050919050565b61221e826125cc565b61225d576040517f08c379a000000000000000000000000000000000000000000000000000000000815260040161225490614025565b60405180910390fd5b8060066000848152602001908152602001600020908161227d9190613903565b505050565b60006002600083815260200190815260200160002060009054906101000a900473ffffffffffffffffffffffffffffffffffffffff169050919050565b6000600760009054906101000a900473ffffffffffffffffffffffffffffffffffffffff16905081600760006101000a81548173ffffffffffffffffffffffffffffffffffffffff021916908373ffffffffffffffffffffffffffffffffffffffff1602179055508173ffffffffffffffffffffffffffffffffffffffff168173ffffffffffffffffffffffffffffffffffffffff167f8be0079c531659141344cd1fd0a4f28419497f9722a3daafe3b4186f6b6457e060405160405180910390a35050565b8173ffffffffffffffffffffffffffffffffffffffff168373ffffffffffffffffffffffffffffffffffffffff16036123f3576040517f08c379a00000000000000000000000000000000000000000000000000000000081526004016123ea90614091565b60405180910390fd5b80600560008573ffffffffffffffffffffffffffffffffffffffff1673ffffffffffffffffffffffffffffffffffffffff16815260200190815260200160002060008473ffffffffffffffffffffffffffffffffffffffff1673ffffffffffffffffffffffffffffffffffffffff16815260200190815260200160002060006101000a81548160ff0219169083151502179055508173ffffffffffffffffffffffffffffffffffffffff168373ffffffffffffffffffffffffffffffffffffffff167f17307eab39ab6107e8899845ad3d59bd9653f200f220920489ca2b5937696c31836040516124e49190612c24565b60405180910390a3505050565b6124fc848484611c0d565b612508848484846127e7565b612547576040517f08c379a000000000000000000000000000000000000000000000000000000000815260040161253e90614123565b60405180910390fd5b50505050565b606060405180602001604052806000815250905090565b606061256f826119ee565b600061257961254d565b9050600081511161259957604051806020016040528060008152506125c4565b806125a384612147565b6040516020016125b4929190613c66565b6040516020818303038152906040525b915050919050565b60008073ffffffffffffffffffffffffffffffffffffffff166125ee83612282565b73ffffffffffffffffffffffffffffffffffffffff1614159050919050565b600073ffffffffffffffffffffffffffffffffffffffff168473ffffffffffffffffffffffffffffffffffffffff161461267c576040517f08c379a0000000000000000000000000000000000000000000000000000000008152600401612673906141b5565b60405180910390fd5b6126888484848461296e565b50505050565b50505050565b600080600090507a184f03e93ff9f4daa797ed6e38ed64bf6a1f01000000000000000083106126f2577a184f03e93ff9f4daa797ed6e38ed64bf6a1f01000000000000000083816126e8576126e7613f84565b5b0492506040810190505b6d04ee2d6d415b85acef8100000000831061272f576d04ee2d6d415b85acef8100000000838161272557612724613f84565b5b0492506020810190505b662386f26fc10000831061275e57662386f26fc10000838161275457612753613f84565b5b0492506010810190505b6305f5e1008310612787576305f5e100838161277d5761277c613f84565b5b0492506008810190505b61271083106127ac5761271083816127a2576127a1613f84565b5b0492506004810190505b606483106127cf57606483816127c5576127c4613f84565b5b0492506002810190505b600a83106127de576001810190505b80915050919050565b60006128088473ffffffffffffffffffffffffffffffffffffffff16612a94565b15612961578373ffffffffffffffffffffffffffffffffffffffff1663150b7a02612831611a39565b8786866040518563ffffffff1660e01b8152600401612853949392919061422a565b6020604051808303816000875af192505050801561288f57506040513d601f19601f8201168201806040525081019061288c919061428b565b60015b612911573d80600081146128bf576040519150601f19603f3d011682016040523d82523d6000602084013e6128c4565b606091505b506000815103612909576040517f08c379a000000000000000000000000000000000000000000000000000000000815260040161290090614123565b60405180910390fd5b805181602001fd5b63150b7a0260e01b7bffffffffffffffffffffffffffffffffffffffffffffffffffffffff1916817bffffffffffffffffffffffffffffffffffffffffffffffffffffffff191614915050612966565b600190505b949350505050565b6001811115612a8e57600073ffffffffffffffffffffffffffffffffffffffff168473ffffffffffffffffffffffffffffffffffffffff1614612a025780600360008673ffffffffffffffffffffffffffffffffffffffff1673ffffffffffffffffffffffffffffffffffffffff16815260200190815260200160002060008282546129fa91906142e7565b925050819055505b600073ffffffffffffffffffffffffffffffffffffffff168373ffffffffffffffffffffffffffffffffffffffff1614612a8d5780600360008573ffffffffffffffffffffffffffffffffffffffff1673ffffffffffffffffffffffffffffffffffffffff1681526020019081526020016000206000828254612a85919061431b565b925050819055505b5b50505050565b6000808273ffffffffffffffffffffffffffffffffffffffff163b119050919050565b6040518060c00160405280600081526020016060815260200160006001811115612ae457612ae361321e565b5b81526020016000815260200160006001811115612b0457612b0361321e565b5b81526020016000151581525090565b508054612b1f90613596565b6000825580601f10612b315750612b50565b601f016020900490600052602060002090810190612b4f9190612b53565b5b50565b5b80821115612b6c576000816000905550600101612b54565b5090565b6000604051905090565b600080fd5b600080fd5b60007fffffffff0000000000000000000000000000000000000000000000000000000082169050919050565b612bb981612b84565b8114612bc457600080fd5b50565b600081359050612bd681612bb0565b92915050565b600060208284031215612bf257612bf1612b7a565b5b6000612c0084828501612bc7565b91505092915050565b60008115159050919050565b612c1e81612c09565b82525050565b6000602082019050612c396000830184612c15565b92915050565b600081519050919050565b600082825260208201905092915050565b60005b83811015612c79578082015181840152602081019050612c5e565b60008484015250505050565b6000601f19601f8301169050919050565b6000612ca182612c3f565b612cab8185612c4a565b9350612cbb818560208601612c5b565b612cc481612c85565b840191505092915050565b60006020820190508181036000830152612ce98184612c96565b905092915050565b6000819050919050565b612d0481612cf1565b8114612d0f57600080fd5b50565b600081359050612d2181612cfb565b92915050565b600060208284031215612d3d57612d3c612b7a565b5b6000612d4b84828501612d12565b91505092915050565b600073ffffffffffffffffffffffffffffffffffffffff82169050919050565b6000612d7f82612d54565b9050919050565b612d8f81612d74565b82525050565b6000602082019050612daa6000830184612d86565b92915050565b612db981612d74565b8114612dc457600080fd5b50565b600081359050612dd681612db0565b92915050565b60008060408385031215612df357612df2612b7a565b5b6000612e0185828601612dc7565b9250506020612e1285828601612d12565b9150509250929050565b600080fd5b600080fd5b600080fd5b60008083601f840112612e4157612e40612e1c565b5b8235905067ffffffffffffffff811115612e5e57612e5d612e21565b5b602083019150836001820283011115612e7a57612e79612e26565b5b9250929050565b600060ff82169050919050565b612e9781612e81565b8114612ea257600080fd5b50565b600081359050612eb481612e8e565b92915050565b60008060008060008060a08789031215612ed757612ed6612b7a565b5b6000612ee589828a01612dc7565b965050602087013567ffffffffffffffff811115612f0657612f05612b7f565b5b612f1289828a01612e2b565b95509550506040612f2589828a01612d12565b9350506060612f3689828a01612ea5565b9250506080612f4789828a01612ea5565b9150509295509295509295565b600080600060608486031215612f6d57612f6c612b7a565b5b6000612f7b86828701612dc7565b9350506020612f8c86828701612dc7565b9250506040612f9d86828701612d12565b9150509250925092565b600060208284031215612fbd57612fbc612b7a565b5b6000612fcb84828501612dc7565b91505092915050565b600080fd5b7f4e487b7100000000000000000000000000000000000000000000000000000000600052604160045260246000fd5b61301182612c85565b810181811067ffffffffffffffff821117156130305761302f612fd9565b5b80604052505050565b6000613043612b70565b905061304f8282613008565b919050565b600067ffffffffffffffff82111561306f5761306e612fd9565b5b61307882612c85565b9050602081019050919050565b82818337600083830152505050565b60006130a76130a284613054565b613039565b9050828152602081018484840111156130c3576130c2612fd4565b5b6130ce848285613085565b509392505050565b600082601f8301126130eb576130ea612e1c565b5b81356130fb848260208601613094565b91505092915050565b600080600080600060a086880312156131205761311f612b7a565b5b600061312e88828901612dc7565b955050602086013567ffffffffffffffff81111561314f5761314e612b7f565b5b61315b888289016130d6565b945050604061316c88828901612d12565b935050606061317d88828901612ea5565b925050608061318e88828901612ea5565b9150509295509295909350565b6131a481612cf1565b82525050565b60006020820190506131bf600083018461319b565b92915050565b6131ce81612cf1565b82525050565b600082825260208201905092915050565b60006131f082612c3f565b6131fa81856131d4565b935061320a818560208601612c5b565b61321381612c85565b840191505092915050565b7f4e487b7100000000000000000000000000000000000000000000000000000000600052602160045260246000fd5b6002811061325e5761325d61321e565b5b50565b600081905061326f8261324d565b919050565b600061327f82613261565b9050919050565b61328f81613274565b82525050565b600281106132a6576132a561321e565b5b50565b60008190506132b782613295565b919050565b60006132c7826132a9565b9050919050565b6132d7816132bc565b82525050565b6132e681612c09565b82525050565b600060c08301600083015161330460008601826131c5565b506020830151848203602086015261331c82826131e5565b91505060408301516133316040860182613286565b50606083015161334460608601826131c5565b50608083015161335760808601826132ce565b5060a083015161336a60a08601826132dd565b508091505092915050565b6000602082019050818103600083015261338f81846132ec565b905092915050565b6133a081612c09565b81146133ab57600080fd5b50565b6000813590506133bd81613397565b92915050565b600080604083850312156133da576133d9612b7a565b5b60006133e885828601612dc7565b92505060206133f9858286016133ae565b9150509250929050565b600067ffffffffffffffff82111561341e5761341d612fd9565b5b61342782612c85565b9050602081019050919050565b600061344761344284613403565b613039565b90508281526020810184848401111561346357613462612fd4565b5b61346e848285613085565b509392505050565b600082601f83011261348b5761348a612e1c565b5b813561349b848260208601613434565b91505092915050565b600080600080608085870312156134be576134bd612b7a565b5b60006134cc87828801612dc7565b94505060206134dd87828801612dc7565b93505060406134ee87828801612d12565b925050606085013567ffffffffffffffff81111561350f5761350e612b7f565b5b61351b87828801613476565b91505092959194509250565b6000806040838503121561353e5761353d612b7a565b5b600061354c85828601612dc7565b925050602061355d85828601612dc7565b9150509250929050565b7f4e487b7100000000000000000000000000000000000000000000000000000000600052602260045260246000fd5b600060028204905060018216806135ae57607f821691505b6020821081036135c1576135c0613567565b5b50919050565b7f4552433732313a20617070726f76616c20746f2063757272656e74206f776e6560008201527f7200000000000000000000000000000000000000000000000000000000000000602082015250565b6000613623602183612c4a565b915061362e826135c7565b604082019050919050565b6000602082019050818103600083015261365281613616565b9050919050565b7f4552433732313a20617070726f76652063616c6c6572206973206e6f7420746f60008201527f6b656e206f776e6572206f7220617070726f76656420666f7220616c6c000000602082015250565b60006136b5603d83612c4a565b91506136c082613659565b604082019050919050565b600060208201905081810360008301526136e4816136a8565b9050919050565b7f4f7069494420646f206e6f742065786973747300000000000000000000000000600082015250565b6000613721601383612c4a565b915061372c826136eb565b602082019050919050565b6000602082019050818103600083015261375081613714565b9050919050565b60008190508160005260206000209050919050565b60006020601f8301049050919050565b600082821b905092915050565b6000600883026137b97fffffffffffffffffffffffffffffffffffffffffffffffffffffffffffffffff8261377c565b6137c3868361377c565b95508019841693508086168417925050509392505050565b6000819050919050565b60006138006137fb6137f684612cf1565b6137db565b612cf1565b9050919050565b6000819050919050565b61381a836137e5565b61382e61382682613807565b848454613789565b825550505050565b600090565b613843613836565b61384e818484613811565b505050565b5b818110156138725761386760008261383b565b600181019050613854565b5050565b601f8211156138b75761388881613757565b6138918461376c565b810160208510156138a0578190505b6138b46138ac8561376c565b830182613853565b50505b505050565b600082821c905092915050565b60006138da600019846008026138bc565b1980831691505092915050565b60006138f383836138c9565b9150826002028217905092915050565b61390c82612c3f565b67ffffffffffffffff81111561392557613924612fd9565b5b61392f8254613596565b61393a828285613876565b600060209050601f83116001811461396d576000841561395b578287015190505b61396585826138e7565b8655506139cd565b601f19841661397b86613757565b60005b828110156139a35784890151825560018201915060208501945060208101905061397e565b868310156139c057848901516139bc601f8916826138c9565b8355505b6001600288020188555050505b505050505050565b7f4552433732313a2063616c6c6572206973206e6f7420746f6b656e206f776e6560008201527f72206f7220617070726f76656400000000000000000000000000000000000000602082015250565b6000613a31602d83612c4a565b9150613a3c826139d5565b604082019050919050565b60006020820190508181036000830152613a6081613a24565b9050919050565b7f4f7069494420616c726561647920657869737473000000000000000000000000600082015250565b6000613a9d601483612c4a565b9150613aa882613a67565b602082019050919050565b60006020820190508181036000830152613acc81613a90565b9050919050565b600081905092915050565b6000613ae982612c3f565b613af38185613ad3565b9350613b03818560208601612c5b565b80840191505092915050565b7f2e6a736f6e000000000000000000000000000000000000000000000000000000815250565b6000613b418285613ade565b9150613b4d8284613ade565b9150613b5882613b0f565b6005820191508190509392505050565b7f4552433732313a20696e76616c696420746f6b656e2049440000000000000000600082015250565b6000613b9e601883612c4a565b9150613ba982613b68565b602082019050919050565b60006020820190508181036000830152613bcd81613b91565b9050919050565b7f4552433732313a2061646472657373207a65726f206973206e6f74206120766160008201527f6c6964206f776e65720000000000000000000000000000000000000000000000602082015250565b6000613c30602983612c4a565b9150613c3b82613bd4565b604082019050919050565b60006020820190508181036000830152613c5f81613c23565b9050919050565b6000613c728285613ade565b9150613c7e8284613ade565b91508190509392505050565b7f4f776e61626c653a206e6577206f776e657220697320746865207a65726f206160008201527f6464726573730000000000000000000000000000000000000000000000000000602082015250565b6000613ce6602683612c4a565b9150613cf182613c8a565b604082019050919050565b60006020820190508181036000830152613d1581613cd9565b9050919050565b7f4f776e61626c653a2063616c6c6572206973206e6f7420746865206f776e6572600082015250565b6000613d52602083612c4a565b9150613d5d82613d1c565b602082019050919050565b60006020820190508181036000830152613d8181613d45565b9050919050565b7f4552433732313a207472616e736665722066726f6d20696e636f72726563742060008201527f6f776e6572000000000000000000000000000000000000000000000000000000602082015250565b6000613de4602583612c4a565b9150613def82613d88565b604082019050919050565b60006020820190508181036000830152613e1381613dd7565b9050919050565b7f4552433732313a207472616e7366657220746f20746865207a65726f2061646460008201527f7265737300000000000000000000000000000000000000000000000000000000602082015250565b6000613e76602483612c4a565b9150613e8182613e1a565b604082019050919050565b60006020820190508181036000830152613ea581613e69565b9050919050565b7f4552433732313a206d696e7420746f20746865207a65726f2061646472657373600082015250565b6000613ee2602083612c4a565b9150613eed82613eac565b602082019050919050565b60006020820190508181036000830152613f1181613ed5565b9050919050565b7f4552433732313a20746f6b656e20616c7265616479206d696e74656400000000600082015250565b6000613f4e601c83612c4a565b9150613f5982613f18565b602082019050919050565b60006020820190508181036000830152613f7d81613f41565b9050919050565b7f4e487b7100000000000000000000000000000000000000000000000000000000600052601260045260246000fd5b7f45524337323155524953746f726167653a2055524920736574206f66206e6f6e60008201527f6578697374656e7420746f6b656e000000000000000000000000000000000000602082015250565b600061400f602e83612c4a565b915061401a82613fb3565b604082019050919050565b6000602082019050818103600083015261403e81614002565b9050919050565b7f4552433732313a20617070726f766520746f2063616c6c657200000000000000600082015250565b600061407b601983612c4a565b915061408682614045565b602082019050919050565b600060208201905081810360008301526140aa8161406e565b9050919050565b7f4552433732313a207472616e7366657220746f206e6f6e20455243373231526560008201527f63656976657220696d706c656d656e7465720000000000000000000000000000602082015250565b600061410d603283612c4a565b9150614118826140b1565b604082019050919050565b6000602082019050818103600083015261413c81614100565b9050919050565b7f534254203a206e6f7420706f737369626c65206465205472616e73666572207960008201527f6f7572204f706949640000000000000000000000000000000000000000000000602082015250565b600061419f602983612c4a565b91506141aa82614143565b604082019050919050565b600060208201905081810360008301526141ce81614192565b9050919050565b600081519050919050565b600082825260208201905092915050565b60006141fc826141d5565b61420681856141e0565b9350614216818560208601612c5b565b61421f81612c85565b840191505092915050565b600060808201905061423f6000830187612d86565b61424c6020830186612d86565b614259604083018561319b565b818103606083015261426b81846141f1565b905095945050505050565b60008151905061428581612bb0565b92915050565b6000602082840312156142a1576142a0612b7a565b5b60006142af84828501614276565b91505092915050565b7f4e487b7100000000000000000000000000000000000000000000000000000000600052601160045260246000fd5b60006142f282612cf1565b91506142fd83612cf1565b9250828203905081811115614315576143146142b8565b5b92915050565b600061432682612cf1565b915061433183612cf1565b9250828201905080821115614349576143486142b8565b5b9291505056fe68747470733a2f2f697066732e696f2f697066732f516d51696365694746785637327a754b68793367675a686f467531476375767533356b6865646a7478414d4c36472fa2646970667358221220605de00ce527f82ae0979ab02aa61750c29d84830cfca4c321fda299624f52d664736f6c63430008110033",
  "immutableReferences": {},
  "source": "// SPDX-License-Identifier: GPL-3.0\npragma solidity 0.8.17;\n\nimport \"../node_modules/@openzeppelin/contracts/token/ERC721/extensions/ERC721URIStorage.sol\";\nimport \"../node_modules/@openzeppelin/contracts/utils/Counters.sol\";\nimport \"../node_modules/@openzeppelin/contracts/access/Ownable.sol\";\nimport \"../node_modules/@openzeppelin/contracts/utils/Strings.sol\";\n\n\n//Interface name is not important, however functions in it are important\ninterface IOpiChainSBT{\n  function greet() external view returns (string memory);\n \n}\n\n\n\n/// @title  OpiChain SBT contract\n/// @author Saad Igueninni\n/// @notice ERC721 not transferable, bound to Soul\n/// @dev Inherits the OpenZepplin Ownable ,ERC721URIStorage,Counters & Strings contracts\ncontract OpiChainSBT is ERC721URIStorage, Ownable {\n    using Counters for Counters.Counter;\n\n    enum Gender {\n        Male,\n        Female\n    }\n\n    enum Role {\n        Sounder,\n        Surveyed\n    }\n\n    struct OpiProfile {\n        uint256 OpiIdCounter;\n        string name;\n        Gender gender;\n        uint256 age;\n        Role role;\n        bool isOpiIdGranted;\n    }\n\n    //mapping(address=>bool) grantedOPIIds;\n    mapping(address => OpiProfile) OpiProfiles;\n    Counters.Counter private _OpiIdCounter;\n\n    event grantedOpiID(OpiProfile _newOpiProfile);\n    event revokedOpiID(address _profileAddress);\n    event updatedOpiID(address _profileAddress);\n\n    constructor() ERC721(\"OpiChainID\", \"OpiId\") {}\n\n    /*        address test = 0xd9cB466B10b86Da36Cb7E39d6DD86d25A500Ccd6;\n        grantOpiID( test,\n       // \"https://gateway.pinata.cloud/ipfs/QmQzEEbvYSV2atiDv8PdT4WuNyjTLbKpEWFVqFFVFLGAut/1.json\",\n        \"saad\",\n        38,\n        0,\n        0); */\n\n    // ::::::::::::: MODIFIERS ::::::::::::: //\n    modifier onlySounders(address _profileAddress) {\n        require(\n            (OpiProfiles[_profileAddress].isOpiIdGranted &&\n                OpiProfiles[_profileAddress].role == Role.Sounder),\n            \"You are not a sounder\"\n        );\n        _;\n    }\n\n    modifier onlySurveyeds(address _profileAddress) {\n        require(\n            (OpiProfiles[_profileAddress].isOpiIdGranted &&\n                OpiProfiles[msg.sender].role == Role.Surveyed),\n            \"You are not a surveyed\"\n        );\n        _;\n    }\n\n    modifier opiIdExists(address _profileAddress) {\n        require(\n            OpiProfiles[_profileAddress].isOpiIdGranted,\n            \"OpiID do not exists\"\n        );\n        _;\n    }\n\n    // ::::::::::::: GETTERS ::::::::::::: //\n    function getOpiID(address _profileAddress)\n        external\n        view\n        onlyOwner\n        opiIdExists(_profileAddress)\n        returns (OpiProfile memory)\n    {\n        return OpiProfiles[_profileAddress];\n    }\n\n    function isGrantedOpiID(address _profileAddress)\n        external\n        view\n        onlyOwner\n        returns (bool)\n    {\n        return OpiProfiles[_profileAddress].isOpiIdGranted;\n    }\n\n    function isSounder(address _profileAddress)\n        external\n        view\n        onlyOwner\n        returns (bool)\n    {\n        return (OpiProfiles[_profileAddress].isOpiIdGranted &&\n            OpiProfiles[_profileAddress].role == Role.Sounder);\n    }\n\n    function isSurveyed(address _profileAddress)\n        external\n        view\n        onlyOwner\n        returns (bool)\n    {\n        return (OpiProfiles[_profileAddress].isOpiIdGranted &&\n            OpiProfiles[_profileAddress].role == Role.Surveyed);\n    }\n\n    // ::::::::::::: MEMBERS MANAGEMENT ::::::::::::: //\n    function grantOpiID(\n        address _profileAddress,\n        // string memory _SBTUri,\n        string memory _name,\n        uint256 _age,\n        uint8 _gender,\n        uint8 _role\n    ) public onlyOwner returns (uint256) {\n        //To change to external after test\n        require(\n            !OpiProfiles[msg.sender].isOpiIdGranted,\n            \"OpiID already exists\"\n        );\n\n        _OpiIdCounter.increment(); //To start at 1\n        uint256 newOpiID = _OpiIdCounter.current();\n        OpiProfile memory newOpiProfile;\n\n        //Add new Profile\n        newOpiProfile.OpiIdCounter = newOpiID;\n        newOpiProfile.name = _name;\n        newOpiProfile.age = _age;\n        newOpiProfile.gender = Gender(_gender);\n        newOpiProfile.role = Role(_role);\n        newOpiProfile.isOpiIdGranted = true;\n        OpiProfiles[_profileAddress] = newOpiProfile;\n\n        _mint(_profileAddress, newOpiID);\n\n        string memory urinumber = Strings.toString(newOpiID);\n        string\n            memory tokenURI = \"https://ipfs.io/ipfs/QmQiceiGFxV72zuKhy3ggZhoFu1Gcuvu35khedjtxAML6G/\";\n        string memory _SBTUri = string.concat(tokenURI, urinumber, \".json\");\n\n        _setTokenURI(newOpiID, _SBTUri);\n\n        emit grantedOpiID(newOpiProfile);\n        return newOpiID;\n    }\n\n    function revokeOpiID(address _profileAddress) external onlyOwner {\n        require(\n            OpiProfiles[msg.sender].OpiIdCounter != 0,\n            \"OpiID do not exists\"\n        );\n        delete OpiProfiles[_profileAddress];\n        emit revokedOpiID(_profileAddress);\n    }\n\n    function updateOpiID(\n        address _profileAddress,\n        string calldata _name,\n        uint256 _age,\n        uint8 _gender,\n        uint8 _role\n    ) external onlyOwner {\n        require(\n            OpiProfiles[msg.sender].OpiIdCounter != 0,\n            \"OpiID do not exists\"\n        );\n\n        OpiProfile memory UpdOpiProfile;\n\n        UpdOpiProfile = OpiProfiles[_profileAddress];\n        UpdOpiProfile.name = _name;\n        UpdOpiProfile.age = _age;\n        UpdOpiProfile.gender = Gender(_gender);\n        UpdOpiProfile.role = Role(_role);\n        OpiProfiles[_profileAddress] = UpdOpiProfile;\n\n        emit revokedOpiID(_profileAddress);\n    }\n\n    // ::::::::::::: OVVERIDES ::::::::::::: //\n    function _beforeTokenTransfer(\n        address from,\n        address to,\n        uint256 tokenId,\n        uint256 batchSize\n    ) internal virtual override {\n        require(\n            from == address(0),\n            \"SBT : not possible de Transfer your OpiId\"\n        );\n        super._beforeTokenTransfer(from, to, tokenId, batchSize);\n    }\n}\n",
  "sourcePath": "/home/saadi/coursAlyra/OpiChain/truffle/contracts/OpiChainSBT.sol",
  "compiler": {
    "name": "solc",
    "version": "0.8.17+commit.8df45f5f.Emscripten.clang"
  },
  "schemaVersion": "3.4.10",
  "updatedAt": "2022-12-12T08:49:30.419Z",
  "networkType": "ethereum",
  "devdoc": {
    "author": "Saad Igueninni",
    "details": "Inherits the OpenZepplin Ownable ,ERC721URIStorage,Counters & Strings contracts",
    "kind": "dev",
    "methods": {
      "approve(address,uint256)": {
        "details": "See {IERC721-approve}."
      },
      "balanceOf(address)": {
        "details": "See {IERC721-balanceOf}."
      },
      "getApproved(uint256)": {
        "details": "See {IERC721-getApproved}."
      },
      "isApprovedForAll(address,address)": {
        "details": "See {IERC721-isApprovedForAll}."
      },
      "name()": {
        "details": "See {IERC721Metadata-name}."
      },
      "owner()": {
        "details": "Returns the address of the current owner."
      },
      "ownerOf(uint256)": {
        "details": "See {IERC721-ownerOf}."
      },
      "renounceOwnership()": {
        "details": "Leaves the contract without owner. It will not be possible to call `onlyOwner` functions anymore. Can only be called by the current owner. NOTE: Renouncing ownership will leave the contract without an owner, thereby removing any functionality that is only available to the owner."
      },
      "safeTransferFrom(address,address,uint256)": {
        "details": "See {IERC721-safeTransferFrom}."
      },
      "safeTransferFrom(address,address,uint256,bytes)": {
        "details": "See {IERC721-safeTransferFrom}."
      },
      "setApprovalForAll(address,bool)": {
        "details": "See {IERC721-setApprovalForAll}."
      },
      "supportsInterface(bytes4)": {
        "details": "See {IERC165-supportsInterface}."
      },
      "symbol()": {
        "details": "See {IERC721Metadata-symbol}."
      },
      "tokenURI(uint256)": {
        "details": "See {IERC721Metadata-tokenURI}."
      },
      "transferFrom(address,address,uint256)": {
        "details": "See {IERC721-transferFrom}."
      },
      "transferOwnership(address)": {
        "details": "Transfers ownership of the contract to a new account (`newOwner`). Can only be called by the current owner."
      }
    },
    "title": "OpiChain SBT contract",
    "version": 1
  },
  "userdoc": {
    "kind": "user",
    "methods": {},
    "notice": "ERC721 not transferable, bound to Soul",
    "version": 1
  }
}