{
  "contractName": "ChlChainSBT",
  "abi": [
    {
      "inputs": [],
      "stateMutability": "nonpayable",
      "type": "constructor"
    },
    {
      "anonymous": false,
      "inputs": [
        {
          "indexed": true,
          "internalType": "address",
          "name": "owner",
          "type": "address"
        },
        {
          "indexed": true,
          "internalType": "address",
          "name": "approved",
          "type": "address"
        },
        {
          "indexed": true,
          "internalType": "uint256",
          "name": "tokenId",
          "type": "uint256"
        }
      ],
      "name": "Approval",
      "type": "event"
    },
    {
      "anonymous": false,
      "inputs": [
        {
          "indexed": true,
          "internalType": "address",
          "name": "owner",
          "type": "address"
        },
        {
          "indexed": true,
          "internalType": "address",
          "name": "operator",
          "type": "address"
        },
        {
          "indexed": false,
          "internalType": "bool",
          "name": "approved",
          "type": "bool"
        }
      ],
      "name": "ApprovalForAll",
      "type": "event"
    },
    {
      "anonymous": false,
      "inputs": [
        {
          "indexed": true,
          "internalType": "address",
          "name": "previousOwner",
          "type": "address"
        },
        {
          "indexed": true,
          "internalType": "address",
          "name": "newOwner",
          "type": "address"
        }
      ],
      "name": "OwnershipTransferred",
      "type": "event"
    },
    {
      "anonymous": false,
      "inputs": [
        {
          "indexed": true,
          "internalType": "address",
          "name": "from",
          "type": "address"
        },
        {
          "indexed": true,
          "internalType": "address",
          "name": "to",
          "type": "address"
        },
        {
          "indexed": true,
          "internalType": "uint256",
          "name": "tokenId",
          "type": "uint256"
        }
      ],
      "name": "Transfer",
      "type": "event"
    },
    {
      "anonymous": false,
      "inputs": [
        {
          "components": [
            {
              "internalType": "uint256",
              "name": "ChlIdCounter",
              "type": "uint256"
            },
            {
              "internalType": "string",
              "name": "name",
              "type": "string"
            },
            {
              "internalType": "enum ChlChainSBT.Gender",
              "name": "gender",
              "type": "uint8"
            },
            {
              "internalType": "uint256",
              "name": "age",
              "type": "uint256"
            },
            {
              "internalType": "enum ChlChainSBT.Role",
              "name": "role",
              "type": "uint8"
            },
            {
              "internalType": "bool",
              "name": "isChlIdGranted",
              "type": "bool"
            }
          ],
          "indexed": false,
          "internalType": "struct ChlChainSBT.ChlProfile",
          "name": "_newChlProfile",
          "type": "tuple"
        }
      ],
      "name": "grantedChlID",
      "type": "event"
    },
    {
      "anonymous": false,
      "inputs": [
        {
          "indexed": false,
          "internalType": "address",
          "name": "_profileAddress",
          "type": "address"
        }
      ],
      "name": "revokedChlID",
      "type": "event"
    },
    {
      "anonymous": false,
      "inputs": [
        {
          "indexed": false,
          "internalType": "address",
          "name": "_profileAddress",
          "type": "address"
        }
      ],
      "name": "updatedChlID",
      "type": "event"
    },
    {
      "inputs": [
        {
          "internalType": "address",
          "name": "to",
          "type": "address"
        },
        {
          "internalType": "uint256",
          "name": "tokenId",
          "type": "uint256"
        }
      ],
      "name": "approve",
      "outputs": [],
      "stateMutability": "nonpayable",
      "type": "function"
    },
    {
      "inputs": [
        {
          "internalType": "address",
          "name": "owner",
          "type": "address"
        }
      ],
      "name": "balanceOf",
      "outputs": [
        {
          "internalType": "uint256",
          "name": "",
          "type": "uint256"
        }
      ],
      "stateMutability": "view",
      "type": "function",
      "constant": true
    },
    {
      "inputs": [
        {
          "internalType": "uint256",
          "name": "tokenId",
          "type": "uint256"
        }
      ],
      "name": "getApproved",
      "outputs": [
        {
          "internalType": "address",
          "name": "",
          "type": "address"
        }
      ],
      "stateMutability": "view",
      "type": "function",
      "constant": true
    },
    {
      "inputs": [
        {
          "internalType": "address",
          "name": "owner",
          "type": "address"
        },
        {
          "internalType": "address",
          "name": "operator",
          "type": "address"
        }
      ],
      "name": "isApprovedForAll",
      "outputs": [
        {
          "internalType": "bool",
          "name": "",
          "type": "bool"
        }
      ],
      "stateMutability": "view",
      "type": "function",
      "constant": true
    },
    {
      "inputs": [],
      "name": "name",
      "outputs": [
        {
          "internalType": "string",
          "name": "",
          "type": "string"
        }
      ],
      "stateMutability": "view",
      "type": "function",
      "constant": true
    },
    {
      "inputs": [],
      "name": "owner",
      "outputs": [
        {
          "internalType": "address",
          "name": "",
          "type": "address"
        }
      ],
      "stateMutability": "view",
      "type": "function",
      "constant": true
    },
    {
      "inputs": [
        {
          "internalType": "uint256",
          "name": "tokenId",
          "type": "uint256"
        }
      ],
      "name": "ownerOf",
      "outputs": [
        {
          "internalType": "address",
          "name": "",
          "type": "address"
        }
      ],
      "stateMutability": "view",
      "type": "function",
      "constant": true
    },
    {
      "inputs": [],
      "name": "renounceOwnership",
      "outputs": [],
      "stateMutability": "nonpayable",
      "type": "function"
    },
    {
      "inputs": [
        {
          "internalType": "address",
          "name": "from",
          "type": "address"
        },
        {
          "internalType": "address",
          "name": "to",
          "type": "address"
        },
        {
          "internalType": "uint256",
          "name": "tokenId",
          "type": "uint256"
        }
      ],
      "name": "safeTransferFrom",
      "outputs": [],
      "stateMutability": "nonpayable",
      "type": "function"
    },
    {
      "inputs": [
        {
          "internalType": "address",
          "name": "from",
          "type": "address"
        },
        {
          "internalType": "address",
          "name": "to",
          "type": "address"
        },
        {
          "internalType": "uint256",
          "name": "tokenId",
          "type": "uint256"
        },
        {
          "internalType": "bytes",
          "name": "data",
          "type": "bytes"
        }
      ],
      "name": "safeTransferFrom",
      "outputs": [],
      "stateMutability": "nonpayable",
      "type": "function"
    },
    {
      "inputs": [
        {
          "internalType": "address",
          "name": "operator",
          "type": "address"
        },
        {
          "internalType": "bool",
          "name": "approved",
          "type": "bool"
        }
      ],
      "name": "setApprovalForAll",
      "outputs": [],
      "stateMutability": "nonpayable",
      "type": "function"
    },
    {
      "inputs": [
        {
          "internalType": "bytes4",
          "name": "interfaceId",
          "type": "bytes4"
        }
      ],
      "name": "supportsInterface",
      "outputs": [
        {
          "internalType": "bool",
          "name": "",
          "type": "bool"
        }
      ],
      "stateMutability": "view",
      "type": "function",
      "constant": true
    },
    {
      "inputs": [],
      "name": "symbol",
      "outputs": [
        {
          "internalType": "string",
          "name": "",
          "type": "string"
        }
      ],
      "stateMutability": "view",
      "type": "function",
      "constant": true
    },
    {
      "inputs": [
        {
          "internalType": "uint256",
          "name": "tokenId",
          "type": "uint256"
        }
      ],
      "name": "tokenURI",
      "outputs": [
        {
          "internalType": "string",
          "name": "",
          "type": "string"
        }
      ],
      "stateMutability": "view",
      "type": "function",
      "constant": true
    },
    {
      "inputs": [
        {
          "internalType": "address",
          "name": "from",
          "type": "address"
        },
        {
          "internalType": "address",
          "name": "to",
          "type": "address"
        },
        {
          "internalType": "uint256",
          "name": "tokenId",
          "type": "uint256"
        }
      ],
      "name": "transferFrom",
      "outputs": [],
      "stateMutability": "nonpayable",
      "type": "function"
    },
    {
      "inputs": [
        {
          "internalType": "address",
          "name": "newOwner",
          "type": "address"
        }
      ],
      "name": "transferOwnership",
      "outputs": [],
      "stateMutability": "nonpayable",
      "type": "function"
    },
    {
      "inputs": [
        {
          "internalType": "address",
          "name": "_profileAddress",
          "type": "address"
        }
      ],
      "name": "getChlID",
      "outputs": [
        {
          "components": [
            {
              "internalType": "uint256",
              "name": "ChlIdCounter",
              "type": "uint256"
            },
            {
              "internalType": "string",
              "name": "name",
              "type": "string"
            },
            {
              "internalType": "enum ChlChainSBT.Gender",
              "name": "gender",
              "type": "uint8"
            },
            {
              "internalType": "uint256",
              "name": "age",
              "type": "uint256"
            },
            {
              "internalType": "enum ChlChainSBT.Role",
              "name": "role",
              "type": "uint8"
            },
            {
              "internalType": "bool",
              "name": "isChlIdGranted",
              "type": "bool"
            }
          ],
          "internalType": "struct ChlChainSBT.ChlProfile",
          "name": "",
          "type": "tuple"
        }
      ],
      "stateMutability": "view",
      "type": "function",
      "constant": true
    },
    {
      "inputs": [
        {
          "internalType": "address",
          "name": "_profileAddress",
          "type": "address"
        }
      ],
      "name": "isGrantedChlID",
      "outputs": [
        {
          "internalType": "bool",
          "name": "",
          "type": "bool"
        }
      ],
      "stateMutability": "view",
      "type": "function",
      "constant": true
    },
    {
      "inputs": [
        {
          "internalType": "address",
          "name": "_profileAddress",
          "type": "address"
        }
      ],
      "name": "isSounder",
      "outputs": [
        {
          "internalType": "bool",
          "name": "",
          "type": "bool"
        }
      ],
      "stateMutability": "view",
      "type": "function",
      "constant": true
    },
    {
      "inputs": [
        {
          "internalType": "address",
          "name": "_profileAddress",
          "type": "address"
        }
      ],
      "name": "isChallengeed",
      "outputs": [
        {
          "internalType": "bool",
          "name": "",
          "type": "bool"
        }
      ],
      "stateMutability": "view",
      "type": "function",
      "constant": true
    },
    {
      "inputs": [
        {
          "internalType": "address",
          "name": "_profileAddress",
          "type": "address"
        },
        {
          "internalType": "string",
          "name": "_name",
          "type": "string"
        },
        {
          "internalType": "uint256",
          "name": "_age",
          "type": "uint256"
        },
        {
          "internalType": "uint8",
          "name": "_gender",
          "type": "uint8"
        },
        {
          "internalType": "uint8",
          "name": "_role",
          "type": "uint8"
        }
      ],
      "name": "grantChlID",
      "outputs": [
        {
          "internalType": "uint256",
          "name": "",
          "type": "uint256"
        }
      ],
      "stateMutability": "nonpayable",
      "type": "function"
    },
    {
      "inputs": [
        {
          "internalType": "address",
          "name": "_profileAddress",
          "type": "address"
        }
      ],
      "name": "revokeChlID",
      "outputs": [],
      "stateMutability": "nonpayable",
      "type": "function"
    },
    {
      "inputs": [
        {
          "internalType": "address",
          "name": "_profileAddress",
          "type": "address"
        },
        {
          "internalType": "string",
          "name": "_name",
          "type": "string"
        },
        {
          "internalType": "uint256",
          "name": "_age",
          "type": "uint256"
        },
        {
          "internalType": "uint8",
          "name": "_gender",
          "type": "uint8"
        },
        {
          "internalType": "uint8",
          "name": "_role",
          "type": "uint8"
        }
      ],
      "name": "updateChlID",
      "outputs": [],
      "stateMutability": "nonpayable",
      "type": "function"
    }
  ],
  "bytecode": "0x60806040523480156200001157600080fd5b506040518060400160405280600a81526020017f4f7069436861696e4944000000000000000000000000000000000000000000008152506040518060400160405280600581526020017f4f7069496400000000000000000000000000000000000000000000000000000081525081600090816200008f919062000412565b508060019081620000a1919062000412565b505050620000c4620000b8620000ca60201b60201c565b620000d260201b60201c565b620004f9565b600033905090565b6000600760009054906101000a900473ffffffffffffffffffffffffffffffffffffffff16905081600760006101000a81548173ffffffffffffffffffffffffffffffffffffffff021916908373ffffffffffffffffffffffffffffffffffffffff1602179055508173ffffffffffffffffffffffffffffffffffffffff168173ffffffffffffffffffffffffffffffffffffffff167f8be0079c531659141344cd1fd0a4f28419497f9722a3daafe3b4186f6b6457e060405160405180910390a35050565b600081519050919050565b7f4e487b7100000000000000000000000000000000000000000000000000000000600052604160045260246000fd5b7f4e487b7100000000000000000000000000000000000000000000000000000000600052602260045260246000fd5b600060028204905060018216806200021a57607f821691505b60208210810362000230576200022f620001d2565b5b50919050565b60008190508160005260206000209050919050565b60006020601f8301049050919050565b600082821b905092915050565b6000600883026200029a7fffffffffffffffffffffffffffffffffffffffffffffffffffffffffffffffff826200025b565b620002a686836200025b565b95508019841693508086168417925050509392505050565b6000819050919050565b6000819050919050565b6000620002f3620002ed620002e784620002be565b620002c8565b620002be565b9050919050565b6000819050919050565b6200030f83620002d2565b620003276200031e82620002fa565b84845462000268565b825550505050565b600090565b6200033e6200032f565b6200034b81848462000304565b505050565b5b8181101562000373576200036760008262000334565b60018101905062000351565b5050565b601f821115620003c2576200038c8162000236565b62000397846200024b565b81016020851015620003a7578190505b620003bf620003b6856200024b565b83018262000350565b50505b505050565b600082821c905092915050565b6000620003e760001984600802620003c7565b1980831691505092915050565b6000620004028383620003d4565b9150826002028217905092915050565b6200041d8262000198565b67ffffffffffffffff811115620004395762000438620001a3565b5b62000445825462000201565b6200045282828562000377565b600060209050601f8311600181146200048a576000841562000475578287015190505b620004818582620003f4565b865550620004f1565b601f1984166200049a8662000236565b60005b82811015620004c4578489015182556001820191506020850194506020810190506200049d565b86831015620004e45784890151620004e0601f891682620003d4565b8355505b6001600288020188555050505b505050505050565b6143dd80620005096000396000f3fe608060405234801561001057600080fd5b506004361061014d5760003560e01c80636352211e116100c3578063a22cb4651161007c578063a22cb465146103d6578063b88d4fde146103f2578063c87b56dd1461040e578063db7e02131461043e578063e985e9c51461045a578063f2fde38b1461048a5761014d565b80636352211e1461030057806370a0823114610330578063715018a61461036057806373addd8b1461036a5780638da5cb5b1461039a57806395d89b41146103b85761014d565b80631a71b6d2116101155780631a71b6d21461021c57806323b872dd146102385780633ee5c24f1461025457806340cfeb4e1461028457806342842e0e146102b45780635f23cbca146102d05761014d565b806301ffc9a71461015257806306fdde0314610182578063081812fc146101a0578063095ea7b3146101d05780630eb33115146101ec575b600080fd5b61016c60048036038101906101679190612bf0565b6104a6565b6040516101799190612c38565b60405180910390f35b61018a610588565b6040516101979190612ce3565b60405180910390f35b6101ba60048036038101906101b59190612d3b565b61061a565b6040516101c79190612da9565b60405180910390f35b6101ea60048036038101906101e59190612df0565b610660565b005b61020660048036038101906102019190612e30565b610777565b6040516102139190612c38565b60405180910390f35b61023660048036038101906102319190612efb565b610856565b005b610252600480360381019061024d9190612f95565b610c86565b005b61026e60048036038101906102699190612e30565b610ce6565b60405161027b9190612c38565b60405180910390f35b61029e60048036038101906102999190612e30565b610d47565b6040516102ab9190612c38565b60405180910390f35b6102ce60048036038101906102c99190612f95565b610e27565b005b6102ea60048036038101906102e59190613118565b610e47565b6040516102f791906131be565b60405180910390f35b61031a60048036038101906103159190612d3b565b611152565b6040516103279190612da9565b60405180910390f35b61034a60048036038101906103459190612e30565b6111d8565b60405161035791906131be565b60405180910390f35b61036861128f565b005b610384600480360381019061037f9190612e30565b6112a3565b6040516103919190613389565b60405180910390f35b6103a26114cc565b6040516103af9190612da9565b60405180910390f35b6103c06114f6565b6040516103cd9190612ce3565b60405180910390f35b6103f060048036038101906103eb91906133d7565b611588565b005b61040c600480360381019061040791906134b8565b61159e565b005b61042860048036038101906104239190612d3b565b611600565b6040516104359190612ce3565b60405180910390f35b61045860048036038101906104539190612e30565b611712565b005b610474600480360381019061046f919061353b565b611881565b6040516104819190612c38565b60405180910390f35b6104a4600480360381019061049f9190612e30565b611915565b005b60007f80ac58cd000000000000000000000000000000000000000000000000000000007bffffffffffffffffffffffffffffffffffffffffffffffffffffffff1916827bffffffffffffffffffffffffffffffffffffffffffffffffffffffff1916148061057157507f5b5e139f000000000000000000000000000000000000000000000000000000007bffffffffffffffffffffffffffffffffffffffffffffffffffffffff1916827bffffffffffffffffffffffffffffffffffffffffffffffffffffffff1916145b80610581575061058082611998565b5b9050919050565b606060008054610597906135aa565b80601f01602080910402602001604051908101604052809291908181526020018280546105c3906135aa565b80156106105780601f106105e557610100808354040283529160200191610610565b820191906000526020600020905b8154815290600101906020018083116105f357829003601f168201915b5050505050905090565b600061062582611a02565b6004600083815260200190815260200160002060009054906101000a900473ffffffffffffffffffffffffffffffffffffffff169050919050565b600061066b82611152565b90508073ffffffffffffffffffffffffffffffffffffffff168373ffffffffffffffffffffffffffffffffffffffff16036106db576040517f08c379a00000000000000000000000000000000000000000000000000000000081526004016106d29061364d565b60405180910390fd5b8073ffffffffffffffffffffffffffffffffffffffff166106fa611a4d565b73ffffffffffffffffffffffffffffffffffffffff161480610729575061072881610723611a4d565b611881565b5b610768576040517f08c379a000000000000000000000000000000000000000000000000000000000815260040161075f906136df565b60405180910390fd5b6107728383611a55565b505050565b6000610781611b0e565b600860008373ffffffffffffffffffffffffffffffffffffffff1673ffffffffffffffffffffffffffffffffffffffff16815260200190815260200160002060040160019054906101000a900460ff16801561084f57506001808111156107eb576107ea613232565b5b600860008473ffffffffffffffffffffffffffffffffffffffff1673ffffffffffffffffffffffffffffffffffffffff16815260200190815260200160002060040160009054906101000a900460ff16600181111561084d5761084c613232565b5b145b9050919050565b61085e611b0e565b600860008773ffffffffffffffffffffffffffffffffffffffff1673ffffffffffffffffffffffffffffffffffffffff16815260200190815260200160002060040160019054906101000a900460ff166108ed576040517f08c379a00000000000000000000000000000000000000000000000000000000081526004016108e49061374b565b60405180910390fd5b6108f5612acb565b600860008873ffffffffffffffffffffffffffffffffffffffff1673ffffffffffffffffffffffffffffffffffffffff1681526020019081526020016000206040518060c001604052908160008201548152602001600182018054610959906135aa565b80601f0160208091040260200160405190810160405280929190818152602001828054610985906135aa565b80156109d25780601f106109a7576101008083540402835291602001916109d2565b820191906000526020600020905b8154815290600101906020018083116109b557829003601f168201915b505050505081526020016002820160009054906101000a900460ff166001811115610a00576109ff613232565b5b6001811115610a1257610a11613232565b5b8152602001600382015481526020016004820160009054906101000a900460ff166001811115610a4557610a44613232565b5b6001811115610a5757610a56613232565b5b81526020016004820160019054906101000a900460ff161515151581525050905085858080601f016020809104026020016040519081016040528093929190818152602001838380828437600081840152601f19601f820116905080830192505050505050508160200181905250838160600181815250508260ff166001811115610ae557610ae4613232565b5b81604001906001811115610afc57610afb613232565b5b90816001811115610b1057610b0f613232565b5b815250508160ff166001811115610b2a57610b29613232565b5b81608001906001811115610b4157610b40613232565b5b90816001811115610b5557610b54613232565b5b8152505080600860008973ffffffffffffffffffffffffffffffffffffffff1673ffffffffffffffffffffffffffffffffffffffff168152602001908152602001600020600082015181600001556020820151816001019081610bb89190613917565b5060408201518160020160006101000a81548160ff02191690836001811115610be457610be3613232565b5b02179055506060820151816003015560808201518160040160006101000a81548160ff02191690836001811115610c1e57610c1d613232565b5b021790555060a08201518160040160016101000a81548160ff0219169083151502179055509050507f072e436f0a5ac64f8b14996ced3d0c28cffaf8d7ca50541807ab142828d0394a87604051610c759190612da9565b60405180910390a150505050505050565b610c97610c91611a4d565b82611b8c565b610cd6576040517f08c379a0000000000000000000000000000000000000000000000000000000008152600401610ccd90613a5b565b60405180910390fd5b610ce1838383611c21565b505050565b6000610cf0611b0e565b600860008373ffffffffffffffffffffffffffffffffffffffff1673ffffffffffffffffffffffffffffffffffffffff16815260200190815260200160002060040160019054906101000a900460ff169050919050565b6000610d51611b0e565b600860008373ffffffffffffffffffffffffffffffffffffffff1673ffffffffffffffffffffffffffffffffffffffff16815260200190815260200160002060040160019054906101000a900460ff168015610e20575060006001811115610dbc57610dbb613232565b5b600860008473ffffffffffffffffffffffffffffffffffffffff1673ffffffffffffffffffffffffffffffffffffffff16815260200190815260200160002060040160009054906101000a900460ff166001811115610e1e57610e1d613232565b5b145b9050919050565b610e428383836040518060200160405280600081525061159e565b505050565b6000610e51611b0e565b600860008773ffffffffffffffffffffffffffffffffffffffff1673ffffffffffffffffffffffffffffffffffffffff16815260200190815260200160002060040160019054906101000a900460ff1615610ee1576040517f08c379a0000000000000000000000000000000000000000000000000000000008152600401610ed890613ac7565b60405180910390fd5b610eeb6009611f1a565b6000610ef76009611f30565b9050610f01612acb565b81816000018181525050868160200181905250858160600181815250508460ff166001811115610f3457610f33613232565b5b81604001906001811115610f4b57610f4a613232565b5b90816001811115610f5f57610f5e613232565b5b815250508360ff166001811115610f7957610f78613232565b5b81608001906001811115610f9057610f8f613232565b5b90816001811115610fa457610fa3613232565b5b8152505060018160a001901515908115158152505080600860008a73ffffffffffffffffffffffffffffffffffffffff1673ffffffffffffffffffffffffffffffffffffffff1681526020019081526020016000206000820151816000015560208201518160010190816110189190613917565b5060408201518160020160006101000a81548160ff0219169083600181111561104457611043613232565b5b02179055506060820151816003015560808201518160040160006101000a81548160ff0219169083600181111561107e5761107d613232565b5b021790555060a08201518160040160016101000a81548160ff0219169083151502179055509050506110b08883611f3e565b60006110bb8361215b565b90506000604051806080016040528060448152602001614364604491399050600081836040516020016110ef929190613b49565b604051602081830303815290604052905061110a8582612229565b7fb82f9ae6643517fa1e435850fb48a60e89bf1821da9b0bdc113da9e425f38dd3846040516111399190613389565b60405180910390a1849550505050505095945050505050565b60008061115e83612296565b9050600073ffffffffffffffffffffffffffffffffffffffff168173ffffffffffffffffffffffffffffffffffffffff16036111cf576040517f08c379a00000000000000000000000000000000000000000000000000000000081526004016111c690613bc8565b60405180910390fd5b80915050919050565b60008073ffffffffffffffffffffffffffffffffffffffff168273ffffffffffffffffffffffffffffffffffffffff1603611248576040517f08c379a000000000000000000000000000000000000000000000000000000000815260040161123f90613c5a565b60405180910390fd5b600360008373ffffffffffffffffffffffffffffffffffffffff1673ffffffffffffffffffffffffffffffffffffffff168152602001908152602001600020549050919050565b611297611b0e565b6112a160006122d3565b565b6112ab612acb565b6112b3611b0e565b81600860008273ffffffffffffffffffffffffffffffffffffffff1673ffffffffffffffffffffffffffffffffffffffff16815260200190815260200160002060040160019054906101000a900460ff16611343576040517f08c379a000000000000000000000000000000000000000000000000000000000815260040161133a9061374b565b60405180910390fd5b600860008473ffffffffffffffffffffffffffffffffffffffff1673ffffffffffffffffffffffffffffffffffffffff1681526020019081526020016000206040518060c0016040529081600082015481526020016001820180546113a7906135aa565b80601f01602080910402602001604051908101604052809291908181526020018280546113d3906135aa565b80156114205780601f106113f557610100808354040283529160200191611420565b820191906000526020600020905b81548152906001019060200180831161140357829003601f168201915b505050505081526020016002820160009054906101000a900460ff16600181111561144e5761144d613232565b5b60018111156114605761145f613232565b5b8152602001600382015481526020016004820160009054906101000a900460ff16600181111561149357611492613232565b5b60018111156114a5576114a4613232565b5b81526020016004820160019054906101000a900460ff161515151581525050915050919050565b6000600760009054906101000a900473ffffffffffffffffffffffffffffffffffffffff16905090565b606060018054611505906135aa565b80601f0160208091040260200160405190810160405280929190818152602001828054611531906135aa565b801561157e5780601f106115535761010080835404028352916020019161157e565b820191906000526020600020905b81548152906001019060200180831161156157829003601f168201915b5050505050905090565b61159a611593611a4d565b8383612399565b5050565b6115af6115a9611a4d565b83611b8c565b6115ee576040517f08c379a00000000000000000000000000000000000000000000000000000000081526004016115e590613a5b565b60405180910390fd5b6115fa84848484612505565b50505050565b606061160b82611a02565b600060066000848152602001908152602001600020805461162b906135aa565b80601f0160208091040260200160405190810160405280929190818152602001828054611657906135aa565b80156116a45780601f10611679576101008083540402835291602001916116a4565b820191906000526020600020905b81548152906001019060200180831161168757829003601f168201915b5050505050905060006116b5612561565b905060008151036116ca57819250505061170d565b6000825111156116ff5780826040516020016116e7929190613c7a565b6040516020818303038152906040529250505061170d565b61170884612578565b925050505b919050565b61171a611b0e565b600860008273ffffffffffffffffffffffffffffffffffffffff1673ffffffffffffffffffffffffffffffffffffffff16815260200190815260200160002060040160019054906101000a900460ff166117a9576040517f08c379a00000000000000000000000000000000000000000000000000000000081526004016117a09061374b565b60405180910390fd5b7ffbe677b07b780a20c8f6f9ab6061b5dec9604f4b7bacd0b4172b887d6c882f11816040516117d89190612da9565b60405180910390a1600860008273ffffffffffffffffffffffffffffffffffffffff1673ffffffffffffffffffffffffffffffffffffffff1681526020019081526020016000206000808201600090556001820160006118389190612b27565b6002820160006101000a81549060ff021916905560038201600090556004820160006101000a81549060ff02191690556004820160016101000a81549060ff0219169055505050565b6000600560008473ffffffffffffffffffffffffffffffffffffffff1673ffffffffffffffffffffffffffffffffffffffff16815260200190815260200160002060008373ffffffffffffffffffffffffffffffffffffffff1673ffffffffffffffffffffffffffffffffffffffff16815260200190815260200160002060009054906101000a900460ff16905092915050565b61191d611b0e565b600073ffffffffffffffffffffffffffffffffffffffff168173ffffffffffffffffffffffffffffffffffffffff160361198c576040517f08c379a000000000000000000000000000000000000000000000000000000000815260040161198390613d10565b60405180910390fd5b611995816122d3565b50565b60007f01ffc9a7000000000000000000000000000000000000000000000000000000007bffffffffffffffffffffffffffffffffffffffffffffffffffffffff1916827bffffffffffffffffffffffffffffffffffffffffffffffffffffffff1916149050919050565b611a0b816125e0565b611a4a576040517f08c379a0000000000000000000000000000000000000000000000000000000008152600401611a4190613bc8565b60405180910390fd5b50565b600033905090565b816004600083815260200190815260200160002060006101000a81548173ffffffffffffffffffffffffffffffffffffffff021916908373ffffffffffffffffffffffffffffffffffffffff160217905550808273ffffffffffffffffffffffffffffffffffffffff16611ac883611152565b73ffffffffffffffffffffffffffffffffffffffff167f8c5be1e5ebec7d5bd14f71427d1e84f3dd0314c0f7b2291e5b200ac8c7c3b92560405160405180910390a45050565b611b16611a4d565b73ffffffffffffffffffffffffffffffffffffffff16611b346114cc565b73ffffffffffffffffffffffffffffffffffffffff1614611b8a576040517f08c379a0000000000000000000000000000000000000000000000000000000008152600401611b8190613d7c565b60405180910390fd5b565b600080611b9883611152565b90508073ffffffffffffffffffffffffffffffffffffffff168473ffffffffffffffffffffffffffffffffffffffff161480611bda5750611bd98185611881565b5b80611c1857508373ffffffffffffffffffffffffffffffffffffffff16611c008461061a565b73ffffffffffffffffffffffffffffffffffffffff16145b91505092915050565b8273ffffffffffffffffffffffffffffffffffffffff16611c4182611152565b73ffffffffffffffffffffffffffffffffffffffff1614611c97576040517f08c379a0000000000000000000000000000000000000000000000000000000008152600401611c8e90613e0e565b60405180910390fd5b600073ffffffffffffffffffffffffffffffffffffffff168273ffffffffffffffffffffffffffffffffffffffff1603611d06576040517f08c379a0000000000000000000000000000000000000000000000000000000008152600401611cfd90613ea0565b60405180910390fd5b611d138383836001612621565b8273ffffffffffffffffffffffffffffffffffffffff16611d3382611152565b73ffffffffffffffffffffffffffffffffffffffff1614611d89576040517f08c379a0000000000000000000000000000000000000000000000000000000008152600401611d8090613e0e565b60405180910390fd5b6004600082815260200190815260200160002060006101000a81549073ffffffffffffffffffffffffffffffffffffffff02191690556001600360008573ffffffffffffffffffffffffffffffffffffffff1673ffffffffffffffffffffffffffffffffffffffff168152602001908152602001600020600082825403925050819055506001600360008473ffffffffffffffffffffffffffffffffffffffff1673ffffffffffffffffffffffffffffffffffffffff16815260200190815260200160002060008282540192505081905550816002600083815260200190815260200160002060006101000a81548173ffffffffffffffffffffffffffffffffffffffff021916908373ffffffffffffffffffffffffffffffffffffffff160217905550808273ffffffffffffffffffffffffffffffffffffffff168473ffffffffffffffffffffffffffffffffffffffff167fddf252ad1be2c89b69c2b068fc378daa952ba7f163c4a11628f55a4df523b3ef60405160405180910390a4611f1583838360016126a2565b505050565b6001816000016000828254019250508190555050565b600081600001549050919050565b600073ffffffffffffffffffffffffffffffffffffffff168273ffffffffffffffffffffffffffffffffffffffff1603611fad576040517f08c379a0000000000000000000000000000000000000000000000000000000008152600401611fa490613f0c565b60405180910390fd5b611fb6816125e0565b15611ff6576040517f08c379a0000000000000000000000000000000000000000000000000000000008152600401611fed90613f78565b60405180910390fd5b612004600083836001612621565b61200d816125e0565b1561204d576040517f08c379a000000000000000000000000000000000000000000000000000000000815260040161204490613f78565b60405180910390fd5b6001600360008473ffffffffffffffffffffffffffffffffffffffff1673ffffffffffffffffffffffffffffffffffffffff16815260200190815260200160002060008282540192505081905550816002600083815260200190815260200160002060006101000a81548173ffffffffffffffffffffffffffffffffffffffff021916908373ffffffffffffffffffffffffffffffffffffffff160217905550808273ffffffffffffffffffffffffffffffffffffffff16600073ffffffffffffffffffffffffffffffffffffffff167fddf252ad1be2c89b69c2b068fc378daa952ba7f163c4a11628f55a4df523b3ef60405160405180910390a46121576000838360016126a2565b5050565b60606000600161216a846126a8565b01905060008167ffffffffffffffff81111561218957612188612fed565b5b6040519080825280601f01601f1916602001820160405280156121bb5781602001600182028036833780820191505090505b509050600082602001820190505b60011561221e578080600190039150507f3031323334353637383961626364656600000000000000000000000000000000600a86061a8153600a858161221257612211613f98565b5b049450600085036121c9575b819350505050919050565b612232826125e0565b612271576040517f08c379a000000000000000000000000000000000000000000000000000000000815260040161226890614039565b60405180910390fd5b806006600084815260200190815260200160002090816122919190613917565b505050565b60006002600083815260200190815260200160002060009054906101000a900473ffffffffffffffffffffffffffffffffffffffff169050919050565b6000600760009054906101000a900473ffffffffffffffffffffffffffffffffffffffff16905081600760006101000a81548173ffffffffffffffffffffffffffffffffffffffff021916908373ffffffffffffffffffffffffffffffffffffffff1602179055508173ffffffffffffffffffffffffffffffffffffffff168173ffffffffffffffffffffffffffffffffffffffff167f8be0079c531659141344cd1fd0a4f28419497f9722a3daafe3b4186f6b6457e060405160405180910390a35050565b8173ffffffffffffffffffffffffffffffffffffffff168373ffffffffffffffffffffffffffffffffffffffff1603612407576040517f08c379a00000000000000000000000000000000000000000000000000000000081526004016123fe906140a5565b60405180910390fd5b80600560008573ffffffffffffffffffffffffffffffffffffffff1673ffffffffffffffffffffffffffffffffffffffff16815260200190815260200160002060008473ffffffffffffffffffffffffffffffffffffffff1673ffffffffffffffffffffffffffffffffffffffff16815260200190815260200160002060006101000a81548160ff0219169083151502179055508173ffffffffffffffffffffffffffffffffffffffff168373ffffffffffffffffffffffffffffffffffffffff167f17307eab39ab6107e8899845ad3d59bd9653f200f220920489ca2b5937696c31836040516124f89190612c38565b60405180910390a3505050565b612510848484611c21565b61251c848484846127fb565b61255b576040517f08c379a000000000000000000000000000000000000000000000000000000000815260040161255290614137565b60405180910390fd5b50505050565b606060405180602001604052806000815250905090565b606061258382611a02565b600061258d612561565b905060008151116125ad57604051806020016040528060008152506125d8565b806125b78461215b565b6040516020016125c8929190613c7a565b6040516020818303038152906040525b915050919050565b60008073ffffffffffffffffffffffffffffffffffffffff1661260283612296565b73ffffffffffffffffffffffffffffffffffffffff1614159050919050565b600073ffffffffffffffffffffffffffffffffffffffff168473ffffffffffffffffffffffffffffffffffffffff1614612690576040517f08c379a0000000000000000000000000000000000000000000000000000000008152600401612687906141c9565b60405180910390fd5b61269c84848484612982565b50505050565b50505050565b600080600090507a184f03e93ff9f4daa797ed6e38ed64bf6a1f0100000000000000008310612706577a184f03e93ff9f4daa797ed6e38ed64bf6a1f01000000000000000083816126fc576126fb613f98565b5b0492506040810190505b6d04ee2d6d415b85acef81000000008310612743576d04ee2d6d415b85acef8100000000838161273957612738613f98565b5b0492506020810190505b662386f26fc10000831061277257662386f26fc10000838161276857612767613f98565b5b0492506010810190505b6305f5e100831061279b576305f5e100838161279157612790613f98565b5b0492506008810190505b61271083106127c05761271083816127b6576127b5613f98565b5b0492506004810190505b606483106127e357606483816127d9576127d8613f98565b5b0492506002810190505b600a83106127f2576001810190505b80915050919050565b600061281c8473ffffffffffffffffffffffffffffffffffffffff16612aa8565b15612975578373ffffffffffffffffffffffffffffffffffffffff1663150b7a02612845611a4d565b8786866040518563ffffffff1660e01b8152600401612867949392919061423e565b6020604051808303816000875af19250505080156128a357506040513d601f19601f820116820180604052508101906128a0919061429f565b60015b612925573d80600081146128d3576040519150601f19603f3d011682016040523d82523d6000602084013e6128d8565b606091505b50600081510361291d576040517f08c379a000000000000000000000000000000000000000000000000000000000815260040161291490614137565b60405180910390fd5b805181602001fd5b63150b7a0260e01b7bffffffffffffffffffffffffffffffffffffffffffffffffffffffff1916817bffffffffffffffffffffffffffffffffffffffffffffffffffffffff19161491505061297a565b600190505b949350505050565b6001811115612aa257600073ffffffffffffffffffffffffffffffffffffffff168473ffffffffffffffffffffffffffffffffffffffff1614612a165780600360008673ffffffffffffffffffffffffffffffffffffffff1673ffffffffffffffffffffffffffffffffffffffff1681526020019081526020016000206000828254612a0e91906142fb565b925050819055505b600073ffffffffffffffffffffffffffffffffffffffff168373ffffffffffffffffffffffffffffffffffffffff1614612aa15780600360008573ffffffffffffffffffffffffffffffffffffffff1673ffffffffffffffffffffffffffffffffffffffff1681526020019081526020016000206000828254612a99919061432f565b925050819055505b5b50505050565b6000808273ffffffffffffffffffffffffffffffffffffffff163b119050919050565b6040518060c00160405280600081526020016060815260200160006001811115612af857612af7613232565b5b81526020016000815260200160006001811115612b1857612b17613232565b5b81526020016000151581525090565b508054612b33906135aa565b6000825580601f10612b455750612b64565b601f016020900490600052602060002090810190612b639190612b67565b5b50565b5b80821115612b80576000816000905550600101612b68565b5090565b6000604051905090565b600080fd5b600080fd5b60007fffffffff0000000000000000000000000000000000000000000000000000000082169050919050565b612bcd81612b98565b8114612bd857600080fd5b50565b600081359050612bea81612bc4565b92915050565b600060208284031215612c0657612c05612b8e565b5b6000612c1484828501612bdb565b91505092915050565b60008115159050919050565b612c3281612c1d565b82525050565b6000602082019050612c4d6000830184612c29565b92915050565b600081519050919050565b600082825260208201905092915050565b60005b83811015612c8d578082015181840152602081019050612c72565b60008484015250505050565b6000601f19601f8301169050919050565b6000612cb582612c53565b612cbf8185612c5e565b9350612ccf818560208601612c6f565b612cd881612c99565b840191505092915050565b60006020820190508181036000830152612cfd8184612caa565b905092915050565b6000819050919050565b612d1881612d05565b8114612d2357600080fd5b50565b600081359050612d3581612d0f565b92915050565b600060208284031215612d5157612d50612b8e565b5b6000612d5f84828501612d26565b91505092915050565b600073ffffffffffffffffffffffffffffffffffffffff82169050919050565b6000612d9382612d68565b9050919050565b612da381612d88565b82525050565b6000602082019050612dbe6000830184612d9a565b92915050565b612dcd81612d88565b8114612dd857600080fd5b50565b600081359050612dea81612dc4565b92915050565b60008060408385031215612e0757612e06612b8e565b5b6000612e1585828601612ddb565b9250506020612e2685828601612d26565b9150509250929050565b600060208284031215612e4657612e45612b8e565b5b6000612e5484828501612ddb565b91505092915050565b600080fd5b600080fd5b600080fd5b60008083601f840112612e8257612e81612e5d565b5b8235905067ffffffffffffffff811115612e9f57612e9e612e62565b5b602083019150836001820283011115612ebb57612eba612e67565b5b9250929050565b600060ff82169050919050565b612ed881612ec2565b8114612ee357600080fd5b50565b600081359050612ef581612ecf565b92915050565b60008060008060008060a08789031215612f1857612f17612b8e565b5b6000612f2689828a01612ddb565b965050602087013567ffffffffffffffff811115612f4757612f46612b93565b5b612f5389828a01612e6c565b95509550506040612f6689828a01612d26565b9350506060612f7789828a01612ee6565b9250506080612f8889828a01612ee6565b9150509295509295509295565b600080600060608486031215612fae57612fad612b8e565b5b6000612fbc86828701612ddb565b9350506020612fcd86828701612ddb565b9250506040612fde86828701612d26565b9150509250925092565b600080fd5b7f4e487b7100000000000000000000000000000000000000000000000000000000600052604160045260246000fd5b61302582612c99565b810181811067ffffffffffffffff8211171561304457613043612fed565b5b80604052505050565b6000613057612b84565b9050613063828261301c565b919050565b600067ffffffffffffffff82111561308357613082612fed565b5b61308c82612c99565b9050602081019050919050565b82818337600083830152505050565b60006130bb6130b684613068565b61304d565b9050828152602081018484840111156130d7576130d6612fe8565b5b6130e2848285613099565b509392505050565b600082601f8301126130ff576130fe612e5d565b5b813561310f8482602086016130a8565b91505092915050565b600080600080600060a0868803121561313457613133612b8e565b5b600061314288828901612ddb565b955050602086013567ffffffffffffffff81111561316357613162612b93565b5b61316f888289016130ea565b945050604061318088828901612d26565b935050606061319188828901612ee6565b92505060806131a288828901612ee6565b9150509295509295909350565b6131b881612d05565b82525050565b60006020820190506131d360008301846131af565b92915050565b6131e281612d05565b82525050565b600082825260208201905092915050565b600061320482612c53565b61320e81856131e8565b935061321e818560208601612c6f565b61322781612c99565b840191505092915050565b7f4e487b7100000000000000000000000000000000000000000000000000000000600052602160045260246000fd5b6002811061327257613271613232565b5b50565b600081905061328382613261565b919050565b600061329382613275565b9050919050565b6132a381613288565b82525050565b600281106132ba576132b9613232565b5b50565b60008190506132cb826132a9565b919050565b60006132db826132bd565b9050919050565b6132eb816132d0565b82525050565b6132fa81612c1d565b82525050565b600060c08301600083015161331860008601826131d9565b506020830151848203602086015261333082826131f9565b9150506040830151613345604086018261329a565b50606083015161335860608601826131d9565b50608083015161336b60808601826132e2565b5060a083015161337e60a08601826132f1565b508091505092915050565b600060208201905081810360008301526133a38184613300565b905092915050565b6133b481612c1d565b81146133bf57600080fd5b50565b6000813590506133d1816133ab565b92915050565b600080604083850312156133ee576133ed612b8e565b5b60006133fc85828601612ddb565b925050602061340d858286016133c2565b9150509250929050565b600067ffffffffffffffff82111561343257613431612fed565b5b61343b82612c99565b9050602081019050919050565b600061345b61345684613417565b61304d565b90508281526020810184848401111561347757613476612fe8565b5b613482848285613099565b509392505050565b600082601f83011261349f5761349e612e5d565b5b81356134af848260208601613448565b91505092915050565b600080600080608085870312156134d2576134d1612b8e565b5b60006134e087828801612ddb565b94505060206134f187828801612ddb565b935050604061350287828801612d26565b925050606085013567ffffffffffffffff81111561352357613522612b93565b5b61352f8782880161348a565b91505092959194509250565b6000806040838503121561355257613551612b8e565b5b600061356085828601612ddb565b925050602061357185828601612ddb565b9150509250929050565b7f4e487b7100000000000000000000000000000000000000000000000000000000600052602260045260246000fd5b600060028204905060018216806135c257607f821691505b6020821081036135d5576135d461357b565b5b50919050565b7f4552433732313a20617070726f76616c20746f2063757272656e74206f776e6560008201527f7200000000000000000000000000000000000000000000000000000000000000602082015250565b6000613637602183612c5e565b9150613642826135db565b604082019050919050565b600060208201905081810360008301526136668161362a565b9050919050565b7f4552433732313a20617070726f76652063616c6c6572206973206e6f7420746f60008201527f6b656e206f776e6572206f7220617070726f76656420666f7220616c6c000000602082015250565b60006136c9603d83612c5e565b91506136d48261366d565b604082019050919050565b600060208201905081810360008301526136f8816136bc565b9050919050565b7f4f7069494420646f206e6f742065786973747300000000000000000000000000600082015250565b6000613735601383612c5e565b9150613740826136ff565b602082019050919050565b6000602082019050818103600083015261376481613728565b9050919050565b60008190508160005260206000209050919050565b60006020601f8301049050919050565b600082821b905092915050565b6000600883026137cd7fffffffffffffffffffffffffffffffffffffffffffffffffffffffffffffffff82613790565b6137d78683613790565b95508019841693508086168417925050509392505050565b6000819050919050565b600061381461380f61380a84612d05565b6137ef565b612d05565b9050919050565b6000819050919050565b61382e836137f9565b61384261383a8261381b565b84845461379d565b825550505050565b600090565b61385761384a565b613862818484613825565b505050565b5b818110156138865761387b60008261384f565b600181019050613868565b5050565b601f8211156138cb5761389c8161376b565b6138a584613780565b810160208510156138b4578190505b6138c86138c085613780565b830182613867565b50505b505050565b600082821c905092915050565b60006138ee600019846008026138d0565b1980831691505092915050565b600061390783836138dd565b9150826002028217905092915050565b61392082612c53565b67ffffffffffffffff81111561393957613938612fed565b5b61394382546135aa565b61394e82828561388a565b600060209050601f831160018114613981576000841561396f578287015190505b61397985826138fb565b8655506139e1565b601f19841661398f8661376b565b60005b828110156139b757848901518255600182019150602085019450602081019050613992565b868310156139d457848901516139d0601f8916826138dd565b8355505b6001600288020188555050505b505050505050565b7f4552433732313a2063616c6c6572206973206e6f7420746f6b656e206f776e6560008201527f72206f7220617070726f76656400000000000000000000000000000000000000602082015250565b6000613a45602d83612c5e565b9150613a50826139e9565b604082019050919050565b60006020820190508181036000830152613a7481613a38565b9050919050565b7f4f7069494420616c726561647920657869737473000000000000000000000000600082015250565b6000613ab1601483612c5e565b9150613abc82613a7b565b602082019050919050565b60006020820190508181036000830152613ae081613aa4565b9050919050565b600081905092915050565b6000613afd82612c53565b613b078185613ae7565b9350613b17818560208601612c6f565b80840191505092915050565b7f2e6a736f6e000000000000000000000000000000000000000000000000000000815250565b6000613b558285613af2565b9150613b618284613af2565b9150613b6c82613b23565b6005820191508190509392505050565b7f4552433732313a20696e76616c696420746f6b656e2049440000000000000000600082015250565b6000613bb2601883612c5e565b9150613bbd82613b7c565b602082019050919050565b60006020820190508181036000830152613be181613ba5565b9050919050565b7f4552433732313a2061646472657373207a65726f206973206e6f74206120766160008201527f6c6964206f776e65720000000000000000000000000000000000000000000000602082015250565b6000613c44602983612c5e565b9150613c4f82613be8565b604082019050919050565b60006020820190508181036000830152613c7381613c37565b9050919050565b6000613c868285613af2565b9150613c928284613af2565b91508190509392505050565b7f4f776e61626c653a206e6577206f776e657220697320746865207a65726f206160008201527f6464726573730000000000000000000000000000000000000000000000000000602082015250565b6000613cfa602683612c5e565b9150613d0582613c9e565b604082019050919050565b60006020820190508181036000830152613d2981613ced565b9050919050565b7f4f776e61626c653a2063616c6c6572206973206e6f7420746865206f776e6572600082015250565b6000613d66602083612c5e565b9150613d7182613d30565b602082019050919050565b60006020820190508181036000830152613d9581613d59565b9050919050565b7f4552433732313a207472616e736665722066726f6d20696e636f72726563742060008201527f6f776e6572000000000000000000000000000000000000000000000000000000602082015250565b6000613df8602583612c5e565b9150613e0382613d9c565b604082019050919050565b60006020820190508181036000830152613e2781613deb565b9050919050565b7f4552433732313a207472616e7366657220746f20746865207a65726f2061646460008201527f7265737300000000000000000000000000000000000000000000000000000000602082015250565b6000613e8a602483612c5e565b9150613e9582613e2e565b604082019050919050565b60006020820190508181036000830152613eb981613e7d565b9050919050565b7f4552433732313a206d696e7420746f20746865207a65726f2061646472657373600082015250565b6000613ef6602083612c5e565b9150613f0182613ec0565b602082019050919050565b60006020820190508181036000830152613f2581613ee9565b9050919050565b7f4552433732313a20746f6b656e20616c7265616479206d696e74656400000000600082015250565b6000613f62601c83612c5e565b9150613f6d82613f2c565b602082019050919050565b60006020820190508181036000830152613f9181613f55565b9050919050565b7f4e487b7100000000000000000000000000000000000000000000000000000000600052601260045260246000fd5b7f45524337323155524953746f726167653a2055524920736574206f66206e6f6e60008201527f6578697374656e7420746f6b656e000000000000000000000000000000000000602082015250565b6000614023602e83612c5e565b915061402e82613fc7565b604082019050919050565b6000602082019050818103600083015261405281614016565b9050919050565b7f4552433732313a20617070726f766520746f2063616c6c657200000000000000600082015250565b600061408f601983612c5e565b915061409a82614059565b602082019050919050565b600060208201905081810360008301526140be81614082565b9050919050565b7f4552433732313a207472616e7366657220746f206e6f6e20455243373231526560008201527f63656976657220696d706c656d656e7465720000000000000000000000000000602082015250565b6000614121603283612c5e565b915061412c826140c5565b604082019050919050565b6000602082019050818103600083015261415081614114565b9050919050565b7f534254203a206e6f7420706f737369626c6520746f205472616e73666572207960008201527f6f7572204f706949640000000000000000000000000000000000000000000000602082015250565b60006141b3602983612c5e565b91506141be82614157565b604082019050919050565b600060208201905081810360008301526141e2816141a6565b9050919050565b600081519050919050565b600082825260208201905092915050565b6000614210826141e9565b61421a81856141f4565b935061422a818560208601612c6f565b61423381612c99565b840191505092915050565b60006080820190506142536000830187612d9a565b6142606020830186612d9a565b61426d60408301856131af565b818103606083015261427f8184614205565b905095945050505050565b60008151905061429981612bc4565b92915050565b6000602082840312156142b5576142b4612b8e565b5b60006142c38482850161428a565b91505092915050565b7f4e487b7100000000000000000000000000000000000000000000000000000000600052601160045260246000fd5b600061430682612d05565b915061431183612d05565b9250828203905081811115614329576143286142cc565b5b92915050565b600061433a82612d05565b915061434583612d05565b925082820190508082111561435d5761435c6142cc565b5b9291505056fe68747470733a2f2f697066732e696f2f697066732f516d51696365694746785637327a754b68793367675a686f467531476375767533356b6865646a7478414d4c36472fa2646970667358221220985808b9b52fe8af25ad185b2fc6cf7d440838e30b9ad5c917cf4f9a5884056a64736f6c63430008130033",
  "immutableReferences": {},
  "source": "// SPDX-License-Identifier: GPL-3.0\npragma solidity 0.8.19;\n\nimport \"../node_modules/@openzeppelin/contracts/token/ERC721/extensions/ERC721URIStorage.sol\";\nimport \"../node_modules/@openzeppelin/contracts/utils/Counters.sol\";\nimport \"../node_modules/@openzeppelin/contracts/access/Ownable.sol\";\nimport \"../node_modules/@openzeppelin/contracts/utils/Strings.sol\";\n           \n/// @title  ChlChain SBT contract\n/// @author Saad Igueninni\n/// @notice ERC721 not transferable, bound to Soul\n/// @dev Inherits the OpenZepplin Ownable ,ERC721URIStorage,Counters & Strings contracts\ncontract ChlChainSBT is ERC721URIStorage, Ownable {\n    using Counters for Counters.Counter;\n\n    enum Gender {\n        Male,\n        Female\n    }\n\n    enum Role {\n        Sounder,\n        Challengeed\n    }\n\n    struct ChlProfile {\n        uint256 ChlIdCounter;\n        string name;\n        Gender gender;\n        uint256 age;\n        Role role;\n        bool isChlIdGranted;\n    }\n\n    /// @notice mapping to match Adress to Profile\n    mapping(address => ChlProfile) ChlProfiles;\n    Counters.Counter private _ChlIdCounter;\n\n    event grantedChlID(ChlProfile _newChlProfile);\n    event revokedChlID(address _profileAddress);\n    event updatedChlID(address _profileAddress);\n\n    constructor() ERC721(\"ChlChainID\", \"ChlId\") {}\n\n    // ::::::::::::: MODIFIERS ::::::::::::: //\n    modifier onlySounders(address _profileAddress) {\n        require(\n            (ChlProfiles[_profileAddress].isChlIdGranted &&\n                ChlProfiles[_profileAddress].role == Role.Sounder),\n            \"You are not a sounder\"\n        );\n        _;\n    }\n\n    modifier onlyChallengeeds(address _profileAddress) {\n        require(\n            (ChlProfiles[_profileAddress].isChlIdGranted &&\n                ChlProfiles[msg.sender].role == Role.Challengeed),\n            \"You are not a Challengeed\"\n        );\n        _;\n    }\n\n    modifier ChlIdExists(address _profileAddress) {\n        require(\n            ChlProfiles[_profileAddress].isChlIdGranted,\n            \"ChlID do not exists\"\n        );\n        _;\n    }\n\n    // ::::::::::::: GETTERS ::::::::::::: //\n    function getChlID(address _profileAddress)\n        external\n        view\n        onlyOwner\n        ChlIdExists(_profileAddress)\n        returns (ChlProfile memory)\n    {\n        return ChlProfiles[_profileAddress];\n    }\n\n    function isGrantedChlID(address _profileAddress)\n        external\n        view\n        onlyOwner\n        returns (bool)\n    {\n        return ChlProfiles[_profileAddress].isChlIdGranted;\n    }\n\n    /// @notice we check existence and role \n    function isSounder(address _profileAddress)\n        external\n        view\n        onlyOwner\n        returns (bool)\n    {\n        return (ChlProfiles[_profileAddress].isChlIdGranted &&\n            ChlProfiles[_profileAddress].role == Role.Sounder);\n    }\n\n    /// @notice we check existence and role\n    function isChallengeed(address _profileAddress)\n        external\n        view\n        onlyOwner\n        returns (bool)\n    {\n        return (ChlProfiles[_profileAddress].isChlIdGranted &&\n            ChlProfiles[_profileAddress].role == Role.Challengeed);\n    }\n\n    // ::::::::::::: MEMBERS MANAGEMENT ::::::::::::: //\n\n    /// @notice Owner grant SBT\n    /// @dev We check non existence of profile\n    /// @param _profileAddress Address of new profile\n    /// @param _name Name \n    /// @param _age age\n    /// @param _gender gender( )\n    /// @return newChlID Id OF SBT\n    function grantChlID(\n        address _profileAddress,\n        // string memory _SBTUri,\n        string memory _name,\n        uint256 _age,\n        uint8 _gender,\n        uint8 _role\n    ) public onlyOwner returns (uint256) {\n        require(\n            !ChlProfiles[_profileAddress].isChlIdGranted,\n            \"ChlID already exists\"\n        );\n\n        _ChlIdCounter.increment(); //To start at 1\n        uint256 newChlID = _ChlIdCounter.current();\n        ChlProfile memory newChlProfile;\n\n        //Add new Profile\n        newChlProfile.ChlIdCounter = newChlID;\n        newChlProfile.name = _name;\n        newChlProfile.age = _age;\n        newChlProfile.gender = Gender(_gender);\n        newChlProfile.role = Role(_role);\n        newChlProfile.isChlIdGranted = true;\n        ChlProfiles[_profileAddress] = newChlProfile;\n\n        _mint(_profileAddress, newChlID);\n\n        string memory urinumber = Strings.toString(newChlID);\n        string\n            memory tokenURI = \"https://ipfs.io/ipfs/QmQiceiGFxV72zuKhy3ggZhoFu1Gcuvu35khedjtxAML6G/\";\n        string memory _SBTUri = string.concat(tokenURI, urinumber, \".json\");\n\n        _setTokenURI(newChlID, _SBTUri);\n\n        emit grantedChlID(newChlProfile);\n        return newChlID;\n    }\n\n\n    /// @notice Owner revoke SBT\n    /// @dev Wecheck exitence before revoking\n    /// @param _profileAddress Address of the revoked profile\n    function revokeChlID(address _profileAddress) external onlyOwner {\n        require(\n           ChlProfiles[_profileAddress].isChlIdGranted,\n            \"ChlID do not exists\"\n        );\n        emit revokedChlID(_profileAddress);\n        delete ChlProfiles[_profileAddress];\n    }\n\n\n    /// @notice Owner update SBT\n    /// @dev We check  existence of profile\n    /// @param _profileAddress Address of  profile to be updated\n    /// @param _name Name \n    /// @param _age age\n    /// @param _gender gender( )\n    function updateChlID(\n        address _profileAddress,\n        string calldata _name,\n        uint256 _age,\n        uint8 _gender,\n        uint8 _role\n    ) external onlyOwner {\n        require(\n           ChlProfiles[_profileAddress].isChlIdGranted,\n            \"ChlID do not exists\"\n        );\n\n        ChlProfile memory UpdChlProfile;\n\n        UpdChlProfile = ChlProfiles[_profileAddress];\n        UpdChlProfile.name = _name;\n        UpdChlProfile.age = _age;\n        UpdChlProfile.gender = Gender(_gender);\n        UpdChlProfile.role = Role(_role);\n        ChlProfiles[_profileAddress] = UpdChlProfile;\n\n        emit updatedChlID(_profileAddress);\n    }\n\n    // ::::::::::::: OVVERIDES ::::::::::::: //\n    /// @notice Usage of hook to block Transfer of SBT\n    function _beforeTokenTransfer(\n        address from,\n        address to,\n        uint256 tokenId,\n        uint256 batchSize\n    ) internal virtual override {\n        require(\n            from == address(0),\n            \"SBT : not possible to Transfer your ChlId\"\n        );\n        super._beforeTokenTransfer(from, to, tokenId, batchSize);\n    }\n}\n",
  "sourcePath": "/home/saadi/coursAlyra/ChlChain/truffle/contracts/ChlChainSBT.sol",
  "compiler": {
    "name": "solc",
    "version": "0.8.19+commit.7dd6d404.Emscripten.clang"
  },
  "schemaVersion": "3.4.10",
  "updatedAt": "2023-07-21T16:11:28.391Z",
  "networkType": "ethereum",
  "devdoc": {
    "author": "Saad Igueninni",
    "details": "Inherits the OpenZepplin Ownable ,ERC721URIStorage,Counters & Strings contracts",
    "events": {
      "Approval(address,address,uint256)": {
        "details": "Emitted when `owner` enables `approved` to manage the `tokenId` token."
      },
      "ApprovalForAll(address,address,bool)": {
        "details": "Emitted when `owner` enables or disables (`approved`) `operator` to manage all of its assets."
      },
      "Transfer(address,address,uint256)": {
        "details": "Emitted when `tokenId` token is transferred from `from` to `to`."
      }
    },
    "kind": "dev",
    "methods": {
      "approve(address,uint256)": {
        "details": "See {IERC721-approve}."
      },
      "balanceOf(address)": {
        "details": "See {IERC721-balanceOf}."
      },
      "getApproved(uint256)": {
        "details": "See {IERC721-getApproved}."
      },
      "grantChlID(address,string,uint256,uint8,uint8)": {
        "details": "We check non existence of profile",
        "params": {
          "_age": "age",
          "_gender": "gender( )",
          "_name": "Name ",
          "_profileAddress": "Address of new profile"
        },
        "returns": {
          "_0": "newChlID Id OF SBT"
        }
      },
      "isApprovedForAll(address,address)": {
        "details": "See {IERC721-isApprovedForAll}."
      },
      "name()": {
        "details": "See {IERC721Metadata-name}."
      },
      "owner()": {
        "details": "Returns the address of the current owner."
      },
      "ownerOf(uint256)": {
        "details": "See {IERC721-ownerOf}."
      },
      "renounceOwnership()": {
        "details": "Leaves the contract without owner. It will not be possible to call `onlyOwner` functions anymore. Can only be called by the current owner. NOTE: Renouncing ownership will leave the contract without an owner, thereby removing any functionality that is only available to the owner."
      },
      "revokeChlID(address)": {
        "details": "Wecheck exitence before revoking",
        "params": {
          "_profileAddress": "Address of the revoked profile"
        }
      },
      "safeTransferFrom(address,address,uint256)": {
        "details": "See {IERC721-safeTransferFrom}."
      },
      "safeTransferFrom(address,address,uint256,bytes)": {
        "details": "See {IERC721-safeTransferFrom}."
      },
      "setApprovalForAll(address,bool)": {
        "details": "See {IERC721-setApprovalForAll}."
      },
      "supportsInterface(bytes4)": {
        "details": "See {IERC165-supportsInterface}."
      },
      "symbol()": {
        "details": "See {IERC721Metadata-symbol}."
      },
      "tokenURI(uint256)": {
        "details": "See {IERC721Metadata-tokenURI}."
      },
      "transferFrom(address,address,uint256)": {
        "details": "See {IERC721-transferFrom}."
      },
      "transferOwnership(address)": {
        "details": "Transfers ownership of the contract to a new account (`newOwner`). Can only be called by the current owner."
      },
      "updateChlID(address,string,uint256,uint8,uint8)": {
        "details": "We check  existence of profile",
        "params": {
          "_age": "age",
          "_gender": "gender( )",
          "_name": "Name ",
          "_profileAddress": "Address of  profile to be updated"
        }
      }
    },
    "title": "ChlChain SBT contract",
    "version": 1
  },
  "userdoc": {
    "kind": "user",
    "methods": {
      "grantChlID(address,string,uint256,uint8,uint8)": {
        "notice": "Owner grant SBT"
      },
      "isChallengeed(address)": {
        "notice": "we check existence and role"
      },
      "isSounder(address)": {
        "notice": "we check existence and role "
      },
      "revokeChlID(address)": {
        "notice": "Owner revoke SBT"
      },
      "updateChlID(address,string,uint256,uint8,uint8)": {
        "notice": "Owner update SBT"
      }
    },
    "notice": "ERC721 not transferable, bound to Soul",
    "version": 1
  }
}