{
  "contractName": "OpiChainSurveyNFT",
  "abi": [
    {
      "inputs": [],
      "stateMutability": "nonpayable",
      "type": "constructor"
    },
    {
      "anonymous": false,
      "inputs": [
        {
          "indexed": true,
          "internalType": "address",
          "name": "owner",
          "type": "address"
        },
        {
          "indexed": true,
          "internalType": "address",
          "name": "approved",
          "type": "address"
        },
        {
          "indexed": true,
          "internalType": "uint256",
          "name": "tokenId",
          "type": "uint256"
        }
      ],
      "name": "Approval",
      "type": "event"
    },
    {
      "anonymous": false,
      "inputs": [
        {
          "indexed": true,
          "internalType": "address",
          "name": "owner",
          "type": "address"
        },
        {
          "indexed": true,
          "internalType": "address",
          "name": "operator",
          "type": "address"
        },
        {
          "indexed": false,
          "internalType": "bool",
          "name": "approved",
          "type": "bool"
        }
      ],
      "name": "ApprovalForAll",
      "type": "event"
    },
    {
      "anonymous": false,
      "inputs": [
        {
          "indexed": true,
          "internalType": "address",
          "name": "previousOwner",
          "type": "address"
        },
        {
          "indexed": true,
          "internalType": "address",
          "name": "newOwner",
          "type": "address"
        }
      ],
      "name": "OwnershipTransferred",
      "type": "event"
    },
    {
      "anonymous": false,
      "inputs": [
        {
          "indexed": true,
          "internalType": "address",
          "name": "from",
          "type": "address"
        },
        {
          "indexed": true,
          "internalType": "address",
          "name": "to",
          "type": "address"
        },
        {
          "indexed": true,
          "internalType": "uint256",
          "name": "tokenId",
          "type": "uint256"
        }
      ],
      "name": "Transfer",
      "type": "event"
    },
    {
      "anonymous": false,
      "inputs": [
        {
          "indexed": false,
          "internalType": "address",
          "name": "_ownerAnswer",
          "type": "address"
        },
        {
          "indexed": false,
          "internalType": "uint256",
          "name": "_idAnswer",
          "type": "uint256"
        },
        {
          "indexed": false,
          "internalType": "uint256",
          "name": "_idSurvey",
          "type": "uint256"
        },
        {
          "indexed": false,
          "internalType": "uint256",
          "name": "idQuestion",
          "type": "uint256"
        }
      ],
      "name": "answerGiven",
      "type": "event"
    },
    {
      "anonymous": false,
      "inputs": [
        {
          "indexed": false,
          "internalType": "uint256",
          "name": "_idQuestion",
          "type": "uint256"
        },
        {
          "indexed": false,
          "internalType": "uint256",
          "name": "_idSurvey",
          "type": "uint256"
        }
      ],
      "name": "questionAdded",
      "type": "event"
    },
    {
      "anonymous": false,
      "inputs": [
        {
          "indexed": false,
          "internalType": "address",
          "name": "_ownerSurvey",
          "type": "address"
        },
        {
          "indexed": false,
          "internalType": "uint256",
          "name": "_idSurvey",
          "type": "uint256"
        }
      ],
      "name": "surveyCreated",
      "type": "event"
    },
    {
      "anonymous": false,
      "inputs": [
        {
          "indexed": false,
          "internalType": "uint256",
          "name": "_idSurvey",
          "type": "uint256"
        }
      ],
      "name": "surveyDeleted",
      "type": "event"
    },
    {
      "anonymous": false,
      "inputs": [
        {
          "indexed": false,
          "internalType": "uint256",
          "name": "_idSurvey",
          "type": "uint256"
        }
      ],
      "name": "surveyNFTMinted",
      "type": "event"
    },
    {
      "anonymous": false,
      "inputs": [
        {
          "indexed": false,
          "internalType": "uint256",
          "name": "_idSurvey",
          "type": "uint256"
        }
      ],
      "name": "surveyTerminated",
      "type": "event"
    },
    {
      "inputs": [],
      "name": "SurveyUnitCost",
      "outputs": [
        {
          "internalType": "uint256",
          "name": "",
          "type": "uint256"
        }
      ],
      "stateMutability": "view",
      "type": "function",
      "constant": true
    },
    {
      "inputs": [
        {
          "internalType": "address",
          "name": "to",
          "type": "address"
        },
        {
          "internalType": "uint256",
          "name": "tokenId",
          "type": "uint256"
        }
      ],
      "name": "approve",
      "outputs": [],
      "stateMutability": "nonpayable",
      "type": "function"
    },
    {
      "inputs": [
        {
          "internalType": "address",
          "name": "owner",
          "type": "address"
        }
      ],
      "name": "balanceOf",
      "outputs": [
        {
          "internalType": "uint256",
          "name": "",
          "type": "uint256"
        }
      ],
      "stateMutability": "view",
      "type": "function",
      "constant": true
    },
    {
      "inputs": [
        {
          "internalType": "uint256",
          "name": "tokenId",
          "type": "uint256"
        }
      ],
      "name": "getApproved",
      "outputs": [
        {
          "internalType": "address",
          "name": "",
          "type": "address"
        }
      ],
      "stateMutability": "view",
      "type": "function",
      "constant": true
    },
    {
      "inputs": [
        {
          "internalType": "address",
          "name": "owner",
          "type": "address"
        },
        {
          "internalType": "address",
          "name": "operator",
          "type": "address"
        }
      ],
      "name": "isApprovedForAll",
      "outputs": [
        {
          "internalType": "bool",
          "name": "",
          "type": "bool"
        }
      ],
      "stateMutability": "view",
      "type": "function",
      "constant": true
    },
    {
      "inputs": [],
      "name": "name",
      "outputs": [
        {
          "internalType": "string",
          "name": "",
          "type": "string"
        }
      ],
      "stateMutability": "view",
      "type": "function",
      "constant": true
    },
    {
      "inputs": [],
      "name": "owner",
      "outputs": [
        {
          "internalType": "address",
          "name": "",
          "type": "address"
        }
      ],
      "stateMutability": "view",
      "type": "function",
      "constant": true
    },
    {
      "inputs": [
        {
          "internalType": "uint256",
          "name": "tokenId",
          "type": "uint256"
        }
      ],
      "name": "ownerOf",
      "outputs": [
        {
          "internalType": "address",
          "name": "",
          "type": "address"
        }
      ],
      "stateMutability": "view",
      "type": "function",
      "constant": true
    },
    {
      "inputs": [],
      "name": "renounceOwnership",
      "outputs": [],
      "stateMutability": "nonpayable",
      "type": "function"
    },
    {
      "inputs": [
        {
          "internalType": "address",
          "name": "from",
          "type": "address"
        },
        {
          "internalType": "address",
          "name": "to",
          "type": "address"
        },
        {
          "internalType": "uint256",
          "name": "tokenId",
          "type": "uint256"
        }
      ],
      "name": "safeTransferFrom",
      "outputs": [],
      "stateMutability": "nonpayable",
      "type": "function"
    },
    {
      "inputs": [
        {
          "internalType": "address",
          "name": "from",
          "type": "address"
        },
        {
          "internalType": "address",
          "name": "to",
          "type": "address"
        },
        {
          "internalType": "uint256",
          "name": "tokenId",
          "type": "uint256"
        },
        {
          "internalType": "bytes",
          "name": "data",
          "type": "bytes"
        }
      ],
      "name": "safeTransferFrom",
      "outputs": [],
      "stateMutability": "nonpayable",
      "type": "function"
    },
    {
      "inputs": [
        {
          "internalType": "address",
          "name": "operator",
          "type": "address"
        },
        {
          "internalType": "bool",
          "name": "approved",
          "type": "bool"
        }
      ],
      "name": "setApprovalForAll",
      "outputs": [],
      "stateMutability": "nonpayable",
      "type": "function"
    },
    {
      "inputs": [
        {
          "internalType": "bytes4",
          "name": "interfaceId",
          "type": "bytes4"
        }
      ],
      "name": "supportsInterface",
      "outputs": [
        {
          "internalType": "bool",
          "name": "",
          "type": "bool"
        }
      ],
      "stateMutability": "view",
      "type": "function",
      "constant": true
    },
    {
      "inputs": [],
      "name": "symbol",
      "outputs": [
        {
          "internalType": "string",
          "name": "",
          "type": "string"
        }
      ],
      "stateMutability": "view",
      "type": "function",
      "constant": true
    },
    {
      "inputs": [
        {
          "internalType": "uint256",
          "name": "tokenId",
          "type": "uint256"
        }
      ],
      "name": "tokenURI",
      "outputs": [
        {
          "internalType": "string",
          "name": "",
          "type": "string"
        }
      ],
      "stateMutability": "view",
      "type": "function",
      "constant": true
    },
    {
      "inputs": [
        {
          "internalType": "address",
          "name": "from",
          "type": "address"
        },
        {
          "internalType": "address",
          "name": "to",
          "type": "address"
        },
        {
          "internalType": "uint256",
          "name": "tokenId",
          "type": "uint256"
        }
      ],
      "name": "transferFrom",
      "outputs": [],
      "stateMutability": "nonpayable",
      "type": "function"
    },
    {
      "inputs": [
        {
          "internalType": "address",
          "name": "newOwner",
          "type": "address"
        }
      ],
      "name": "transferOwnership",
      "outputs": [],
      "stateMutability": "nonpayable",
      "type": "function"
    },
    {
      "inputs": [
        {
          "internalType": "uint256",
          "name": "_idSurvey",
          "type": "uint256"
        }
      ],
      "name": "getSurveyStatusById",
      "outputs": [
        {
          "internalType": "uint256",
          "name": "",
          "type": "uint256"
        }
      ],
      "stateMutability": "view",
      "type": "function",
      "constant": true
    },
    {
      "inputs": [
        {
          "internalType": "uint256",
          "name": "_idSurvey",
          "type": "uint256"
        }
      ],
      "name": "getSurveyById",
      "outputs": [
        {
          "components": [
            {
              "internalType": "uint256",
              "name": "idSurvey",
              "type": "uint256"
            },
            {
              "internalType": "address",
              "name": "owner",
              "type": "address"
            },
            {
              "internalType": "string",
              "name": "description",
              "type": "string"
            },
            {
              "internalType": "enum OpiChainSurveyNFT.SurveyStatus",
              "name": "surveyStatus",
              "type": "uint8"
            },
            {
              "internalType": "bool",
              "name": "exists",
              "type": "bool"
            },
            {
              "internalType": "bool",
              "name": "minted",
              "type": "bool"
            }
          ],
          "internalType": "struct OpiChainSurveyNFT.Survey",
          "name": "",
          "type": "tuple"
        }
      ],
      "stateMutability": "view",
      "type": "function",
      "constant": true
    },
    {
      "inputs": [
        {
          "internalType": "address",
          "name": "_ownerSurvey",
          "type": "address"
        },
        {
          "internalType": "uint256",
          "name": "_idSurvey",
          "type": "uint256"
        }
      ],
      "name": "getSurveyByAddress",
      "outputs": [
        {
          "components": [
            {
              "internalType": "uint256",
              "name": "idSurvey",
              "type": "uint256"
            },
            {
              "internalType": "address",
              "name": "owner",
              "type": "address"
            },
            {
              "internalType": "string",
              "name": "description",
              "type": "string"
            },
            {
              "internalType": "enum OpiChainSurveyNFT.SurveyStatus",
              "name": "surveyStatus",
              "type": "uint8"
            },
            {
              "internalType": "bool",
              "name": "exists",
              "type": "bool"
            },
            {
              "internalType": "bool",
              "name": "minted",
              "type": "bool"
            }
          ],
          "internalType": "struct OpiChainSurveyNFT.Survey",
          "name": "",
          "type": "tuple"
        }
      ],
      "stateMutability": "view",
      "type": "function",
      "constant": true
    },
    {
      "inputs": [
        {
          "internalType": "address",
          "name": "_ownerSurvey",
          "type": "address"
        },
        {
          "internalType": "string",
          "name": "_description",
          "type": "string"
        }
      ],
      "name": "createSurvey",
      "outputs": [],
      "stateMutability": "nonpayable",
      "type": "function"
    },
    {
      "inputs": [
        {
          "internalType": "uint256",
          "name": "_idSurvey",
          "type": "uint256"
        }
      ],
      "name": "mintSurvey",
      "outputs": [],
      "stateMutability": "nonpayable",
      "type": "function"
    },
    {
      "inputs": [
        {
          "internalType": "uint256",
          "name": "_idSurvey",
          "type": "uint256"
        }
      ],
      "name": "terminateSurvey",
      "outputs": [],
      "stateMutability": "nonpayable",
      "type": "function"
    },
    {
      "inputs": [
        {
          "internalType": "uint256",
          "name": "_idSurvey",
          "type": "uint256"
        }
      ],
      "name": "deleteSurvey",
      "outputs": [],
      "stateMutability": "nonpayable",
      "type": "function"
    },
    {
      "inputs": [
        {
          "internalType": "uint256",
          "name": "_idSurvey",
          "type": "uint256"
        },
        {
          "internalType": "string",
          "name": "_question",
          "type": "string"
        }
      ],
      "name": "addQuestion",
      "outputs": [],
      "stateMutability": "nonpayable",
      "type": "function"
    },
    {
      "inputs": [
        {
          "internalType": "uint256",
          "name": "_idSurvey",
          "type": "uint256"
        },
        {
          "internalType": "uint256",
          "name": "_idQuestionAnswer",
          "type": "uint256"
        },
        {
          "internalType": "string",
          "name": "_answer",
          "type": "string"
        }
      ],
      "name": "giveAnswer",
      "outputs": [],
      "stateMutability": "nonpayable",
      "type": "function"
    }
  ],
  "bytecode": "0x60806040523480156200001157600080fd5b506040518060400160405280600e81526020017f4f7069436861696e5375727665790000000000000000000000000000000000008152506040518060400160405280600381526020017f4f5053000000000000000000000000000000000000000000000000000000000081525081600090816200008f919062000412565b508060019081620000a1919062000412565b505050620000c4620000b8620000ca60201b60201c565b620000d260201b60201c565b620004f9565b600033905090565b6000600760009054906101000a900473ffffffffffffffffffffffffffffffffffffffff16905081600760006101000a81548173ffffffffffffffffffffffffffffffffffffffff021916908373ffffffffffffffffffffffffffffffffffffffff1602179055508173ffffffffffffffffffffffffffffffffffffffff168173ffffffffffffffffffffffffffffffffffffffff167f8be0079c531659141344cd1fd0a4f28419497f9722a3daafe3b4186f6b6457e060405160405180910390a35050565b600081519050919050565b7f4e487b7100000000000000000000000000000000000000000000000000000000600052604160045260246000fd5b7f4e487b7100000000000000000000000000000000000000000000000000000000600052602260045260246000fd5b600060028204905060018216806200021a57607f821691505b60208210810362000230576200022f620001d2565b5b50919050565b60008190508160005260206000209050919050565b60006020601f8301049050919050565b600082821b905092915050565b6000600883026200029a7fffffffffffffffffffffffffffffffffffffffffffffffffffffffffffffffff826200025b565b620002a686836200025b565b95508019841693508086168417925050509392505050565b6000819050919050565b6000819050919050565b6000620002f3620002ed620002e784620002be565b620002c8565b620002be565b9050919050565b6000819050919050565b6200030f83620002d2565b620003276200031e82620002fa565b84845462000268565b825550505050565b600090565b6200033e6200032f565b6200034b81848462000304565b505050565b5b8181101562000373576200036760008262000334565b60018101905062000351565b5050565b601f821115620003c2576200038c8162000236565b62000397846200024b565b81016020851015620003a7578190505b620003bf620003b6856200024b565b83018262000350565b50505b505050565b600082821c905092915050565b6000620003e760001984600802620003c7565b1980831691505092915050565b6000620004028383620003d4565b9150826002028217905092915050565b6200041d8262000198565b67ffffffffffffffff811115620004395762000438620001a3565b5b62000445825462000201565b6200045282828562000377565b600060209050601f8311600181146200048a576000841562000475578287015190505b620004818582620003f4565b865550620004f1565b601f1984166200049a8662000236565b60005b82811015620004c4578489015182556001820191506020850194506020810190506200049d565b86831015620004e45784890151620004e0601f891682620003d4565b8355505b6001600288020188555050505b505050505050565b61432a80620005096000396000f3fe608060405234801561001057600080fd5b506004361061018e5760003560e01c80638da5cb5b116100de578063bbb00a5711610097578063cb39b22e11610071578063cb39b22e1461047d578063e985e9c514610499578063f0faeac6146104c9578063f2fde38b146104f95761018e565b8063bbb00a5714610401578063c0ac4ae41461041d578063c87b56dd1461044d5761018e565b80638da5cb5b1461034157806395d89b411461035f578063a22cb4651461037d578063a5f146da14610399578063a93f6829146103b5578063b88d4fde146103e55761018e565b806342842e0e1161014b5780636a63dc4a116101255780636a63dc4a146102cf5780636b370b39146102eb57806370a0823114610307578063715018a6146103375761018e565b806342842e0e1461026757806356e2efcd146102835780636352211e1461029f5761018e565b806301ffc9a71461019357806306fdde03146101c3578063081812fc146101e1578063095ea7b31461021157806323b872dd1461022d578063393dd5d914610249575b600080fd5b6101ad60048036038101906101a89190612b79565b610515565b6040516101ba9190612bc1565b60405180910390f35b6101cb6105f7565b6040516101d89190612c6c565b60405180910390f35b6101fb60048036038101906101f69190612cc4565b610689565b6040516102089190612d32565b60405180910390f35b61022b60048036038101906102269190612d79565b6106cf565b005b61024760048036038101906102429190612db9565b6107e6565b005b610251610846565b60405161025e9190612e1b565b60405180910390f35b610281600480360381019061027c9190612db9565b61084c565b005b61029d60048036038101906102989190612cc4565b61086c565b005b6102b960048036038101906102b49190612cc4565b610a01565b6040516102c69190612d32565b60405180910390f35b6102e960048036038101906102e49190612cc4565b610a87565b005b61030560048036038101906103009190612f6b565b610b27565b005b610321600480360381019061031c9190612fc7565b610e14565b60405161032e9190612e1b565b60405180910390f35b61033f610ecb565b005b610349610edf565b6040516103569190612d32565b60405180910390f35b610367610f09565b6040516103749190612c6c565b60405180910390f35b61039760048036038101906103929190613020565b610f9b565b005b6103b360048036038101906103ae9190613060565b610fb1565b005b6103cf60048036038101906103ca9190612cc4565b6110f3565b6040516103dc9190612e1b565b60405180910390f35b6103ff60048036038101906103fa9190613170565b611132565b005b61041b600480360381019061041691906131f3565b611194565b005b61043760048036038101906104329190612cc4565b61125d565b60405161044491906133c6565b60405180910390f35b61046760048036038101906104629190612cc4565b6113ed565b6040516104749190612c6c565b60405180910390f35b61049760048036038101906104929190612cc4565b6114ff565b005b6104b360048036038101906104ae91906133e8565b6115ca565b6040516104c09190612bc1565b60405180910390f35b6104e360048036038101906104de9190612d79565b61165e565b6040516104f091906133c6565b60405180910390f35b610513600480360381019061050e9190612fc7565b61183b565b005b60007f80ac58cd000000000000000000000000000000000000000000000000000000007bffffffffffffffffffffffffffffffffffffffffffffffffffffffff1916827bffffffffffffffffffffffffffffffffffffffffffffffffffffffff191614806105e057507f5b5e139f000000000000000000000000000000000000000000000000000000007bffffffffffffffffffffffffffffffffffffffffffffffffffffffff1916827bffffffffffffffffffffffffffffffffffffffffffffffffffffffff1916145b806105f057506105ef826118be565b5b9050919050565b60606000805461060690613457565b80601f016020809104026020016040519081016040528092919081815260200182805461063290613457565b801561067f5780601f106106545761010080835404028352916020019161067f565b820191906000526020600020905b81548152906001019060200180831161066257829003601f168201915b5050505050905090565b600061069482611928565b6004600083815260200190815260200160002060009054906101000a900473ffffffffffffffffffffffffffffffffffffffff169050919050565b60006106da82610a01565b90508073ffffffffffffffffffffffffffffffffffffffff168373ffffffffffffffffffffffffffffffffffffffff160361074a576040517f08c379a0000000000000000000000000000000000000000000000000000000008152600401610741906134fa565b60405180910390fd5b8073ffffffffffffffffffffffffffffffffffffffff16610769611973565b73ffffffffffffffffffffffffffffffffffffffff161480610798575061079781610792611973565b6115ca565b5b6107d7576040517f08c379a00000000000000000000000000000000000000000000000000000000081526004016107ce9061358c565b60405180910390fd5b6107e1838361197b565b505050565b6107f76107f1611973565b82611a34565b610836576040517f08c379a000000000000000000000000000000000000000000000000000000000815260040161082d9061361e565b60405180910390fd5b610841838383611ac9565b505050565b6101f481565b61086783838360405180602001604052806000815250611132565b505050565b60018081111561087f5761087e6132b7565b5b610888826110f3565b146108c8576040517f08c379a00000000000000000000000000000000000000000000000000000000081526004016108bf9061368a565b60405180910390fd5b60006108f7600f60009054906101000a900473ffffffffffffffffffffffffffffffffffffffff166001610f9b565b600b600083815260200190815260200160002060010160009054906101000a900473ffffffffffffffffffffffffffffffffffffffff16905061093a8183611dc2565b6001600b600084815260200190815260200160002060030160026101000a81548160ff021916908315150217905550600061097483611fdf565b905060006040518060800160405280604481526020016142b1604491399050600081836040516020016109a892919061370c565b60405160208183030381529060405290506109c385826120ad565b7fda1522ad3dd77f0eff2905dc72509dd3b837ab58e2d72cf6ad71fd9cd3d77efc856040516109f29190612e1b565b60405180910390a15050505050565b600080610a0d8361211a565b9050600073ffffffffffffffffffffffffffffffffffffffff168173ffffffffffffffffffffffffffffffffffffffff1603610a7e576040517f08c379a0000000000000000000000000000000000000000000000000000000008152600401610a759061378b565b60405180910390fd5b80915050919050565b60006001811115610a9b57610a9a6132b7565b5b610aa4826110f3565b14610ae4576040517f08c379a0000000000000000000000000000000000000000000000000000000008152600401610adb906137f7565b60405180910390fd5b610aed81612157565b7fcb893910cb393b5bb0c66f4e542a99176d507fa36b0cb944e421bec6a93e735681604051610b1c9190612e1b565b60405180910390a150565b6000610b33600a612235565b9050610b3d612a4e565b6040518060c001604052808381526020018573ffffffffffffffffffffffffffffffffffffffff16815260200184815260200160006001811115610b8457610b836132b7565b5b815260200160011515815260200160001515815250905080600b60008481526020019081526020016000206000820151816000015560208201518160010160006101000a81548173ffffffffffffffffffffffffffffffffffffffff021916908373ffffffffffffffffffffffffffffffffffffffff1602179055506040820151816002019081610c1591906139c3565b5060608201518160030160006101000a81548160ff02191690836001811115610c4157610c406132b7565b5b021790555060808201518160030160016101000a81548160ff02191690831515021790555060a08201518160030160026101000a81548160ff021916908315150217905550905050600c60008573ffffffffffffffffffffffffffffffffffffffff1673ffffffffffffffffffffffffffffffffffffffff1681526020019081526020016000208190806001815401808255809150506001900390600052602060002090600402016000909190919091506000820151816000015560208201518160010160006101000a81548173ffffffffffffffffffffffffffffffffffffffff021916908373ffffffffffffffffffffffffffffffffffffffff1602179055506040820151816002019081610d5891906139c3565b5060608201518160030160006101000a81548160ff02191690836001811115610d8457610d836132b7565b5b021790555060808201518160030160016101000a81548160ff02191690831515021790555060a08201518160030160026101000a81548160ff0219169083151502179055505050610dd5600a612243565b7f4279e112134859352ebe1176277f8dc1a80826143bdf7d01b9a0f32a01d068448483604051610e06929190613a95565b60405180910390a150505050565b60008073ffffffffffffffffffffffffffffffffffffffff168273ffffffffffffffffffffffffffffffffffffffff1603610e84576040517f08c379a0000000000000000000000000000000000000000000000000000000008152600401610e7b90613b30565b60405180910390fd5b600360008373ffffffffffffffffffffffffffffffffffffffff1673ffffffffffffffffffffffffffffffffffffffff168152602001908152602001600020549050919050565b610ed3612259565b610edd60006122d7565b565b6000600760009054906101000a900473ffffffffffffffffffffffffffffffffffffffff16905090565b606060018054610f1890613457565b80601f0160208091040260200160405190810160405280929190818152602001828054610f4490613457565b8015610f915780601f10610f6657610100808354040283529160200191610f91565b820191906000526020600020905b815481529060010190602001808311610f7457829003601f168201915b5050505050905090565b610fad610fa6611973565b838361239d565b5050565b6000610fbd6009612235565b9050600e6000858152602001908152602001600020600084815260200190815260200160002060405180606001604052803373ffffffffffffffffffffffffffffffffffffffff16815260200183815260200184815250908060018154018082558091505060019003906000526020600020906003020160009091909190915060008201518160000160006101000a81548173ffffffffffffffffffffffffffffffffffffffff021916908373ffffffffffffffffffffffffffffffffffffffff1602179055506020820151816001015560408201518160020190816110a391906139c3565b5050506110b06009612243565b7fa3685256723dd35073588a74066bf06e4165e5ab7b0d4cab9561d4d382dbda6c338286866040516110e59493929190613b50565b60405180910390a150505050565b6000600b600083815260200190815260200160002060030160009054906101000a900460ff16600181111561112b5761112a6132b7565b5b9050919050565b61114361113d611973565b83611a34565b611182576040517f08c379a00000000000000000000000000000000000000000000000000000000081526004016111799061361e565b60405180910390fd5b61118e84848484612509565b50505050565b60006111a06008612235565b9050600d6000848152602001908152602001600020604051806040016040528083815260200184815250908060018154018082558091505060019003906000526020600020906002020160009091909190915060008201518160000155602082015181600101908161121291906139c3565b50505061121f6008612243565b7f4fe413162e240ea219c33f9324aad83929d30c1e92ec16e96c0c9f62649d9b598184604051611250929190613b95565b60405180910390a1505050565b611265612a4e565b600b60008381526020019081526020016000206040518060c0016040529081600082015481526020016001820160009054906101000a900473ffffffffffffffffffffffffffffffffffffffff1673ffffffffffffffffffffffffffffffffffffffff1673ffffffffffffffffffffffffffffffffffffffff1681526020016002820180546112f390613457565b80601f016020809104026020016040519081016040528092919081815260200182805461131f90613457565b801561136c5780601f106113415761010080835404028352916020019161136c565b820191906000526020600020905b81548152906001019060200180831161134f57829003601f168201915b505050505081526020016003820160009054906101000a900460ff16600181111561139a576113996132b7565b5b60018111156113ac576113ab6132b7565b5b81526020016003820160019054906101000a900460ff161515151581526020016003820160029054906101000a900460ff1615151515815250509050919050565b60606113f882611928565b600060066000848152602001908152602001600020805461141890613457565b80601f016020809104026020016040519081016040528092919081815260200182805461144490613457565b80156114915780601f1061146657610100808354040283529160200191611491565b820191906000526020600020905b81548152906001019060200180831161147457829003601f168201915b5050505050905060006114a2612565565b905060008151036114b75781925050506114fa565b6000825111156114ec5780826040516020016114d4929190613bbe565b604051602081830303815290604052925050506114fa565b6114f58461257c565b925050505b919050565b600b60008281526020019081526020016000206000808201600090556001820160006101000a81549073ffffffffffffffffffffffffffffffffffffffff02191690556002820160006115529190612ab0565b6003820160006101000a81549060ff02191690556003820160016101000a81549060ff02191690556003820160026101000a81549060ff021916905550507f96086f52d0febbca75fcf142eed9097524f3464ae751155c4a11ca084b05dd26816040516115bf9190612e1b565b60405180910390a150565b6000600560008473ffffffffffffffffffffffffffffffffffffffff1673ffffffffffffffffffffffffffffffffffffffff16815260200190815260200160002060008373ffffffffffffffffffffffffffffffffffffffff1673ffffffffffffffffffffffffffffffffffffffff16815260200190815260200160002060009054906101000a900460ff16905092915050565b611666612a4e565b600c60008473ffffffffffffffffffffffffffffffffffffffff1673ffffffffffffffffffffffffffffffffffffffff16815260200190815260200160002082815481106116b7576116b6613be2565b5b90600052602060002090600402016040518060c0016040529081600082015481526020016001820160009054906101000a900473ffffffffffffffffffffffffffffffffffffffff1673ffffffffffffffffffffffffffffffffffffffff1673ffffffffffffffffffffffffffffffffffffffff16815260200160028201805461174090613457565b80601f016020809104026020016040519081016040528092919081815260200182805461176c90613457565b80156117b95780601f1061178e576101008083540402835291602001916117b9565b820191906000526020600020905b81548152906001019060200180831161179c57829003601f168201915b505050505081526020016003820160009054906101000a900460ff1660018111156117e7576117e66132b7565b5b60018111156117f9576117f86132b7565b5b81526020016003820160019054906101000a900460ff161515151581526020016003820160029054906101000a900460ff161515151581525050905092915050565b611843612259565b600073ffffffffffffffffffffffffffffffffffffffff168173ffffffffffffffffffffffffffffffffffffffff16036118b2576040517f08c379a00000000000000000000000000000000000000000000000000000000081526004016118a990613c83565b60405180910390fd5b6118bb816122d7565b50565b60007f01ffc9a7000000000000000000000000000000000000000000000000000000007bffffffffffffffffffffffffffffffffffffffffffffffffffffffff1916827bffffffffffffffffffffffffffffffffffffffffffffffffffffffff1916149050919050565b611931816125e4565b611970576040517f08c379a00000000000000000000000000000000000000000000000000000000081526004016119679061378b565b60405180910390fd5b50565b600033905090565b816004600083815260200190815260200160002060006101000a81548173ffffffffffffffffffffffffffffffffffffffff021916908373ffffffffffffffffffffffffffffffffffffffff160217905550808273ffffffffffffffffffffffffffffffffffffffff166119ee83610a01565b73ffffffffffffffffffffffffffffffffffffffff167f8c5be1e5ebec7d5bd14f71427d1e84f3dd0314c0f7b2291e5b200ac8c7c3b92560405160405180910390a45050565b600080611a4083610a01565b90508073ffffffffffffffffffffffffffffffffffffffff168473ffffffffffffffffffffffffffffffffffffffff161480611a825750611a8181856115ca565b5b80611ac057508373ffffffffffffffffffffffffffffffffffffffff16611aa884610689565b73ffffffffffffffffffffffffffffffffffffffff16145b91505092915050565b8273ffffffffffffffffffffffffffffffffffffffff16611ae982610a01565b73ffffffffffffffffffffffffffffffffffffffff1614611b3f576040517f08c379a0000000000000000000000000000000000000000000000000000000008152600401611b3690613d15565b60405180910390fd5b600073ffffffffffffffffffffffffffffffffffffffff168273ffffffffffffffffffffffffffffffffffffffff1603611bae576040517f08c379a0000000000000000000000000000000000000000000000000000000008152600401611ba590613da7565b60405180910390fd5b611bbb8383836001612625565b8273ffffffffffffffffffffffffffffffffffffffff16611bdb82610a01565b73ffffffffffffffffffffffffffffffffffffffff1614611c31576040517f08c379a0000000000000000000000000000000000000000000000000000000008152600401611c2890613d15565b60405180910390fd5b6004600082815260200190815260200160002060006101000a81549073ffffffffffffffffffffffffffffffffffffffff02191690556001600360008573ffffffffffffffffffffffffffffffffffffffff1673ffffffffffffffffffffffffffffffffffffffff168152602001908152602001600020600082825403925050819055506001600360008473ffffffffffffffffffffffffffffffffffffffff1673ffffffffffffffffffffffffffffffffffffffff16815260200190815260200160002060008282540192505081905550816002600083815260200190815260200160002060006101000a81548173ffffffffffffffffffffffffffffffffffffffff021916908373ffffffffffffffffffffffffffffffffffffffff160217905550808273ffffffffffffffffffffffffffffffffffffffff168473ffffffffffffffffffffffffffffffffffffffff167fddf252ad1be2c89b69c2b068fc378daa952ba7f163c4a11628f55a4df523b3ef60405160405180910390a4611dbd838383600161274b565b505050565b600073ffffffffffffffffffffffffffffffffffffffff168273ffffffffffffffffffffffffffffffffffffffff1603611e31576040517f08c379a0000000000000000000000000000000000000000000000000000000008152600401611e2890613e13565b60405180910390fd5b611e3a816125e4565b15611e7a576040517f08c379a0000000000000000000000000000000000000000000000000000000008152600401611e7190613e7f565b60405180910390fd5b611e88600083836001612625565b611e91816125e4565b15611ed1576040517f08c379a0000000000000000000000000000000000000000000000000000000008152600401611ec890613e7f565b60405180910390fd5b6001600360008473ffffffffffffffffffffffffffffffffffffffff1673ffffffffffffffffffffffffffffffffffffffff16815260200190815260200160002060008282540192505081905550816002600083815260200190815260200160002060006101000a81548173ffffffffffffffffffffffffffffffffffffffff021916908373ffffffffffffffffffffffffffffffffffffffff160217905550808273ffffffffffffffffffffffffffffffffffffffff16600073ffffffffffffffffffffffffffffffffffffffff167fddf252ad1be2c89b69c2b068fc378daa952ba7f163c4a11628f55a4df523b3ef60405160405180910390a4611fdb60008383600161274b565b5050565b606060006001611fee84612751565b01905060008167ffffffffffffffff81111561200d5761200c612e40565b5b6040519080825280601f01601f19166020018201604052801561203f5781602001600182028036833780820191505090505b509050600082602001820190505b6001156120a2578080600190039150507f3031323334353637383961626364656600000000000000000000000000000000600a86061a8153600a858161209657612095613e9f565b5b0494506000850361204d575b819350505050919050565b6120b6826125e4565b6120f5576040517f08c379a00000000000000000000000000000000000000000000000000000000081526004016120ec90613f40565b60405180910390fd5b8060066000848152602001908152602001600020908161211591906139c3565b505050565b60006002600083815260200190815260200160002060009054906101000a900473ffffffffffffffffffffffffffffffffffffffff169050919050565b80600b600082815260200190815260200160002060030160019054906101000a900460ff166121bb576040517f08c379a00000000000000000000000000000000000000000000000000000000081526004016121b290613fac565b60405180910390fd5b6001600b600084815260200190815260200160002060030160006101000a81548160ff021916908360018111156121f5576121f46132b7565b5b02179055507fcb893910cb393b5bb0c66f4e542a99176d507fa36b0cb944e421bec6a93e7356826040516122299190612e1b565b60405180910390a15050565b600081600001549050919050565b6001816000016000828254019250508190555050565b612261611973565b73ffffffffffffffffffffffffffffffffffffffff1661227f610edf565b73ffffffffffffffffffffffffffffffffffffffff16146122d5576040517f08c379a00000000000000000000000000000000000000000000000000000000081526004016122cc90614018565b60405180910390fd5b565b6000600760009054906101000a900473ffffffffffffffffffffffffffffffffffffffff16905081600760006101000a81548173ffffffffffffffffffffffffffffffffffffffff021916908373ffffffffffffffffffffffffffffffffffffffff1602179055508173ffffffffffffffffffffffffffffffffffffffff168173ffffffffffffffffffffffffffffffffffffffff167f8be0079c531659141344cd1fd0a4f28419497f9722a3daafe3b4186f6b6457e060405160405180910390a35050565b8173ffffffffffffffffffffffffffffffffffffffff168373ffffffffffffffffffffffffffffffffffffffff160361240b576040517f08c379a000000000000000000000000000000000000000000000000000000000815260040161240290614084565b60405180910390fd5b80600560008573ffffffffffffffffffffffffffffffffffffffff1673ffffffffffffffffffffffffffffffffffffffff16815260200190815260200160002060008473ffffffffffffffffffffffffffffffffffffffff1673ffffffffffffffffffffffffffffffffffffffff16815260200190815260200160002060006101000a81548160ff0219169083151502179055508173ffffffffffffffffffffffffffffffffffffffff168373ffffffffffffffffffffffffffffffffffffffff167f17307eab39ab6107e8899845ad3d59bd9653f200f220920489ca2b5937696c31836040516124fc9190612bc1565b60405180910390a3505050565b612514848484611ac9565b612520848484846128a4565b61255f576040517f08c379a000000000000000000000000000000000000000000000000000000000815260040161255690614116565b60405180910390fd5b50505050565b606060405180602001604052806000815250905090565b606061258782611928565b6000612591612565565b905060008151116125b157604051806020016040528060008152506125dc565b806125bb84611fdf565b6040516020016125cc929190613bbe565b6040516020818303038152906040525b915050919050565b60008073ffffffffffffffffffffffffffffffffffffffff166126068361211a565b73ffffffffffffffffffffffffffffffffffffffff1614159050919050565b600181111561274557600073ffffffffffffffffffffffffffffffffffffffff168473ffffffffffffffffffffffffffffffffffffffff16146126b95780600360008673ffffffffffffffffffffffffffffffffffffffff1673ffffffffffffffffffffffffffffffffffffffff16815260200190815260200160002060008282546126b19190614165565b925050819055505b600073ffffffffffffffffffffffffffffffffffffffff168373ffffffffffffffffffffffffffffffffffffffff16146127445780600360008573ffffffffffffffffffffffffffffffffffffffff1673ffffffffffffffffffffffffffffffffffffffff168152602001908152602001600020600082825461273c9190614199565b925050819055505b5b50505050565b50505050565b600080600090507a184f03e93ff9f4daa797ed6e38ed64bf6a1f01000000000000000083106127af577a184f03e93ff9f4daa797ed6e38ed64bf6a1f01000000000000000083816127a5576127a4613e9f565b5b0492506040810190505b6d04ee2d6d415b85acef810000000083106127ec576d04ee2d6d415b85acef810000000083816127e2576127e1613e9f565b5b0492506020810190505b662386f26fc10000831061281b57662386f26fc10000838161281157612810613e9f565b5b0492506010810190505b6305f5e1008310612844576305f5e100838161283a57612839613e9f565b5b0492506008810190505b612710831061286957612710838161285f5761285e613e9f565b5b0492506004810190505b6064831061288c576064838161288257612881613e9f565b5b0492506002810190505b600a831061289b576001810190505b80915050919050565b60006128c58473ffffffffffffffffffffffffffffffffffffffff16612a2b565b15612a1e578373ffffffffffffffffffffffffffffffffffffffff1663150b7a026128ee611973565b8786866040518563ffffffff1660e01b81526004016129109493929190614222565b6020604051808303816000875af192505050801561294c57506040513d601f19601f820116820180604052508101906129499190614283565b60015b6129ce573d806000811461297c576040519150601f19603f3d011682016040523d82523d6000602084013e612981565b606091505b5060008151036129c6576040517f08c379a00000000000000000000000000000000000000000000000000000000081526004016129bd90614116565b60405180910390fd5b805181602001fd5b63150b7a0260e01b7bffffffffffffffffffffffffffffffffffffffffffffffffffffffff1916817bffffffffffffffffffffffffffffffffffffffffffffffffffffffff191614915050612a23565b600190505b949350505050565b6000808273ffffffffffffffffffffffffffffffffffffffff163b119050919050565b6040518060c0016040528060008152602001600073ffffffffffffffffffffffffffffffffffffffff1681526020016060815260200160006001811115612a9857612a976132b7565b5b81526020016000151581526020016000151581525090565b508054612abc90613457565b6000825580601f10612ace5750612aed565b601f016020900490600052602060002090810190612aec9190612af0565b5b50565b5b80821115612b09576000816000905550600101612af1565b5090565b6000604051905090565b600080fd5b600080fd5b60007fffffffff0000000000000000000000000000000000000000000000000000000082169050919050565b612b5681612b21565b8114612b6157600080fd5b50565b600081359050612b7381612b4d565b92915050565b600060208284031215612b8f57612b8e612b17565b5b6000612b9d84828501612b64565b91505092915050565b60008115159050919050565b612bbb81612ba6565b82525050565b6000602082019050612bd66000830184612bb2565b92915050565b600081519050919050565b600082825260208201905092915050565b60005b83811015612c16578082015181840152602081019050612bfb565b60008484015250505050565b6000601f19601f8301169050919050565b6000612c3e82612bdc565b612c488185612be7565b9350612c58818560208601612bf8565b612c6181612c22565b840191505092915050565b60006020820190508181036000830152612c868184612c33565b905092915050565b6000819050919050565b612ca181612c8e565b8114612cac57600080fd5b50565b600081359050612cbe81612c98565b92915050565b600060208284031215612cda57612cd9612b17565b5b6000612ce884828501612caf565b91505092915050565b600073ffffffffffffffffffffffffffffffffffffffff82169050919050565b6000612d1c82612cf1565b9050919050565b612d2c81612d11565b82525050565b6000602082019050612d476000830184612d23565b92915050565b612d5681612d11565b8114612d6157600080fd5b50565b600081359050612d7381612d4d565b92915050565b60008060408385031215612d9057612d8f612b17565b5b6000612d9e85828601612d64565b9250506020612daf85828601612caf565b9150509250929050565b600080600060608486031215612dd257612dd1612b17565b5b6000612de086828701612d64565b9350506020612df186828701612d64565b9250506040612e0286828701612caf565b9150509250925092565b612e1581612c8e565b82525050565b6000602082019050612e306000830184612e0c565b92915050565b600080fd5b600080fd5b7f4e487b7100000000000000000000000000000000000000000000000000000000600052604160045260246000fd5b612e7882612c22565b810181811067ffffffffffffffff82111715612e9757612e96612e40565b5b80604052505050565b6000612eaa612b0d565b9050612eb68282612e6f565b919050565b600067ffffffffffffffff821115612ed657612ed5612e40565b5b612edf82612c22565b9050602081019050919050565b82818337600083830152505050565b6000612f0e612f0984612ebb565b612ea0565b905082815260208101848484011115612f2a57612f29612e3b565b5b612f35848285612eec565b509392505050565b600082601f830112612f5257612f51612e36565b5b8135612f62848260208601612efb565b91505092915050565b60008060408385031215612f8257612f81612b17565b5b6000612f9085828601612d64565b925050602083013567ffffffffffffffff811115612fb157612fb0612b1c565b5b612fbd85828601612f3d565b9150509250929050565b600060208284031215612fdd57612fdc612b17565b5b6000612feb84828501612d64565b91505092915050565b612ffd81612ba6565b811461300857600080fd5b50565b60008135905061301a81612ff4565b92915050565b6000806040838503121561303757613036612b17565b5b600061304585828601612d64565b92505060206130568582860161300b565b9150509250929050565b60008060006060848603121561307957613078612b17565b5b600061308786828701612caf565b935050602061309886828701612caf565b925050604084013567ffffffffffffffff8111156130b9576130b8612b1c565b5b6130c586828701612f3d565b9150509250925092565b600067ffffffffffffffff8211156130ea576130e9612e40565b5b6130f382612c22565b9050602081019050919050565b600061311361310e846130cf565b612ea0565b90508281526020810184848401111561312f5761312e612e3b565b5b61313a848285612eec565b509392505050565b600082601f83011261315757613156612e36565b5b8135613167848260208601613100565b91505092915050565b6000806000806080858703121561318a57613189612b17565b5b600061319887828801612d64565b94505060206131a987828801612d64565b93505060406131ba87828801612caf565b925050606085013567ffffffffffffffff8111156131db576131da612b1c565b5b6131e787828801613142565b91505092959194509250565b6000806040838503121561320a57613209612b17565b5b600061321885828601612caf565b925050602083013567ffffffffffffffff81111561323957613238612b1c565b5b61324585828601612f3d565b9150509250929050565b61325881612c8e565b82525050565b61326781612d11565b82525050565b600082825260208201905092915050565b600061328982612bdc565b613293818561326d565b93506132a3818560208601612bf8565b6132ac81612c22565b840191505092915050565b7f4e487b7100000000000000000000000000000000000000000000000000000000600052602160045260246000fd5b600281106132f7576132f66132b7565b5b50565b6000819050613308826132e6565b919050565b6000613318826132fa565b9050919050565b6133288161330d565b82525050565b61333781612ba6565b82525050565b600060c083016000830151613355600086018261324f565b506020830151613368602086018261325e565b5060408301518482036040860152613380828261327e565b9150506060830151613395606086018261331f565b5060808301516133a8608086018261332e565b5060a08301516133bb60a086018261332e565b508091505092915050565b600060208201905081810360008301526133e0818461333d565b905092915050565b600080604083850312156133ff576133fe612b17565b5b600061340d85828601612d64565b925050602061341e85828601612d64565b9150509250929050565b7f4e487b7100000000000000000000000000000000000000000000000000000000600052602260045260246000fd5b6000600282049050600182168061346f57607f821691505b60208210810361348257613481613428565b5b50919050565b7f4552433732313a20617070726f76616c20746f2063757272656e74206f776e6560008201527f7200000000000000000000000000000000000000000000000000000000000000602082015250565b60006134e4602183612be7565b91506134ef82613488565b604082019050919050565b60006020820190508181036000830152613513816134d7565b9050919050565b7f4552433732313a20617070726f76652063616c6c6572206973206e6f7420746f60008201527f6b656e206f776e6572206f7220617070726f76656420666f7220616c6c000000602082015250565b6000613576603d83612be7565b91506135818261351a565b604082019050919050565b600060208201905081810360008301526135a581613569565b9050919050565b7f4552433732313a2063616c6c6572206973206e6f7420746f6b656e206f776e6560008201527f72206f7220617070726f76656400000000000000000000000000000000000000602082015250565b6000613608602d83612be7565b9150613613826135ac565b604082019050919050565b60006020820190508181036000830152613637816135fb565b9050919050565b7f537572766579206e6f74207465726d696e617465640000000000000000000000600082015250565b6000613674601583612be7565b915061367f8261363e565b602082019050919050565b600060208201905081810360008301526136a381613667565b9050919050565b600081905092915050565b60006136c082612bdc565b6136ca81856136aa565b93506136da818560208601612bf8565b80840191505092915050565b7f2e6a736f6e000000000000000000000000000000000000000000000000000000815250565b600061371882856136b5565b915061372482846136b5565b915061372f826136e6565b6005820191508190509392505050565b7f4552433732313a20696e76616c696420746f6b656e2049440000000000000000600082015250565b6000613775601883612be7565b91506137808261373f565b602082019050919050565b600060208201905081810360008301526137a481613768565b9050919050565b7f537572766579206e6f74206f6e476f696e672100000000000000000000000000600082015250565b60006137e1601383612be7565b91506137ec826137ab565b602082019050919050565b60006020820190508181036000830152613810816137d4565b9050919050565b60008190508160005260206000209050919050565b60006020601f8301049050919050565b600082821b905092915050565b6000600883026138797fffffffffffffffffffffffffffffffffffffffffffffffffffffffffffffffff8261383c565b613883868361383c565b95508019841693508086168417925050509392505050565b6000819050919050565b60006138c06138bb6138b684612c8e565b61389b565b612c8e565b9050919050565b6000819050919050565b6138da836138a5565b6138ee6138e6826138c7565b848454613849565b825550505050565b600090565b6139036138f6565b61390e8184846138d1565b505050565b5b81811015613932576139276000826138fb565b600181019050613914565b5050565b601f8211156139775761394881613817565b6139518461382c565b81016020851015613960578190505b61397461396c8561382c565b830182613913565b50505b505050565b600082821c905092915050565b600061399a6000198460080261397c565b1980831691505092915050565b60006139b38383613989565b9150826002028217905092915050565b6139cc82612bdc565b67ffffffffffffffff8111156139e5576139e4612e40565b5b6139ef8254613457565b6139fa828285613936565b600060209050601f831160018114613a2d5760008415613a1b578287015190505b613a2585826139a7565b865550613a8d565b601f198416613a3b86613817565b60005b82811015613a6357848901518255600182019150602085019450602081019050613a3e565b86831015613a805784890151613a7c601f891682613989565b8355505b6001600288020188555050505b505050505050565b6000604082019050613aaa6000830185612d23565b613ab76020830184612e0c565b9392505050565b7f4552433732313a2061646472657373207a65726f206973206e6f74206120766160008201527f6c6964206f776e65720000000000000000000000000000000000000000000000602082015250565b6000613b1a602983612be7565b9150613b2582613abe565b604082019050919050565b60006020820190508181036000830152613b4981613b0d565b9050919050565b6000608082019050613b656000830187612d23565b613b726020830186612e0c565b613b7f6040830185612e0c565b613b8c6060830184612e0c565b95945050505050565b6000604082019050613baa6000830185612e0c565b613bb76020830184612e0c565b9392505050565b6000613bca82856136b5565b9150613bd682846136b5565b91508190509392505050565b7f4e487b7100000000000000000000000000000000000000000000000000000000600052603260045260246000fd5b7f4f776e61626c653a206e6577206f776e657220697320746865207a65726f206160008201527f6464726573730000000000000000000000000000000000000000000000000000602082015250565b6000613c6d602683612be7565b9150613c7882613c11565b604082019050919050565b60006020820190508181036000830152613c9c81613c60565b9050919050565b7f4552433732313a207472616e736665722066726f6d20696e636f72726563742060008201527f6f776e6572000000000000000000000000000000000000000000000000000000602082015250565b6000613cff602583612be7565b9150613d0a82613ca3565b604082019050919050565b60006020820190508181036000830152613d2e81613cf2565b9050919050565b7f4552433732313a207472616e7366657220746f20746865207a65726f2061646460008201527f7265737300000000000000000000000000000000000000000000000000000000602082015250565b6000613d91602483612be7565b9150613d9c82613d35565b604082019050919050565b60006020820190508181036000830152613dc081613d84565b9050919050565b7f4552433732313a206d696e7420746f20746865207a65726f2061646472657373600082015250565b6000613dfd602083612be7565b9150613e0882613dc7565b602082019050919050565b60006020820190508181036000830152613e2c81613df0565b9050919050565b7f4552433732313a20746f6b656e20616c7265616479206d696e74656400000000600082015250565b6000613e69601c83612be7565b9150613e7482613e33565b602082019050919050565b60006020820190508181036000830152613e9881613e5c565b9050919050565b7f4e487b7100000000000000000000000000000000000000000000000000000000600052601260045260246000fd5b7f45524337323155524953746f726167653a2055524920736574206f66206e6f6e60008201527f6578697374656e7420746f6b656e000000000000000000000000000000000000602082015250565b6000613f2a602e83612be7565b9150613f3582613ece565b604082019050919050565b60006020820190508181036000830152613f5981613f1d565b9050919050565b7f53757276657920646f206e6f7420657869737473000000000000000000000000600082015250565b6000613f96601483612be7565b9150613fa182613f60565b602082019050919050565b60006020820190508181036000830152613fc581613f89565b9050919050565b7f4f776e61626c653a2063616c6c6572206973206e6f7420746865206f776e6572600082015250565b6000614002602083612be7565b915061400d82613fcc565b602082019050919050565b6000602082019050818103600083015261403181613ff5565b9050919050565b7f4552433732313a20617070726f766520746f2063616c6c657200000000000000600082015250565b600061406e601983612be7565b915061407982614038565b602082019050919050565b6000602082019050818103600083015261409d81614061565b9050919050565b7f4552433732313a207472616e7366657220746f206e6f6e20455243373231526560008201527f63656976657220696d706c656d656e7465720000000000000000000000000000602082015250565b6000614100603283612be7565b915061410b826140a4565b604082019050919050565b6000602082019050818103600083015261412f816140f3565b9050919050565b7f4e487b7100000000000000000000000000000000000000000000000000000000600052601160045260246000fd5b600061417082612c8e565b915061417b83612c8e565b925082820390508181111561419357614192614136565b5b92915050565b60006141a482612c8e565b91506141af83612c8e565b92508282019050808211156141c7576141c6614136565b5b92915050565b600081519050919050565b600082825260208201905092915050565b60006141f4826141cd565b6141fe81856141d8565b935061420e818560208601612bf8565b61421781612c22565b840191505092915050565b60006080820190506142376000830187612d23565b6142446020830186612d23565b6142516040830185612e0c565b818103606083015261426381846141e9565b905095945050505050565b60008151905061427d81612b4d565b92915050565b60006020828403121561429957614298612b17565b5b60006142a78482850161426e565b9150509291505056fe68747470733a2f2f697066732e696f2f697066732f516d5a7479526f724e417837756b366d6d6d34374b6943424e674a424b7647354c72517331524b484831433369702fa26469706673582212204b8aefac3f9746b3bd96fa897187049af934c2424569bd69903c8294cdd64ced64736f6c63430008110033",
  "immutableReferences": {},
  "source": "// SPDX-License-Identifier: GPL-3.0\npragma solidity 0.8.17;\n\nimport \"../node_modules/@openzeppelin/contracts/token/ERC721/extensions/ERC721URIStorage.sol\";\nimport \"../node_modules/@openzeppelin/contracts/token/ERC20/IERC20.sol\";\nimport \"../node_modules/@openzeppelin/contracts/token/ERC20/IERC20.sol\";\nimport \"../node_modules/@openzeppelin/contracts/utils/Counters.sol\";\nimport \"../node_modules/@openzeppelin/contracts/access/Ownable.sol\";\nimport \"../node_modules/@openzeppelin/contracts/utils/Strings.sol\";\n\n//Interface OpiChainSBT\n/*interface OpiChainSBT {\n    function isSounder(address _profileAddress) external view returns (bool);\n    function isSurveyed(address _profileAddress) external view returns (bool);\n}*/\n\n/// @title  OpiChain Survey NFT\n/// @author Saad Igueninni\n/// @notice ERC721 NFT associated to on survey\n/// @dev Inherits the OpenZepplin Ownable ,ERC721URIStorage,Counters & Strings contracts\ncontract OpiChainSurveyNFT is ERC721URIStorage, Ownable {\n    using Counters for Counters.Counter;\n\n    Counters.Counter private _idQuestion;\n    Counters.Counter private _idAnswer;\n    Counters.Counter private _idSurveyNFT;\n\n    enum SurveyStatus {\n        OnGoing,\n        Terminated\n    }\n\n    struct Question {\n        uint256 idQuestion;\n        string textQuestion;\n    }\n\n    struct Answer {\n        address ownerAnswer;\n        uint256 idAnswer;\n        string textAnswer;\n    }\n\n    struct Survey {\n        uint256 idSurvey;\n        address owner;\n        string description;\n        SurveyStatus surveyStatus;\n        bool exists;\n        bool minted;\n    }\n\n    mapping(uint256 => Survey) idToSurveys;\n    //mapping(uint256 => address) idToOwner;\n    mapping(address => Survey[]) addressToSurveys;\n    // mapping( uint => Answer[])  questionToAnswers;\n    mapping(uint256 => Question[]) surveyToQuestion;\n    mapping(uint256 => mapping(uint256 => Answer[])) surveyToQuestionToAnswer;\n\n\n    uint public constant SurveyUnitCost = 500;  \n    address marketplaceContract;\n   // OpiChainSBT sbtContract;\n    IERC20 opi;\n\n    event surveyCreated(address _ownerSurvey, uint256 _idSurvey);\n    event surveyTerminated(uint256 _idSurvey);\n    event surveyDeleted(uint256 _idSurvey);\n    event surveyNFTMinted(uint256 _idSurvey);\n    event questionAdded(uint256 _idQuestion, uint256 _idSurvey);\n    event answerGiven(address _ownerAnswer, uint256 _idAnswer , uint256 _idSurvey, uint256 idQuestion);\n\n    //constructor(address _marketplaceContract, address _opiChainSBTAddress,address _opiAddress)\n    constructor()\n        ERC721(\"OpiChainSurvey\", \"OPS\")\n    {\n        //marketplaceContract = _marketplaceContract;\n       // sbtContract = OpiChainSBT(_opiChainSBTAddress);\n       // opi = IERC20(_opiAddress);\n    }\n\n    // ::::::::::::: MODIFIERS ::::::::::::: //\n    modifier SurveyExist(uint256 _idSurvey) {\n        require(idToSurveys[_idSurvey].exists, \"Survey do not exists\");\n        _;\n    }\n\n    /* modifier onlySounders() {\n        require(sbtContract.isSounder(msg.sender), \"You are not a sounder\");\n        _;\n    }\n\n    modifier onlySurveyeds() {\n        require(sbtContract.isSurveyed(msg.sender), \"You are not a surveyed\");\n        _;\n    }*/\n\n    // ::::::::::::: GETTERS ::::::::::::: //\n    function getSurveyStatusById(uint256 _idSurvey)\n        public\n        view\n        returns (uint256)\n    {\n        return (uint256(idToSurveys[_idSurvey].surveyStatus));\n    }\n\n\n      function getSurveyById(uint256 _idSurvey)\n        public\n        view\n        returns (Survey memory)\n    {\n        return idToSurveys[_idSurvey] ;\n    }\n\n    function getSurveyByAddress(address _ownerSurvey, uint256 _idSurvey)\n        public\n        view\n        returns (Survey memory)\n    {\n        return addressToSurveys[_ownerSurvey][_idSurvey];\n    }\n\n    // ::::::::::::: SETTERS ::::::::::::: //\n    function setSurveyTerminated(uint256 _idSurvey)\n        internal\n        SurveyExist(_idSurvey)\n    {\n        idToSurveys[_idSurvey].surveyStatus = SurveyStatus.Terminated;\n        //Check if we need the mapping\n        emit surveyTerminated(_idSurvey);\n    }\n\n    // ::::::::::::: SURVEYS HANDLING ::::::::::::: //\n    function createSurvey(address _ownerSurvey, string memory _description)\n        external\n    {\n        //require assez de balance \n        uint256 newIdSurvey = _idSurveyNFT.current();\n        Survey memory newSurvey;\n        newSurvey = Survey(\n            newIdSurvey,\n            _ownerSurvey,\n            _description,\n            SurveyStatus.OnGoing,\n            true,\n            false\n        );\n\n        //Update mapping\n        idToSurveys[newIdSurvey] = newSurvey;\n        addressToSurveys[_ownerSurvey].push(newSurvey);\n        _idSurveyNFT.increment();\n        emit surveyCreated(_ownerSurvey, newIdSurvey);\n\n    }\n\n    //Mint only when in status Terminated\n    function mintSurvey(uint256 _idSurvey) external  {\n        require(\n            getSurveyStatusById(_idSurvey) == uint256(SurveyStatus.Terminated),\n            \"Survey not terminated\"\n        );\n\n        address _ownerSurvey;\n\n        setApprovalForAll(marketplaceContract, true); //Give approval to marketplace\n        _ownerSurvey = idToSurveys[_idSurvey].owner;\n        _mint(_ownerSurvey, _idSurvey);\n        idToSurveys[_idSurvey].minted = true;\n        string memory urinumber = Strings.toString(_idSurvey);\n        string\n            memory tokenURI = \"https://ipfs.io/ipfs/QmZtyRorNAx7uk6mmm47KiCBNgJBKvG5LrQs1RKHH1C3ip/\"; //To change by CID of !!\n        string memory _SBTUri = string.concat(tokenURI, urinumber, \".json\");\n\n        _setTokenURI(_idSurvey, _SBTUri);\n\n        emit surveyNFTMinted(_idSurvey);\n    }\n\n  \n    function terminateSurvey(uint256 _idSurvey) external \n    //onlySurveyeds\n     {\n        require(\n            getSurveyStatusById(_idSurvey) == uint256(SurveyStatus.OnGoing),\n            \"Survey not onGoing!\"\n        );\n        setSurveyTerminated(_idSurvey);\n        emit surveyTerminated(_idSurvey);\n    }\n\n    function deleteSurvey(uint256 _idSurvey) external {\n        delete idToSurveys[_idSurvey];\n        emit surveyDeleted(_idSurvey);\n    }\n\n    // ::::::::::::: QUESTIONS MANAGEMENT ::::::::::::: //\n\n  function addQuestion(uint256 _idSurvey , string memory _question) external \n  //onlySurveyeds\n  {\n       uint256 newIdQuestion = _idQuestion.current();\n        surveyToQuestion[_idSurvey].push( Question(newIdQuestion,_question));\n      _idQuestion.increment();\n      emit questionAdded(newIdQuestion, _idSurvey);\n  }\n\n\n\n  // ::::::::::::: ANSWERS MANAGEMENT ::::::::::::: //\n  function giveAnswer(uint256 _idSurvey , uint256 _idQuestionAnswer ,string memory _answer) external \n  //onlySounders\n  {\n\n      uint256 newIdAnswer= _idAnswer.current();\n        surveyToQuestionToAnswer[_idSurvey][_idQuestionAnswer].push(Answer(msg.sender,newIdAnswer,_answer));\n      _idAnswer.increment();\n      emit answerGiven(msg.sender,newIdAnswer , _idSurvey, _idQuestionAnswer);\n  }\n\n\n\n    //reveal_results -> une fois TERMINATED , & vendu on peut reveal.\n\n    // ::::::::::::: OVVERIDES ::::::::::::: //\n}\n",
  "sourcePath": "/home/saadi/coursAlyra/OpiChain/truffle/contracts/OpiChainSurveyNFT.sol",
  "compiler": {
    "name": "solc",
    "version": "0.8.17+commit.8df45f5f.Emscripten.clang"
  },
  "schemaVersion": "3.4.10",
  "updatedAt": "2022-12-11T02:06:11.105Z",
  "networkType": "ethereum",
  "devdoc": {
    "author": "Saad Igueninni",
    "details": "Inherits the OpenZepplin Ownable ,ERC721URIStorage,Counters & Strings contracts",
    "kind": "dev",
    "methods": {
      "approve(address,uint256)": {
        "details": "See {IERC721-approve}."
      },
      "balanceOf(address)": {
        "details": "See {IERC721-balanceOf}."
      },
      "getApproved(uint256)": {
        "details": "See {IERC721-getApproved}."
      },
      "isApprovedForAll(address,address)": {
        "details": "See {IERC721-isApprovedForAll}."
      },
      "name()": {
        "details": "See {IERC721Metadata-name}."
      },
      "owner()": {
        "details": "Returns the address of the current owner."
      },
      "ownerOf(uint256)": {
        "details": "See {IERC721-ownerOf}."
      },
      "renounceOwnership()": {
        "details": "Leaves the contract without owner. It will not be possible to call `onlyOwner` functions anymore. Can only be called by the current owner. NOTE: Renouncing ownership will leave the contract without an owner, thereby removing any functionality that is only available to the owner."
      },
      "safeTransferFrom(address,address,uint256)": {
        "details": "See {IERC721-safeTransferFrom}."
      },
      "safeTransferFrom(address,address,uint256,bytes)": {
        "details": "See {IERC721-safeTransferFrom}."
      },
      "setApprovalForAll(address,bool)": {
        "details": "See {IERC721-setApprovalForAll}."
      },
      "supportsInterface(bytes4)": {
        "details": "See {IERC165-supportsInterface}."
      },
      "symbol()": {
        "details": "See {IERC721Metadata-symbol}."
      },
      "tokenURI(uint256)": {
        "details": "See {IERC721Metadata-tokenURI}."
      },
      "transferFrom(address,address,uint256)": {
        "details": "See {IERC721-transferFrom}."
      },
      "transferOwnership(address)": {
        "details": "Transfers ownership of the contract to a new account (`newOwner`). Can only be called by the current owner."
      }
    },
    "title": "OpiChain Survey NFT",
    "version": 1
  },
  "userdoc": {
    "kind": "user",
    "methods": {},
    "notice": "ERC721 NFT associated to on survey",
    "version": 1
  }
}