{
  "contractName": "OpiChainSBT",
  "abi": [
    {
      "inputs": [],
      "stateMutability": "nonpayable",
      "type": "constructor"
    },
    {
      "anonymous": false,
      "inputs": [
        {
          "indexed": true,
          "internalType": "address",
          "name": "owner",
          "type": "address"
        },
        {
          "indexed": true,
          "internalType": "address",
          "name": "approved",
          "type": "address"
        },
        {
          "indexed": true,
          "internalType": "uint256",
          "name": "tokenId",
          "type": "uint256"
        }
      ],
      "name": "Approval",
      "type": "event"
    },
    {
      "anonymous": false,
      "inputs": [
        {
          "indexed": true,
          "internalType": "address",
          "name": "owner",
          "type": "address"
        },
        {
          "indexed": true,
          "internalType": "address",
          "name": "operator",
          "type": "address"
        },
        {
          "indexed": false,
          "internalType": "bool",
          "name": "approved",
          "type": "bool"
        }
      ],
      "name": "ApprovalForAll",
      "type": "event"
    },
    {
      "anonymous": false,
      "inputs": [
        {
          "indexed": true,
          "internalType": "address",
          "name": "previousOwner",
          "type": "address"
        },
        {
          "indexed": true,
          "internalType": "address",
          "name": "newOwner",
          "type": "address"
        }
      ],
      "name": "OwnershipTransferred",
      "type": "event"
    },
    {
      "anonymous": false,
      "inputs": [
        {
          "indexed": true,
          "internalType": "address",
          "name": "from",
          "type": "address"
        },
        {
          "indexed": true,
          "internalType": "address",
          "name": "to",
          "type": "address"
        },
        {
          "indexed": true,
          "internalType": "uint256",
          "name": "tokenId",
          "type": "uint256"
        }
      ],
      "name": "Transfer",
      "type": "event"
    },
    {
      "anonymous": false,
      "inputs": [
        {
          "indexed": false,
          "internalType": "address",
          "name": "_profileAddress",
          "type": "address"
        },
        {
          "indexed": false,
          "internalType": "uint256",
          "name": "_OpiIdCounter",
          "type": "uint256"
        }
      ],
      "name": "grantedOpiID",
      "type": "event"
    },
    {
      "anonymous": false,
      "inputs": [
        {
          "indexed": false,
          "internalType": "address",
          "name": "_profileAddress",
          "type": "address"
        }
      ],
      "name": "revokedOpiID",
      "type": "event"
    },
    {
      "anonymous": false,
      "inputs": [
        {
          "indexed": false,
          "internalType": "address",
          "name": "_profileAddress",
          "type": "address"
        }
      ],
      "name": "updatedOpiID",
      "type": "event"
    },
    {
      "inputs": [
        {
          "internalType": "address",
          "name": "to",
          "type": "address"
        },
        {
          "internalType": "uint256",
          "name": "tokenId",
          "type": "uint256"
        }
      ],
      "name": "approve",
      "outputs": [],
      "stateMutability": "nonpayable",
      "type": "function"
    },
    {
      "inputs": [
        {
          "internalType": "address",
          "name": "owner",
          "type": "address"
        }
      ],
      "name": "balanceOf",
      "outputs": [
        {
          "internalType": "uint256",
          "name": "",
          "type": "uint256"
        }
      ],
      "stateMutability": "view",
      "type": "function",
      "constant": true
    },
    {
      "inputs": [
        {
          "internalType": "uint256",
          "name": "tokenId",
          "type": "uint256"
        }
      ],
      "name": "getApproved",
      "outputs": [
        {
          "internalType": "address",
          "name": "",
          "type": "address"
        }
      ],
      "stateMutability": "view",
      "type": "function",
      "constant": true
    },
    {
      "inputs": [
        {
          "internalType": "address",
          "name": "owner",
          "type": "address"
        },
        {
          "internalType": "address",
          "name": "operator",
          "type": "address"
        }
      ],
      "name": "isApprovedForAll",
      "outputs": [
        {
          "internalType": "bool",
          "name": "",
          "type": "bool"
        }
      ],
      "stateMutability": "view",
      "type": "function",
      "constant": true
    },
    {
      "inputs": [],
      "name": "name",
      "outputs": [
        {
          "internalType": "string",
          "name": "",
          "type": "string"
        }
      ],
      "stateMutability": "view",
      "type": "function",
      "constant": true
    },
    {
      "inputs": [],
      "name": "owner",
      "outputs": [
        {
          "internalType": "address",
          "name": "",
          "type": "address"
        }
      ],
      "stateMutability": "view",
      "type": "function",
      "constant": true
    },
    {
      "inputs": [
        {
          "internalType": "uint256",
          "name": "tokenId",
          "type": "uint256"
        }
      ],
      "name": "ownerOf",
      "outputs": [
        {
          "internalType": "address",
          "name": "",
          "type": "address"
        }
      ],
      "stateMutability": "view",
      "type": "function",
      "constant": true
    },
    {
      "inputs": [],
      "name": "renounceOwnership",
      "outputs": [],
      "stateMutability": "nonpayable",
      "type": "function"
    },
    {
      "inputs": [
        {
          "internalType": "address",
          "name": "from",
          "type": "address"
        },
        {
          "internalType": "address",
          "name": "to",
          "type": "address"
        },
        {
          "internalType": "uint256",
          "name": "tokenId",
          "type": "uint256"
        }
      ],
      "name": "safeTransferFrom",
      "outputs": [],
      "stateMutability": "nonpayable",
      "type": "function"
    },
    {
      "inputs": [
        {
          "internalType": "address",
          "name": "from",
          "type": "address"
        },
        {
          "internalType": "address",
          "name": "to",
          "type": "address"
        },
        {
          "internalType": "uint256",
          "name": "tokenId",
          "type": "uint256"
        },
        {
          "internalType": "bytes",
          "name": "data",
          "type": "bytes"
        }
      ],
      "name": "safeTransferFrom",
      "outputs": [],
      "stateMutability": "nonpayable",
      "type": "function"
    },
    {
      "inputs": [
        {
          "internalType": "address",
          "name": "operator",
          "type": "address"
        },
        {
          "internalType": "bool",
          "name": "approved",
          "type": "bool"
        }
      ],
      "name": "setApprovalForAll",
      "outputs": [],
      "stateMutability": "nonpayable",
      "type": "function"
    },
    {
      "inputs": [
        {
          "internalType": "bytes4",
          "name": "interfaceId",
          "type": "bytes4"
        }
      ],
      "name": "supportsInterface",
      "outputs": [
        {
          "internalType": "bool",
          "name": "",
          "type": "bool"
        }
      ],
      "stateMutability": "view",
      "type": "function",
      "constant": true
    },
    {
      "inputs": [],
      "name": "symbol",
      "outputs": [
        {
          "internalType": "string",
          "name": "",
          "type": "string"
        }
      ],
      "stateMutability": "view",
      "type": "function",
      "constant": true
    },
    {
      "inputs": [
        {
          "internalType": "uint256",
          "name": "tokenId",
          "type": "uint256"
        }
      ],
      "name": "tokenURI",
      "outputs": [
        {
          "internalType": "string",
          "name": "",
          "type": "string"
        }
      ],
      "stateMutability": "view",
      "type": "function",
      "constant": true
    },
    {
      "inputs": [
        {
          "internalType": "address",
          "name": "from",
          "type": "address"
        },
        {
          "internalType": "address",
          "name": "to",
          "type": "address"
        },
        {
          "internalType": "uint256",
          "name": "tokenId",
          "type": "uint256"
        }
      ],
      "name": "transferFrom",
      "outputs": [],
      "stateMutability": "nonpayable",
      "type": "function"
    },
    {
      "inputs": [
        {
          "internalType": "address",
          "name": "newOwner",
          "type": "address"
        }
      ],
      "name": "transferOwnership",
      "outputs": [],
      "stateMutability": "nonpayable",
      "type": "function"
    },
    {
      "inputs": [
        {
          "internalType": "address",
          "name": "_profileAddress",
          "type": "address"
        },
        {
          "internalType": "string",
          "name": "_SBTUri",
          "type": "string"
        },
        {
          "internalType": "string",
          "name": "_name",
          "type": "string"
        },
        {
          "internalType": "uint256",
          "name": "_age",
          "type": "uint256"
        },
        {
          "internalType": "uint8",
          "name": "_gender",
          "type": "uint8"
        },
        {
          "internalType": "uint8",
          "name": "_role",
          "type": "uint8"
        }
      ],
      "name": "grantOpiID",
      "outputs": [
        {
          "internalType": "uint256",
          "name": "",
          "type": "uint256"
        }
      ],
      "stateMutability": "nonpayable",
      "type": "function"
    },
    {
      "inputs": [
        {
          "internalType": "address",
          "name": "_profileAddress",
          "type": "address"
        }
      ],
      "name": "revokeOpiID",
      "outputs": [],
      "stateMutability": "nonpayable",
      "type": "function"
    },
    {
      "inputs": [
        {
          "internalType": "address",
          "name": "_profileAddress",
          "type": "address"
        },
        {
          "internalType": "string",
          "name": "_name",
          "type": "string"
        },
        {
          "internalType": "uint256",
          "name": "_age",
          "type": "uint256"
        },
        {
          "internalType": "uint8",
          "name": "_gender",
          "type": "uint8"
        },
        {
          "internalType": "uint8",
          "name": "_role",
          "type": "uint8"
        }
      ],
      "name": "updateOpiID",
      "outputs": [],
      "stateMutability": "nonpayable",
      "type": "function"
    }
  ],
  "bytecode": "0x60806040523480156200001157600080fd5b506040518060400160405280600a81526020017f4f7069436861696e4944000000000000000000000000000000000000000000008152506040518060400160405280600581526020017f4f7069496400000000000000000000000000000000000000000000000000000081525081600090816200008f919062000412565b508060019081620000a1919062000412565b505050620000c4620000b8620000ca60201b60201c565b620000d260201b60201c565b620004f9565b600033905090565b6000600760009054906101000a900473ffffffffffffffffffffffffffffffffffffffff16905081600760006101000a81548173ffffffffffffffffffffffffffffffffffffffff021916908373ffffffffffffffffffffffffffffffffffffffff1602179055508173ffffffffffffffffffffffffffffffffffffffff168173ffffffffffffffffffffffffffffffffffffffff167f8be0079c531659141344cd1fd0a4f28419497f9722a3daafe3b4186f6b6457e060405160405180910390a35050565b600081519050919050565b7f4e487b7100000000000000000000000000000000000000000000000000000000600052604160045260246000fd5b7f4e487b7100000000000000000000000000000000000000000000000000000000600052602260045260246000fd5b600060028204905060018216806200021a57607f821691505b60208210810362000230576200022f620001d2565b5b50919050565b60008190508160005260206000209050919050565b60006020601f8301049050919050565b600082821b905092915050565b6000600883026200029a7fffffffffffffffffffffffffffffffffffffffffffffffffffffffffffffffff826200025b565b620002a686836200025b565b95508019841693508086168417925050509392505050565b6000819050919050565b6000819050919050565b6000620002f3620002ed620002e784620002be565b620002c8565b620002be565b9050919050565b6000819050919050565b6200030f83620002d2565b620003276200031e82620002fa565b84845462000268565b825550505050565b600090565b6200033e6200032f565b6200034b81848462000304565b505050565b5b8181101562000373576200036760008262000334565b60018101905062000351565b5050565b601f821115620003c2576200038c8162000236565b62000397846200024b565b81016020851015620003a7578190505b620003bf620003b6856200024b565b83018262000350565b50505b505050565b600082821c905092915050565b6000620003e760001984600802620003c7565b1980831691505092915050565b6000620004028383620003d4565b9150826002028217905092915050565b6200041d8262000198565b67ffffffffffffffff811115620004395762000438620001a3565b5b62000445825462000201565b6200045282828562000377565b600060209050601f8311600181146200048a576000841562000475578287015190505b620004818582620003f4565b865550620004f1565b601f1984166200049a8662000236565b60005b82811015620004c4578489015182556001820191506020850194506020810190506200049d565b86831015620004e45784890151620004e0601f891682620003d4565b8355505b6001600288020188555050505b505050505050565b613c4780620005096000396000f3fe608060405234801561001057600080fd5b50600436106101215760003560e01c8063715018a6116100ad578063b88d4fde11610071578063b88d4fde14610306578063c87b56dd14610322578063db7e021314610352578063e985e9c51461036e578063f2fde38b1461039e57610121565b8063715018a614610274578063750623351461027e5780638da5cb5b146102ae57806395d89b41146102cc578063a22cb465146102ea57610121565b80631a71b6d2116100f45780631a71b6d2146101c057806323b872dd146101dc57806342842e0e146101f85780636352211e1461021457806370a082311461024457610121565b806301ffc9a71461012657806306fdde0314610156578063081812fc14610174578063095ea7b3146101a4575b600080fd5b610140600480360381019061013b91906126da565b6103ba565b60405161014d9190612722565b60405180910390f35b61015e61049c565b60405161016b91906127cd565b60405180910390f35b61018e60048036038101906101899190612825565b61052e565b60405161019b9190612893565b60405180910390f35b6101be60048036038101906101b991906128da565b610574565b005b6101da60048036038101906101d591906129b8565b61068b565b005b6101f660048036038101906101f19190612a52565b610ab1565b005b610212600480360381019061020d9190612a52565b610b11565b005b61022e60048036038101906102299190612825565b610b31565b60405161023b9190612893565b60405180910390f35b61025e60048036038101906102599190612aa5565b610bb7565b60405161026b9190612ae1565b60405180910390f35b61027c610c6e565b005b61029860048036038101906102939190612afc565b610c82565b6040516102a59190612ae1565b60405180910390f35b6102b6610fc0565b6040516102c39190612893565b60405180910390f35b6102d4610fea565b6040516102e191906127cd565b60405180910390f35b61030460048036038101906102ff9190612bf7565b61107c565b005b610320600480360381019061031b9190612d67565b611092565b005b61033c60048036038101906103379190612825565b6110f4565b60405161034991906127cd565b60405180910390f35b61036c60048036038101906103679190612aa5565b611206565b005b61038860048036038101906103839190612dea565b61136b565b6040516103959190612722565b60405180910390f35b6103b860048036038101906103b39190612aa5565b6113ff565b005b60007f80ac58cd000000000000000000000000000000000000000000000000000000007bffffffffffffffffffffffffffffffffffffffffffffffffffffffff1916827bffffffffffffffffffffffffffffffffffffffffffffffffffffffff1916148061048557507f5b5e139f000000000000000000000000000000000000000000000000000000007bffffffffffffffffffffffffffffffffffffffffffffffffffffffff1916827bffffffffffffffffffffffffffffffffffffffffffffffffffffffff1916145b80610495575061049482611482565b5b9050919050565b6060600080546104ab90612e59565b80601f01602080910402602001604051908101604052809291908181526020018280546104d790612e59565b80156105245780601f106104f957610100808354040283529160200191610524565b820191906000526020600020905b81548152906001019060200180831161050757829003601f168201915b5050505050905090565b6000610539826114ec565b6004600083815260200190815260200160002060009054906101000a900473ffffffffffffffffffffffffffffffffffffffff169050919050565b600061057f82610b31565b90508073ffffffffffffffffffffffffffffffffffffffff168373ffffffffffffffffffffffffffffffffffffffff16036105ef576040517f08c379a00000000000000000000000000000000000000000000000000000000081526004016105e690612efc565b60405180910390fd5b8073ffffffffffffffffffffffffffffffffffffffff1661060e611537565b73ffffffffffffffffffffffffffffffffffffffff16148061063d575061063c81610637611537565b61136b565b5b61067c576040517f08c379a000000000000000000000000000000000000000000000000000000000815260040161067390612f8e565b60405180910390fd5b610686838361153f565b505050565b6106936115f8565b6000600860003373ffffffffffffffffffffffffffffffffffffffff1673ffffffffffffffffffffffffffffffffffffffff1681526020019081526020016000206000015403610718576040517f08c379a000000000000000000000000000000000000000000000000000000000815260040161070f90612ffa565b60405180910390fd5b6107206125b5565b600860008873ffffffffffffffffffffffffffffffffffffffff1673ffffffffffffffffffffffffffffffffffffffff1681526020019081526020016000206040518060c00160405290816000820154815260200160018201805461078490612e59565b80601f01602080910402602001604051908101604052809291908181526020018280546107b090612e59565b80156107fd5780601f106107d2576101008083540402835291602001916107fd565b820191906000526020600020905b8154815290600101906020018083116107e057829003601f168201915b505050505081526020016002820160009054906101000a900460ff16600181111561082b5761082a61301a565b5b600181111561083d5761083c61301a565b5b8152602001600382015481526020016004820160009054906101000a900460ff1660018111156108705761086f61301a565b5b60018111156108825761088161301a565b5b81526020016004820160019054906101000a900460ff161515151581525050905085858080601f016020809104026020016040519081016040528093929190818152602001838380828437600081840152601f19601f820116905080830192505050505050508160200181905250838160600181815250508260ff1660018111156109105761090f61301a565b5b816040019060018111156109275761092661301a565b5b9081600181111561093b5761093a61301a565b5b815250508160ff1660018111156109555761095461301a565b5b8160800190600181111561096c5761096b61301a565b5b908160018111156109805761097f61301a565b5b8152505080600860008973ffffffffffffffffffffffffffffffffffffffff1673ffffffffffffffffffffffffffffffffffffffff1681526020019081526020016000206000820151816000015560208201518160010190816109e391906131f5565b5060408201518160020160006101000a81548160ff02191690836001811115610a0f57610a0e61301a565b5b02179055506060820151816003015560808201518160040160006101000a81548160ff02191690836001811115610a4957610a4861301a565b5b021790555060a08201518160040160016101000a81548160ff0219169083151502179055509050507ffbe677b07b780a20c8f6f9ab6061b5dec9604f4b7bacd0b4172b887d6c882f1187604051610aa09190612893565b60405180910390a150505050505050565b610ac2610abc611537565b82611676565b610b01576040517f08c379a0000000000000000000000000000000000000000000000000000000008152600401610af890613339565b60405180910390fd5b610b0c83838361170b565b505050565b610b2c83838360405180602001604052806000815250611092565b505050565b600080610b3d83611a04565b9050600073ffffffffffffffffffffffffffffffffffffffff168173ffffffffffffffffffffffffffffffffffffffff1603610bae576040517f08c379a0000000000000000000000000000000000000000000000000000000008152600401610ba5906133a5565b60405180910390fd5b80915050919050565b60008073ffffffffffffffffffffffffffffffffffffffff168273ffffffffffffffffffffffffffffffffffffffff1603610c27576040517f08c379a0000000000000000000000000000000000000000000000000000000008152600401610c1e90613437565b60405180910390fd5b600360008373ffffffffffffffffffffffffffffffffffffffff1673ffffffffffffffffffffffffffffffffffffffff168152602001908152602001600020549050919050565b610c766115f8565b610c806000611a41565b565b6000610c8c6115f8565b6000600860003373ffffffffffffffffffffffffffffffffffffffff1673ffffffffffffffffffffffffffffffffffffffff1681526020019081526020016000206000015414610d11576040517f08c379a0000000000000000000000000000000000000000000000000000000008152600401610d08906134a3565b60405180910390fd5b610d1b6009611b07565b6000610d276009611b1d565b9050610d316125b5565b8181600001818152505087878080601f016020809104026020016040519081016040528093929190818152602001838380828437600081840152601f19601f820116905080830192505050505050508160200181905250858160600181815250508460ff166001811115610da857610da761301a565b5b81604001906001811115610dbf57610dbe61301a565b5b90816001811115610dd357610dd261301a565b5b815250508360ff166001811115610ded57610dec61301a565b5b81608001906001811115610e0457610e0361301a565b5b90816001811115610e1857610e1761301a565b5b8152505060018160a001901515908115158152505080600860008d73ffffffffffffffffffffffffffffffffffffffff1673ffffffffffffffffffffffffffffffffffffffff168152602001908152602001600020600082015181600001556020820151816001019081610e8c91906131f5565b5060408201518160020160006101000a81548160ff02191690836001811115610eb857610eb761301a565b5b02179055506060820151816003015560808201518160040160006101000a81548160ff02191690836001811115610ef257610ef161301a565b5b021790555060a08201518160040160016101000a81548160ff021916908315150217905550905050610f248b83611b2b565b610f72828b8b8080601f016020809104026020016040519081016040528093929190818152602001838380828437600081840152601f19601f82011690508083019250505050505050611d48565b7f8bab1e154354a8ac2120a9a65d4312758138cdf5cd4816f99aefee78bf713f828b8260000151604051610fa79291906134c3565b60405180910390a1819250505098975050505050505050565b6000600760009054906101000a900473ffffffffffffffffffffffffffffffffffffffff16905090565b606060018054610ff990612e59565b80601f016020809104026020016040519081016040528092919081815260200182805461102590612e59565b80156110725780601f1061104757610100808354040283529160200191611072565b820191906000526020600020905b81548152906001019060200180831161105557829003601f168201915b5050505050905090565b61108e611087611537565b8383611db5565b5050565b6110a361109d611537565b83611676565b6110e2576040517f08c379a00000000000000000000000000000000000000000000000000000000081526004016110d990613339565b60405180910390fd5b6110ee84848484611f21565b50505050565b60606110ff826114ec565b600060066000848152602001908152602001600020805461111f90612e59565b80601f016020809104026020016040519081016040528092919081815260200182805461114b90612e59565b80156111985780601f1061116d57610100808354040283529160200191611198565b820191906000526020600020905b81548152906001019060200180831161117b57829003601f168201915b5050505050905060006111a9611f7d565b905060008151036111be578192505050611201565b6000825111156111f35780826040516020016111db929190613528565b60405160208183030381529060405292505050611201565b6111fc84611f94565b925050505b919050565b61120e6115f8565b6000600860003373ffffffffffffffffffffffffffffffffffffffff1673ffffffffffffffffffffffffffffffffffffffff1681526020019081526020016000206000015403611293576040517f08c379a000000000000000000000000000000000000000000000000000000000815260040161128a90612ffa565b60405180910390fd5b600860008273ffffffffffffffffffffffffffffffffffffffff1673ffffffffffffffffffffffffffffffffffffffff1681526020019081526020016000206000808201600090556001820160006112eb9190612611565b6002820160006101000a81549060ff021916905560038201600090556004820160006101000a81549060ff02191690556004820160016101000a81549060ff021916905550507ffbe677b07b780a20c8f6f9ab6061b5dec9604f4b7bacd0b4172b887d6c882f11816040516113609190612893565b60405180910390a150565b6000600560008473ffffffffffffffffffffffffffffffffffffffff1673ffffffffffffffffffffffffffffffffffffffff16815260200190815260200160002060008373ffffffffffffffffffffffffffffffffffffffff1673ffffffffffffffffffffffffffffffffffffffff16815260200190815260200160002060009054906101000a900460ff16905092915050565b6114076115f8565b600073ffffffffffffffffffffffffffffffffffffffff168173ffffffffffffffffffffffffffffffffffffffff1603611476576040517f08c379a000000000000000000000000000000000000000000000000000000000815260040161146d906135be565b60405180910390fd5b61147f81611a41565b50565b60007f01ffc9a7000000000000000000000000000000000000000000000000000000007bffffffffffffffffffffffffffffffffffffffffffffffffffffffff1916827bffffffffffffffffffffffffffffffffffffffffffffffffffffffff1916149050919050565b6114f581611ffc565b611534576040517f08c379a000000000000000000000000000000000000000000000000000000000815260040161152b906133a5565b60405180910390fd5b50565b600033905090565b816004600083815260200190815260200160002060006101000a81548173ffffffffffffffffffffffffffffffffffffffff021916908373ffffffffffffffffffffffffffffffffffffffff160217905550808273ffffffffffffffffffffffffffffffffffffffff166115b283610b31565b73ffffffffffffffffffffffffffffffffffffffff167f8c5be1e5ebec7d5bd14f71427d1e84f3dd0314c0f7b2291e5b200ac8c7c3b92560405160405180910390a45050565b611600611537565b73ffffffffffffffffffffffffffffffffffffffff1661161e610fc0565b73ffffffffffffffffffffffffffffffffffffffff1614611674576040517f08c379a000000000000000000000000000000000000000000000000000000000815260040161166b9061362a565b60405180910390fd5b565b60008061168283610b31565b90508073ffffffffffffffffffffffffffffffffffffffff168473ffffffffffffffffffffffffffffffffffffffff1614806116c457506116c3818561136b565b5b8061170257508373ffffffffffffffffffffffffffffffffffffffff166116ea8461052e565b73ffffffffffffffffffffffffffffffffffffffff16145b91505092915050565b8273ffffffffffffffffffffffffffffffffffffffff1661172b82610b31565b73ffffffffffffffffffffffffffffffffffffffff1614611781576040517f08c379a0000000000000000000000000000000000000000000000000000000008152600401611778906136bc565b60405180910390fd5b600073ffffffffffffffffffffffffffffffffffffffff168273ffffffffffffffffffffffffffffffffffffffff16036117f0576040517f08c379a00000000000000000000000000000000000000000000000000000000081526004016117e79061374e565b60405180910390fd5b6117fd838383600161203d565b8273ffffffffffffffffffffffffffffffffffffffff1661181d82610b31565b73ffffffffffffffffffffffffffffffffffffffff1614611873576040517f08c379a000000000000000000000000000000000000000000000000000000000815260040161186a906136bc565b60405180910390fd5b6004600082815260200190815260200160002060006101000a81549073ffffffffffffffffffffffffffffffffffffffff02191690556001600360008573ffffffffffffffffffffffffffffffffffffffff1673ffffffffffffffffffffffffffffffffffffffff168152602001908152602001600020600082825403925050819055506001600360008473ffffffffffffffffffffffffffffffffffffffff1673ffffffffffffffffffffffffffffffffffffffff16815260200190815260200160002060008282540192505081905550816002600083815260200190815260200160002060006101000a81548173ffffffffffffffffffffffffffffffffffffffff021916908373ffffffffffffffffffffffffffffffffffffffff160217905550808273ffffffffffffffffffffffffffffffffffffffff168473ffffffffffffffffffffffffffffffffffffffff167fddf252ad1be2c89b69c2b068fc378daa952ba7f163c4a11628f55a4df523b3ef60405160405180910390a46119ff83838360016120be565b505050565b60006002600083815260200190815260200160002060009054906101000a900473ffffffffffffffffffffffffffffffffffffffff169050919050565b6000600760009054906101000a900473ffffffffffffffffffffffffffffffffffffffff16905081600760006101000a81548173ffffffffffffffffffffffffffffffffffffffff021916908373ffffffffffffffffffffffffffffffffffffffff1602179055508173ffffffffffffffffffffffffffffffffffffffff168173ffffffffffffffffffffffffffffffffffffffff167f8be0079c531659141344cd1fd0a4f28419497f9722a3daafe3b4186f6b6457e060405160405180910390a35050565b6001816000016000828254019250508190555050565b600081600001549050919050565b600073ffffffffffffffffffffffffffffffffffffffff168273ffffffffffffffffffffffffffffffffffffffff1603611b9a576040517f08c379a0000000000000000000000000000000000000000000000000000000008152600401611b91906137ba565b60405180910390fd5b611ba381611ffc565b15611be3576040517f08c379a0000000000000000000000000000000000000000000000000000000008152600401611bda90613826565b60405180910390fd5b611bf160008383600161203d565b611bfa81611ffc565b15611c3a576040517f08c379a0000000000000000000000000000000000000000000000000000000008152600401611c3190613826565b60405180910390fd5b6001600360008473ffffffffffffffffffffffffffffffffffffffff1673ffffffffffffffffffffffffffffffffffffffff16815260200190815260200160002060008282540192505081905550816002600083815260200190815260200160002060006101000a81548173ffffffffffffffffffffffffffffffffffffffff021916908373ffffffffffffffffffffffffffffffffffffffff160217905550808273ffffffffffffffffffffffffffffffffffffffff16600073ffffffffffffffffffffffffffffffffffffffff167fddf252ad1be2c89b69c2b068fc378daa952ba7f163c4a11628f55a4df523b3ef60405160405180910390a4611d446000838360016120be565b5050565b611d5182611ffc565b611d90576040517f08c379a0000000000000000000000000000000000000000000000000000000008152600401611d87906138b8565b60405180910390fd5b80600660008481526020019081526020016000209081611db091906131f5565b505050565b8173ffffffffffffffffffffffffffffffffffffffff168373ffffffffffffffffffffffffffffffffffffffff1603611e23576040517f08c379a0000000000000000000000000000000000000000000000000000000008152600401611e1a90613924565b60405180910390fd5b80600560008573ffffffffffffffffffffffffffffffffffffffff1673ffffffffffffffffffffffffffffffffffffffff16815260200190815260200160002060008473ffffffffffffffffffffffffffffffffffffffff1673ffffffffffffffffffffffffffffffffffffffff16815260200190815260200160002060006101000a81548160ff0219169083151502179055508173ffffffffffffffffffffffffffffffffffffffff168373ffffffffffffffffffffffffffffffffffffffff167f17307eab39ab6107e8899845ad3d59bd9653f200f220920489ca2b5937696c3183604051611f149190612722565b60405180910390a3505050565b611f2c84848461170b565b611f38848484846120c4565b611f77576040517f08c379a0000000000000000000000000000000000000000000000000000000008152600401611f6e906139b6565b60405180910390fd5b50505050565b606060405180602001604052806000815250905090565b6060611f9f826114ec565b6000611fa9611f7d565b90506000815111611fc95760405180602001604052806000815250611ff4565b80611fd38461224b565b604051602001611fe4929190613528565b6040516020818303038152906040525b915050919050565b60008073ffffffffffffffffffffffffffffffffffffffff1661201e83611a04565b73ffffffffffffffffffffffffffffffffffffffff1614159050919050565b600073ffffffffffffffffffffffffffffffffffffffff168473ffffffffffffffffffffffffffffffffffffffff16146120ac576040517f08c379a00000000000000000000000000000000000000000000000000000000081526004016120a390613a48565b60405180910390fd5b6120b884848484612319565b50505050565b50505050565b60006120e58473ffffffffffffffffffffffffffffffffffffffff1661243f565b1561223e578373ffffffffffffffffffffffffffffffffffffffff1663150b7a0261210e611537565b8786866040518563ffffffff1660e01b81526004016121309493929190613abd565b6020604051808303816000875af192505050801561216c57506040513d601f19601f820116820180604052508101906121699190613b1e565b60015b6121ee573d806000811461219c576040519150601f19603f3d011682016040523d82523d6000602084013e6121a1565b606091505b5060008151036121e6576040517f08c379a00000000000000000000000000000000000000000000000000000000081526004016121dd906139b6565b60405180910390fd5b805181602001fd5b63150b7a0260e01b7bffffffffffffffffffffffffffffffffffffffffffffffffffffffff1916817bffffffffffffffffffffffffffffffffffffffffffffffffffffffff191614915050612243565b600190505b949350505050565b60606000600161225a84612462565b01905060008167ffffffffffffffff81111561227957612278612c3c565b5b6040519080825280601f01601f1916602001820160405280156122ab5781602001600182028036833780820191505090505b509050600082602001820190505b60011561230e578080600190039150507f3031323334353637383961626364656600000000000000000000000000000000600a86061a8153600a858161230257612301613b4b565b5b049450600085036122b9575b819350505050919050565b600181111561243957600073ffffffffffffffffffffffffffffffffffffffff168473ffffffffffffffffffffffffffffffffffffffff16146123ad5780600360008673ffffffffffffffffffffffffffffffffffffffff1673ffffffffffffffffffffffffffffffffffffffff16815260200190815260200160002060008282546123a59190613ba9565b925050819055505b600073ffffffffffffffffffffffffffffffffffffffff168373ffffffffffffffffffffffffffffffffffffffff16146124385780600360008573ffffffffffffffffffffffffffffffffffffffff1673ffffffffffffffffffffffffffffffffffffffff16815260200190815260200160002060008282546124309190613bdd565b925050819055505b5b50505050565b6000808273ffffffffffffffffffffffffffffffffffffffff163b119050919050565b600080600090507a184f03e93ff9f4daa797ed6e38ed64bf6a1f01000000000000000083106124c0577a184f03e93ff9f4daa797ed6e38ed64bf6a1f01000000000000000083816124b6576124b5613b4b565b5b0492506040810190505b6d04ee2d6d415b85acef810000000083106124fd576d04ee2d6d415b85acef810000000083816124f3576124f2613b4b565b5b0492506020810190505b662386f26fc10000831061252c57662386f26fc10000838161252257612521613b4b565b5b0492506010810190505b6305f5e1008310612555576305f5e100838161254b5761254a613b4b565b5b0492506008810190505b612710831061257a5761271083816125705761256f613b4b565b5b0492506004810190505b6064831061259d576064838161259357612592613b4b565b5b0492506002810190505b600a83106125ac576001810190505b80915050919050565b6040518060c001604052806000815260200160608152602001600060018111156125e2576125e161301a565b5b815260200160008152602001600060018111156126025761260161301a565b5b81526020016000151581525090565b50805461261d90612e59565b6000825580601f1061262f575061264e565b601f01602090049060005260206000209081019061264d9190612651565b5b50565b5b8082111561266a576000816000905550600101612652565b5090565b6000604051905090565b600080fd5b600080fd5b60007fffffffff0000000000000000000000000000000000000000000000000000000082169050919050565b6126b781612682565b81146126c257600080fd5b50565b6000813590506126d4816126ae565b92915050565b6000602082840312156126f0576126ef612678565b5b60006126fe848285016126c5565b91505092915050565b60008115159050919050565b61271c81612707565b82525050565b60006020820190506127376000830184612713565b92915050565b600081519050919050565b600082825260208201905092915050565b60005b8381101561277757808201518184015260208101905061275c565b60008484015250505050565b6000601f19601f8301169050919050565b600061279f8261273d565b6127a98185612748565b93506127b9818560208601612759565b6127c281612783565b840191505092915050565b600060208201905081810360008301526127e78184612794565b905092915050565b6000819050919050565b612802816127ef565b811461280d57600080fd5b50565b60008135905061281f816127f9565b92915050565b60006020828403121561283b5761283a612678565b5b600061284984828501612810565b91505092915050565b600073ffffffffffffffffffffffffffffffffffffffff82169050919050565b600061287d82612852565b9050919050565b61288d81612872565b82525050565b60006020820190506128a86000830184612884565b92915050565b6128b781612872565b81146128c257600080fd5b50565b6000813590506128d4816128ae565b92915050565b600080604083850312156128f1576128f0612678565b5b60006128ff858286016128c5565b925050602061291085828601612810565b9150509250929050565b600080fd5b600080fd5b600080fd5b60008083601f84011261293f5761293e61291a565b5b8235905067ffffffffffffffff81111561295c5761295b61291f565b5b60208301915083600182028301111561297857612977612924565b5b9250929050565b600060ff82169050919050565b6129958161297f565b81146129a057600080fd5b50565b6000813590506129b28161298c565b92915050565b60008060008060008060a087890312156129d5576129d4612678565b5b60006129e389828a016128c5565b965050602087013567ffffffffffffffff811115612a0457612a0361267d565b5b612a1089828a01612929565b95509550506040612a2389828a01612810565b9350506060612a3489828a016129a3565b9250506080612a4589828a016129a3565b9150509295509295509295565b600080600060608486031215612a6b57612a6a612678565b5b6000612a79868287016128c5565b9350506020612a8a868287016128c5565b9250506040612a9b86828701612810565b9150509250925092565b600060208284031215612abb57612aba612678565b5b6000612ac9848285016128c5565b91505092915050565b612adb816127ef565b82525050565b6000602082019050612af66000830184612ad2565b92915050565b60008060008060008060008060c0898b031215612b1c57612b1b612678565b5b6000612b2a8b828c016128c5565b985050602089013567ffffffffffffffff811115612b4b57612b4a61267d565b5b612b578b828c01612929565b9750975050604089013567ffffffffffffffff811115612b7a57612b7961267d565b5b612b868b828c01612929565b95509550506060612b998b828c01612810565b9350506080612baa8b828c016129a3565b92505060a0612bbb8b828c016129a3565b9150509295985092959890939650565b612bd481612707565b8114612bdf57600080fd5b50565b600081359050612bf181612bcb565b92915050565b60008060408385031215612c0e57612c0d612678565b5b6000612c1c858286016128c5565b9250506020612c2d85828601612be2565b9150509250929050565b600080fd5b7f4e487b7100000000000000000000000000000000000000000000000000000000600052604160045260246000fd5b612c7482612783565b810181811067ffffffffffffffff82111715612c9357612c92612c3c565b5b80604052505050565b6000612ca661266e565b9050612cb28282612c6b565b919050565b600067ffffffffffffffff821115612cd257612cd1612c3c565b5b612cdb82612783565b9050602081019050919050565b82818337600083830152505050565b6000612d0a612d0584612cb7565b612c9c565b905082815260208101848484011115612d2657612d25612c37565b5b612d31848285612ce8565b509392505050565b600082601f830112612d4e57612d4d61291a565b5b8135612d5e848260208601612cf7565b91505092915050565b60008060008060808587031215612d8157612d80612678565b5b6000612d8f878288016128c5565b9450506020612da0878288016128c5565b9350506040612db187828801612810565b925050606085013567ffffffffffffffff811115612dd257612dd161267d565b5b612dde87828801612d39565b91505092959194509250565b60008060408385031215612e0157612e00612678565b5b6000612e0f858286016128c5565b9250506020612e20858286016128c5565b9150509250929050565b7f4e487b7100000000000000000000000000000000000000000000000000000000600052602260045260246000fd5b60006002820490506001821680612e7157607f821691505b602082108103612e8457612e83612e2a565b5b50919050565b7f4552433732313a20617070726f76616c20746f2063757272656e74206f776e6560008201527f7200000000000000000000000000000000000000000000000000000000000000602082015250565b6000612ee6602183612748565b9150612ef182612e8a565b604082019050919050565b60006020820190508181036000830152612f1581612ed9565b9050919050565b7f4552433732313a20617070726f76652063616c6c6572206973206e6f7420746f60008201527f6b656e206f776e6572206f7220617070726f76656420666f7220616c6c000000602082015250565b6000612f78603d83612748565b9150612f8382612f1c565b604082019050919050565b60006020820190508181036000830152612fa781612f6b565b9050919050565b7f4f7069494420646f206e6f742065786973747300000000000000000000000000600082015250565b6000612fe4601383612748565b9150612fef82612fae565b602082019050919050565b6000602082019050818103600083015261301381612fd7565b9050919050565b7f4e487b7100000000000000000000000000000000000000000000000000000000600052602160045260246000fd5b60008190508160005260206000209050919050565b60006020601f8301049050919050565b600082821b905092915050565b6000600883026130ab7fffffffffffffffffffffffffffffffffffffffffffffffffffffffffffffffff8261306e565b6130b5868361306e565b95508019841693508086168417925050509392505050565b6000819050919050565b60006130f26130ed6130e8846127ef565b6130cd565b6127ef565b9050919050565b6000819050919050565b61310c836130d7565b613120613118826130f9565b84845461307b565b825550505050565b600090565b613135613128565b613140818484613103565b505050565b5b818110156131645761315960008261312d565b600181019050613146565b5050565b601f8211156131a95761317a81613049565b6131838461305e565b81016020851015613192578190505b6131a661319e8561305e565b830182613145565b50505b505050565b600082821c905092915050565b60006131cc600019846008026131ae565b1980831691505092915050565b60006131e583836131bb565b9150826002028217905092915050565b6131fe8261273d565b67ffffffffffffffff81111561321757613216612c3c565b5b6132218254612e59565b61322c828285613168565b600060209050601f83116001811461325f576000841561324d578287015190505b61325785826131d9565b8655506132bf565b601f19841661326d86613049565b60005b8281101561329557848901518255600182019150602085019450602081019050613270565b868310156132b257848901516132ae601f8916826131bb565b8355505b6001600288020188555050505b505050505050565b7f4552433732313a2063616c6c6572206973206e6f7420746f6b656e206f776e6560008201527f72206f7220617070726f76656400000000000000000000000000000000000000602082015250565b6000613323602d83612748565b915061332e826132c7565b604082019050919050565b6000602082019050818103600083015261335281613316565b9050919050565b7f4552433732313a20696e76616c696420746f6b656e2049440000000000000000600082015250565b600061338f601883612748565b915061339a82613359565b602082019050919050565b600060208201905081810360008301526133be81613382565b9050919050565b7f4552433732313a2061646472657373207a65726f206973206e6f74206120766160008201527f6c6964206f776e65720000000000000000000000000000000000000000000000602082015250565b6000613421602983612748565b915061342c826133c5565b604082019050919050565b6000602082019050818103600083015261345081613414565b9050919050565b7f4f7069494420616c726561647920657869737473000000000000000000000000600082015250565b600061348d601483612748565b915061349882613457565b602082019050919050565b600060208201905081810360008301526134bc81613480565b9050919050565b60006040820190506134d86000830185612884565b6134e56020830184612ad2565b9392505050565b600081905092915050565b60006135028261273d565b61350c81856134ec565b935061351c818560208601612759565b80840191505092915050565b600061353482856134f7565b915061354082846134f7565b91508190509392505050565b7f4f776e61626c653a206e6577206f776e657220697320746865207a65726f206160008201527f6464726573730000000000000000000000000000000000000000000000000000602082015250565b60006135a8602683612748565b91506135b38261354c565b604082019050919050565b600060208201905081810360008301526135d78161359b565b9050919050565b7f4f776e61626c653a2063616c6c6572206973206e6f7420746865206f776e6572600082015250565b6000613614602083612748565b915061361f826135de565b602082019050919050565b6000602082019050818103600083015261364381613607565b9050919050565b7f4552433732313a207472616e736665722066726f6d20696e636f72726563742060008201527f6f776e6572000000000000000000000000000000000000000000000000000000602082015250565b60006136a6602583612748565b91506136b18261364a565b604082019050919050565b600060208201905081810360008301526136d581613699565b9050919050565b7f4552433732313a207472616e7366657220746f20746865207a65726f2061646460008201527f7265737300000000000000000000000000000000000000000000000000000000602082015250565b6000613738602483612748565b9150613743826136dc565b604082019050919050565b600060208201905081810360008301526137678161372b565b9050919050565b7f4552433732313a206d696e7420746f20746865207a65726f2061646472657373600082015250565b60006137a4602083612748565b91506137af8261376e565b602082019050919050565b600060208201905081810360008301526137d381613797565b9050919050565b7f4552433732313a20746f6b656e20616c7265616479206d696e74656400000000600082015250565b6000613810601c83612748565b915061381b826137da565b602082019050919050565b6000602082019050818103600083015261383f81613803565b9050919050565b7f45524337323155524953746f726167653a2055524920736574206f66206e6f6e60008201527f6578697374656e7420746f6b656e000000000000000000000000000000000000602082015250565b60006138a2602e83612748565b91506138ad82613846565b604082019050919050565b600060208201905081810360008301526138d181613895565b9050919050565b7f4552433732313a20617070726f766520746f2063616c6c657200000000000000600082015250565b600061390e601983612748565b9150613919826138d8565b602082019050919050565b6000602082019050818103600083015261393d81613901565b9050919050565b7f4552433732313a207472616e7366657220746f206e6f6e20455243373231526560008201527f63656976657220696d706c656d656e7465720000000000000000000000000000602082015250565b60006139a0603283612748565b91506139ab82613944565b604082019050919050565b600060208201905081810360008301526139cf81613993565b9050919050565b7f534254203a206e6f7420706f737369626c65206465205472616e73666572207960008201527f6f7572204f706949640000000000000000000000000000000000000000000000602082015250565b6000613a32602983612748565b9150613a3d826139d6565b604082019050919050565b60006020820190508181036000830152613a6181613a25565b9050919050565b600081519050919050565b600082825260208201905092915050565b6000613a8f82613a68565b613a998185613a73565b9350613aa9818560208601612759565b613ab281612783565b840191505092915050565b6000608082019050613ad26000830187612884565b613adf6020830186612884565b613aec6040830185612ad2565b8181036060830152613afe8184613a84565b905095945050505050565b600081519050613b18816126ae565b92915050565b600060208284031215613b3457613b33612678565b5b6000613b4284828501613b09565b91505092915050565b7f4e487b7100000000000000000000000000000000000000000000000000000000600052601260045260246000fd5b7f4e487b7100000000000000000000000000000000000000000000000000000000600052601160045260246000fd5b6000613bb4826127ef565b9150613bbf836127ef565b9250828203905081811115613bd757613bd6613b7a565b5b92915050565b6000613be8826127ef565b9150613bf3836127ef565b9250828201905080821115613c0b57613c0a613b7a565b5b9291505056fea26469706673582212207a111af8b0fcd57688d0eb2aea2bbf7ea102c99857a62d281d830cae431ec29e64736f6c63430008110033",
  "immutableReferences": {},
  "source": "// SPDX-License-Identifier: GPL-3.0\npragma solidity 0.8.17;\n\nimport \"../node_modules/@openzeppelin/contracts/token/ERC721/extensions/ERC721URIStorage.sol\";\nimport \"../node_modules/@openzeppelin/contracts/utils/Counters.sol\";\nimport \"../node_modules/@openzeppelin/contracts/access/Ownable.sol\";\nimport \"../node_modules/@openzeppelin/contracts/utils/Strings.sol\";\n\ncontract OpiChainSBT is ERC721URIStorage, Ownable {\n    using Counters for Counters.Counter;\n\n    enum Gender {\n        Male,\n        Female\n    }\n\n    enum Role {\n        Sounder,\n        Surveyed\n    }\n\n    struct OpiProfile {\n        uint256 OpiIdCounter;\n        string name;\n        Gender gender;\n        uint256 age;\n        Role role;\n        bool isOpiIdGranted;\n    }\n\n    //mapping(address=>bool) grantedOPIIds;\n    mapping(address => OpiProfile) OpiProfiles;\n    Counters.Counter private _OpiIdCounter;\n\n    modifier onlySounders() {\n        require(\n            (OpiProfiles[msg.sender].isOpiIdGranted &&\n                OpiProfiles[msg.sender].role == Role.Sounder),\n            \"You are not a sounder\"\n        );\n        _;\n    }\n\n    modifier onlySurveyeds() {\n        require(\n            (OpiProfiles[msg.sender].isOpiIdGranted &&\n                OpiProfiles[msg.sender].role == Role.Surveyed),\n            \"You are not a surveyed\"\n        );\n        _;\n    }\n\n    event grantedOpiID(address _profileAddress, uint256 _OpiIdCounter);\n    event revokedOpiID(address _profileAddress);\n    event updatedOpiID(address _profileAddress);\n\n    constructor() ERC721(\"OpiChainID\", \"OpiId\") {}\n\n    function grantOpiID(\n        address _profileAddress,\n        string calldata _SBTUri,\n        string calldata _name,\n        uint256 _age,\n        uint8 _gender,\n        uint8 _role\n    ) external onlyOwner returns (uint256) {\n        require(\n            OpiProfiles[msg.sender].OpiIdCounter == 0,\n            \"OpiID already exists\"\n        );\n\n        _OpiIdCounter.increment(); //To start at 1\n        uint256 newOpiID = _OpiIdCounter.current();\n        OpiProfile memory newOpiProfile;\n   \n\n        //Add new Profile\n        newOpiProfile.OpiIdCounter = newOpiID;\n        newOpiProfile.name = _name;\n        newOpiProfile.age = _age;\n        newOpiProfile.gender = Gender(_gender);\n        newOpiProfile.role = Role(_role);\n        newOpiProfile.isOpiIdGranted = true;\n        OpiProfiles[_profileAddress] = newOpiProfile;\n\n        _mint(_profileAddress, newOpiID);\n        _setTokenURI(newOpiID, _SBTUri);\n\n        emit grantedOpiID(_profileAddress, newOpiProfile.OpiIdCounter);\n        return newOpiID;\n    }\n\n    function revokeOpiID(address _profileAddress) external onlyOwner {\n        require(\n            OpiProfiles[msg.sender].OpiIdCounter != 0,\n            \"OpiID do not exists\"\n        );\n        delete OpiProfiles[_profileAddress];\n        emit revokedOpiID(_profileAddress);\n    }\n\n    function updateOpiID(\n        address _profileAddress,\n        string calldata _name,\n        uint256 _age,\n        uint8 _gender,\n        uint8 _role\n    ) external onlyOwner {\n        require(\n            OpiProfiles[msg.sender].OpiIdCounter != 0,\n            \"OpiID do not exists\"\n        );\n\n        OpiProfile memory UpdOpiProfile;\n\n        UpdOpiProfile = OpiProfiles[_profileAddress];\n        UpdOpiProfile.name = _name;\n        UpdOpiProfile.age = _age;\n        UpdOpiProfile.gender = Gender(_gender);\n        UpdOpiProfile.role = Role(_role);\n        OpiProfiles[_profileAddress] = UpdOpiProfile;\n\n        emit revokedOpiID(_profileAddress);\n    }\n\n    function _beforeTokenTransfer(\n        address from,\n        address to,\n        uint256 tokenId,\n        uint256 batchSize\n    ) internal virtual override {\n        require(\n            from == address(0),\n            \"SBT : not possible de Transfer your OpiId\"\n        );\n        super._beforeTokenTransfer(from, to, tokenId, batchSize);\n    }\n}\n",
  "sourcePath": "/home/saadi/coursAlyra/OpiChain/truffle/contracts/OpiChainSBT.sol",
  "compiler": {
    "name": "solc",
    "version": "0.8.17+commit.8df45f5f.Emscripten.clang"
  },
  "schemaVersion": "3.4.10",
  "updatedAt": "2022-12-02T11:22:54.908Z",
  "networkType": "ethereum",
  "devdoc": {
    "kind": "dev",
    "methods": {
      "approve(address,uint256)": {
        "details": "See {IERC721-approve}."
      },
      "balanceOf(address)": {
        "details": "See {IERC721-balanceOf}."
      },
      "getApproved(uint256)": {
        "details": "See {IERC721-getApproved}."
      },
      "isApprovedForAll(address,address)": {
        "details": "See {IERC721-isApprovedForAll}."
      },
      "name()": {
        "details": "See {IERC721Metadata-name}."
      },
      "owner()": {
        "details": "Returns the address of the current owner."
      },
      "ownerOf(uint256)": {
        "details": "See {IERC721-ownerOf}."
      },
      "renounceOwnership()": {
        "details": "Leaves the contract without owner. It will not be possible to call `onlyOwner` functions anymore. Can only be called by the current owner. NOTE: Renouncing ownership will leave the contract without an owner, thereby removing any functionality that is only available to the owner."
      },
      "safeTransferFrom(address,address,uint256)": {
        "details": "See {IERC721-safeTransferFrom}."
      },
      "safeTransferFrom(address,address,uint256,bytes)": {
        "details": "See {IERC721-safeTransferFrom}."
      },
      "setApprovalForAll(address,bool)": {
        "details": "See {IERC721-setApprovalForAll}."
      },
      "supportsInterface(bytes4)": {
        "details": "See {IERC165-supportsInterface}."
      },
      "symbol()": {
        "details": "See {IERC721Metadata-symbol}."
      },
      "tokenURI(uint256)": {
        "details": "See {IERC721Metadata-tokenURI}."
      },
      "transferFrom(address,address,uint256)": {
        "details": "See {IERC721-transferFrom}."
      },
      "transferOwnership(address)": {
        "details": "Transfers ownership of the contract to a new account (`newOwner`). Can only be called by the current owner."
      }
    },
    "version": 1
  },
  "userdoc": {
    "kind": "user",
    "methods": {},
    "version": 1
  }
}