{
  "contractName": "OpiDex",
  "abi": [
    {
      "inputs": [
        {
          "internalType": "address",
          "name": "_opiAddress",
          "type": "address"
        }
      ],
      "stateMutability": "nonpayable",
      "type": "constructor"
    },
    {
      "anonymous": false,
      "inputs": [
        {
          "indexed": false,
          "internalType": "address",
          "name": "_sounderAddress",
          "type": "address"
        },
        {
          "indexed": false,
          "internalType": "uint256",
          "name": "_amountOfETH",
          "type": "uint256"
        },
        {
          "indexed": false,
          "internalType": "uint256",
          "name": "_amountOfOPIs",
          "type": "uint256"
        }
      ],
      "name": "OpiBuyed",
      "type": "event"
    },
    {
      "anonymous": false,
      "inputs": [
        {
          "indexed": true,
          "internalType": "address",
          "name": "previousOwner",
          "type": "address"
        },
        {
          "indexed": true,
          "internalType": "address",
          "name": "newOwner",
          "type": "address"
        }
      ],
      "name": "OwnershipTransferred",
      "type": "event"
    },
    {
      "inputs": [],
      "name": "opiContractAddress",
      "outputs": [
        {
          "internalType": "address",
          "name": "",
          "type": "address"
        }
      ],
      "stateMutability": "view",
      "type": "function",
      "constant": true
    },
    {
      "inputs": [],
      "name": "owner",
      "outputs": [
        {
          "internalType": "address",
          "name": "",
          "type": "address"
        }
      ],
      "stateMutability": "view",
      "type": "function",
      "constant": true
    },
    {
      "inputs": [],
      "name": "renounceOwnership",
      "outputs": [],
      "stateMutability": "nonpayable",
      "type": "function"
    },
    {
      "inputs": [],
      "name": "tokensPerEth",
      "outputs": [
        {
          "internalType": "uint256",
          "name": "",
          "type": "uint256"
        }
      ],
      "stateMutability": "view",
      "type": "function",
      "constant": true
    },
    {
      "inputs": [
        {
          "internalType": "address",
          "name": "newOwner",
          "type": "address"
        }
      ],
      "name": "transferOwnership",
      "outputs": [],
      "stateMutability": "nonpayable",
      "type": "function"
    },
    {
      "inputs": [],
      "name": "buyTokens",
      "outputs": [
        {
          "internalType": "uint256",
          "name": "tokenAmount",
          "type": "uint256"
        }
      ],
      "stateMutability": "payable",
      "type": "function",
      "payable": true
    },
    {
      "inputs": [],
      "name": "withdraw",
      "outputs": [],
      "stateMutability": "nonpayable",
      "type": "function"
    }
  ],
  "bytecode": "0x608060405260326003553480156200001657600080fd5b50604051620010003803806200100083398181016040528101906200003c9190620001da565b6200005c62000050620000a460201b60201c565b620000ac60201b60201c565b80600160006101000a81548173ffffffffffffffffffffffffffffffffffffffff021916908373ffffffffffffffffffffffffffffffffffffffff160217905550506200020c565b600033905090565b60008060009054906101000a900473ffffffffffffffffffffffffffffffffffffffff169050816000806101000a81548173ffffffffffffffffffffffffffffffffffffffff021916908373ffffffffffffffffffffffffffffffffffffffff1602179055508173ffffffffffffffffffffffffffffffffffffffff168173ffffffffffffffffffffffffffffffffffffffff167f8be0079c531659141344cd1fd0a4f28419497f9722a3daafe3b4186f6b6457e060405160405180910390a35050565b600080fd5b600073ffffffffffffffffffffffffffffffffffffffff82169050919050565b6000620001a28262000175565b9050919050565b620001b48162000195565b8114620001c057600080fd5b50565b600081519050620001d481620001a9565b92915050565b600060208284031215620001f357620001f262000170565b5b60006200020384828501620001c3565b91505092915050565b610de4806200021c6000396000f3fe60806040526004361061006f5760003560e01c80638da5cb5b1161004e5780638da5cb5b146100cd578063cbdd69b5146100f8578063d0febe4c14610123578063f2fde38b146101415761006f565b80627c8069146100745780633ccfd60b1461009f578063715018a6146100b6575b600080fd5b34801561008057600080fd5b5061008961016a565b6040516100969190610755565b60405180910390f35b3480156100ab57600080fd5b506100b4610190565b005b3480156100c257600080fd5b506100cb610290565b005b3480156100d957600080fd5b506100e26102a4565b6040516100ef9190610755565b60405180910390f35b34801561010457600080fd5b5061010d6102cd565b60405161011a9190610789565b60405180910390f35b61012b6102d3565b6040516101389190610789565b60405180910390f35b34801561014d57600080fd5b50610168600480360381019061016391906107d5565b610547565b005b600260009054906101000a900473ffffffffffffffffffffffffffffffffffffffff1681565b6101986105ca565b6000479050600081116101e0576040517f08c379a00000000000000000000000000000000000000000000000000000000081526004016101d790610885565b60405180910390fd5b60003373ffffffffffffffffffffffffffffffffffffffff1647604051610206906108d6565b60006040518083038185875af1925050503d8060008114610243576040519150601f19603f3d011682016040523d82523d6000602084013e610248565b606091505b505090508061028c576040517f08c379a000000000000000000000000000000000000000000000000000000000815260040161028390610937565b60405180910390fd5b5050565b6102986105ca565b6102a26000610648565b565b60008060009054906101000a900473ffffffffffffffffffffffffffffffffffffffff16905090565b60035481565b6000803411610317576040517f08c379a000000000000000000000000000000000000000000000000000000000815260040161030e906109a3565b60405180910390fd5b6000600354670de0b6b3a7640000346103309190610a21565b61033a9190610a52565b90506000600160009054906101000a900473ffffffffffffffffffffffffffffffffffffffff1673ffffffffffffffffffffffffffffffffffffffff166370a08231306040518263ffffffff1660e01b81526004016103999190610755565b602060405180830381865afa1580156103b6573d6000803e3d6000fd5b505050506040513d601f19601f820116820180604052508101906103da9190610ac0565b90508181101561041f576040517f08c379a000000000000000000000000000000000000000000000000000000000815260040161041690610b5f565b60405180910390fd5b6000600160009054906101000a900473ffffffffffffffffffffffffffffffffffffffff1673ffffffffffffffffffffffffffffffffffffffff1663a9059cbb33856040518363ffffffff1660e01b815260040161047e929190610b7f565b6020604051808303816000875af115801561049d573d6000803e3d6000fd5b505050506040513d601f19601f820116820180604052508101906104c19190610be0565b905080610503576040517f08c379a00000000000000000000000000000000000000000000000000000000081526004016104fa90610c59565b60405180910390fd5b7f942941e55a29218802e75bce2dab045559e45a25e7030efb9a2c5fe5f5851c4333348560405161053693929190610c79565b60405180910390a182935050505090565b61054f6105ca565b600073ffffffffffffffffffffffffffffffffffffffff168173ffffffffffffffffffffffffffffffffffffffff16036105be576040517f08c379a00000000000000000000000000000000000000000000000000000000081526004016105b590610d22565b60405180910390fd5b6105c781610648565b50565b6105d261070c565b73ffffffffffffffffffffffffffffffffffffffff166105f06102a4565b73ffffffffffffffffffffffffffffffffffffffff1614610646576040517f08c379a000000000000000000000000000000000000000000000000000000000815260040161063d90610d8e565b60405180910390fd5b565b60008060009054906101000a900473ffffffffffffffffffffffffffffffffffffffff169050816000806101000a81548173ffffffffffffffffffffffffffffffffffffffff021916908373ffffffffffffffffffffffffffffffffffffffff1602179055508173ffffffffffffffffffffffffffffffffffffffff168173ffffffffffffffffffffffffffffffffffffffff167f8be0079c531659141344cd1fd0a4f28419497f9722a3daafe3b4186f6b6457e060405160405180910390a35050565b600033905090565b600073ffffffffffffffffffffffffffffffffffffffff82169050919050565b600061073f82610714565b9050919050565b61074f81610734565b82525050565b600060208201905061076a6000830184610746565b92915050565b6000819050919050565b61078381610770565b82525050565b600060208201905061079e600083018461077a565b92915050565b600080fd5b6107b281610734565b81146107bd57600080fd5b50565b6000813590506107cf816107a9565b92915050565b6000602082840312156107eb576107ea6107a4565b5b60006107f9848285016107c0565b91505092915050565b600082825260208201905092915050565b7f4f706944657842616c616e636520686173206e6f7468696e6720746f2077697460008201527f6864726177000000000000000000000000000000000000000000000000000000602082015250565b600061086f602583610802565b915061087a82610813565b604082019050919050565b6000602082019050818103600083015261089e81610862565b9050919050565b600081905092915050565b50565b60006108c06000836108a5565b91506108cb826108b0565b600082019050919050565b60006108e1826108b3565b9150819050919050565b7f4661696c656420746f2077697468647261772100000000000000000000000000600082015250565b6000610921601383610802565b915061092c826108eb565b602082019050919050565b6000602082019050818103600083015261095081610914565b9050919050565b7f455448206e656564656420746f20627579204f50497300000000000000000000600082015250565b600061098d601683610802565b915061099882610957565b602082019050919050565b600060208201905081810360008301526109bc81610980565b9050919050565b7f4e487b7100000000000000000000000000000000000000000000000000000000600052601260045260246000fd5b7f4e487b7100000000000000000000000000000000000000000000000000000000600052601160045260246000fd5b6000610a2c82610770565b9150610a3783610770565b925082610a4757610a466109c3565b5b828204905092915050565b6000610a5d82610770565b9150610a6883610770565b9250828202610a7681610770565b91508282048414831517610a8d57610a8c6109f2565b5b5092915050565b610a9d81610770565b8114610aa857600080fd5b50565b600081519050610aba81610a94565b92915050565b600060208284031215610ad657610ad56107a4565b5b6000610ae484828501610aab565b91505092915050565b7f4e6f7420656e6f756768204f50497320696e2062616c616e6365206f66204f7060008201527f6944657800000000000000000000000000000000000000000000000000000000602082015250565b6000610b49602483610802565b9150610b5482610aed565b604082019050919050565b60006020820190508181036000830152610b7881610b3c565b9050919050565b6000604082019050610b946000830185610746565b610ba1602083018461077a565b9392505050565b60008115159050919050565b610bbd81610ba8565b8114610bc857600080fd5b50565b600081519050610bda81610bb4565b92915050565b600060208284031215610bf657610bf56107a4565b5b6000610c0484828501610bcb565b91505092915050565b7f4661696c656420746f207472616e73666572204f50497320746f207573657200600082015250565b6000610c43601f83610802565b9150610c4e82610c0d565b602082019050919050565b60006020820190508181036000830152610c7281610c36565b9050919050565b6000606082019050610c8e6000830186610746565b610c9b602083018561077a565b610ca8604083018461077a565b949350505050565b7f4f776e61626c653a206e6577206f776e657220697320746865207a65726f206160008201527f6464726573730000000000000000000000000000000000000000000000000000602082015250565b6000610d0c602683610802565b9150610d1782610cb0565b604082019050919050565b60006020820190508181036000830152610d3b81610cff565b9050919050565b7f4f776e61626c653a2063616c6c6572206973206e6f7420746865206f776e6572600082015250565b6000610d78602083610802565b9150610d8382610d42565b602082019050919050565b60006020820190508181036000830152610da781610d6b565b905091905056fea2646970667358221220c20b9b65a841ee0d562ebde40bbbee893920745874aba836b8154972e42b35f764736f6c63430008110033",
  "immutableReferences": {},
  "source": "// SPDX-License-Identifier: GPL-3.0\npragma solidity 0.8.17;\n\nimport \"../node_modules/@openzeppelin/contracts/access/Ownable.sol\";\nimport \"../node_modules/@openzeppelin/contracts/token/ERC20/IERC20.sol\";\n\n\ncontract OpiDex is Ownable {\n    IERC20 opi;\n    address public opiContractAddress;\n\n    //OPI price in ETH\n    uint256 public tokensPerEth = 50;\n\n    event OpiBuyed(\n        address _sounderAddress,\n        uint256 _amountOfETH,\n        uint256 _amountOfOPIs\n    );\n\n    constructor(address _opiAddress) {\n        opi = IERC20(_opiAddress);\n       \n    }\n\n    /**\n     * @notice Sounders users to buy token for ETH\n     */\n    function buyTokens() public payable returns (uint256 tokenAmount) {\n        require(msg.value > 0, \"ETH needed to buy OPIs\");\n\n        uint256 amountToBuy = ( msg.value/(1 ether) ) * tokensPerEth;\n\n        // check if the Vendor Contract has enough amount of tokens for the transaction\n        uint256 OpiDexBalance = opi.balanceOf(address(this));\n        require(OpiDexBalance >= amountToBuy, \"Not enough OPIs in balance of OpiDex\");\n\n        // Transfer token to the msg.sender\n       bool sent = opi.transfer(msg.sender, amountToBuy);\n        require(sent, \"Failed to transfer OPIs to user\");\n\n        // emit the event\n        emit OpiBuyed(msg.sender, msg.value, amountToBuy);\n\n        return amountToBuy;\n    }\n\n    /**\n     * @notice Allow the owner of the contract to withdraw ETH\n     */\n    function withdraw() public onlyOwner {\n        uint256 OpiDexBalance = address(this).balance;\n        require(OpiDexBalance > 0, \"OpiDexBalance has nothing to withdraw\");\n\n        (bool sent, ) = msg.sender.call{value: address(this).balance}(\"\");\n        require(sent, \"Failed to withdraw!\");\n    }\n}\n",
  "sourcePath": "/home/saadi/coursAlyra/OpiChain/truffle/contracts/OpiDex.sol",
  "compiler": {
    "name": "solc",
    "version": "0.8.17+commit.8df45f5f.Emscripten.clang"
  },
  "schemaVersion": "3.4.10",
  "updatedAt": "2022-12-09T11:24:37.881Z",
  "networkType": "ethereum",
  "devdoc": {
    "kind": "dev",
    "methods": {
      "owner()": {
        "details": "Returns the address of the current owner."
      },
      "renounceOwnership()": {
        "details": "Leaves the contract without owner. It will not be possible to call `onlyOwner` functions anymore. Can only be called by the current owner. NOTE: Renouncing ownership will leave the contract without an owner, thereby removing any functionality that is only available to the owner."
      },
      "transferOwnership(address)": {
        "details": "Transfers ownership of the contract to a new account (`newOwner`). Can only be called by the current owner."
      }
    },
    "version": 1
  },
  "userdoc": {
    "kind": "user",
    "methods": {
      "buyTokens()": {
        "notice": "Sounders users to buy token for ETH"
      },
      "withdraw()": {
        "notice": "Allow the owner of the contract to withdraw ETH"
      }
    },
    "version": 1
  }
}