{
  "contractName": "OpiSurveysMarketPlace",
  "abi": [
    {
      "inputs": [
        {
          "internalType": "address",
          "name": "_opiAddress",
          "type": "address"
        },
        {
          "internalType": "address",
          "name": "_surveyOpiNFTAddress",
          "type": "address"
        }
      ],
      "stateMutability": "nonpayable",
      "type": "constructor"
    },
    {
      "anonymous": false,
      "inputs": [
        {
          "indexed": true,
          "internalType": "address",
          "name": "previousOwner",
          "type": "address"
        },
        {
          "indexed": true,
          "internalType": "address",
          "name": "newOwner",
          "type": "address"
        }
      ],
      "name": "OwnershipTransferred",
      "type": "event"
    },
    {
      "anonymous": false,
      "inputs": [
        {
          "indexed": false,
          "internalType": "uint256",
          "name": "id",
          "type": "uint256"
        },
        {
          "indexed": false,
          "internalType": "address",
          "name": "seller",
          "type": "address"
        },
        {
          "indexed": false,
          "internalType": "address",
          "name": "owner",
          "type": "address"
        },
        {
          "indexed": false,
          "internalType": "uint256",
          "name": "price",
          "type": "uint256"
        }
      ],
      "name": "SurveyNFTListed",
      "type": "event"
    },
    {
      "anonymous": false,
      "inputs": [
        {
          "indexed": false,
          "internalType": "uint256",
          "name": "id",
          "type": "uint256"
        },
        {
          "indexed": false,
          "internalType": "address",
          "name": "seller",
          "type": "address"
        },
        {
          "indexed": false,
          "internalType": "address",
          "name": "owner",
          "type": "address"
        },
        {
          "indexed": false,
          "internalType": "uint256",
          "name": "price",
          "type": "uint256"
        }
      ],
      "name": "SurveyNFTSold",
      "type": "event"
    },
    {
      "inputs": [],
      "name": "LISTING_OPICHAIN_FEE",
      "outputs": [
        {
          "internalType": "uint256",
          "name": "",
          "type": "uint256"
        }
      ],
      "stateMutability": "view",
      "type": "function",
      "constant": true
    },
    {
      "inputs": [],
      "name": "opi",
      "outputs": [
        {
          "internalType": "contract IERC20",
          "name": "",
          "type": "address"
        }
      ],
      "stateMutability": "view",
      "type": "function",
      "constant": true
    },
    {
      "inputs": [],
      "name": "owner",
      "outputs": [
        {
          "internalType": "address",
          "name": "",
          "type": "address"
        }
      ],
      "stateMutability": "view",
      "type": "function",
      "constant": true
    },
    {
      "inputs": [],
      "name": "renounceOwnership",
      "outputs": [],
      "stateMutability": "nonpayable",
      "type": "function"
    },
    {
      "inputs": [],
      "name": "surveyOpiNFT",
      "outputs": [
        {
          "internalType": "contract IERC721",
          "name": "",
          "type": "address"
        }
      ],
      "stateMutability": "view",
      "type": "function",
      "constant": true
    },
    {
      "inputs": [
        {
          "internalType": "address",
          "name": "newOwner",
          "type": "address"
        }
      ],
      "name": "transferOwnership",
      "outputs": [],
      "stateMutability": "nonpayable",
      "type": "function"
    },
    {
      "inputs": [],
      "name": "getListingFee",
      "outputs": [
        {
          "internalType": "uint256",
          "name": "",
          "type": "uint256"
        }
      ],
      "stateMutability": "view",
      "type": "function",
      "constant": true
    },
    {
      "inputs": [],
      "name": "getListedSurveysNfts",
      "outputs": [
        {
          "components": [
            {
              "internalType": "uint256",
              "name": "id",
              "type": "uint256"
            },
            {
              "internalType": "address payable",
              "name": "seller",
              "type": "address"
            },
            {
              "internalType": "address payable",
              "name": "owner",
              "type": "address"
            },
            {
              "internalType": "uint256",
              "name": "price",
              "type": "uint256"
            },
            {
              "internalType": "bool",
              "name": "listed",
              "type": "bool"
            }
          ],
          "internalType": "struct OpiSurveysMarketPlace.SurveyNFT[]",
          "name": "",
          "type": "tuple[]"
        }
      ],
      "stateMutability": "view",
      "type": "function",
      "constant": true
    },
    {
      "inputs": [],
      "name": "getMySurveysNfts",
      "outputs": [
        {
          "components": [
            {
              "internalType": "uint256",
              "name": "id",
              "type": "uint256"
            },
            {
              "internalType": "address payable",
              "name": "seller",
              "type": "address"
            },
            {
              "internalType": "address payable",
              "name": "owner",
              "type": "address"
            },
            {
              "internalType": "uint256",
              "name": "price",
              "type": "uint256"
            },
            {
              "internalType": "bool",
              "name": "listed",
              "type": "bool"
            }
          ],
          "internalType": "struct OpiSurveysMarketPlace.SurveyNFT[]",
          "name": "",
          "type": "tuple[]"
        }
      ],
      "stateMutability": "view",
      "type": "function",
      "constant": true
    },
    {
      "inputs": [],
      "name": "getMyListedSurveysNfts",
      "outputs": [
        {
          "components": [
            {
              "internalType": "uint256",
              "name": "id",
              "type": "uint256"
            },
            {
              "internalType": "address payable",
              "name": "seller",
              "type": "address"
            },
            {
              "internalType": "address payable",
              "name": "owner",
              "type": "address"
            },
            {
              "internalType": "uint256",
              "name": "price",
              "type": "uint256"
            },
            {
              "internalType": "bool",
              "name": "listed",
              "type": "bool"
            }
          ],
          "internalType": "struct OpiSurveysMarketPlace.SurveyNFT[]",
          "name": "",
          "type": "tuple[]"
        }
      ],
      "stateMutability": "view",
      "type": "function",
      "constant": true
    },
    {
      "inputs": [
        {
          "internalType": "uint256",
          "name": "_tokenId",
          "type": "uint256"
        },
        {
          "internalType": "uint256",
          "name": "_price",
          "type": "uint256"
        }
      ],
      "name": "listSurveyNft",
      "outputs": [],
      "stateMutability": "payable",
      "type": "function",
      "payable": true
    },
    {
      "inputs": [
        {
          "internalType": "uint256",
          "name": "_tokenId",
          "type": "uint256"
        }
      ],
      "name": "buySurveyResultNft",
      "outputs": [],
      "stateMutability": "payable",
      "type": "function",
      "payable": true
    },
    {
      "inputs": [
        {
          "internalType": "uint256",
          "name": "_tokenId",
          "type": "uint256"
        },
        {
          "internalType": "uint256",
          "name": "_price",
          "type": "uint256"
        }
      ],
      "name": "resellSurveyResultNft",
      "outputs": [],
      "stateMutability": "payable",
      "type": "function",
      "payable": true
    }
  ],
  "bytecode": "0x6080604052655af3107a40006006553480156200001b57600080fd5b506040516200228c3803806200228c83398181016040528101906200004191906200022b565b6001600081905550620000696200005d620000f360201b60201c565b620000fb60201b60201c565b81600460006101000a81548173ffffffffffffffffffffffffffffffffffffffff021916908373ffffffffffffffffffffffffffffffffffffffff16021790555080600560006101000a81548173ffffffffffffffffffffffffffffffffffffffff021916908373ffffffffffffffffffffffffffffffffffffffff160217905550505062000272565b600033905090565b6000600160009054906101000a900473ffffffffffffffffffffffffffffffffffffffff16905081600160006101000a81548173ffffffffffffffffffffffffffffffffffffffff021916908373ffffffffffffffffffffffffffffffffffffffff1602179055508173ffffffffffffffffffffffffffffffffffffffff168173ffffffffffffffffffffffffffffffffffffffff167f8be0079c531659141344cd1fd0a4f28419497f9722a3daafe3b4186f6b6457e060405160405180910390a35050565b600080fd5b600073ffffffffffffffffffffffffffffffffffffffff82169050919050565b6000620001f382620001c6565b9050919050565b6200020581620001e6565b81146200021157600080fd5b50565b6000815190506200022581620001fa565b92915050565b60008060408385031215620002455762000244620001c1565b5b6000620002558582860162000214565b9250506020620002688582860162000214565b9150509250929050565b61200a80620002826000396000f3fe6080604052600436106100c25760003560e01c80638da5cb5b1161007f578063aae8d3ab11610059578063aae8d3ab14610218578063b8fe6abe14610234578063ca91b5d01461025f578063f2fde38b1461028a576100c2565b80638da5cb5b146101b55780639da169a3146101e0578063a8f52308146101fc576100c2565b80630b3e76df146100c75780632ecc2c91146100f25780633b1effbc1461011d5780634f45e41d14610148578063715018a6146101735780637fbbb2231461018a575b600080fd5b3480156100d357600080fd5b506100dc6102b3565b6040516100e9919061167f565b60405180910390f35b3480156100fe57600080fd5b506101076102d9565b60405161011491906116bb565b60405180910390f35b34801561012957600080fd5b506101326102ff565b60405161013f9190611842565b60405180910390f35b34801561015457600080fd5b5061015d610511565b60405161016a9190611873565b60405180910390f35b34801561017f57600080fd5b50610188610517565b005b34801561019657600080fd5b5061019f61052b565b6040516101ac9190611842565b60405180910390f35b3480156101c157600080fd5b506101ca61087a565b6040516101d791906118af565b60405180910390f35b6101fa60048036038101906101f591906118fb565b6108a4565b005b6102166004803603810190610211919061193b565b610b46565b005b610232600480360381019061022d91906118fb565b610ddd565b005b34801561024057600080fd5b50610249611014565b6040516102569190611873565b60405180910390f35b34801561026b57600080fd5b5061027461101e565b6040516102819190611842565b60405180910390f35b34801561029657600080fd5b506102b160048036038101906102ac9190611994565b6112fb565b005b600460009054906101000a900473ffffffffffffffffffffffffffffffffffffffff1681565b600560009054906101000a900473ffffffffffffffffffffffffffffffffffffffff1681565b6060600061030d600361137e565b9050600061031b600261137e565b8261032691906119f0565b905060008167ffffffffffffffff81111561034457610343611a24565b5b60405190808252806020026020018201604052801561037d57816020015b61036a6115a3565b8152602001906001900390816103625790505b5090506000805b84811015610506576007600060018361039d9190611a53565b815260200190815260200160002060040160009054906101000a900460ff16156104f357600760006001836103d29190611a53565b81526020019081526020016000206040518060a0016040529081600082015481526020016001820160009054906101000a900473ffffffffffffffffffffffffffffffffffffffff1673ffffffffffffffffffffffffffffffffffffffff1673ffffffffffffffffffffffffffffffffffffffff1681526020016002820160009054906101000a900473ffffffffffffffffffffffffffffffffffffffff1673ffffffffffffffffffffffffffffffffffffffff1673ffffffffffffffffffffffffffffffffffffffff168152602001600382015481526020016004820160009054906101000a900460ff1615151515815250508383815181106104d9576104d8611a87565b5b602002602001018190525081806104ef90611ab6565b9250505b80806104fe90611ab6565b915050610384565b508194505050505090565b60065481565b61051f61138c565b610529600061140a565b565b60606000610539600361137e565b90506000805b82811015610617573373ffffffffffffffffffffffffffffffffffffffff166007600060018461056f9190611a53565b815260200190815260200160002060010160009054906101000a900473ffffffffffffffffffffffffffffffffffffffff1673ffffffffffffffffffffffffffffffffffffffff161480156105f05750600760006001836105d09190611a53565b815260200190815260200160002060040160009054906101000a900460ff165b1561060457818061060090611ab6565b9250505b808061060f90611ab6565b91505061053f565b5060008167ffffffffffffffff81111561063457610633611a24565b5b60405190808252806020026020018201604052801561066d57816020015b61065a6115a3565b8152602001906001900390816106525790505b5090506000805b8481101561086f573373ffffffffffffffffffffffffffffffffffffffff16600760006001846106a49190611a53565b815260200190815260200160002060010160009054906101000a900473ffffffffffffffffffffffffffffffffffffffff1673ffffffffffffffffffffffffffffffffffffffff161480156107255750600760006001836107059190611a53565b815260200190815260200160002060040160009054906101000a900460ff165b1561085c576007600060018361073b9190611a53565b81526020019081526020016000206040518060a0016040529081600082015481526020016001820160009054906101000a900473ffffffffffffffffffffffffffffffffffffffff1673ffffffffffffffffffffffffffffffffffffffff1673ffffffffffffffffffffffffffffffffffffffff1681526020016002820160009054906101000a900473ffffffffffffffffffffffffffffffffffffffff1673ffffffffffffffffffffffffffffffffffffffff1673ffffffffffffffffffffffffffffffffffffffff168152602001600382015481526020016004820160009054906101000a900460ff16151515158152505083838151811061084257610841611a87565b5b6020026020010181905250818061085890611ab6565b9250505b808061086790611ab6565b915050610674565b508194505050505090565b6000600160009054906101000a900473ffffffffffffffffffffffffffffffffffffffff16905090565b6108ac6114d0565b600081116108ef576040517f08c379a00000000000000000000000000000000000000000000000000000000081526004016108e690611b5b565b60405180910390fd5b600654341015610934576040517f08c379a000000000000000000000000000000000000000000000000000000000815260040161092b90611bc7565b60405180910390fd5b600560009054906101000a900473ffffffffffffffffffffffffffffffffffffffff1673ffffffffffffffffffffffffffffffffffffffff166323b872dd3330856040518463ffffffff1660e01b815260040161099393929190611be7565b600060405180830381600087803b1580156109ad57600080fd5b505af11580156109c1573d6000803e3d6000fd5b505050506109cf600361151f565b6040518060a001604052808381526020013373ffffffffffffffffffffffffffffffffffffffff1681526020013073ffffffffffffffffffffffffffffffffffffffff16815260200182815260200160011515815250600760008481526020019081526020016000206000820151816000015560208201518160010160006101000a81548173ffffffffffffffffffffffffffffffffffffffff021916908373ffffffffffffffffffffffffffffffffffffffff16021790555060408201518160020160006101000a81548173ffffffffffffffffffffffffffffffffffffffff021916908373ffffffffffffffffffffffffffffffffffffffff1602179055506060820151816003015560808201518160040160006101000a81548160ff0219169083151502179055509050507f55c8ac550c281bab10a3dc1912b073cbba82e5303a59be89890978b4a8ead0df82333084604051610b329493929190611c1e565b60405180910390a1610b42611535565b5050565b610b4e6114d0565b60006007600083815260200190815260200160002090508060030154341015610bac576040517f08c379a0000000000000000000000000000000000000000000000000000000008152600401610ba390611cd5565b60405180910390fd5b60003390508160010160009054906101000a900473ffffffffffffffffffffffffffffffffffffffff1673ffffffffffffffffffffffffffffffffffffffff166108fc349081150290604051600060405180830381858888f19350505050158015610c1b573d6000803e3d6000fd5b50600560009054906101000a900473ffffffffffffffffffffffffffffffffffffffff1673ffffffffffffffffffffffffffffffffffffffff166323b872dd308385600001546040518463ffffffff1660e01b8152600401610c7f93929190611d16565b600060405180830381600087803b158015610c9957600080fd5b505af1158015610cad573d6000803e3d6000fd5b50505050610cb961087a565b73ffffffffffffffffffffffffffffffffffffffff166108fc6006549081150290604051600060405180830381858888f19350505050158015610d00573d6000803e3d6000fd5b50808260020160006101000a81548173ffffffffffffffffffffffffffffffffffffffff021916908373ffffffffffffffffffffffffffffffffffffffff16021790555060008260040160006101000a81548160ff021916908315150217905550610d6b600261151f565b7fd435bc3581d0654ae2e9428e8c11eac158d169af26836aad65620bfe215e741c82600001548360010160009054906101000a900473ffffffffffffffffffffffffffffffffffffffff168334604051610dc89493929190611d4d565b60405180910390a15050610dda611535565b50565b610de56114d0565b60008111610e28576040517f08c379a0000000000000000000000000000000000000000000000000000000008152600401610e1f90611dde565b60405180910390fd5b6006543414610e6c576040517f08c379a0000000000000000000000000000000000000000000000000000000008152600401610e6390611bc7565b60405180910390fd5b600560009054906101000a900473ffffffffffffffffffffffffffffffffffffffff1673ffffffffffffffffffffffffffffffffffffffff166323b872dd3330856040518463ffffffff1660e01b8152600401610ecb93929190611be7565b600060405180830381600087803b158015610ee557600080fd5b505af1158015610ef9573d6000803e3d6000fd5b505050506000600760008481526020019081526020016000209050338160010160006101000a81548173ffffffffffffffffffffffffffffffffffffffff021916908373ffffffffffffffffffffffffffffffffffffffff160217905550308160020160006101000a81548173ffffffffffffffffffffffffffffffffffffffff021916908373ffffffffffffffffffffffffffffffffffffffff16021790555060018160040160006101000a81548160ff021916908315150217905550818160030181905550610fca600261153f565b7f55c8ac550c281bab10a3dc1912b073cbba82e5303a59be89890978b4a8ead0df83333085604051610fff9493929190611c1e565b60405180910390a150611010611535565b5050565b6000600654905090565b6060600061102c600361137e565b90506000805b828110156110d1573373ffffffffffffffffffffffffffffffffffffffff16600760006001846110629190611a53565b815260200190815260200160002060020160009054906101000a900473ffffffffffffffffffffffffffffffffffffffff1673ffffffffffffffffffffffffffffffffffffffff16036110be5781806110ba90611ab6565b9250505b80806110c990611ab6565b915050611032565b5060008167ffffffffffffffff8111156110ee576110ed611a24565b5b60405190808252806020026020018201604052801561112757816020015b6111146115a3565b81526020019060019003908161110c5790505b5090506000805b848110156112f0573373ffffffffffffffffffffffffffffffffffffffff166007600060018461115e9190611a53565b815260200190815260200160002060020160009054906101000a900473ffffffffffffffffffffffffffffffffffffffff1673ffffffffffffffffffffffffffffffffffffffff16036112dd57600760006001836111bc9190611a53565b81526020019081526020016000206040518060a0016040529081600082015481526020016001820160009054906101000a900473ffffffffffffffffffffffffffffffffffffffff1673ffffffffffffffffffffffffffffffffffffffff1673ffffffffffffffffffffffffffffffffffffffff1681526020016002820160009054906101000a900473ffffffffffffffffffffffffffffffffffffffff1673ffffffffffffffffffffffffffffffffffffffff1673ffffffffffffffffffffffffffffffffffffffff168152602001600382015481526020016004820160009054906101000a900460ff1615151515815250508383815181106112c3576112c2611a87565b5b602002602001018190525081806112d990611ab6565b9250505b80806112e890611ab6565b91505061112e565b508194505050505090565b61130361138c565b600073ffffffffffffffffffffffffffffffffffffffff168173ffffffffffffffffffffffffffffffffffffffff1603611372576040517f08c379a000000000000000000000000000000000000000000000000000000000815260040161136990611e70565b60405180910390fd5b61137b8161140a565b50565b600081600001549050919050565b61139461159b565b73ffffffffffffffffffffffffffffffffffffffff166113b261087a565b73ffffffffffffffffffffffffffffffffffffffff1614611408576040517f08c379a00000000000000000000000000000000000000000000000000000000081526004016113ff90611edc565b60405180910390fd5b565b6000600160009054906101000a900473ffffffffffffffffffffffffffffffffffffffff16905081600160006101000a81548173ffffffffffffffffffffffffffffffffffffffff021916908373ffffffffffffffffffffffffffffffffffffffff1602179055508173ffffffffffffffffffffffffffffffffffffffff168173ffffffffffffffffffffffffffffffffffffffff167f8be0079c531659141344cd1fd0a4f28419497f9722a3daafe3b4186f6b6457e060405160405180910390a35050565b600260005403611515576040517f08c379a000000000000000000000000000000000000000000000000000000000815260040161150c90611f48565b60405180910390fd5b6002600081905550565b6001816000016000828254019250508190555050565b6001600081905550565b6000816000015490506000811161158b576040517f08c379a000000000000000000000000000000000000000000000000000000000815260040161158290611fb4565b60405180910390fd5b6001810382600001819055505050565b600033905090565b6040518060a0016040528060008152602001600073ffffffffffffffffffffffffffffffffffffffff168152602001600073ffffffffffffffffffffffffffffffffffffffff168152602001600081526020016000151581525090565b600073ffffffffffffffffffffffffffffffffffffffff82169050919050565b6000819050919050565b600061164561164061163b84611600565b611620565b611600565b9050919050565b60006116578261162a565b9050919050565b60006116698261164c565b9050919050565b6116798161165e565b82525050565b60006020820190506116946000830184611670565b92915050565b60006116a58261164c565b9050919050565b6116b58161169a565b82525050565b60006020820190506116d060008301846116ac565b92915050565b600081519050919050565b600082825260208201905092915050565b6000819050602082019050919050565b6000819050919050565b61171581611702565b82525050565b600061172682611600565b9050919050565b6117368161171b565b82525050565b60008115159050919050565b6117518161173c565b82525050565b60a08201600082015161176d600085018261170c565b506020820151611780602085018261172d565b506040820151611793604085018261172d565b5060608201516117a6606085018261170c565b5060808201516117b96080850182611748565b50505050565b60006117cb8383611757565b60a08301905092915050565b6000602082019050919050565b60006117ef826116d6565b6117f981856116e1565b9350611804836116f2565b8060005b8381101561183557815161181c88826117bf565b9750611827836117d7565b925050600181019050611808565b5085935050505092915050565b6000602082019050818103600083015261185c81846117e4565b905092915050565b61186d81611702565b82525050565b60006020820190506118886000830184611864565b92915050565b600061189982611600565b9050919050565b6118a98161188e565b82525050565b60006020820190506118c460008301846118a0565b92915050565b600080fd5b6118d881611702565b81146118e357600080fd5b50565b6000813590506118f5816118cf565b92915050565b60008060408385031215611912576119116118ca565b5b6000611920858286016118e6565b9250506020611931858286016118e6565b9150509250929050565b600060208284031215611951576119506118ca565b5b600061195f848285016118e6565b91505092915050565b6119718161188e565b811461197c57600080fd5b50565b60008135905061198e81611968565b92915050565b6000602082840312156119aa576119a96118ca565b5b60006119b88482850161197f565b91505092915050565b7f4e487b7100000000000000000000000000000000000000000000000000000000600052601160045260246000fd5b60006119fb82611702565b9150611a0683611702565b9250828203905081811115611a1e57611a1d6119c1565b5b92915050565b7f4e487b7100000000000000000000000000000000000000000000000000000000600052604160045260246000fd5b6000611a5e82611702565b9150611a6983611702565b9250828201905080821115611a8157611a806119c1565b5b92915050565b7f4e487b7100000000000000000000000000000000000000000000000000000000600052603260045260246000fd5b6000611ac182611702565b91507fffffffffffffffffffffffffffffffffffffffffffffffffffffffffffffffff8203611af357611af26119c1565b5b600182019050919050565b600082825260208201905092915050565b7f5072696365206d757374206265206174206c656173742031206f706900000000600082015250565b6000611b45601c83611afe565b9150611b5082611b0f565b602082019050919050565b60006020820190508181036000830152611b7481611b38565b9050919050565b7f4e6f7420656e6f75676820657468657220666f72206c697374696e6720666565600082015250565b6000611bb1602083611afe565b9150611bbc82611b7b565b602082019050919050565b60006020820190508181036000830152611be081611ba4565b9050919050565b6000606082019050611bfc60008301866118a0565b611c0960208301856118a0565b611c166040830184611864565b949350505050565b6000608082019050611c336000830187611864565b611c4060208301866118a0565b611c4d60408301856118a0565b611c5a6060830184611864565b95945050505050565b7f4e6f7420656e6f75676820657468657220746f20636f7665722061736b696e6760008201527f2070726963650000000000000000000000000000000000000000000000000000602082015250565b6000611cbf602683611afe565b9150611cca82611c63565b604082019050919050565b60006020820190508181036000830152611cee81611cb2565b9050919050565b6000611d008261164c565b9050919050565b611d1081611cf5565b82525050565b6000606082019050611d2b60008301866118a0565b611d386020830185611d07565b611d456040830184611864565b949350505050565b6000608082019050611d626000830187611864565b611d6f6020830186611d07565b611d7c6040830185611d07565b611d896060830184611864565b95945050505050565b7f5072696365206d757374206265206174206c6561737420312077656900000000600082015250565b6000611dc8601c83611afe565b9150611dd382611d92565b602082019050919050565b60006020820190508181036000830152611df781611dbb565b9050919050565b7f4f776e61626c653a206e6577206f776e657220697320746865207a65726f206160008201527f6464726573730000000000000000000000000000000000000000000000000000602082015250565b6000611e5a602683611afe565b9150611e6582611dfe565b604082019050919050565b60006020820190508181036000830152611e8981611e4d565b9050919050565b7f4f776e61626c653a2063616c6c6572206973206e6f7420746865206f776e6572600082015250565b6000611ec6602083611afe565b9150611ed182611e90565b602082019050919050565b60006020820190508181036000830152611ef581611eb9565b9050919050565b7f5265656e7472616e637947756172643a207265656e7472616e742063616c6c00600082015250565b6000611f32601f83611afe565b9150611f3d82611efc565b602082019050919050565b60006020820190508181036000830152611f6181611f25565b9050919050565b7f436f756e7465723a2064656372656d656e74206f766572666c6f770000000000600082015250565b6000611f9e601b83611afe565b9150611fa982611f68565b602082019050919050565b60006020820190508181036000830152611fcd81611f91565b905091905056fea2646970667358221220da314943e7e51237cf8cdd3ade42b7dc63eceb088f802515356de778fc7b6b4e64736f6c63430008110033",
  "immutableReferences": {},
  "source": "// SPDX-License-Identifier: GPL-3.0\npragma solidity 0.8.17;\n\nimport \"../node_modules/@openzeppelin/contracts/utils/Counters.sol\";\nimport \"../node_modules/@openzeppelin/contracts/token/ERC721/ERC721.sol\";\nimport \"../node_modules/@openzeppelin/contracts/token/ERC20/ERC20.sol\";\nimport \"../node_modules/@openzeppelin/contracts/security/ReentrancyGuard.sol\";\nimport \"../node_modules/@openzeppelin/contracts/access/Ownable.sol\";\n\ncontract OpiSurveysMarketPlace is ReentrancyGuard, Ownable {\n    using Counters for Counters.Counter;\n\n    Counters.Counter private _nftsSurveySold;\n    Counters.Counter private _nftSurveyCount;\n\n    IERC20 public opi;\n    IERC721 public surveyOpiNFT;\n\n    uint256 public LISTING_OPICHAIN_FEE = 0.0001 ether; // we keep ether as fees to have a stable fee\n\n    mapping(uint256 => SurveyNFT) private _idToNFT; //Keep trace of listed NFT, actual owner and seller\n\n    struct SurveyNFT {\n        uint256 id;\n        address payable seller;\n        address payable owner;\n        uint256 price;\n        bool listed;\n    }\n    event SurveyNFTListed(\n        uint256 id,\n        address seller,\n        address owner, //current owner of contract\n        uint256 price\n    );\n    event SurveyNFTSold(\n        uint256 id,\n        address seller,\n        address owner,\n        uint256 price\n    );\n\n    constructor(address _opiAddress, address _surveyOpiNFTAddress) {\n     \n         opi = IERC20(_opiAddress);\n        surveyOpiNFT = IERC721(_surveyOpiNFTAddress);\n    }\n\n    // ::::::::::::: MODIFIERS ::::::::::::: //\n\n    // ::::::::::::: GETTERS ::::::::::::: //\n    function getListingFee() public view returns (uint256) {\n        return LISTING_OPICHAIN_FEE;\n    }\n\n    function getListedSurveysNfts() public view returns (SurveyNFT[] memory) {\n        uint256 nftCount = _nftSurveyCount.current();\n        uint256 unsoldNftsCount = nftCount - _nftsSurveySold.current();\n\n        SurveyNFT[] memory ListedSurveysNfts = new SurveyNFT[](unsoldNftsCount);\n        uint256 nftsIndex = 0;\n        for (uint256 i = 0; i < nftCount; i++) {\n            if (_idToNFT[i + 1].listed) {\n                ListedSurveysNfts[nftsIndex] = _idToNFT[i + 1];\n                nftsIndex++;\n            }\n        }\n        return ListedSurveysNfts;\n    }\n\n    function getMySurveysNfts() public view returns (SurveyNFT[] memory) {\n        uint256 nftCount = _nftSurveyCount.current();\n        uint256 myNftCount = 0;\n        for (uint256 i = 0; i < nftCount; i++) {\n            if (_idToNFT[i + 1].owner == msg.sender) {\n                myNftCount++;\n            }\n        }\n\n        SurveyNFT[] memory MyNftsSurvey = new SurveyNFT[](myNftCount);\n        uint256 nftsIndex = 0;\n        for (uint256 i = 0; i < nftCount; i++) {\n            if (_idToNFT[i + 1].owner == msg.sender) {\n                MyNftsSurvey[nftsIndex] = _idToNFT[i + 1];\n                nftsIndex++;\n            }\n        }\n        return MyNftsSurvey;\n    }\n\n    function getMyListedSurveysNfts() public view returns (SurveyNFT[] memory) {\n        uint256 nftCount = _nftSurveyCount.current();\n        uint256 myListedNftCount = 0;\n        for (uint256 i = 0; i < nftCount; i++) {\n            if (\n                _idToNFT[i + 1].seller == msg.sender && _idToNFT[i + 1].listed\n            ) {\n                myListedNftCount++;\n            }\n        }\n\n        SurveyNFT[] memory nfts = new SurveyNFT[](myListedNftCount);\n        uint256 nftsIndex = 0;\n        for (uint256 i = 0; i < nftCount; i++) {\n            if (\n                _idToNFT[i + 1].seller == msg.sender && _idToNFT[i + 1].listed\n            ) {\n                nfts[nftsIndex] = _idToNFT[i + 1];\n                nftsIndex++;\n            }\n        }\n        return nfts;\n    }\n\n    // ::::::::::::: MARKETPLACE MANAGEMENT ::::::::::::: //\n\n    // List the NFT on the marketplace\n    function listSurveyNft(uint256 _tokenId, uint256 _price)\n        public\n        payable\n        nonReentrant\n    {\n        require(_price > 0, \"Price must be at least 1 opi\");\n        require(\n            msg.value >= LISTING_OPICHAIN_FEE,\n            \"Not enough ether for listing fee\"\n        );\n        //require tokenid est au statut Terminated!\n\n        surveyOpiNFT.transferFrom(msg.sender, address(this), _tokenId);\n\n        _nftSurveyCount.increment();\n\n        _idToNFT[_tokenId] = SurveyNFT(\n            _tokenId,\n            payable(msg.sender),\n            payable(address(this)),\n            _price,\n            true\n        );\n\n        emit SurveyNFTListed(_tokenId, msg.sender, address(this), _price);\n    }\n\n    // Buy a Survey result\n    function buySurveyResultNft(uint256 _tokenId) //address _nftContract, \n        public\n        payable\n        nonReentrant\n    {\n        SurveyNFT storage nft = _idToNFT[_tokenId];\n        require(\n            msg.value >= nft.price,\n            \"Not enough ether to cover asking price\"\n        );\n\n        address payable buyer = payable(msg.sender);\n        payable(nft.seller).transfer(msg.value);\n        surveyOpiNFT.transferFrom(address(this), buyer, nft.id);\n        payable(owner()).transfer(LISTING_OPICHAIN_FEE);\n        nft.owner = buyer;\n        nft.listed = false;\n\n        _nftsSurveySold.increment();\n        emit SurveyNFTSold(nft.id, nft.seller, buyer, msg.value);\n    }\n\n    // Resell the Survey results\n    function resellSurveyResultNft(\n       // address _nftContract,\n        uint256 _tokenId,\n        uint256 _price\n    ) public payable nonReentrant {\n        require(_price > 0, \"Price must be at least 1 wei\");\n        require(\n            msg.value == LISTING_OPICHAIN_FEE,\n            \"Not enough ether for listing fee\"\n        );\n\n        surveyOpiNFT.transferFrom(msg.sender, address(this), _tokenId);\n\n        SurveyNFT storage nft = _idToNFT[_tokenId];\n        nft.seller = payable(msg.sender);\n        nft.owner = payable(address(this));\n        nft.listed = true;\n        nft.price = _price;\n\n        _nftsSurveySold.decrement();\n        emit SurveyNFTListed(_tokenId, msg.sender, address(this), _price);\n    }\n}\n",
  "sourcePath": "/home/saadi/coursAlyra/OpiChain/truffle/contracts/OpiSurveysMarketPlace.sol",
  "compiler": {
    "name": "solc",
    "version": "0.8.17+commit.8df45f5f.Emscripten.clang"
  },
  "schemaVersion": "3.4.10",
  "updatedAt": "2022-12-12T01:07:15.275Z",
  "networkType": "ethereum",
  "devdoc": {
    "kind": "dev",
    "methods": {
      "owner()": {
        "details": "Returns the address of the current owner."
      },
      "renounceOwnership()": {
        "details": "Leaves the contract without owner. It will not be possible to call `onlyOwner` functions anymore. Can only be called by the current owner. NOTE: Renouncing ownership will leave the contract without an owner, thereby removing any functionality that is only available to the owner."
      },
      "transferOwnership(address)": {
        "details": "Transfers ownership of the contract to a new account (`newOwner`). Can only be called by the current owner."
      }
    },
    "version": 1
  },
  "userdoc": {
    "kind": "user",
    "methods": {},
    "version": 1
  }
}