{
  "contractName": "OpiSurveysMarketPlace",
  "abi": [
    {
      "inputs": [
        {
          "internalType": "address",
          "name": "_opiAddress",
          "type": "address"
        },
        {
          "internalType": "address",
          "name": "_surveyOpiNFTAddress",
          "type": "address"
        }
      ],
      "stateMutability": "nonpayable",
      "type": "constructor"
    },
    {
      "anonymous": false,
      "inputs": [
        {
          "indexed": true,
          "internalType": "address",
          "name": "previousOwner",
          "type": "address"
        },
        {
          "indexed": true,
          "internalType": "address",
          "name": "newOwner",
          "type": "address"
        }
      ],
      "name": "OwnershipTransferred",
      "type": "event"
    },
    {
      "anonymous": false,
      "inputs": [
        {
          "indexed": false,
          "internalType": "uint256",
          "name": "id",
          "type": "uint256"
        },
        {
          "indexed": false,
          "internalType": "address",
          "name": "seller",
          "type": "address"
        },
        {
          "indexed": false,
          "internalType": "address",
          "name": "owner",
          "type": "address"
        },
        {
          "indexed": false,
          "internalType": "uint256",
          "name": "price",
          "type": "uint256"
        }
      ],
      "name": "SurveyNFTListed",
      "type": "event"
    },
    {
      "anonymous": false,
      "inputs": [
        {
          "indexed": false,
          "internalType": "uint256",
          "name": "id",
          "type": "uint256"
        },
        {
          "indexed": false,
          "internalType": "address",
          "name": "seller",
          "type": "address"
        },
        {
          "indexed": false,
          "internalType": "address",
          "name": "owner",
          "type": "address"
        },
        {
          "indexed": false,
          "internalType": "uint256",
          "name": "price",
          "type": "uint256"
        }
      ],
      "name": "SurveyNFTSold",
      "type": "event"
    },
    {
      "inputs": [],
      "name": "LISTING_OPICHAIN_FEE",
      "outputs": [
        {
          "internalType": "uint256",
          "name": "",
          "type": "uint256"
        }
      ],
      "stateMutability": "view",
      "type": "function",
      "constant": true
    },
    {
      "inputs": [],
      "name": "opi",
      "outputs": [
        {
          "internalType": "contract IERC20",
          "name": "",
          "type": "address"
        }
      ],
      "stateMutability": "view",
      "type": "function",
      "constant": true
    },
    {
      "inputs": [],
      "name": "owner",
      "outputs": [
        {
          "internalType": "address",
          "name": "",
          "type": "address"
        }
      ],
      "stateMutability": "view",
      "type": "function",
      "constant": true
    },
    {
      "inputs": [],
      "name": "renounceOwnership",
      "outputs": [],
      "stateMutability": "nonpayable",
      "type": "function"
    },
    {
      "inputs": [],
      "name": "surveyOpiNFT",
      "outputs": [
        {
          "internalType": "contract IERC721",
          "name": "",
          "type": "address"
        }
      ],
      "stateMutability": "view",
      "type": "function",
      "constant": true
    },
    {
      "inputs": [
        {
          "internalType": "address",
          "name": "newOwner",
          "type": "address"
        }
      ],
      "name": "transferOwnership",
      "outputs": [],
      "stateMutability": "nonpayable",
      "type": "function"
    },
    {
      "inputs": [],
      "name": "getListingFee",
      "outputs": [
        {
          "internalType": "uint256",
          "name": "",
          "type": "uint256"
        }
      ],
      "stateMutability": "view",
      "type": "function",
      "constant": true
    },
    {
      "inputs": [],
      "name": "getListedSurveysNfts",
      "outputs": [
        {
          "components": [
            {
              "internalType": "uint256",
              "name": "id",
              "type": "uint256"
            },
            {
              "internalType": "address payable",
              "name": "seller",
              "type": "address"
            },
            {
              "internalType": "address payable",
              "name": "owner",
              "type": "address"
            },
            {
              "internalType": "uint256",
              "name": "price",
              "type": "uint256"
            },
            {
              "internalType": "bool",
              "name": "listed",
              "type": "bool"
            }
          ],
          "internalType": "struct OpiSurveysMarketPlace.SurveyNFT[]",
          "name": "",
          "type": "tuple[]"
        }
      ],
      "stateMutability": "view",
      "type": "function",
      "constant": true
    },
    {
      "inputs": [],
      "name": "getMySurveysNfts",
      "outputs": [
        {
          "components": [
            {
              "internalType": "uint256",
              "name": "id",
              "type": "uint256"
            },
            {
              "internalType": "address payable",
              "name": "seller",
              "type": "address"
            },
            {
              "internalType": "address payable",
              "name": "owner",
              "type": "address"
            },
            {
              "internalType": "uint256",
              "name": "price",
              "type": "uint256"
            },
            {
              "internalType": "bool",
              "name": "listed",
              "type": "bool"
            }
          ],
          "internalType": "struct OpiSurveysMarketPlace.SurveyNFT[]",
          "name": "",
          "type": "tuple[]"
        }
      ],
      "stateMutability": "view",
      "type": "function",
      "constant": true
    },
    {
      "inputs": [],
      "name": "getMyListedSurveysNfts",
      "outputs": [
        {
          "components": [
            {
              "internalType": "uint256",
              "name": "id",
              "type": "uint256"
            },
            {
              "internalType": "address payable",
              "name": "seller",
              "type": "address"
            },
            {
              "internalType": "address payable",
              "name": "owner",
              "type": "address"
            },
            {
              "internalType": "uint256",
              "name": "price",
              "type": "uint256"
            },
            {
              "internalType": "bool",
              "name": "listed",
              "type": "bool"
            }
          ],
          "internalType": "struct OpiSurveysMarketPlace.SurveyNFT[]",
          "name": "",
          "type": "tuple[]"
        }
      ],
      "stateMutability": "view",
      "type": "function",
      "constant": true
    },
    {
      "inputs": [
        {
          "internalType": "uint256",
          "name": "_tokenId",
          "type": "uint256"
        },
        {
          "internalType": "uint256",
          "name": "_price",
          "type": "uint256"
        }
      ],
      "name": "listSurveyNft",
      "outputs": [],
      "stateMutability": "payable",
      "type": "function",
      "payable": true
    },
    {
      "inputs": [
        {
          "internalType": "uint256",
          "name": "_tokenId",
          "type": "uint256"
        }
      ],
      "name": "buySurveyResultNft",
      "outputs": [],
      "stateMutability": "payable",
      "type": "function",
      "payable": true
    },
    {
      "inputs": [
        {
          "internalType": "uint256",
          "name": "_tokenId",
          "type": "uint256"
        },
        {
          "internalType": "uint256",
          "name": "_price",
          "type": "uint256"
        }
      ],
      "name": "resellSurveyResultNft",
      "outputs": [],
      "stateMutability": "payable",
      "type": "function",
      "payable": true
    }
  ],
  "bytecode": "0x6080604052655af3107a40006006553480156200001b57600080fd5b50604051620021fb380380620021fb83398181016040528101906200004191906200022b565b6001600081905550620000696200005d620000f360201b60201c565b620000fb60201b60201c565b81600460006101000a81548173ffffffffffffffffffffffffffffffffffffffff021916908373ffffffffffffffffffffffffffffffffffffffff16021790555080600560006101000a81548173ffffffffffffffffffffffffffffffffffffffff021916908373ffffffffffffffffffffffffffffffffffffffff160217905550505062000272565b600033905090565b6000600160009054906101000a900473ffffffffffffffffffffffffffffffffffffffff16905081600160006101000a81548173ffffffffffffffffffffffffffffffffffffffff021916908373ffffffffffffffffffffffffffffffffffffffff1602179055508173ffffffffffffffffffffffffffffffffffffffff168173ffffffffffffffffffffffffffffffffffffffff167f8be0079c531659141344cd1fd0a4f28419497f9722a3daafe3b4186f6b6457e060405160405180910390a35050565b600080fd5b600073ffffffffffffffffffffffffffffffffffffffff82169050919050565b6000620001f382620001c6565b9050919050565b6200020581620001e6565b81146200021157600080fd5b50565b6000815190506200022581620001fa565b92915050565b60008060408385031215620002455762000244620001c1565b5b6000620002558582860162000214565b9250506020620002688582860162000214565b9150509250929050565b611f7980620002826000396000f3fe6080604052600436106100c25760003560e01c80638da5cb5b1161007f578063aae8d3ab11610059578063aae8d3ab14610218578063b8fe6abe14610234578063ca91b5d01461025f578063f2fde38b1461028a576100c2565b80638da5cb5b146101b55780639da169a3146101e0578063a8f52308146101fc576100c2565b80630b3e76df146100c75780632ecc2c91146100f25780633b1effbc1461011d5780634f45e41d14610148578063715018a6146101735780637fbbb2231461018a575b600080fd5b3480156100d357600080fd5b506100dc6102b3565b6040516100e991906115ee565b60405180910390f35b3480156100fe57600080fd5b506101076102d9565b604051610114919061162a565b60405180910390f35b34801561012957600080fd5b506101326102ff565b60405161013f91906117b1565b60405180910390f35b34801561015457600080fd5b5061015d610511565b60405161016a91906117e2565b60405180910390f35b34801561017f57600080fd5b50610188610517565b005b34801561019657600080fd5b5061019f61052b565b6040516101ac91906117b1565b60405180910390f35b3480156101c157600080fd5b506101ca61087a565b6040516101d7919061181e565b60405180910390f35b6101fa60048036038101906101f5919061186a565b6108a4565b005b610216600480360381019061021191906118aa565b610ab5565b005b610232600480360381019061022d919061186a565b610d4c565b005b34801561024057600080fd5b50610249610f83565b60405161025691906117e2565b60405180910390f35b34801561026b57600080fd5b50610274610f8d565b60405161028191906117b1565b60405180910390f35b34801561029657600080fd5b506102b160048036038101906102ac9190611903565b61126a565b005b600460009054906101000a900473ffffffffffffffffffffffffffffffffffffffff1681565b600560009054906101000a900473ffffffffffffffffffffffffffffffffffffffff1681565b6060600061030d60036112ed565b9050600061031b60026112ed565b82610326919061195f565b905060008167ffffffffffffffff81111561034457610343611993565b5b60405190808252806020026020018201604052801561037d57816020015b61036a611512565b8152602001906001900390816103625790505b5090506000805b84811015610506576007600060018361039d91906119c2565b815260200190815260200160002060040160009054906101000a900460ff16156104f357600760006001836103d291906119c2565b81526020019081526020016000206040518060a0016040529081600082015481526020016001820160009054906101000a900473ffffffffffffffffffffffffffffffffffffffff1673ffffffffffffffffffffffffffffffffffffffff1673ffffffffffffffffffffffffffffffffffffffff1681526020016002820160009054906101000a900473ffffffffffffffffffffffffffffffffffffffff1673ffffffffffffffffffffffffffffffffffffffff1673ffffffffffffffffffffffffffffffffffffffff168152602001600382015481526020016004820160009054906101000a900460ff1615151515815250508383815181106104d9576104d86119f6565b5b602002602001018190525081806104ef90611a25565b9250505b80806104fe90611a25565b915050610384565b508194505050505090565b60065481565b61051f6112fb565b6105296000611379565b565b6060600061053960036112ed565b90506000805b82811015610617573373ffffffffffffffffffffffffffffffffffffffff166007600060018461056f91906119c2565b815260200190815260200160002060010160009054906101000a900473ffffffffffffffffffffffffffffffffffffffff1673ffffffffffffffffffffffffffffffffffffffff161480156105f05750600760006001836105d091906119c2565b815260200190815260200160002060040160009054906101000a900460ff165b1561060457818061060090611a25565b9250505b808061060f90611a25565b91505061053f565b5060008167ffffffffffffffff81111561063457610633611993565b5b60405190808252806020026020018201604052801561066d57816020015b61065a611512565b8152602001906001900390816106525790505b5090506000805b8481101561086f573373ffffffffffffffffffffffffffffffffffffffff16600760006001846106a491906119c2565b815260200190815260200160002060010160009054906101000a900473ffffffffffffffffffffffffffffffffffffffff1673ffffffffffffffffffffffffffffffffffffffff1614801561072557506007600060018361070591906119c2565b815260200190815260200160002060040160009054906101000a900460ff165b1561085c576007600060018361073b91906119c2565b81526020019081526020016000206040518060a0016040529081600082015481526020016001820160009054906101000a900473ffffffffffffffffffffffffffffffffffffffff1673ffffffffffffffffffffffffffffffffffffffff1673ffffffffffffffffffffffffffffffffffffffff1681526020016002820160009054906101000a900473ffffffffffffffffffffffffffffffffffffffff1673ffffffffffffffffffffffffffffffffffffffff1673ffffffffffffffffffffffffffffffffffffffff168152602001600382015481526020016004820160009054906101000a900460ff161515151581525050838381518110610842576108416119f6565b5b6020026020010181905250818061085890611a25565b9250505b808061086790611a25565b915050610674565b508194505050505090565b6000600160009054906101000a900473ffffffffffffffffffffffffffffffffffffffff16905090565b6108ac61143f565b600081116108ef576040517f08c379a00000000000000000000000000000000000000000000000000000000081526004016108e690611aca565b60405180910390fd5b600654341015610934576040517f08c379a000000000000000000000000000000000000000000000000000000000815260040161092b90611b36565b60405180910390fd5b61093e600361148e565b6040518060a001604052808381526020013373ffffffffffffffffffffffffffffffffffffffff1681526020013073ffffffffffffffffffffffffffffffffffffffff16815260200182815260200160011515815250600760008481526020019081526020016000206000820151816000015560208201518160010160006101000a81548173ffffffffffffffffffffffffffffffffffffffff021916908373ffffffffffffffffffffffffffffffffffffffff16021790555060408201518160020160006101000a81548173ffffffffffffffffffffffffffffffffffffffff021916908373ffffffffffffffffffffffffffffffffffffffff1602179055506060820151816003015560808201518160040160006101000a81548160ff0219169083151502179055509050507f55c8ac550c281bab10a3dc1912b073cbba82e5303a59be89890978b4a8ead0df82333084604051610aa19493929190611b56565b60405180910390a1610ab16114a4565b5050565b610abd61143f565b60006007600083815260200190815260200160002090508060030154341015610b1b576040517f08c379a0000000000000000000000000000000000000000000000000000000008152600401610b1290611c0d565b60405180910390fd5b60003390508160010160009054906101000a900473ffffffffffffffffffffffffffffffffffffffff1673ffffffffffffffffffffffffffffffffffffffff166108fc349081150290604051600060405180830381858888f19350505050158015610b8a573d6000803e3d6000fd5b50600560009054906101000a900473ffffffffffffffffffffffffffffffffffffffff1673ffffffffffffffffffffffffffffffffffffffff166323b872dd308385600001546040518463ffffffff1660e01b8152600401610bee93929190611c4e565b600060405180830381600087803b158015610c0857600080fd5b505af1158015610c1c573d6000803e3d6000fd5b50505050610c2861087a565b73ffffffffffffffffffffffffffffffffffffffff166108fc6006549081150290604051600060405180830381858888f19350505050158015610c6f573d6000803e3d6000fd5b50808260020160006101000a81548173ffffffffffffffffffffffffffffffffffffffff021916908373ffffffffffffffffffffffffffffffffffffffff16021790555060008260040160006101000a81548160ff021916908315150217905550610cda600261148e565b7fd435bc3581d0654ae2e9428e8c11eac158d169af26836aad65620bfe215e741c82600001548360010160009054906101000a900473ffffffffffffffffffffffffffffffffffffffff168334604051610d379493929190611c85565b60405180910390a15050610d496114a4565b50565b610d5461143f565b60008111610d97576040517f08c379a0000000000000000000000000000000000000000000000000000000008152600401610d8e90611d16565b60405180910390fd5b6006543414610ddb576040517f08c379a0000000000000000000000000000000000000000000000000000000008152600401610dd290611b36565b60405180910390fd5b600560009054906101000a900473ffffffffffffffffffffffffffffffffffffffff1673ffffffffffffffffffffffffffffffffffffffff166323b872dd3330856040518463ffffffff1660e01b8152600401610e3a93929190611d36565b600060405180830381600087803b158015610e5457600080fd5b505af1158015610e68573d6000803e3d6000fd5b505050506000600760008481526020019081526020016000209050338160010160006101000a81548173ffffffffffffffffffffffffffffffffffffffff021916908373ffffffffffffffffffffffffffffffffffffffff160217905550308160020160006101000a81548173ffffffffffffffffffffffffffffffffffffffff021916908373ffffffffffffffffffffffffffffffffffffffff16021790555060018160040160006101000a81548160ff021916908315150217905550818160030181905550610f3960026114ae565b7f55c8ac550c281bab10a3dc1912b073cbba82e5303a59be89890978b4a8ead0df83333085604051610f6e9493929190611b56565b60405180910390a150610f7f6114a4565b5050565b6000600654905090565b60606000610f9b60036112ed565b90506000805b82811015611040573373ffffffffffffffffffffffffffffffffffffffff1660076000600184610fd191906119c2565b815260200190815260200160002060020160009054906101000a900473ffffffffffffffffffffffffffffffffffffffff1673ffffffffffffffffffffffffffffffffffffffff160361102d57818061102990611a25565b9250505b808061103890611a25565b915050610fa1565b5060008167ffffffffffffffff81111561105d5761105c611993565b5b60405190808252806020026020018201604052801561109657816020015b611083611512565b81526020019060019003908161107b5790505b5090506000805b8481101561125f573373ffffffffffffffffffffffffffffffffffffffff16600760006001846110cd91906119c2565b815260200190815260200160002060020160009054906101000a900473ffffffffffffffffffffffffffffffffffffffff1673ffffffffffffffffffffffffffffffffffffffff160361124c576007600060018361112b91906119c2565b81526020019081526020016000206040518060a0016040529081600082015481526020016001820160009054906101000a900473ffffffffffffffffffffffffffffffffffffffff1673ffffffffffffffffffffffffffffffffffffffff1673ffffffffffffffffffffffffffffffffffffffff1681526020016002820160009054906101000a900473ffffffffffffffffffffffffffffffffffffffff1673ffffffffffffffffffffffffffffffffffffffff1673ffffffffffffffffffffffffffffffffffffffff168152602001600382015481526020016004820160009054906101000a900460ff161515151581525050838381518110611232576112316119f6565b5b6020026020010181905250818061124890611a25565b9250505b808061125790611a25565b91505061109d565b508194505050505090565b6112726112fb565b600073ffffffffffffffffffffffffffffffffffffffff168173ffffffffffffffffffffffffffffffffffffffff16036112e1576040517f08c379a00000000000000000000000000000000000000000000000000000000081526004016112d890611ddf565b60405180910390fd5b6112ea81611379565b50565b600081600001549050919050565b61130361150a565b73ffffffffffffffffffffffffffffffffffffffff1661132161087a565b73ffffffffffffffffffffffffffffffffffffffff1614611377576040517f08c379a000000000000000000000000000000000000000000000000000000000815260040161136e90611e4b565b60405180910390fd5b565b6000600160009054906101000a900473ffffffffffffffffffffffffffffffffffffffff16905081600160006101000a81548173ffffffffffffffffffffffffffffffffffffffff021916908373ffffffffffffffffffffffffffffffffffffffff1602179055508173ffffffffffffffffffffffffffffffffffffffff168173ffffffffffffffffffffffffffffffffffffffff167f8be0079c531659141344cd1fd0a4f28419497f9722a3daafe3b4186f6b6457e060405160405180910390a35050565b600260005403611484576040517f08c379a000000000000000000000000000000000000000000000000000000000815260040161147b90611eb7565b60405180910390fd5b6002600081905550565b6001816000016000828254019250508190555050565b6001600081905550565b600081600001549050600081116114fa576040517f08c379a00000000000000000000000000000000000000000000000000000000081526004016114f190611f23565b60405180910390fd5b6001810382600001819055505050565b600033905090565b6040518060a0016040528060008152602001600073ffffffffffffffffffffffffffffffffffffffff168152602001600073ffffffffffffffffffffffffffffffffffffffff168152602001600081526020016000151581525090565b600073ffffffffffffffffffffffffffffffffffffffff82169050919050565b6000819050919050565b60006115b46115af6115aa8461156f565b61158f565b61156f565b9050919050565b60006115c682611599565b9050919050565b60006115d8826115bb565b9050919050565b6115e8816115cd565b82525050565b600060208201905061160360008301846115df565b92915050565b6000611614826115bb565b9050919050565b61162481611609565b82525050565b600060208201905061163f600083018461161b565b92915050565b600081519050919050565b600082825260208201905092915050565b6000819050602082019050919050565b6000819050919050565b61168481611671565b82525050565b60006116958261156f565b9050919050565b6116a58161168a565b82525050565b60008115159050919050565b6116c0816116ab565b82525050565b60a0820160008201516116dc600085018261167b565b5060208201516116ef602085018261169c565b506040820151611702604085018261169c565b506060820151611715606085018261167b565b50608082015161172860808501826116b7565b50505050565b600061173a83836116c6565b60a08301905092915050565b6000602082019050919050565b600061175e82611645565b6117688185611650565b935061177383611661565b8060005b838110156117a457815161178b888261172e565b975061179683611746565b925050600181019050611777565b5085935050505092915050565b600060208201905081810360008301526117cb8184611753565b905092915050565b6117dc81611671565b82525050565b60006020820190506117f760008301846117d3565b92915050565b60006118088261156f565b9050919050565b611818816117fd565b82525050565b6000602082019050611833600083018461180f565b92915050565b600080fd5b61184781611671565b811461185257600080fd5b50565b6000813590506118648161183e565b92915050565b6000806040838503121561188157611880611839565b5b600061188f85828601611855565b92505060206118a085828601611855565b9150509250929050565b6000602082840312156118c0576118bf611839565b5b60006118ce84828501611855565b91505092915050565b6118e0816117fd565b81146118eb57600080fd5b50565b6000813590506118fd816118d7565b92915050565b60006020828403121561191957611918611839565b5b6000611927848285016118ee565b91505092915050565b7f4e487b7100000000000000000000000000000000000000000000000000000000600052601160045260246000fd5b600061196a82611671565b915061197583611671565b925082820390508181111561198d5761198c611930565b5b92915050565b7f4e487b7100000000000000000000000000000000000000000000000000000000600052604160045260246000fd5b60006119cd82611671565b91506119d883611671565b92508282019050808211156119f0576119ef611930565b5b92915050565b7f4e487b7100000000000000000000000000000000000000000000000000000000600052603260045260246000fd5b6000611a3082611671565b91507fffffffffffffffffffffffffffffffffffffffffffffffffffffffffffffffff8203611a6257611a61611930565b5b600182019050919050565b600082825260208201905092915050565b7f5072696365206d757374206265206174206c656173742031206f706900000000600082015250565b6000611ab4601c83611a6d565b9150611abf82611a7e565b602082019050919050565b60006020820190508181036000830152611ae381611aa7565b9050919050565b7f4e6f7420656e6f75676820657468657220666f72206c697374696e6720666565600082015250565b6000611b20602083611a6d565b9150611b2b82611aea565b602082019050919050565b60006020820190508181036000830152611b4f81611b13565b9050919050565b6000608082019050611b6b60008301876117d3565b611b78602083018661180f565b611b85604083018561180f565b611b9260608301846117d3565b95945050505050565b7f4e6f7420656e6f75676820657468657220746f20636f7665722061736b696e6760008201527f2070726963650000000000000000000000000000000000000000000000000000602082015250565b6000611bf7602683611a6d565b9150611c0282611b9b565b604082019050919050565b60006020820190508181036000830152611c2681611bea565b9050919050565b6000611c38826115bb565b9050919050565b611c4881611c2d565b82525050565b6000606082019050611c63600083018661180f565b611c706020830185611c3f565b611c7d60408301846117d3565b949350505050565b6000608082019050611c9a60008301876117d3565b611ca76020830186611c3f565b611cb46040830185611c3f565b611cc160608301846117d3565b95945050505050565b7f5072696365206d757374206265206174206c6561737420312077656900000000600082015250565b6000611d00601c83611a6d565b9150611d0b82611cca565b602082019050919050565b60006020820190508181036000830152611d2f81611cf3565b9050919050565b6000606082019050611d4b600083018661180f565b611d58602083018561180f565b611d6560408301846117d3565b949350505050565b7f4f776e61626c653a206e6577206f776e657220697320746865207a65726f206160008201527f6464726573730000000000000000000000000000000000000000000000000000602082015250565b6000611dc9602683611a6d565b9150611dd482611d6d565b604082019050919050565b60006020820190508181036000830152611df881611dbc565b9050919050565b7f4f776e61626c653a2063616c6c6572206973206e6f7420746865206f776e6572600082015250565b6000611e35602083611a6d565b9150611e4082611dff565b602082019050919050565b60006020820190508181036000830152611e6481611e28565b9050919050565b7f5265656e7472616e637947756172643a207265656e7472616e742063616c6c00600082015250565b6000611ea1601f83611a6d565b9150611eac82611e6b565b602082019050919050565b60006020820190508181036000830152611ed081611e94565b9050919050565b7f436f756e7465723a2064656372656d656e74206f766572666c6f770000000000600082015250565b6000611f0d601b83611a6d565b9150611f1882611ed7565b602082019050919050565b60006020820190508181036000830152611f3c81611f00565b905091905056fea2646970667358221220cf00081f58986908459d99e83d34bee8e6fe64ee9e1bb0a5ccdbacb036a619e164736f6c63430008110033",
  "immutableReferences": {},
  "source": "// SPDX-License-Identifier: GPL-3.0\npragma solidity 0.8.17;\n\nimport \"../node_modules/@openzeppelin/contracts/utils/Counters.sol\";\nimport \"../node_modules/@openzeppelin/contracts/token/ERC721/ERC721.sol\";\nimport \"../node_modules/@openzeppelin/contracts/token/ERC20/ERC20.sol\";\nimport \"../node_modules/@openzeppelin/contracts/security/ReentrancyGuard.sol\";\nimport \"../node_modules/@openzeppelin/contracts/access/Ownable.sol\";\n\n\n/// @title  OpiSurveysMarketPlace\n/// @author Saad Igueninni\n/// @notice Marketplace for NFT surveys results\n/// @dev Inherits the OpenZepplin ReentrancyGuard Ownable contracts\n\ncontract OpiSurveysMarketPlace is ReentrancyGuard, Ownable {\n    using Counters for Counters.Counter;\n\n    Counters.Counter private _nftsSurveySold;\n    Counters.Counter private _nftSurveyCount;\n\n    IERC20 public opi;\n    IERC721 public surveyOpiNFT;\n\n    uint256 public LISTING_OPICHAIN_FEE = 0.0001 ether; // we keep ether as fees to have a stable fee\n\n    mapping(uint256 => SurveyNFT) private _idToNFT; //Keep trace of listed NFT, actual owner and seller\n\n    struct SurveyNFT {\n        uint256 id;\n        address payable seller;\n        address payable owner;\n        uint256 price;\n        bool listed;\n    }\n    event SurveyNFTListed(\n        uint256 id,\n        address seller,\n        address owner, //current owner of contract\n        uint256 price\n    );\n    event SurveyNFTSold(\n        uint256 id,\n        address seller,\n        address owner,\n        uint256 price\n    );\n\n    constructor(address _opiAddress, address _surveyOpiNFTAddress) {\n     \n         opi = IERC20(_opiAddress);\n        surveyOpiNFT = IERC721(_surveyOpiNFTAddress);\n    }\n\n    // ::::::::::::: MODIFIERS ::::::::::::: //\n\n    // ::::::::::::: GETTERS ::::::::::::: //\n    function getListingFee() public view returns (uint256) {\n        return LISTING_OPICHAIN_FEE;\n    }\n\n    function getListedSurveysNfts() public view returns (SurveyNFT[] memory) {\n        uint256 nftCount = _nftSurveyCount.current();\n        uint256 unsoldNftsCount = nftCount - _nftsSurveySold.current();\n\n        SurveyNFT[] memory ListedSurveysNfts = new SurveyNFT[](unsoldNftsCount);\n        uint256 nftsIndex = 0;\n        for (uint256 i = 0; i < nftCount; i++) {\n            if (_idToNFT[i + 1].listed) {\n                ListedSurveysNfts[nftsIndex] = _idToNFT[i + 1];\n                nftsIndex++;\n            }\n        }\n        return ListedSurveysNfts;\n    }\n\n    function getMySurveysNfts() public view returns (SurveyNFT[] memory) {\n        uint256 nftCount = _nftSurveyCount.current();\n        uint256 myNftCount = 0;\n        for (uint256 i = 0; i < nftCount; i++) {\n            if (_idToNFT[i + 1].owner == msg.sender) {\n                myNftCount++;\n            }\n        }\n\n        SurveyNFT[] memory MyNftsSurvey = new SurveyNFT[](myNftCount);\n        uint256 nftsIndex = 0;\n        for (uint256 i = 0; i < nftCount; i++) {\n            if (_idToNFT[i + 1].owner == msg.sender) {\n                MyNftsSurvey[nftsIndex] = _idToNFT[i + 1];\n                nftsIndex++;\n            }\n        }\n        return MyNftsSurvey;\n    }\n\n    function getMyListedSurveysNfts() public view returns (SurveyNFT[] memory) {\n        uint256 nftCount = _nftSurveyCount.current();\n        uint256 myListedNftCount = 0;\n        for (uint256 i = 0; i < nftCount; i++) {\n            if (\n                _idToNFT[i + 1].seller == msg.sender && _idToNFT[i + 1].listed\n            ) {\n                myListedNftCount++;\n            }\n        }\n\n        SurveyNFT[] memory nfts = new SurveyNFT[](myListedNftCount);\n        uint256 nftsIndex = 0;\n        for (uint256 i = 0; i < nftCount; i++) {\n            if (\n                _idToNFT[i + 1].seller == msg.sender && _idToNFT[i + 1].listed\n            ) {\n                nfts[nftsIndex] = _idToNFT[i + 1];\n                nftsIndex++;\n            }\n        }\n        return nfts;\n    }\n\n    // ::::::::::::: MARKETPLACE MANAGEMENT ::::::::::::: //\n\n    // List the NFT on the marketplace\n    function listSurveyNft(uint256 _tokenId, uint256 _price)\n        public\n        payable\n        nonReentrant\n    {\n        require(_price > 0, \"Price must be at least 1 opi\");\n        require(\n            msg.value >= LISTING_OPICHAIN_FEE,\n            \"Not enough ether for listing fee\"\n        );\n        //require tokenid est au statut Terminated!\n       // surveyOpiNFT.transferFrom(msg.sender, address(this), _tokenId); \n       //We choose to  mint to Marketplace from the beginning because we have 2 NFTs, \n       //one represnting the Survey and One for results of Survey if to be listed\n\n        _nftSurveyCount.increment();\n\n        _idToNFT[_tokenId] = SurveyNFT(\n            _tokenId,\n            payable(msg.sender),\n            payable(address(this)),\n            _price,\n            true\n        );\n\n        emit SurveyNFTListed(_tokenId, msg.sender, address(this), _price);\n    }\n\n    // Buy a Survey result\n    function buySurveyResultNft(uint256 _tokenId) //address _nftContract, \n        public\n        payable\n        nonReentrant\n    {\n        SurveyNFT storage nft = _idToNFT[_tokenId];\n        require(\n            msg.value >= nft.price,\n            \"Not enough ether to cover asking price\"\n        );\n\n        address payable buyer = payable(msg.sender);\n        payable(nft.seller).transfer(msg.value);\n        surveyOpiNFT.transferFrom(address(this), buyer, nft.id);\n        payable(owner()).transfer(LISTING_OPICHAIN_FEE);\n        nft.owner = buyer;\n        nft.listed = false;\n\n        _nftsSurveySold.increment();\n        emit SurveyNFTSold(nft.id, nft.seller, buyer, msg.value);\n    }\n\n    // Resell the Survey results\n    function resellSurveyResultNft(\n       // address _nftContract,\n        uint256 _tokenId,\n        uint256 _price\n    ) public payable nonReentrant {\n        require(_price > 0, \"Price must be at least 1 wei\");\n        require(\n            msg.value == LISTING_OPICHAIN_FEE,\n            \"Not enough ether for listing fee\"\n        );\n\n        surveyOpiNFT.transferFrom(msg.sender, address(this), _tokenId);\n\n        SurveyNFT storage nft = _idToNFT[_tokenId];\n        nft.seller = payable(msg.sender);\n        nft.owner = payable(address(this));\n        nft.listed = true;\n        nft.price = _price;\n\n        _nftsSurveySold.decrement();\n        emit SurveyNFTListed(_tokenId, msg.sender, address(this), _price);\n    }\n}\n",
  "sourcePath": "/home/saadi/coursAlyra/OpiChain/truffle/contracts/OpiSurveysMarketPlace.sol",
  "compiler": {
    "name": "solc",
    "version": "0.8.17+commit.8df45f5f.Emscripten.clang"
  },
  "schemaVersion": "3.4.10",
  "updatedAt": "2022-12-12T16:49:04.941Z",
  "networkType": "ethereum",
  "devdoc": {
    "author": "Saad Igueninni",
    "details": "Inherits the OpenZepplin ReentrancyGuard Ownable contracts",
    "kind": "dev",
    "methods": {
      "owner()": {
        "details": "Returns the address of the current owner."
      },
      "renounceOwnership()": {
        "details": "Leaves the contract without owner. It will not be possible to call `onlyOwner` functions anymore. Can only be called by the current owner. NOTE: Renouncing ownership will leave the contract without an owner, thereby removing any functionality that is only available to the owner."
      },
      "transferOwnership(address)": {
        "details": "Transfers ownership of the contract to a new account (`newOwner`). Can only be called by the current owner."
      }
    },
    "title": "OpiSurveysMarketPlace",
    "version": 1
  },
  "userdoc": {
    "kind": "user",
    "methods": {},
    "notice": "Marketplace for NFT surveys results",
    "version": 1
  }
}